{"contracts/PRCC_Vesting.sol":{"PRCC_Vesting":{"abi":[{"inputs":[{"internalType":"address","name":"beneficiary","type":"address"},{"internalType":"uint64","name":"startTimestamp","type":"uint64"},{"internalType":"uint64","name":"durationSeconds","type":"uint64"},{"internalType":"string","name":"username","type":"string"}],"stateMutability":"nonpayable","type":"constructor"},{"inputs":[],"name":"FailedCall","type":"error"},{"inputs":[{"internalType":"uint256","name":"balance","type":"uint256"},{"internalType":"uint256","name":"needed","type":"uint256"}],"name":"InsufficientBalance","type":"error"},{"inputs":[{"internalType":"address","name":"owner","type":"address"}],"name":"OwnableInvalidOwner","type":"error"},{"inputs":[{"internalType":"address","name":"account","type":"address"}],"name":"OwnableUnauthorizedAccount","type":"error"},{"inputs":[{"internalType":"address","name":"token","type":"address"}],"name":"SafeERC20FailedOperation","type":"error"},{"anonymous":false,"inputs":[{"indexed":true,"internalType":"address","name":"token","type":"address"},{"indexed":false,"internalType":"uint256","name":"amount","type":"uint256"}],"name":"ERC20Released","type":"event"},{"anonymous":false,"inputs":[{"indexed":false,"internalType":"uint256","name":"amount","type":"uint256"}],"name":"EtherReleased","type":"event"},{"anonymous":false,"inputs":[{"indexed":true,"internalType":"address","name":"previousOwner","type":"address"},{"indexed":true,"internalType":"address","name":"newOwner","type":"address"}],"name":"OwnershipTransferred","type":"event"},{"inputs":[{"internalType":"string","name":"dateTime","type":"string"}],"name":"dateTimeToTimestamp","outputs":[{"internalType":"uint64","name":"","type":"uint64"}],"stateMutability":"view","type":"function"},{"inputs":[],"name":"duration","outputs":[{"internalType":"uint256","name":"","type":"uint256"}],"stateMutability":"view","type":"function"},{"inputs":[],"name":"end","outputs":[{"internalType":"uint256","name":"","type":"uint256"}],"stateMutability":"view","type":"function"},{"inputs":[],"name":"endDateTime","outputs":[{"internalType":"string","name":"","type":"string"}],"stateMutability":"view","type":"function"},{"inputs":[],"name":"getUsername","outputs":[{"internalType":"string","name":"","type":"string"}],"stateMutability":"view","type":"function"},{"inputs":[],"name":"owner","outputs":[{"internalType":"address","name":"","type":"address"}],"stateMutability":"view","type":"function"},{"inputs":[{"internalType":"address","name":"token","type":"address"}],"name":"releasable","outputs":[{"internalType":"uint256","name":"","type":"uint256"}],"stateMutability":"view","type":"function"},{"inputs":[],"name":"releasable","outputs":[{"internalType":"uint256","name":"","type":"uint256"}],"stateMutability":"view","type":"function"},{"inputs":[{"internalType":"address","name":"token","type":"address"}],"name":"release","outputs":[],"stateMutability":"nonpayable","type":"function"},{"inputs":[],"name":"release","outputs":[],"stateMutability":"nonpayable","type":"function"},{"inputs":[],"name":"released","outputs":[{"internalType":"uint256","name":"","type":"uint256"}],"stateMutability":"view","type":"function"},{"inputs":[{"internalType":"address","name":"token","type":"address"}],"name":"released","outputs":[{"internalType":"uint256","name":"","type":"uint256"}],"stateMutability":"view","type":"function"},{"inputs":[],"name":"renounceOwnership","outputs":[],"stateMutability":"nonpayable","type":"function"},{"inputs":[],"name":"start","outputs":[{"internalType":"uint256","name":"","type":"uint256"}],"stateMutability":"view","type":"function"},{"inputs":[],"name":"startDateTime","outputs":[{"internalType":"string","name":"","type":"string"}],"stateMutability":"view","type":"function"},{"inputs":[{"internalType":"address","name":"newOwner","type":"address"}],"name":"transferOwnership","outputs":[],"stateMutability":"nonpayable","type":"function"},{"inputs":[{"internalType":"uint64","name":"timestamp","type":"uint64"}],"name":"vestedAmount","outputs":[{"internalType":"uint256","name":"","type":"uint256"}],"stateMutability":"view","type":"function"},{"inputs":[{"internalType":"address","name":"token","type":"address"},{"internalType":"uint64","name":"timestamp","type":"uint64"}],"name":"vestedAmount","outputs":[{"internalType":"uint256","name":"","type":"uint256"}],"stateMutability":"view","type":"function"},{"inputs":[{"internalType":"address","name":"token","type":"address"},{"internalType":"string","name":"dateTime","type":"string"}],"name":"vestedAmountWithDateTime","outputs":[{"internalType":"string","name":"","type":"string"}],"stateMutability":"view","type":"function"},{"stateMutability":"payable","type":"receive"}],"devdoc":{"errors":{"FailedCall()":[{"details":"A call to an address target failed. The target may have reverted."}],"InsufficientBalance(uint256,uint256)":[{"details":"The ETH balance of the account is not enough to perform the operation."}],"OwnableInvalidOwner(address)":[{"details":"The owner is not a valid owner account. (eg. `address(0)`)"}],"OwnableUnauthorizedAccount(address)":[{"details":"The caller account is not authorized to perform an operation."}],"SafeERC20FailedOperation(address)":[{"details":"An operation with an ERC-20 token failed."}]},"kind":"dev","methods":{"duration()":{"details":"Getter for the vesting duration."},"end()":{"details":"Getter for the end timestamp."},"owner()":{"details":"Returns the address of the current owner."},"releasable()":{"details":"Getter for the amount of releasable eth."},"releasable(address)":{"details":"Getter for the amount of releasable `token` tokens. `token` should be the address of an {IERC20} contract."},"release()":{"details":"Release the native token (ether) that have already vested. Emits a {EtherReleased} event."},"release(address)":{"details":"Release the tokens that have already vested. Emits a {ERC20Released} event."},"released()":{"details":"Amount of eth already released"},"released(address)":{"details":"Amount of token already released"},"renounceOwnership()":{"details":"Leaves the contract without owner. It will not be possible to call `onlyOwner` functions. Can only be called by the current owner. NOTE: Renouncing ownership will leave the contract without an owner, thereby disabling any functionality that is only available to the owner."},"start()":{"details":"Getter for the start timestamp."},"transferOwnership(address)":{"details":"Transfers ownership of the contract to a new account (`newOwner`). Can only be called by the current owner."},"vestedAmount(address,uint64)":{"details":"Calculates the amount of tokens that has already vested. Default implementation is a linear vesting curve."},"vestedAmount(uint64)":{"details":"Calculates the amount of ether that has already vested. Default implementation is a linear vesting curve."}},"version":1},"evm":{"assembly":"    /* \"contracts/PRCC_Vesting.sol\":140129:146085  contract PRCC_Vesting is VestingWallet {... */\n  mstore(0x40, 0xc0)\n    /* \"contracts/PRCC_Vesting.sol\":140198:140402  constructor(address beneficiary, uint64 startTimestamp, uint64 durationSeconds,string memory username)... */\n  callvalue\n  dup1\n  iszero\n  tag_1\n  jumpi\n  0x00\n  dup1\n  revert\ntag_1:\n  pop\n  mload(0x40)\n  sub(codesize, bytecodeSize)\n  dup1\n  bytecodeSize\n  dup4\n  codecopy\n  dup2\n  dup2\n  add\n  0x40\n  mstore\n  dup2\n  add\n  swap1\n  tag_2\n  swap2\n  swap1\n  tag_3\n  jump\t// in\ntag_2:\n    /* \"contracts/PRCC_Vesting.sol\":140319:140330  beneficiary */\n  dup4\n    /* \"contracts/PRCC_Vesting.sol\":140331:140345  startTimestamp */\n  dup4\n    /* \"contracts/PRCC_Vesting.sol\":140346:140361  durationSeconds */\n  dup4\n    /* \"contracts/PRCC_Vesting.sol\":32506:32517  beneficiary */\n  dup3\n    /* \"contracts/PRCC_Vesting.sol\":2401:2402  0 */\n  0x00\n    /* \"contracts/PRCC_Vesting.sol\":2377:2403  initialOwner == address(0) */\n  0xffffffffffffffffffffffffffffffffffffffff\n  and\n    /* \"contracts/PRCC_Vesting.sol\":2377:2389  initialOwner */\n  dup2\n    /* \"contracts/PRCC_Vesting.sol\":2377:2403  initialOwner == address(0) */\n  0xffffffffffffffffffffffffffffffffffffffff\n  and\n  sub\n    /* \"contracts/PRCC_Vesting.sol\":2373:2468  if (initialOwner == address(0)) {... */\n  tag_8\n  jumpi\n    /* \"contracts/PRCC_Vesting.sol\":2454:2455  0 */\n  0x00\n    /* \"contracts/PRCC_Vesting.sol\":2426:2457  OwnableInvalidOwner(address(0)) */\n  mload(0x40)\n  0x1e4fbdf700000000000000000000000000000000000000000000000000000000\n  dup2\n  mstore\n  0x04\n  add\n  tag_9\n  swap2\n  swap1\n  tag_10\n  jump\t// in\ntag_9:\n  mload(0x40)\n  dup1\n  swap2\n  sub\n  swap1\n  revert\n    /* \"contracts/PRCC_Vesting.sol\":2373:2468  if (initialOwner == address(0)) {... */\ntag_8:\n    /* \"contracts/PRCC_Vesting.sol\":2477:2509  _transferOwnership(initialOwner) */\n  tag_11\n    /* \"contracts/PRCC_Vesting.sol\":2496:2508  initialOwner */\n  dup2\n    /* \"contracts/PRCC_Vesting.sol\":2477:2495  _transferOwnership */\n  shl(0x20, tag_12)\n    /* \"contracts/PRCC_Vesting.sol\":2477:2509  _transferOwnership(initialOwner) */\n  0x20\n  shr\n  jump\t// in\ntag_11:\n    /* \"contracts/PRCC_Vesting.sol\":2329:2516  constructor(address initialOwner) {... */\n  pop\n    /* \"contracts/PRCC_Vesting.sol\":32538:32552  startTimestamp */\n  dup2\n    /* \"contracts/PRCC_Vesting.sol\":32529:32552  _start = startTimestamp */\n  0xffffffffffffffff\n  and\n  0x80\n  dup2\n  0xffffffffffffffff\n  and\n  dup2\n  mstore\n  pop\n  pop\n    /* \"contracts/PRCC_Vesting.sol\":32574:32589  durationSeconds */\n  dup1\n    /* \"contracts/PRCC_Vesting.sol\":32562:32589  _duration = durationSeconds */\n  0xffffffffffffffff\n  and\n  0xa0\n  dup2\n  0xffffffffffffffff\n  and\n  dup2\n  mstore\n  pop\n  pop\n    /* \"contracts/PRCC_Vesting.sol\":32410:32596  constructor(address beneficiary, uint64 startTimestamp, uint64 durationSeconds) payable Ownable(beneficiary) {... */\n  pop\n  pop\n  pop\n    /* \"contracts/PRCC_Vesting.sol\":140387:140395  username */\n  dup1\n    /* \"contracts/PRCC_Vesting.sol\":140377:140386  _username */\n  0x03\n    /* \"contracts/PRCC_Vesting.sol\":140377:140395  _username=username */\n  swap1\n  dup2\n  tag_15\n  swap2\n  swap1\n  tag_16\n  jump\t// in\ntag_15:\n  pop\n    /* \"contracts/PRCC_Vesting.sol\":140198:140402  constructor(address beneficiary, uint64 startTimestamp, uint64 durationSeconds,string memory username)... */\n  pop\n  pop\n  pop\n  pop\n    /* \"contracts/PRCC_Vesting.sol\":140129:146085  contract PRCC_Vesting is VestingWallet {... */\n  jump(tag_17)\n    /* \"contracts/PRCC_Vesting.sol\":4016:4203  function _transferOwnership(address newOwner) internal virtual {... */\ntag_12:\n    /* \"contracts/PRCC_Vesting.sol\":4089:4105  address oldOwner */\n  0x00\n    /* \"contracts/PRCC_Vesting.sol\":4108:4114  _owner */\n  dup1\n  0x00\n  swap1\n  sload\n  swap1\n  0x0100\n  exp\n  swap1\n  div\n  0xffffffffffffffffffffffffffffffffffffffff\n  and\n    /* \"contracts/PRCC_Vesting.sol\":4089:4114  address oldOwner = _owner */\n  swap1\n  pop\n    /* \"contracts/PRCC_Vesting.sol\":4133:4141  newOwner */\n  dup2\n    /* \"contracts/PRCC_Vesting.sol\":4124:4130  _owner */\n  0x00\n  dup1\n    /* \"contracts/PRCC_Vesting.sol\":4124:4141  _owner = newOwner */\n  0x0100\n  exp\n  dup2\n  sload\n  dup2\n  0xffffffffffffffffffffffffffffffffffffffff\n  mul\n  not\n  and\n  swap1\n  dup4\n  0xffffffffffffffffffffffffffffffffffffffff\n  and\n  mul\n  or\n  swap1\n  sstore\n  pop\n    /* \"contracts/PRCC_Vesting.sol\":4187:4195  newOwner */\n  dup2\n    /* \"contracts/PRCC_Vesting.sol\":4156:4196  OwnershipTransferred(oldOwner, newOwner) */\n  0xffffffffffffffffffffffffffffffffffffffff\n  and\n    /* \"contracts/PRCC_Vesting.sol\":4177:4185  oldOwner */\n  dup2\n    /* \"contracts/PRCC_Vesting.sol\":4156:4196  OwnershipTransferred(oldOwner, newOwner) */\n  0xffffffffffffffffffffffffffffffffffffffff\n  and\n  0x8be0079c531659141344cd1fd0a4f28419497f9722a3daafe3b4186f6b6457e0\n  mload(0x40)\n  mload(0x40)\n  dup1\n  swap2\n  sub\n  swap1\n  log3\n    /* \"contracts/PRCC_Vesting.sol\":4079:4203  {... */\n  pop\n    /* \"contracts/PRCC_Vesting.sol\":4016:4203  function _transferOwnership(address newOwner) internal virtual {... */\n  pop\n  jump\t// out\n    /* \"#utility.yul\":7:82   */\ntag_19:\n    /* \"#utility.yul\":40:46   */\n  0x00\n    /* \"#utility.yul\":73:75   */\n  0x40\n    /* \"#utility.yul\":67:76   */\n  mload\n    /* \"#utility.yul\":57:76   */\n  swap1\n  pop\n    /* \"#utility.yul\":7:82   */\n  swap1\n  jump\t// out\n    /* \"#utility.yul\":88:205   */\ntag_20:\n    /* \"#utility.yul\":197:198   */\n  0x00\n    /* \"#utility.yul\":194:195   */\n  dup1\n    /* \"#utility.yul\":187:199   */\n  revert\n    /* \"#utility.yul\":211:328   */\ntag_21:\n    /* \"#utility.yul\":320:321   */\n  0x00\n    /* \"#utility.yul\":317:318   */\n  dup1\n    /* \"#utility.yul\":310:322   */\n  revert\n    /* \"#utility.yul\":334:460   */\ntag_22:\n    /* \"#utility.yul\":371:378   */\n  0x00\n    /* \"#utility.yul\":411:453   */\n  0xffffffffffffffffffffffffffffffffffffffff\n    /* \"#utility.yul\":404:409   */\n  dup3\n    /* \"#utility.yul\":400:454   */\n  and\n    /* \"#utility.yul\":389:454   */\n  swap1\n  pop\n    /* \"#utility.yul\":334:460   */\n  swap2\n  swap1\n  pop\n  jump\t// out\n    /* \"#utility.yul\":466:562   */\ntag_23:\n    /* \"#utility.yul\":503:510   */\n  0x00\n    /* \"#utility.yul\":532:556   */\n  tag_65\n    /* \"#utility.yul\":550:555   */\n  dup3\n    /* \"#utility.yul\":532:556   */\n  tag_22\n  jump\t// in\ntag_65:\n    /* \"#utility.yul\":521:556   */\n  swap1\n  pop\n    /* \"#utility.yul\":466:562   */\n  swap2\n  swap1\n  pop\n  jump\t// out\n    /* \"#utility.yul\":568:690   */\ntag_24:\n    /* \"#utility.yul\":641:665   */\n  tag_67\n    /* \"#utility.yul\":659:664   */\n  dup2\n    /* \"#utility.yul\":641:665   */\n  tag_23\n  jump\t// in\ntag_67:\n    /* \"#utility.yul\":634:639   */\n  dup2\n    /* \"#utility.yul\":631:666   */\n  eq\n    /* \"#utility.yul\":621:684   */\n  tag_68\n  jumpi\n    /* \"#utility.yul\":680:681   */\n  0x00\n    /* \"#utility.yul\":677:678   */\n  dup1\n    /* \"#utility.yul\":670:682   */\n  revert\n    /* \"#utility.yul\":621:684   */\ntag_68:\n    /* \"#utility.yul\":568:690   */\n  pop\n  jump\t// out\n    /* \"#utility.yul\":696:839   */\ntag_25:\n    /* \"#utility.yul\":753:758   */\n  0x00\n    /* \"#utility.yul\":784:790   */\n  dup2\n    /* \"#utility.yul\":778:791   */\n  mload\n    /* \"#utility.yul\":769:791   */\n  swap1\n  pop\n    /* \"#utility.yul\":800:833   */\n  tag_70\n    /* \"#utility.yul\":827:832   */\n  dup2\n    /* \"#utility.yul\":800:833   */\n  tag_24\n  jump\t// in\ntag_70:\n    /* \"#utility.yul\":696:839   */\n  swap3\n  swap2\n  pop\n  pop\n  jump\t// out\n    /* \"#utility.yul\":845:946   */\ntag_26:\n    /* \"#utility.yul\":881:888   */\n  0x00\n    /* \"#utility.yul\":921:939   */\n  0xffffffffffffffff\n    /* \"#utility.yul\":914:919   */\n  dup3\n    /* \"#utility.yul\":910:940   */\n  and\n    /* \"#utility.yul\":899:940   */\n  swap1\n  pop\n    /* \"#utility.yul\":845:946   */\n  swap2\n  swap1\n  pop\n  jump\t// out\n    /* \"#utility.yul\":952:1072   */\ntag_27:\n    /* \"#utility.yul\":1024:1047   */\n  tag_73\n    /* \"#utility.yul\":1041:1046   */\n  dup2\n    /* \"#utility.yul\":1024:1047   */\n  tag_26\n  jump\t// in\ntag_73:\n    /* \"#utility.yul\":1017:1022   */\n  dup2\n    /* \"#utility.yul\":1014:1048   */\n  eq\n    /* \"#utility.yul\":1004:1066   */\n  tag_74\n  jumpi\n    /* \"#utility.yul\":1062:1063   */\n  0x00\n    /* \"#utility.yul\":1059:1060   */\n  dup1\n    /* \"#utility.yul\":1052:1064   */\n  revert\n    /* \"#utility.yul\":1004:1066   */\ntag_74:\n    /* \"#utility.yul\":952:1072   */\n  pop\n  jump\t// out\n    /* \"#utility.yul\":1078:1219   */\ntag_28:\n    /* \"#utility.yul\":1134:1139   */\n  0x00\n    /* \"#utility.yul\":1165:1171   */\n  dup2\n    /* \"#utility.yul\":1159:1172   */\n  mload\n    /* \"#utility.yul\":1150:1172   */\n  swap1\n  pop\n    /* \"#utility.yul\":1181:1213   */\n  tag_76\n    /* \"#utility.yul\":1207:1212   */\n  dup2\n    /* \"#utility.yul\":1181:1213   */\n  tag_27\n  jump\t// in\ntag_76:\n    /* \"#utility.yul\":1078:1219   */\n  swap3\n  swap2\n  pop\n  pop\n  jump\t// out\n    /* \"#utility.yul\":1225:1342   */\ntag_29:\n    /* \"#utility.yul\":1334:1335   */\n  0x00\n    /* \"#utility.yul\":1331:1332   */\n  dup1\n    /* \"#utility.yul\":1324:1336   */\n  revert\n    /* \"#utility.yul\":1348:1465   */\ntag_30:\n    /* \"#utility.yul\":1457:1458   */\n  0x00\n    /* \"#utility.yul\":1454:1455   */\n  dup1\n    /* \"#utility.yul\":1447:1459   */\n  revert\n    /* \"#utility.yul\":1471:1573   */\ntag_31:\n    /* \"#utility.yul\":1512:1518   */\n  0x00\n    /* \"#utility.yul\":1563:1565   */\n  0x1f\n    /* \"#utility.yul\":1559:1566   */\n  not\n    /* \"#utility.yul\":1554:1556   */\n  0x1f\n    /* \"#utility.yul\":1547:1552   */\n  dup4\n    /* \"#utility.yul\":1543:1557   */\n  add\n    /* \"#utility.yul\":1539:1567   */\n  and\n    /* \"#utility.yul\":1529:1567   */\n  swap1\n  pop\n    /* \"#utility.yul\":1471:1573   */\n  swap2\n  swap1\n  pop\n  jump\t// out\n    /* \"#utility.yul\":1579:1759   */\ntag_32:\n    /* \"#utility.yul\":1627:1704   */\n  0x4e487b7100000000000000000000000000000000000000000000000000000000\n    /* \"#utility.yul\":1624:1625   */\n  0x00\n    /* \"#utility.yul\":1617:1705   */\n  mstore\n    /* \"#utility.yul\":1724:1728   */\n  0x41\n    /* \"#utility.yul\":1721:1722   */\n  0x04\n    /* \"#utility.yul\":1714:1729   */\n  mstore\n    /* \"#utility.yul\":1748:1752   */\n  0x24\n    /* \"#utility.yul\":1745:1746   */\n  0x00\n    /* \"#utility.yul\":1738:1753   */\n  revert\n    /* \"#utility.yul\":1765:2046   */\ntag_33:\n    /* \"#utility.yul\":1848:1875   */\n  tag_82\n    /* \"#utility.yul\":1870:1874   */\n  dup3\n    /* \"#utility.yul\":1848:1875   */\n  tag_31\n  jump\t// in\ntag_82:\n    /* \"#utility.yul\":1840:1846   */\n  dup2\n    /* \"#utility.yul\":1836:1876   */\n  add\n    /* \"#utility.yul\":1978:1984   */\n  dup2\n    /* \"#utility.yul\":1966:1976   */\n  dup2\n    /* \"#utility.yul\":1963:1985   */\n  lt\n    /* \"#utility.yul\":1942:1960   */\n  0xffffffffffffffff\n    /* \"#utility.yul\":1930:1940   */\n  dup3\n    /* \"#utility.yul\":1927:1961   */\n  gt\n    /* \"#utility.yul\":1924:1986   */\n  or\n    /* \"#utility.yul\":1921:2009   */\n  iszero\n  tag_83\n  jumpi\n    /* \"#utility.yul\":1989:2007   */\n  tag_84\n  tag_32\n  jump\t// in\ntag_84:\n    /* \"#utility.yul\":1921:2009   */\ntag_83:\n    /* \"#utility.yul\":2029:2039   */\n  dup1\n    /* \"#utility.yul\":2025:2027   */\n  0x40\n    /* \"#utility.yul\":2018:2040   */\n  mstore\n    /* \"#utility.yul\":1808:2046   */\n  pop\n    /* \"#utility.yul\":1765:2046   */\n  pop\n  pop\n  jump\t// out\n    /* \"#utility.yul\":2052:2181   */\ntag_34:\n    /* \"#utility.yul\":2086:2092   */\n  0x00\n    /* \"#utility.yul\":2113:2133   */\n  tag_86\n  tag_19\n  jump\t// in\ntag_86:\n    /* \"#utility.yul\":2103:2133   */\n  swap1\n  pop\n    /* \"#utility.yul\":2142:2175   */\n  tag_87\n    /* \"#utility.yul\":2170:2174   */\n  dup3\n    /* \"#utility.yul\":2162:2168   */\n  dup3\n    /* \"#utility.yul\":2142:2175   */\n  tag_33\n  jump\t// in\ntag_87:\n    /* \"#utility.yul\":2052:2181   */\n  swap2\n  swap1\n  pop\n  jump\t// out\n    /* \"#utility.yul\":2187:2495   */\ntag_35:\n    /* \"#utility.yul\":2249:2253   */\n  0x00\n    /* \"#utility.yul\":2339:2357   */\n  0xffffffffffffffff\n    /* \"#utility.yul\":2331:2337   */\n  dup3\n    /* \"#utility.yul\":2328:2358   */\n  gt\n    /* \"#utility.yul\":2325:2381   */\n  iszero\n  tag_89\n  jumpi\n    /* \"#utility.yul\":2361:2379   */\n  tag_90\n  tag_32\n  jump\t// in\ntag_90:\n    /* \"#utility.yul\":2325:2381   */\ntag_89:\n    /* \"#utility.yul\":2399:2428   */\n  tag_91\n    /* \"#utility.yul\":2421:2427   */\n  dup3\n    /* \"#utility.yul\":2399:2428   */\n  tag_31\n  jump\t// in\ntag_91:\n    /* \"#utility.yul\":2391:2428   */\n  swap1\n  pop\n    /* \"#utility.yul\":2483:2487   */\n  0x20\n    /* \"#utility.yul\":2477:2481   */\n  dup2\n    /* \"#utility.yul\":2473:2488   */\n  add\n    /* \"#utility.yul\":2465:2488   */\n  swap1\n  pop\n    /* \"#utility.yul\":2187:2495   */\n  swap2\n  swap1\n  pop\n  jump\t// out\n    /* \"#utility.yul\":2501:2747   */\ntag_36:\n    /* \"#utility.yul\":2582:2583   */\n  0x00\n    /* \"#utility.yul\":2592:2705   */\ntag_93:\n    /* \"#utility.yul\":2606:2612   */\n  dup4\n    /* \"#utility.yul\":2603:2604   */\n  dup2\n    /* \"#utility.yul\":2600:2613   */\n  lt\n    /* \"#utility.yul\":2592:2705   */\n  iszero\n  tag_95\n  jumpi\n    /* \"#utility.yul\":2691:2692   */\n  dup1\n    /* \"#utility.yul\":2686:2689   */\n  dup3\n    /* \"#utility.yul\":2682:2693   */\n  add\n    /* \"#utility.yul\":2676:2694   */\n  mload\n    /* \"#utility.yul\":2672:2673   */\n  dup2\n    /* \"#utility.yul\":2667:2670   */\n  dup5\n    /* \"#utility.yul\":2663:2674   */\n  add\n    /* \"#utility.yul\":2656:2695   */\n  mstore\n    /* \"#utility.yul\":2628:2630   */\n  0x20\n    /* \"#utility.yul\":2625:2626   */\n  dup2\n    /* \"#utility.yul\":2621:2631   */\n  add\n    /* \"#utility.yul\":2616:2631   */\n  swap1\n  pop\n    /* \"#utility.yul\":2592:2705   */\n  jump(tag_93)\ntag_95:\n    /* \"#utility.yul\":2739:2740   */\n  0x00\n    /* \"#utility.yul\":2730:2736   */\n  dup5\n    /* \"#utility.yul\":2725:2728   */\n  dup5\n    /* \"#utility.yul\":2721:2737   */\n  add\n    /* \"#utility.yul\":2714:2741   */\n  mstore\n    /* \"#utility.yul\":2563:2747   */\n  pop\n    /* \"#utility.yul\":2501:2747   */\n  pop\n  pop\n  pop\n  jump\t// out\n    /* \"#utility.yul\":2753:3187   */\ntag_37:\n    /* \"#utility.yul\":2842:2847   */\n  0x00\n    /* \"#utility.yul\":2867:2933   */\n  tag_97\n    /* \"#utility.yul\":2883:2932   */\n  tag_98\n    /* \"#utility.yul\":2925:2931   */\n  dup5\n    /* \"#utility.yul\":2883:2932   */\n  tag_35\n  jump\t// in\ntag_98:\n    /* \"#utility.yul\":2867:2933   */\n  tag_34\n  jump\t// in\ntag_97:\n    /* \"#utility.yul\":2858:2933   */\n  swap1\n  pop\n    /* \"#utility.yul\":2956:2962   */\n  dup3\n    /* \"#utility.yul\":2949:2954   */\n  dup2\n    /* \"#utility.yul\":2942:2963   */\n  mstore\n    /* \"#utility.yul\":2994:2998   */\n  0x20\n    /* \"#utility.yul\":2987:2992   */\n  dup2\n    /* \"#utility.yul\":2983:2999   */\n  add\n    /* \"#utility.yul\":3032:3035   */\n  dup5\n    /* \"#utility.yul\":3023:3029   */\n  dup5\n    /* \"#utility.yul\":3018:3021   */\n  dup5\n    /* \"#utility.yul\":3014:3030   */\n  add\n    /* \"#utility.yul\":3011:3036   */\n  gt\n    /* \"#utility.yul\":3008:3120   */\n  iszero\n  tag_99\n  jumpi\n    /* \"#utility.yul\":3039:3118   */\n  tag_100\n  tag_30\n  jump\t// in\ntag_100:\n    /* \"#utility.yul\":3008:3120   */\ntag_99:\n    /* \"#utility.yul\":3129:3181   */\n  tag_101\n    /* \"#utility.yul\":3174:3180   */\n  dup5\n    /* \"#utility.yul\":3169:3172   */\n  dup3\n    /* \"#utility.yul\":3164:3167   */\n  dup6\n    /* \"#utility.yul\":3129:3181   */\n  tag_36\n  jump\t// in\ntag_101:\n    /* \"#utility.yul\":2848:3187   */\n  pop\n    /* \"#utility.yul\":2753:3187   */\n  swap4\n  swap3\n  pop\n  pop\n  pop\n  jump\t// out\n    /* \"#utility.yul\":3207:3562   */\ntag_38:\n    /* \"#utility.yul\":3274:3279   */\n  0x00\n    /* \"#utility.yul\":3323:3326   */\n  dup3\n    /* \"#utility.yul\":3316:3320   */\n  0x1f\n    /* \"#utility.yul\":3308:3314   */\n  dup4\n    /* \"#utility.yul\":3304:3321   */\n  add\n    /* \"#utility.yul\":3300:3327   */\n  slt\n    /* \"#utility.yul\":3290:3412   */\n  tag_103\n  jumpi\n    /* \"#utility.yul\":3331:3410   */\n  tag_104\n  tag_29\n  jump\t// in\ntag_104:\n    /* \"#utility.yul\":3290:3412   */\ntag_103:\n    /* \"#utility.yul\":3441:3447   */\n  dup2\n    /* \"#utility.yul\":3435:3448   */\n  mload\n    /* \"#utility.yul\":3466:3556   */\n  tag_105\n    /* \"#utility.yul\":3552:3555   */\n  dup5\n    /* \"#utility.yul\":3544:3550   */\n  dup3\n    /* \"#utility.yul\":3537:3541   */\n  0x20\n    /* \"#utility.yul\":3529:3535   */\n  dup7\n    /* \"#utility.yul\":3525:3542   */\n  add\n    /* \"#utility.yul\":3466:3556   */\n  tag_37\n  jump\t// in\ntag_105:\n    /* \"#utility.yul\":3457:3556   */\n  swap2\n  pop\n    /* \"#utility.yul\":3280:3562   */\n  pop\n    /* \"#utility.yul\":3207:3562   */\n  swap3\n  swap2\n  pop\n  pop\n  jump\t// out\n    /* \"#utility.yul\":3568:4557   */\ntag_3:\n    /* \"#utility.yul\":3673:3679   */\n  0x00\n    /* \"#utility.yul\":3681:3687   */\n  dup1\n    /* \"#utility.yul\":3689:3695   */\n  0x00\n    /* \"#utility.yul\":3697:3703   */\n  dup1\n    /* \"#utility.yul\":3746:3749   */\n  0x80\n    /* \"#utility.yul\":3734:3743   */\n  dup6\n    /* \"#utility.yul\":3725:3732   */\n  dup8\n    /* \"#utility.yul\":3721:3744   */\n  sub\n    /* \"#utility.yul\":3717:3750   */\n  slt\n    /* \"#utility.yul\":3714:3834   */\n  iszero\n  tag_107\n  jumpi\n    /* \"#utility.yul\":3753:3832   */\n  tag_108\n  tag_20\n  jump\t// in\ntag_108:\n    /* \"#utility.yul\":3714:3834   */\ntag_107:\n    /* \"#utility.yul\":3873:3874   */\n  0x00\n    /* \"#utility.yul\":3898:3962   */\n  tag_109\n    /* \"#utility.yul\":3954:3961   */\n  dup8\n    /* \"#utility.yul\":3945:3951   */\n  dup3\n    /* \"#utility.yul\":3934:3943   */\n  dup9\n    /* \"#utility.yul\":3930:3952   */\n  add\n    /* \"#utility.yul\":3898:3962   */\n  tag_25\n  jump\t// in\ntag_109:\n    /* \"#utility.yul\":3888:3962   */\n  swap5\n  pop\n    /* \"#utility.yul\":3844:3972   */\n  pop\n    /* \"#utility.yul\":4011:4013   */\n  0x20\n    /* \"#utility.yul\":4037:4100   */\n  tag_110\n    /* \"#utility.yul\":4092:4099   */\n  dup8\n    /* \"#utility.yul\":4083:4089   */\n  dup3\n    /* \"#utility.yul\":4072:4081   */\n  dup9\n    /* \"#utility.yul\":4068:4090   */\n  add\n    /* \"#utility.yul\":4037:4100   */\n  tag_28\n  jump\t// in\ntag_110:\n    /* \"#utility.yul\":4027:4100   */\n  swap4\n  pop\n    /* \"#utility.yul\":3982:4110   */\n  pop\n    /* \"#utility.yul\":4149:4151   */\n  0x40\n    /* \"#utility.yul\":4175:4238   */\n  tag_111\n    /* \"#utility.yul\":4230:4237   */\n  dup8\n    /* \"#utility.yul\":4221:4227   */\n  dup3\n    /* \"#utility.yul\":4210:4219   */\n  dup9\n    /* \"#utility.yul\":4206:4228   */\n  add\n    /* \"#utility.yul\":4175:4238   */\n  tag_28\n  jump\t// in\ntag_111:\n    /* \"#utility.yul\":4165:4238   */\n  swap3\n  pop\n    /* \"#utility.yul\":4120:4248   */\n  pop\n    /* \"#utility.yul\":4308:4310   */\n  0x60\n    /* \"#utility.yul\":4297:4306   */\n  dup6\n    /* \"#utility.yul\":4293:4311   */\n  add\n    /* \"#utility.yul\":4287:4312   */\n  mload\n    /* \"#utility.yul\":4339:4357   */\n  0xffffffffffffffff\n    /* \"#utility.yul\":4331:4337   */\n  dup2\n    /* \"#utility.yul\":4328:4358   */\n  gt\n    /* \"#utility.yul\":4325:4442   */\n  iszero\n  tag_112\n  jumpi\n    /* \"#utility.yul\":4361:4440   */\n  tag_113\n  tag_21\n  jump\t// in\ntag_113:\n    /* \"#utility.yul\":4325:4442   */\ntag_112:\n    /* \"#utility.yul\":4466:4540   */\n  tag_114\n    /* \"#utility.yul\":4532:4539   */\n  dup8\n    /* \"#utility.yul\":4523:4529   */\n  dup3\n    /* \"#utility.yul\":4512:4521   */\n  dup9\n    /* \"#utility.yul\":4508:4530   */\n  add\n    /* \"#utility.yul\":4466:4540   */\n  tag_38\n  jump\t// in\ntag_114:\n    /* \"#utility.yul\":4456:4540   */\n  swap2\n  pop\n    /* \"#utility.yul\":4258:4550   */\n  pop\n    /* \"#utility.yul\":3568:4557   */\n  swap3\n  swap6\n  swap2\n  swap5\n  pop\n  swap3\n  pop\n  jump\t// out\n    /* \"#utility.yul\":4563:4681   */\ntag_39:\n    /* \"#utility.yul\":4650:4674   */\n  tag_116\n    /* \"#utility.yul\":4668:4673   */\n  dup2\n    /* \"#utility.yul\":4650:4674   */\n  tag_23\n  jump\t// in\ntag_116:\n    /* \"#utility.yul\":4645:4648   */\n  dup3\n    /* \"#utility.yul\":4638:4675   */\n  mstore\n    /* \"#utility.yul\":4563:4681   */\n  pop\n  pop\n  jump\t// out\n    /* \"#utility.yul\":4687:4909   */\ntag_10:\n    /* \"#utility.yul\":4780:4784   */\n  0x00\n    /* \"#utility.yul\":4818:4820   */\n  0x20\n    /* \"#utility.yul\":4807:4816   */\n  dup3\n    /* \"#utility.yul\":4803:4821   */\n  add\n    /* \"#utility.yul\":4795:4821   */\n  swap1\n  pop\n    /* \"#utility.yul\":4831:4902   */\n  tag_118\n    /* \"#utility.yul\":4899:4900   */\n  0x00\n    /* \"#utility.yul\":4888:4897   */\n  dup4\n    /* \"#utility.yul\":4884:4901   */\n  add\n    /* \"#utility.yul\":4875:4881   */\n  dup5\n    /* \"#utility.yul\":4831:4902   */\n  tag_39\n  jump\t// in\ntag_118:\n    /* \"#utility.yul\":4687:4909   */\n  swap3\n  swap2\n  pop\n  pop\n  jump\t// out\n    /* \"#utility.yul\":4915:5014   */\ntag_40:\n    /* \"#utility.yul\":4967:4973   */\n  0x00\n    /* \"#utility.yul\":5001:5006   */\n  dup2\n    /* \"#utility.yul\":4995:5007   */\n  mload\n    /* \"#utility.yul\":4985:5007   */\n  swap1\n  pop\n    /* \"#utility.yul\":4915:5014   */\n  swap2\n  swap1\n  pop\n  jump\t// out\n    /* \"#utility.yul\":5020:5200   */\ntag_41:\n    /* \"#utility.yul\":5068:5145   */\n  0x4e487b7100000000000000000000000000000000000000000000000000000000\n    /* \"#utility.yul\":5065:5066   */\n  0x00\n    /* \"#utility.yul\":5058:5146   */\n  mstore\n    /* \"#utility.yul\":5165:5169   */\n  0x22\n    /* \"#utility.yul\":5162:5163   */\n  0x04\n    /* \"#utility.yul\":5155:5170   */\n  mstore\n    /* \"#utility.yul\":5189:5193   */\n  0x24\n    /* \"#utility.yul\":5186:5187   */\n  0x00\n    /* \"#utility.yul\":5179:5194   */\n  revert\n    /* \"#utility.yul\":5206:5526   */\ntag_42:\n    /* \"#utility.yul\":5250:5256   */\n  0x00\n    /* \"#utility.yul\":5287:5288   */\n  0x02\n    /* \"#utility.yul\":5281:5285   */\n  dup3\n    /* \"#utility.yul\":5277:5289   */\n  div\n    /* \"#utility.yul\":5267:5289   */\n  swap1\n  pop\n    /* \"#utility.yul\":5334:5335   */\n  0x01\n    /* \"#utility.yul\":5328:5332   */\n  dup3\n    /* \"#utility.yul\":5324:5336   */\n  and\n    /* \"#utility.yul\":5355:5373   */\n  dup1\n    /* \"#utility.yul\":5345:5426   */\n  tag_122\n  jumpi\n    /* \"#utility.yul\":5411:5415   */\n  0x7f\n    /* \"#utility.yul\":5403:5409   */\n  dup3\n    /* \"#utility.yul\":5399:5416   */\n  and\n    /* \"#utility.yul\":5389:5416   */\n  swap2\n  pop\n    /* \"#utility.yul\":5345:5426   */\ntag_122:\n    /* \"#utility.yul\":5473:5475   */\n  0x20\n    /* \"#utility.yul\":5465:5471   */\n  dup3\n    /* \"#utility.yul\":5462:5476   */\n  lt\n    /* \"#utility.yul\":5442:5460   */\n  dup2\n    /* \"#utility.yul\":5439:5477   */\n  sub\n    /* \"#utility.yul\":5436:5520   */\n  tag_123\n  jumpi\n    /* \"#utility.yul\":5492:5510   */\n  tag_124\n  tag_41\n  jump\t// in\ntag_124:\n    /* \"#utility.yul\":5436:5520   */\ntag_123:\n    /* \"#utility.yul\":5257:5526   */\n  pop\n    /* \"#utility.yul\":5206:5526   */\n  swap2\n  swap1\n  pop\n  jump\t// out\n    /* \"#utility.yul\":5532:5673   */\ntag_43:\n    /* \"#utility.yul\":5581:5585   */\n  0x00\n    /* \"#utility.yul\":5604:5607   */\n  dup2\n    /* \"#utility.yul\":5596:5607   */\n  swap1\n  pop\n    /* \"#utility.yul\":5627:5630   */\n  dup2\n    /* \"#utility.yul\":5624:5625   */\n  0x00\n    /* \"#utility.yul\":5617:5631   */\n  mstore\n    /* \"#utility.yul\":5661:5665   */\n  0x20\n    /* \"#utility.yul\":5658:5659   */\n  0x00\n    /* \"#utility.yul\":5648:5666   */\n  keccak256\n    /* \"#utility.yul\":5640:5666   */\n  swap1\n  pop\n    /* \"#utility.yul\":5532:5673   */\n  swap2\n  swap1\n  pop\n  jump\t// out\n    /* \"#utility.yul\":5679:5772   */\ntag_44:\n    /* \"#utility.yul\":5716:5722   */\n  0x00\n    /* \"#utility.yul\":5763:5765   */\n  0x20\n    /* \"#utility.yul\":5758:5760   */\n  0x1f\n    /* \"#utility.yul\":5751:5756   */\n  dup4\n    /* \"#utility.yul\":5747:5761   */\n  add\n    /* \"#utility.yul\":5743:5766   */\n  div\n    /* \"#utility.yul\":5733:5766   */\n  swap1\n  pop\n    /* \"#utility.yul\":5679:5772   */\n  swap2\n  swap1\n  pop\n  jump\t// out\n    /* \"#utility.yul\":5778:5885   */\ntag_45:\n    /* \"#utility.yul\":5822:5830   */\n  0x00\n    /* \"#utility.yul\":5872:5877   */\n  dup3\n    /* \"#utility.yul\":5866:5870   */\n  dup3\n    /* \"#utility.yul\":5862:5878   */\n  shl\n    /* \"#utility.yul\":5841:5878   */\n  swap1\n  pop\n    /* \"#utility.yul\":5778:5885   */\n  swap3\n  swap2\n  pop\n  pop\n  jump\t// out\n    /* \"#utility.yul\":5891:6284   */\ntag_46:\n    /* \"#utility.yul\":5960:5966   */\n  0x00\n    /* \"#utility.yul\":6010:6011   */\n  0x08\n    /* \"#utility.yul\":5998:6008   */\n  dup4\n    /* \"#utility.yul\":5994:6012   */\n  mul\n    /* \"#utility.yul\":6033:6130   */\n  tag_129\n    /* \"#utility.yul\":6063:6129   */\n  0xffffffffffffffffffffffffffffffffffffffffffffffffffffffffffffffff\n    /* \"#utility.yul\":6052:6061   */\n  dup3\n    /* \"#utility.yul\":6033:6130   */\n  tag_45\n  jump\t// in\ntag_129:\n    /* \"#utility.yul\":6151:6190   */\n  tag_130\n    /* \"#utility.yul\":6181:6189   */\n  dup7\n    /* \"#utility.yul\":6170:6179   */\n  dup4\n    /* \"#utility.yul\":6151:6190   */\n  tag_45\n  jump\t// in\ntag_130:\n    /* \"#utility.yul\":6139:6190   */\n  swap6\n  pop\n    /* \"#utility.yul\":6223:6227   */\n  dup1\n    /* \"#utility.yul\":6219:6228   */\n  not\n    /* \"#utility.yul\":6212:6217   */\n  dup5\n    /* \"#utility.yul\":6208:6229   */\n  and\n    /* \"#utility.yul\":6199:6229   */\n  swap4\n  pop\n    /* \"#utility.yul\":6272:6276   */\n  dup1\n    /* \"#utility.yul\":6262:6270   */\n  dup7\n    /* \"#utility.yul\":6258:6277   */\n  and\n    /* \"#utility.yul\":6251:6256   */\n  dup5\n    /* \"#utility.yul\":6248:6278   */\n  or\n    /* \"#utility.yul\":6238:6278   */\n  swap3\n  pop\n    /* \"#utility.yul\":5967:6284   */\n  pop\n  pop\n    /* \"#utility.yul\":5891:6284   */\n  swap4\n  swap3\n  pop\n  pop\n  pop\n  jump\t// out\n    /* \"#utility.yul\":6290:6367   */\ntag_47:\n    /* \"#utility.yul\":6327:6334   */\n  0x00\n    /* \"#utility.yul\":6356:6361   */\n  dup2\n    /* \"#utility.yul\":6345:6361   */\n  swap1\n  pop\n    /* \"#utility.yul\":6290:6367   */\n  swap2\n  swap1\n  pop\n  jump\t// out\n    /* \"#utility.yul\":6373:6433   */\ntag_48:\n    /* \"#utility.yul\":6401:6404   */\n  0x00\n    /* \"#utility.yul\":6422:6427   */\n  dup2\n    /* \"#utility.yul\":6415:6427   */\n  swap1\n  pop\n    /* \"#utility.yul\":6373:6433   */\n  swap2\n  swap1\n  pop\n  jump\t// out\n    /* \"#utility.yul\":6439:6581   */\ntag_49:\n    /* \"#utility.yul\":6489:6498   */\n  0x00\n    /* \"#utility.yul\":6522:6575   */\n  tag_134\n    /* \"#utility.yul\":6540:6574   */\n  tag_135\n    /* \"#utility.yul\":6549:6573   */\n  tag_136\n    /* \"#utility.yul\":6567:6572   */\n  dup5\n    /* \"#utility.yul\":6549:6573   */\n  tag_47\n  jump\t// in\ntag_136:\n    /* \"#utility.yul\":6540:6574   */\n  tag_48\n  jump\t// in\ntag_135:\n    /* \"#utility.yul\":6522:6575   */\n  tag_47\n  jump\t// in\ntag_134:\n    /* \"#utility.yul\":6509:6575   */\n  swap1\n  pop\n    /* \"#utility.yul\":6439:6581   */\n  swap2\n  swap1\n  pop\n  jump\t// out\n    /* \"#utility.yul\":6587:6662   */\ntag_50:\n    /* \"#utility.yul\":6630:6633   */\n  0x00\n    /* \"#utility.yul\":6651:6656   */\n  dup2\n    /* \"#utility.yul\":6644:6656   */\n  swap1\n  pop\n    /* \"#utility.yul\":6587:6662   */\n  swap2\n  swap1\n  pop\n  jump\t// out\n    /* \"#utility.yul\":6668:6937   */\ntag_51:\n    /* \"#utility.yul\":6778:6817   */\n  tag_139\n    /* \"#utility.yul\":6809:6816   */\n  dup4\n    /* \"#utility.yul\":6778:6817   */\n  tag_49\n  jump\t// in\ntag_139:\n    /* \"#utility.yul\":6839:6930   */\n  tag_140\n    /* \"#utility.yul\":6888:6929   */\n  tag_141\n    /* \"#utility.yul\":6912:6928   */\n  dup3\n    /* \"#utility.yul\":6888:6929   */\n  tag_50\n  jump\t// in\ntag_141:\n    /* \"#utility.yul\":6880:6886   */\n  dup5\n    /* \"#utility.yul\":6873:6877   */\n  dup5\n    /* \"#utility.yul\":6867:6878   */\n  sload\n    /* \"#utility.yul\":6839:6930   */\n  tag_46\n  jump\t// in\ntag_140:\n    /* \"#utility.yul\":6833:6837   */\n  dup3\n    /* \"#utility.yul\":6826:6931   */\n  sstore\n    /* \"#utility.yul\":6744:6937   */\n  pop\n    /* \"#utility.yul\":6668:6937   */\n  pop\n  pop\n  pop\n  jump\t// out\n    /* \"#utility.yul\":6943:7016   */\ntag_52:\n    /* \"#utility.yul\":6988:6991   */\n  0x00\n    /* \"#utility.yul\":6943:7016   */\n  swap1\n  jump\t// out\n    /* \"#utility.yul\":7022:7211   */\ntag_53:\n    /* \"#utility.yul\":7099:7131   */\n  tag_144\n  tag_52\n  jump\t// in\ntag_144:\n    /* \"#utility.yul\":7140:7205   */\n  tag_145\n    /* \"#utility.yul\":7198:7204   */\n  dup2\n    /* \"#utility.yul\":7190:7196   */\n  dup5\n    /* \"#utility.yul\":7184:7188   */\n  dup5\n    /* \"#utility.yul\":7140:7205   */\n  tag_51\n  jump\t// in\ntag_145:\n    /* \"#utility.yul\":7075:7211   */\n  pop\n    /* \"#utility.yul\":7022:7211   */\n  pop\n  pop\n  jump\t// out\n    /* \"#utility.yul\":7217:7403   */\ntag_54:\n    /* \"#utility.yul\":7277:7397   */\ntag_147:\n    /* \"#utility.yul\":7294:7297   */\n  dup2\n    /* \"#utility.yul\":7287:7292   */\n  dup2\n    /* \"#utility.yul\":7284:7298   */\n  lt\n    /* \"#utility.yul\":7277:7397   */\n  iszero\n  tag_149\n  jumpi\n    /* \"#utility.yul\":7348:7387   */\n  tag_150\n    /* \"#utility.yul\":7385:7386   */\n  0x00\n    /* \"#utility.yul\":7378:7383   */\n  dup3\n    /* \"#utility.yul\":7348:7387   */\n  tag_53\n  jump\t// in\ntag_150:\n    /* \"#utility.yul\":7321:7322   */\n  0x01\n    /* \"#utility.yul\":7314:7319   */\n  dup2\n    /* \"#utility.yul\":7310:7323   */\n  add\n    /* \"#utility.yul\":7301:7323   */\n  swap1\n  pop\n    /* \"#utility.yul\":7277:7397   */\n  jump(tag_147)\ntag_149:\n    /* \"#utility.yul\":7217:7403   */\n  pop\n  pop\n  jump\t// out\n    /* \"#utility.yul\":7409:7952   */\ntag_55:\n    /* \"#utility.yul\":7510:7512   */\n  0x1f\n    /* \"#utility.yul\":7505:7508   */\n  dup3\n    /* \"#utility.yul\":7502:7513   */\n  gt\n    /* \"#utility.yul\":7499:7945   */\n  iszero\n  tag_152\n  jumpi\n    /* \"#utility.yul\":7544:7582   */\n  tag_153\n    /* \"#utility.yul\":7576:7581   */\n  dup2\n    /* \"#utility.yul\":7544:7582   */\n  tag_43\n  jump\t// in\ntag_153:\n    /* \"#utility.yul\":7628:7657   */\n  tag_154\n    /* \"#utility.yul\":7646:7656   */\n  dup5\n    /* \"#utility.yul\":7628:7657   */\n  tag_44\n  jump\t// in\ntag_154:\n    /* \"#utility.yul\":7618:7626   */\n  dup2\n    /* \"#utility.yul\":7614:7658   */\n  add\n    /* \"#utility.yul\":7811:7813   */\n  0x20\n    /* \"#utility.yul\":7799:7809   */\n  dup6\n    /* \"#utility.yul\":7796:7814   */\n  lt\n    /* \"#utility.yul\":7793:7842   */\n  iszero\n  tag_155\n  jumpi\n    /* \"#utility.yul\":7832:7840   */\n  dup2\n    /* \"#utility.yul\":7817:7840   */\n  swap1\n  pop\n    /* \"#utility.yul\":7793:7842   */\ntag_155:\n    /* \"#utility.yul\":7855:7935   */\n  tag_156\n    /* \"#utility.yul\":7911:7933   */\n  tag_157\n    /* \"#utility.yul\":7929:7932   */\n  dup6\n    /* \"#utility.yul\":7911:7933   */\n  tag_44\n  jump\t// in\ntag_157:\n    /* \"#utility.yul\":7901:7909   */\n  dup4\n    /* \"#utility.yul\":7897:7934   */\n  add\n    /* \"#utility.yul\":7884:7895   */\n  dup3\n    /* \"#utility.yul\":7855:7935   */\n  tag_54\n  jump\t// in\ntag_156:\n    /* \"#utility.yul\":7514:7945   */\n  pop\n  pop\n    /* \"#utility.yul\":7499:7945   */\ntag_152:\n    /* \"#utility.yul\":7409:7952   */\n  pop\n  pop\n  pop\n  jump\t// out\n    /* \"#utility.yul\":7958:8075   */\ntag_56:\n    /* \"#utility.yul\":8012:8020   */\n  0x00\n    /* \"#utility.yul\":8062:8067   */\n  dup3\n    /* \"#utility.yul\":8056:8060   */\n  dup3\n    /* \"#utility.yul\":8052:8068   */\n  shr\n    /* \"#utility.yul\":8031:8068   */\n  swap1\n  pop\n    /* \"#utility.yul\":7958:8075   */\n  swap3\n  swap2\n  pop\n  pop\n  jump\t// out\n    /* \"#utility.yul\":8081:8250   */\ntag_57:\n    /* \"#utility.yul\":8125:8131   */\n  0x00\n    /* \"#utility.yul\":8158:8209   */\n  tag_160\n    /* \"#utility.yul\":8206:8207   */\n  0x00\n    /* \"#utility.yul\":8202:8208   */\n  not\n    /* \"#utility.yul\":8194:8199   */\n  dup5\n    /* \"#utility.yul\":8191:8192   */\n  0x08\n    /* \"#utility.yul\":8187:8200   */\n  mul\n    /* \"#utility.yul\":8158:8209   */\n  tag_56\n  jump\t// in\ntag_160:\n    /* \"#utility.yul\":8154:8210   */\n  not\n    /* \"#utility.yul\":8239:8243   */\n  dup1\n    /* \"#utility.yul\":8233:8237   */\n  dup4\n    /* \"#utility.yul\":8229:8244   */\n  and\n    /* \"#utility.yul\":8219:8244   */\n  swap2\n  pop\n    /* \"#utility.yul\":8132:8250   */\n  pop\n    /* \"#utility.yul\":8081:8250   */\n  swap3\n  swap2\n  pop\n  pop\n  jump\t// out\n    /* \"#utility.yul\":8255:8550   */\ntag_58:\n    /* \"#utility.yul\":8331:8335   */\n  0x00\n    /* \"#utility.yul\":8477:8506   */\n  tag_162\n    /* \"#utility.yul\":8502:8505   */\n  dup4\n    /* \"#utility.yul\":8496:8500   */\n  dup4\n    /* \"#utility.yul\":8477:8506   */\n  tag_57\n  jump\t// in\ntag_162:\n    /* \"#utility.yul\":8469:8506   */\n  swap2\n  pop\n    /* \"#utility.yul\":8539:8542   */\n  dup3\n    /* \"#utility.yul\":8536:8537   */\n  0x02\n    /* \"#utility.yul\":8532:8543   */\n  mul\n    /* \"#utility.yul\":8526:8530   */\n  dup3\n    /* \"#utility.yul\":8523:8544   */\n  or\n    /* \"#utility.yul\":8515:8544   */\n  swap1\n  pop\n    /* \"#utility.yul\":8255:8550   */\n  swap3\n  swap2\n  pop\n  pop\n  jump\t// out\n    /* \"#utility.yul\":8555:9950   */\ntag_16:\n    /* \"#utility.yul\":8672:8709   */\n  tag_164\n    /* \"#utility.yul\":8705:8708   */\n  dup3\n    /* \"#utility.yul\":8672:8709   */\n  tag_40\n  jump\t// in\ntag_164:\n    /* \"#utility.yul\":8774:8792   */\n  0xffffffffffffffff\n    /* \"#utility.yul\":8766:8772   */\n  dup2\n    /* \"#utility.yul\":8763:8793   */\n  gt\n    /* \"#utility.yul\":8760:8816   */\n  iszero\n  tag_165\n  jumpi\n    /* \"#utility.yul\":8796:8814   */\n  tag_166\n  tag_32\n  jump\t// in\ntag_166:\n    /* \"#utility.yul\":8760:8816   */\ntag_165:\n    /* \"#utility.yul\":8840:8878   */\n  tag_167\n    /* \"#utility.yul\":8872:8876   */\n  dup3\n    /* \"#utility.yul\":8866:8877   */\n  sload\n    /* \"#utility.yul\":8840:8878   */\n  tag_42\n  jump\t// in\ntag_167:\n    /* \"#utility.yul\":8925:8992   */\n  tag_168\n    /* \"#utility.yul\":8985:8991   */\n  dup3\n    /* \"#utility.yul\":8977:8983   */\n  dup3\n    /* \"#utility.yul\":8971:8975   */\n  dup6\n    /* \"#utility.yul\":8925:8992   */\n  tag_55\n  jump\t// in\ntag_168:\n    /* \"#utility.yul\":9019:9020   */\n  0x00\n    /* \"#utility.yul\":9043:9047   */\n  0x20\n    /* \"#utility.yul\":9030:9047   */\n  swap1\n  pop\n    /* \"#utility.yul\":9075:9077   */\n  0x1f\n    /* \"#utility.yul\":9067:9073   */\n  dup4\n    /* \"#utility.yul\":9064:9078   */\n  gt\n    /* \"#utility.yul\":9092:9093   */\n  0x01\n    /* \"#utility.yul\":9087:9705   */\n  dup2\n  eq\n  tag_170\n  jumpi\n    /* \"#utility.yul\":9749:9750   */\n  0x00\n    /* \"#utility.yul\":9766:9772   */\n  dup5\n    /* \"#utility.yul\":9763:9840   */\n  iszero\n  tag_171\n  jumpi\n    /* \"#utility.yul\":9815:9824   */\n  dup3\n    /* \"#utility.yul\":9810:9813   */\n  dup8\n    /* \"#utility.yul\":9806:9825   */\n  add\n    /* \"#utility.yul\":9800:9826   */\n  mload\n    /* \"#utility.yul\":9791:9826   */\n  swap1\n  pop\n    /* \"#utility.yul\":9763:9840   */\ntag_171:\n    /* \"#utility.yul\":9866:9933   */\n  tag_172\n    /* \"#utility.yul\":9926:9932   */\n  dup6\n    /* \"#utility.yul\":9919:9924   */\n  dup3\n    /* \"#utility.yul\":9866:9933   */\n  tag_58\n  jump\t// in\ntag_172:\n    /* \"#utility.yul\":9860:9864   */\n  dup7\n    /* \"#utility.yul\":9853:9934   */\n  sstore\n    /* \"#utility.yul\":9722:9944   */\n  pop\n    /* \"#utility.yul\":9057:9944   */\n  jump(tag_169)\n    /* \"#utility.yul\":9087:9705   */\ntag_170:\n    /* \"#utility.yul\":9139:9143   */\n  0x1f\n    /* \"#utility.yul\":9135:9144   */\n  not\n    /* \"#utility.yul\":9127:9133   */\n  dup5\n    /* \"#utility.yul\":9123:9145   */\n  and\n    /* \"#utility.yul\":9173:9210   */\n  tag_173\n    /* \"#utility.yul\":9205:9209   */\n  dup7\n    /* \"#utility.yul\":9173:9210   */\n  tag_43\n  jump\t// in\ntag_173:\n    /* \"#utility.yul\":9232:9233   */\n  0x00\n    /* \"#utility.yul\":9246:9454   */\ntag_174:\n    /* \"#utility.yul\":9260:9267   */\n  dup3\n    /* \"#utility.yul\":9257:9258   */\n  dup2\n    /* \"#utility.yul\":9254:9268   */\n  lt\n    /* \"#utility.yul\":9246:9454   */\n  iszero\n  tag_176\n  jumpi\n    /* \"#utility.yul\":9339:9348   */\n  dup5\n    /* \"#utility.yul\":9334:9337   */\n  dup10\n    /* \"#utility.yul\":9330:9349   */\n  add\n    /* \"#utility.yul\":9324:9350   */\n  mload\n    /* \"#utility.yul\":9316:9322   */\n  dup3\n    /* \"#utility.yul\":9309:9351   */\n  sstore\n    /* \"#utility.yul\":9390:9391   */\n  0x01\n    /* \"#utility.yul\":9382:9388   */\n  dup3\n    /* \"#utility.yul\":9378:9392   */\n  add\n    /* \"#utility.yul\":9368:9392   */\n  swap2\n  pop\n    /* \"#utility.yul\":9437:9439   */\n  0x20\n    /* \"#utility.yul\":9426:9435   */\n  dup6\n    /* \"#utility.yul\":9422:9440   */\n  add\n    /* \"#utility.yul\":9409:9440   */\n  swap5\n  pop\n    /* \"#utility.yul\":9283:9287   */\n  0x20\n    /* \"#utility.yul\":9280:9281   */\n  dup2\n    /* \"#utility.yul\":9276:9288   */\n  add\n    /* \"#utility.yul\":9271:9288   */\n  swap1\n  pop\n    /* \"#utility.yul\":9246:9454   */\n  jump(tag_174)\ntag_176:\n    /* \"#utility.yul\":9482:9488   */\n  dup7\n    /* \"#utility.yul\":9473:9480   */\n  dup4\n    /* \"#utility.yul\":9470:9489   */\n  lt\n    /* \"#utility.yul\":9467:9646   */\n  iszero\n  tag_177\n  jumpi\n    /* \"#utility.yul\":9540:9549   */\n  dup5\n    /* \"#utility.yul\":9535:9538   */\n  dup10\n    /* \"#utility.yul\":9531:9550   */\n  add\n    /* \"#utility.yul\":9525:9551   */\n  mload\n    /* \"#utility.yul\":9583:9631   */\n  tag_178\n    /* \"#utility.yul\":9625:9629   */\n  0x1f\n    /* \"#utility.yul\":9617:9623   */\n  dup10\n    /* \"#utility.yul\":9613:9630   */\n  and\n    /* \"#utility.yul\":9602:9611   */\n  dup3\n    /* \"#utility.yul\":9583:9631   */\n  tag_57\n  jump\t// in\ntag_178:\n    /* \"#utility.yul\":9575:9581   */\n  dup4\n    /* \"#utility.yul\":9568:9632   */\n  sstore\n    /* \"#utility.yul\":9490:9646   */\n  pop\n    /* \"#utility.yul\":9467:9646   */\ntag_177:\n    /* \"#utility.yul\":9692:9693   */\n  0x01\n    /* \"#utility.yul\":9688:9689   */\n  0x02\n    /* \"#utility.yul\":9680:9686   */\n  dup9\n    /* \"#utility.yul\":9676:9690   */\n  mul\n    /* \"#utility.yul\":9672:9694   */\n  add\n    /* \"#utility.yul\":9666:9670   */\n  dup9\n    /* \"#utility.yul\":9659:9695   */\n  sstore\n    /* \"#utility.yul\":9094:9705   */\n  pop\n  pop\n  pop\n    /* \"#utility.yul\":9057:9944   */\ntag_169:\n  pop\n    /* \"#utility.yul\":8647:9950   */\n  pop\n  pop\n  pop\n    /* \"#utility.yul\":8555:9950   */\n  pop\n  pop\n  jump\t// out\n    /* \"contracts/PRCC_Vesting.sol\":140129:146085  contract PRCC_Vesting is VestingWallet {... */\ntag_17:\n  mload(0x80)\n  mload(0xa0)\n  codecopy(0x00, dataOffset(sub_0), dataSize(sub_0))\n  0x00\n  assignImmutable(\"0x208ad8d9d4ca969ed7f17809392789f61ed5b8bb6f6790375ce7d972071a1fbe\")\n  0x00\n  assignImmutable(\"0x7e61868c26ad9542219295e4248d06589934ece56761f625f341eef80a4788c7\")\n  return(0x00, dataSize(sub_0))\nstop\n\nsub_0: assembly {\n        /* \"contracts/PRCC_Vesting.sol\":140129:146085  contract PRCC_Vesting is VestingWallet {... */\n      mstore(0x40, 0x80)\n      jumpi(tag_1, lt(calldatasize, 0x04))\n      shr(0xe0, calldataload(0x00))\n      dup1\n      0x86d1a69f\n      gt\n      tag_22\n      jumpi\n      dup1\n      0xad34ec2a\n      gt\n      tag_23\n      jumpi\n      dup1\n      0xad34ec2a\n      eq\n      tag_17\n      jumpi\n      dup1\n      0xbe9a6555\n      eq\n      tag_18\n      jumpi\n      dup1\n      0xefbe1c1c\n      eq\n      tag_19\n      jumpi\n      dup1\n      0xf2fde38b\n      eq\n      tag_20\n      jumpi\n      dup1\n      0xfbccedae\n      eq\n      tag_21\n      jumpi\n      jump(tag_2)\n    tag_23:\n      dup1\n      0x86d1a69f\n      eq\n      tag_12\n      jumpi\n      dup1\n      0x8da5cb5b\n      eq\n      tag_13\n      jumpi\n      dup1\n      0x96132521\n      eq\n      tag_14\n      jumpi\n      dup1\n      0x9852595c\n      eq\n      tag_15\n      jumpi\n      dup1\n      0xa3f8eace\n      eq\n      tag_16\n      jumpi\n      jump(tag_2)\n    tag_22:\n      dup1\n      0x47fc5543\n      gt\n      tag_24\n      jumpi\n      dup1\n      0x47fc5543\n      eq\n      tag_7\n      jumpi\n      dup1\n      0x681f3e6d\n      eq\n      tag_8\n      jumpi\n      dup1\n      0x715018a6\n      eq\n      tag_9\n      jumpi\n      dup1\n      0x775f75df\n      eq\n      tag_10\n      jumpi\n      dup1\n      0x810ec23b\n      eq\n      tag_11\n      jumpi\n      jump(tag_2)\n    tag_24:\n      dup1\n      0x0a17b06b\n      eq\n      tag_3\n      jumpi\n      dup1\n      0x0fb5a6b4\n      eq\n      tag_4\n      jumpi\n      dup1\n      0x19165587\n      eq\n      tag_5\n      jumpi\n      dup1\n      0x3c9177cd\n      eq\n      tag_6\n      jumpi\n      jump(tag_2)\n    tag_1:\n      jumpi(tag_2, calldatasize)\n      stop\n    tag_2:\n      0x00\n      dup1\n      revert\n        /* \"contracts/PRCC_Vesting.sol\":34882:35047  function vestedAmount(uint64 timestamp) public view virtual returns (uint256) {... */\n    tag_3:\n      callvalue\n      dup1\n      iszero\n      tag_27\n      jumpi\n      0x00\n      dup1\n      revert\n    tag_27:\n      pop\n      tag_28\n      0x04\n      dup1\n      calldatasize\n      sub\n      dup2\n      add\n      swap1\n      tag_29\n      swap2\n      swap1\n      tag_30\n      jump\t// in\n    tag_29:\n      tag_31\n      jump\t// in\n    tag_28:\n      mload(0x40)\n      tag_32\n      swap2\n      swap1\n      tag_33\n      jump\t// in\n    tag_32:\n      mload(0x40)\n      dup1\n      swap2\n      sub\n      swap1\n      return\n        /* \"contracts/PRCC_Vesting.sol\":32929:33020  function duration() public view virtual returns (uint256) {... */\n    tag_4:\n      callvalue\n      dup1\n      iszero\n      tag_34\n      jumpi\n      0x00\n      dup1\n      revert\n    tag_34:\n      pop\n      tag_35\n      tag_36\n      jump\t// in\n    tag_35:\n      mload(0x40)\n      tag_37\n      swap2\n      swap1\n      tag_33\n      jump\t// in\n    tag_37:\n      mload(0x40)\n      dup1\n      swap2\n      sub\n      swap1\n      return\n        /* \"contracts/PRCC_Vesting.sol\":34496:34742  function release(address token) public virtual {... */\n    tag_5:\n      callvalue\n      dup1\n      iszero\n      tag_38\n      jumpi\n      0x00\n      dup1\n      revert\n    tag_38:\n      pop\n      tag_39\n      0x04\n      dup1\n      calldatasize\n      sub\n      dup2\n      add\n      swap1\n      tag_40\n      swap2\n      swap1\n      tag_41\n      jump\t// in\n    tag_40:\n      tag_42\n      jump\t// in\n    tag_39:\n      stop\n        /* \"contracts/PRCC_Vesting.sol\":144837:145400  function endDateTime() public view returns (string memory) {... */\n    tag_6:\n      callvalue\n      dup1\n      iszero\n      tag_43\n      jumpi\n      0x00\n      dup1\n      revert\n    tag_43:\n      pop\n      tag_44\n      tag_45\n      jump\t// in\n    tag_44:\n      mload(0x40)\n      tag_46\n      swap2\n      swap1\n      tag_47\n      jump\t// in\n    tag_46:\n      mload(0x40)\n      dup1\n      swap2\n      sub\n      swap1\n      return\n        /* \"contracts/PRCC_Vesting.sol\":145406:145878  function vestedAmountWithDateTime(address token, string memory dateTime) public view virtual returns (string memory) {... */\n    tag_7:\n      callvalue\n      dup1\n      iszero\n      tag_48\n      jumpi\n      0x00\n      dup1\n      revert\n    tag_48:\n      pop\n      tag_49\n      0x04\n      dup1\n      calldatasize\n      sub\n      dup2\n      add\n      swap1\n      tag_50\n      swap2\n      swap1\n      tag_51\n      jump\t// in\n    tag_50:\n      tag_52\n      jump\t// in\n    tag_49:\n      mload(0x40)\n      tag_53\n      swap2\n      swap1\n      tag_47\n      jump\t// in\n    tag_53:\n      mload(0x40)\n      dup1\n      swap2\n      sub\n      swap1\n      return\n        /* \"contracts/PRCC_Vesting.sol\":144166:144258  function getUsername() public view returns (string memory) {... */\n    tag_8:\n      callvalue\n      dup1\n      iszero\n      tag_54\n      jumpi\n      0x00\n      dup1\n      revert\n    tag_54:\n      pop\n      tag_55\n      tag_56\n      jump\t// in\n    tag_55:\n      mload(0x40)\n      tag_57\n      swap2\n      swap1\n      tag_47\n      jump\t// in\n    tag_57:\n      mload(0x40)\n      dup1\n      swap2\n      sub\n      swap1\n      return\n        /* \"contracts/PRCC_Vesting.sol\":3397:3498  function renounceOwnership() public virtual onlyOwner {... */\n    tag_9:\n      callvalue\n      dup1\n      iszero\n      tag_58\n      jumpi\n      0x00\n      dup1\n      revert\n    tag_58:\n      pop\n      tag_59\n      tag_60\n      jump\t// in\n    tag_59:\n      stop\n        /* \"contracts/PRCC_Vesting.sol\":144264:144831  function startDateTime() public view returns (string memory) {... */\n    tag_10:\n      callvalue\n      dup1\n      iszero\n      tag_61\n      jumpi\n      0x00\n      dup1\n      revert\n    tag_61:\n      pop\n      tag_62\n      tag_63\n      jump\t// in\n    tag_62:\n      mload(0x40)\n      tag_64\n      swap2\n      swap1\n      tag_47\n      jump\t// in\n    tag_64:\n      mload(0x40)\n      dup1\n      swap2\n      sub\n      swap1\n      return\n        /* \"contracts/PRCC_Vesting.sol\":35188:35390  function vestedAmount(address token, uint64 timestamp) public view virtual returns (uint256) {... */\n    tag_11:\n      callvalue\n      dup1\n      iszero\n      tag_65\n      jumpi\n      0x00\n      dup1\n      revert\n    tag_65:\n      pop\n      tag_66\n      0x04\n      dup1\n      calldatasize\n      sub\n      dup2\n      add\n      swap1\n      tag_67\n      swap2\n      swap1\n      tag_68\n      jump\t// in\n    tag_67:\n      tag_69\n      jump\t// in\n    tag_66:\n      mload(0x40)\n      tag_70\n      swap2\n      swap1\n      tag_33\n      jump\t// in\n    tag_70:\n      mload(0x40)\n      dup1\n      swap2\n      sub\n      swap1\n      return\n        /* \"contracts/PRCC_Vesting.sol\":34174:34372  function release() public virtual {... */\n    tag_12:\n      callvalue\n      dup1\n      iszero\n      tag_71\n      jumpi\n      0x00\n      dup1\n      revert\n    tag_71:\n      pop\n      tag_72\n      tag_73\n      jump\t// in\n    tag_72:\n      stop\n        /* \"contracts/PRCC_Vesting.sol\":2742:2827  function owner() public view virtual returns (address) {... */\n    tag_13:\n      callvalue\n      dup1\n      iszero\n      tag_74\n      jumpi\n      0x00\n      dup1\n      revert\n    tag_74:\n      pop\n      tag_75\n      tag_76\n      jump\t// in\n    tag_75:\n      mload(0x40)\n      tag_77\n      swap2\n      swap1\n      tag_78\n      jump\t// in\n    tag_77:\n      mload(0x40)\n      dup1\n      swap2\n      sub\n      swap1\n      return\n        /* \"contracts/PRCC_Vesting.sol\":33246:33337  function released() public view virtual returns (uint256) {... */\n    tag_14:\n      callvalue\n      dup1\n      iszero\n      tag_79\n      jumpi\n      0x00\n      dup1\n      revert\n    tag_79:\n      pop\n      tag_80\n      tag_81\n      jump\t// in\n    tag_80:\n      mload(0x40)\n      tag_82\n      swap2\n      swap1\n      tag_33\n      jump\t// in\n    tag_82:\n      mload(0x40)\n      dup1\n      swap2\n      sub\n      swap1\n      return\n        /* \"contracts/PRCC_Vesting.sol\":33404:33520  function released(address token) public view virtual returns (uint256) {... */\n    tag_15:\n      callvalue\n      dup1\n      iszero\n      tag_83\n      jumpi\n      0x00\n      dup1\n      revert\n    tag_83:\n      pop\n      tag_84\n      0x04\n      dup1\n      calldatasize\n      sub\n      dup2\n      add\n      swap1\n      tag_85\n      swap2\n      swap1\n      tag_41\n      jump\t// in\n    tag_85:\n      tag_86\n      jump\t// in\n    tag_84:\n      mload(0x40)\n      tag_87\n      swap2\n      swap1\n      tag_33\n      jump\t// in\n    tag_87:\n      mload(0x40)\n      dup1\n      swap2\n      sub\n      swap1\n      return\n        /* \"contracts/PRCC_Vesting.sol\":33877:34036  function releasable(address token) public view virtual returns (uint256) {... */\n    tag_16:\n      callvalue\n      dup1\n      iszero\n      tag_88\n      jumpi\n      0x00\n      dup1\n      revert\n    tag_88:\n      pop\n      tag_89\n      0x04\n      dup1\n      calldatasize\n      sub\n      dup2\n      add\n      swap1\n      tag_90\n      swap2\n      swap1\n      tag_41\n      jump\t// in\n    tag_90:\n      tag_91\n      jump\t// in\n    tag_89:\n      mload(0x40)\n      tag_92\n      swap2\n      swap1\n      tag_33\n      jump\t// in\n    tag_92:\n      mload(0x40)\n      dup1\n      swap2\n      sub\n      swap1\n      return\n        /* \"contracts/PRCC_Vesting.sol\":145884:146081  function dateTimeToTimestamp(string memory dateTime) public view virtual returns (uint64) {... */\n    tag_17:\n      callvalue\n      dup1\n      iszero\n      tag_93\n      jumpi\n      0x00\n      dup1\n      revert\n    tag_93:\n      pop\n      tag_94\n      0x04\n      dup1\n      calldatasize\n      sub\n      dup2\n      add\n      swap1\n      tag_95\n      swap2\n      swap1\n      tag_96\n      jump\t// in\n    tag_95:\n      tag_97\n      jump\t// in\n    tag_94:\n      mload(0x40)\n      tag_98\n      swap2\n      swap1\n      tag_99\n      jump\t// in\n    tag_98:\n      mload(0x40)\n      dup1\n      swap2\n      sub\n      swap1\n      return\n        /* \"contracts/PRCC_Vesting.sol\":32777:32862  function start() public view virtual returns (uint256) {... */\n    tag_18:\n      callvalue\n      dup1\n      iszero\n      tag_100\n      jumpi\n      0x00\n      dup1\n      revert\n    tag_100:\n      pop\n      tag_101\n      tag_102\n      jump\t// in\n    tag_101:\n      mload(0x40)\n      tag_103\n      swap2\n      swap1\n      tag_33\n      jump\t// in\n    tag_103:\n      mload(0x40)\n      dup1\n      swap2\n      sub\n      swap1\n      return\n        /* \"contracts/PRCC_Vesting.sol\":33084:33181  function end() public view virtual returns (uint256) {... */\n    tag_19:\n      callvalue\n      dup1\n      iszero\n      tag_104\n      jumpi\n      0x00\n      dup1\n      revert\n    tag_104:\n      pop\n      tag_105\n      tag_106\n      jump\t// in\n    tag_105:\n      mload(0x40)\n      tag_107\n      swap2\n      swap1\n      tag_33\n      jump\t// in\n    tag_107:\n      mload(0x40)\n      dup1\n      swap2\n      sub\n      swap1\n      return\n        /* \"contracts/PRCC_Vesting.sol\":3647:3862  function transferOwnership(address newOwner) public virtual onlyOwner {... */\n    tag_20:\n      callvalue\n      dup1\n      iszero\n      tag_108\n      jumpi\n      0x00\n      dup1\n      revert\n    tag_108:\n      pop\n      tag_109\n      0x04\n      dup1\n      calldatasize\n      sub\n      dup2\n      add\n      swap1\n      tag_110\n      swap2\n      swap1\n      tag_41\n      jump\t// in\n    tag_110:\n      tag_111\n      jump\t// in\n    tag_109:\n      stop\n        /* \"contracts/PRCC_Vesting.sol\":33595:33729  function releasable() public view virtual returns (uint256) {... */\n    tag_21:\n      callvalue\n      dup1\n      iszero\n      tag_112\n      jumpi\n      0x00\n      dup1\n      revert\n    tag_112:\n      pop\n      tag_113\n      tag_114\n      jump\t// in\n    tag_113:\n      mload(0x40)\n      tag_115\n      swap2\n      swap1\n      tag_33\n      jump\t// in\n    tag_115:\n      mload(0x40)\n      dup1\n      swap2\n      sub\n      swap1\n      return\n        /* \"contracts/PRCC_Vesting.sol\":34882:35047  function vestedAmount(uint64 timestamp) public view virtual returns (uint256) {... */\n    tag_31:\n        /* \"contracts/PRCC_Vesting.sol\":34951:34958  uint256 */\n      0x00\n        /* \"contracts/PRCC_Vesting.sol\":34977:35040  _vestingSchedule(address(this).balance + released(), timestamp) */\n      tag_117\n        /* \"contracts/PRCC_Vesting.sol\":35018:35028  released() */\n      tag_118\n        /* \"contracts/PRCC_Vesting.sol\":35018:35026  released */\n      tag_81\n        /* \"contracts/PRCC_Vesting.sol\":35018:35028  released() */\n      jump\t// in\n    tag_118:\n        /* \"contracts/PRCC_Vesting.sol\":34994:35015  address(this).balance */\n      selfbalance\n        /* \"contracts/PRCC_Vesting.sol\":34994:35028  address(this).balance + released() */\n      tag_119\n      swap2\n      swap1\n      tag_120\n      jump\t// in\n    tag_119:\n        /* \"contracts/PRCC_Vesting.sol\":35030:35039  timestamp */\n      dup4\n        /* \"contracts/PRCC_Vesting.sol\":34977:34993  _vestingSchedule */\n      tag_121\n        /* \"contracts/PRCC_Vesting.sol\":34977:35040  _vestingSchedule(address(this).balance + released(), timestamp) */\n      jump\t// in\n    tag_117:\n        /* \"contracts/PRCC_Vesting.sol\":34970:35040  return _vestingSchedule(address(this).balance + released(), timestamp) */\n      swap1\n      pop\n        /* \"contracts/PRCC_Vesting.sol\":34882:35047  function vestedAmount(uint64 timestamp) public view virtual returns (uint256) {... */\n      swap2\n      swap1\n      pop\n      jump\t// out\n        /* \"contracts/PRCC_Vesting.sol\":32929:33020  function duration() public view virtual returns (uint256) {... */\n    tag_36:\n        /* \"contracts/PRCC_Vesting.sol\":32978:32985  uint256 */\n      0x00\n        /* \"contracts/PRCC_Vesting.sol\":33004:33013  _duration */\n      immutable(\"0x208ad8d9d4ca969ed7f17809392789f61ed5b8bb6f6790375ce7d972071a1fbe\")\n        /* \"contracts/PRCC_Vesting.sol\":32997:33013  return _duration */\n      0xffffffffffffffff\n      and\n      swap1\n      pop\n        /* \"contracts/PRCC_Vesting.sol\":32929:33020  function duration() public view virtual returns (uint256) {... */\n      swap1\n      jump\t// out\n        /* \"contracts/PRCC_Vesting.sol\":34496:34742  function release(address token) public virtual {... */\n    tag_42:\n        /* \"contracts/PRCC_Vesting.sol\":34553:34567  uint256 amount */\n      0x00\n        /* \"contracts/PRCC_Vesting.sol\":34570:34587  releasable(token) */\n      tag_124\n        /* \"contracts/PRCC_Vesting.sol\":34581:34586  token */\n      dup3\n        /* \"contracts/PRCC_Vesting.sol\":34570:34580  releasable */\n      tag_91\n        /* \"contracts/PRCC_Vesting.sol\":34570:34587  releasable(token) */\n      jump\t// in\n    tag_124:\n        /* \"contracts/PRCC_Vesting.sol\":34553:34587  uint256 amount = releasable(token) */\n      swap1\n      pop\n        /* \"contracts/PRCC_Vesting.sol\":34622:34628  amount */\n      dup1\n        /* \"contracts/PRCC_Vesting.sol\":34597:34611  _erc20Released */\n      0x02\n        /* \"contracts/PRCC_Vesting.sol\":34597:34618  _erc20Released[token] */\n      0x00\n        /* \"contracts/PRCC_Vesting.sol\":34612:34617  token */\n      dup5\n        /* \"contracts/PRCC_Vesting.sol\":34597:34618  _erc20Released[token] */\n      0xffffffffffffffffffffffffffffffffffffffff\n      and\n      0xffffffffffffffffffffffffffffffffffffffff\n      and\n      dup2\n      mstore\n      0x20\n      add\n      swap1\n      dup2\n      mstore\n      0x20\n      add\n      0x00\n      keccak256\n      0x00\n        /* \"contracts/PRCC_Vesting.sol\":34597:34628  _erc20Released[token] += amount */\n      dup3\n      dup3\n      sload\n      tag_125\n      swap2\n      swap1\n      tag_120\n      jump\t// in\n    tag_125:\n      swap3\n      pop\n      pop\n      dup2\n      swap1\n      sstore\n      pop\n        /* \"contracts/PRCC_Vesting.sol\":34657:34662  token */\n      dup2\n        /* \"contracts/PRCC_Vesting.sol\":34643:34671  ERC20Released(token, amount) */\n      0xffffffffffffffffffffffffffffffffffffffff\n      and\n      0xc0e523490dd523c33b1878c9eb14ff46991e3f5b2cd33710918618f2a39cba1b\n        /* \"contracts/PRCC_Vesting.sol\":34664:34670  amount */\n      dup3\n        /* \"contracts/PRCC_Vesting.sol\":34643:34671  ERC20Released(token, amount) */\n      mload(0x40)\n      tag_126\n      swap2\n      swap1\n      tag_33\n      jump\t// in\n    tag_126:\n      mload(0x40)\n      dup1\n      swap2\n      sub\n      swap1\n      log2\n        /* \"contracts/PRCC_Vesting.sol\":34681:34735  SafeERC20.safeTransfer(IERC20(token), owner(), amount) */\n      tag_127\n        /* \"contracts/PRCC_Vesting.sol\":34711:34716  token */\n      dup3\n        /* \"contracts/PRCC_Vesting.sol\":34719:34726  owner() */\n      tag_128\n        /* \"contracts/PRCC_Vesting.sol\":34719:34724  owner */\n      tag_76\n        /* \"contracts/PRCC_Vesting.sol\":34719:34726  owner() */\n      jump\t// in\n    tag_128:\n        /* \"contracts/PRCC_Vesting.sol\":34728:34734  amount */\n      dup4\n        /* \"contracts/PRCC_Vesting.sol\":34681:34703  SafeERC20.safeTransfer */\n      tag_129\n        /* \"contracts/PRCC_Vesting.sol\":34681:34735  SafeERC20.safeTransfer(IERC20(token), owner(), amount) */\n      jump\t// in\n    tag_127:\n        /* \"contracts/PRCC_Vesting.sol\":34543:34742  {... */\n      pop\n        /* \"contracts/PRCC_Vesting.sol\":34496:34742  function release(address token) public virtual {... */\n      pop\n      jump\t// out\n        /* \"contracts/PRCC_Vesting.sol\":144837:145400  function endDateTime() public view returns (string memory) {... */\n    tag_45:\n        /* \"contracts/PRCC_Vesting.sol\":144881:144894  string memory */\n      0x60\n        /* \"contracts/PRCC_Vesting.sol\":144906:144923  uint256 timestamp */\n      0x00\n        /* \"contracts/PRCC_Vesting.sol\":144926:144931  end() */\n      tag_131\n        /* \"contracts/PRCC_Vesting.sol\":144926:144929  end */\n      tag_106\n        /* \"contracts/PRCC_Vesting.sol\":144926:144931  end() */\n      jump\t// in\n    tag_131:\n        /* \"contracts/PRCC_Vesting.sol\":144906:144931  uint256 timestamp = end() */\n      swap1\n      pop\n        /* \"contracts/PRCC_Vesting.sol\":144975:144995  uint256 newTimestamp */\n      0x00\n        /* \"contracts/PRCC_Vesting.sol\":144998:145048  BokkyPooBahsDateTimeLibrary.addHours(timestamp, 8) */\n      tag_132\n        /* \"contracts/PRCC_Vesting.sol\":145035:145044  timestamp */\n      dup3\n        /* \"contracts/PRCC_Vesting.sol\":145046:145047  8 */\n      0x08\n        /* \"contracts/PRCC_Vesting.sol\":144998:145034  BokkyPooBahsDateTimeLibrary.addHours */\n      tag_133\n        /* \"contracts/PRCC_Vesting.sol\":144998:145048  BokkyPooBahsDateTimeLibrary.addHours(timestamp, 8) */\n      jump\t// in\n    tag_132:\n        /* \"contracts/PRCC_Vesting.sol\":144975:145048  uint256 newTimestamp = BokkyPooBahsDateTimeLibrary.addHours(timestamp, 8) */\n      swap1\n      pop\n        /* \"contracts/PRCC_Vesting.sol\":145060:145069  uint year */\n      0x00\n        /* \"contracts/PRCC_Vesting.sol\":145071:145081  uint month */\n      dup1\n        /* \"contracts/PRCC_Vesting.sol\":145083:145091  uint day */\n      0x00\n        /* \"contracts/PRCC_Vesting.sol\":145093:145102  uint hour */\n      dup1\n        /* \"contracts/PRCC_Vesting.sol\":145104:145115  uint minute */\n      0x00\n        /* \"contracts/PRCC_Vesting.sol\":145117:145128  uint second */\n      dup1\n        /* \"contracts/PRCC_Vesting.sol\":145132:145193  BokkyPooBahsDateTimeLibrary.timestampToDateTime(newTimestamp) */\n      tag_134\n        /* \"contracts/PRCC_Vesting.sol\":145180:145192  newTimestamp */\n      dup8\n        /* \"contracts/PRCC_Vesting.sol\":145132:145179  BokkyPooBahsDateTimeLibrary.timestampToDateTime */\n      tag_135\n        /* \"contracts/PRCC_Vesting.sol\":145132:145193  BokkyPooBahsDateTimeLibrary.timestampToDateTime(newTimestamp) */\n      jump\t// in\n    tag_134:\n        /* \"contracts/PRCC_Vesting.sol\":145059:145193  (uint year, uint month, uint day, uint hour, uint minute, uint second) = BokkyPooBahsDateTimeLibrary.timestampToDateTime(newTimestamp) */\n      swap6\n      pop\n      swap6\n      pop\n      swap6\n      pop\n      swap6\n      pop\n      swap6\n      pop\n      swap6\n      pop\n        /* \"contracts/PRCC_Vesting.sol\":145238:145257  _uintToString(year) */\n      tag_136\n        /* \"contracts/PRCC_Vesting.sol\":145252:145256  year */\n      dup7\n        /* \"contracts/PRCC_Vesting.sol\":145238:145251  _uintToString */\n      tag_137\n        /* \"contracts/PRCC_Vesting.sol\":145238:145257  _uintToString(year) */\n      jump\t// in\n    tag_136:\n        /* \"contracts/PRCC_Vesting.sol\":145265:145280  _padZero(month) */\n      tag_138\n        /* \"contracts/PRCC_Vesting.sol\":145274:145279  month */\n      dup7\n        /* \"contracts/PRCC_Vesting.sol\":145265:145273  _padZero */\n      tag_139\n        /* \"contracts/PRCC_Vesting.sol\":145265:145280  _padZero(month) */\n      jump\t// in\n    tag_138:\n        /* \"contracts/PRCC_Vesting.sol\":145288:145301  _padZero(day) */\n      tag_140\n        /* \"contracts/PRCC_Vesting.sol\":145297:145300  day */\n      dup7\n        /* \"contracts/PRCC_Vesting.sol\":145288:145296  _padZero */\n      tag_139\n        /* \"contracts/PRCC_Vesting.sol\":145288:145301  _padZero(day) */\n      jump\t// in\n    tag_140:\n        /* \"contracts/PRCC_Vesting.sol\":145320:145334  _padZero(hour) */\n      tag_141\n        /* \"contracts/PRCC_Vesting.sol\":145329:145333  hour */\n      dup7\n        /* \"contracts/PRCC_Vesting.sol\":145320:145328  _padZero */\n      tag_139\n        /* \"contracts/PRCC_Vesting.sol\":145320:145334  _padZero(hour) */\n      jump\t// in\n    tag_141:\n        /* \"contracts/PRCC_Vesting.sol\":145342:145358  _padZero(minute) */\n      tag_142\n        /* \"contracts/PRCC_Vesting.sol\":145351:145357  minute */\n      dup7\n        /* \"contracts/PRCC_Vesting.sol\":145342:145350  _padZero */\n      tag_139\n        /* \"contracts/PRCC_Vesting.sol\":145342:145358  _padZero(minute) */\n      jump\t// in\n    tag_142:\n        /* \"contracts/PRCC_Vesting.sol\":145366:145382  _padZero(second) */\n      tag_143\n        /* \"contracts/PRCC_Vesting.sol\":145375:145381  second */\n      dup7\n        /* \"contracts/PRCC_Vesting.sol\":145366:145374  _padZero */\n      tag_139\n        /* \"contracts/PRCC_Vesting.sol\":145366:145382  _padZero(second) */\n      jump\t// in\n    tag_143:\n        /* \"contracts/PRCC_Vesting.sol\":145211:145392  string.concat(... */\n      add(0x20, mload(0x40))\n      tag_144\n      swap7\n      swap6\n      swap5\n      swap4\n      swap3\n      swap2\n      swap1\n      tag_145\n      jump\t// in\n    tag_144:\n      mload(0x40)\n      0x20\n      dup2\n      dup4\n      sub\n      sub\n      dup2\n      mstore\n      swap1\n      0x40\n      mstore\n        /* \"contracts/PRCC_Vesting.sol\":145204:145392  return string.concat(... */\n      swap9\n      pop\n      pop\n      pop\n      pop\n      pop\n      pop\n      pop\n      pop\n      pop\n        /* \"contracts/PRCC_Vesting.sol\":144837:145400  function endDateTime() public view returns (string memory) {... */\n      swap1\n      jump\t// out\n        /* \"contracts/PRCC_Vesting.sol\":145406:145878  function vestedAmountWithDateTime(address token, string memory dateTime) public view virtual returns (string memory) {... */\n    tag_52:\n        /* \"contracts/PRCC_Vesting.sol\":145508:145521  string memory */\n      0x60\n        /* \"contracts/PRCC_Vesting.sol\":145535:145552  uint256 timestamp */\n      0x00\n        /* \"contracts/PRCC_Vesting.sol\":145553:145581  _stringToTimestamp(dateTime) */\n      tag_147\n        /* \"contracts/PRCC_Vesting.sol\":145572:145580  dateTime */\n      dup4\n        /* \"contracts/PRCC_Vesting.sol\":145553:145571  _stringToTimestamp */\n      tag_148\n        /* \"contracts/PRCC_Vesting.sol\":145553:145581  _stringToTimestamp(dateTime) */\n      jump\t// in\n    tag_147:\n        /* \"contracts/PRCC_Vesting.sol\":145535:145581  uint256 timestamp=_stringToTimestamp(dateTime) */\n      swap1\n      pop\n        /* \"contracts/PRCC_Vesting.sol\":145592:145605  uint256 value */\n      0x00\n        /* \"contracts/PRCC_Vesting.sol\":145608:145652  vestedAmount(token,_toUint64Safe(timestamp)) */\n      tag_149\n        /* \"contracts/PRCC_Vesting.sol\":145621:145626  token */\n      dup6\n        /* \"contracts/PRCC_Vesting.sol\":145627:145651  _toUint64Safe(timestamp) */\n      tag_150\n        /* \"contracts/PRCC_Vesting.sol\":145641:145650  timestamp */\n      dup5\n        /* \"contracts/PRCC_Vesting.sol\":145627:145640  _toUint64Safe */\n      tag_151\n        /* \"contracts/PRCC_Vesting.sol\":145627:145651  _toUint64Safe(timestamp) */\n      jump\t// in\n    tag_150:\n        /* \"contracts/PRCC_Vesting.sol\":145608:145620  vestedAmount */\n      tag_69\n        /* \"contracts/PRCC_Vesting.sol\":145608:145652  vestedAmount(token,_toUint64Safe(timestamp)) */\n      jump\t// in\n    tag_149:\n        /* \"contracts/PRCC_Vesting.sol\":145592:145652  uint256 value = vestedAmount(token,_toUint64Safe(timestamp)) */\n      swap1\n      pop\n        /* \"contracts/PRCC_Vesting.sol\":145709:145719  uint256 v1 */\n      0x00\n        /* \"contracts/PRCC_Vesting.sol\":145728:145747  1000000000000000000 */\n      0x0de0b6b3a7640000\n        /* \"contracts/PRCC_Vesting.sol\":145722:145727  value */\n      dup3\n        /* \"contracts/PRCC_Vesting.sol\":145722:145747  value/1000000000000000000 */\n      tag_152\n      swap2\n      swap1\n      tag_153\n      jump\t// in\n    tag_152:\n        /* \"contracts/PRCC_Vesting.sol\":145709:145747  uint256 v1 = value/1000000000000000000 */\n      swap1\n      pop\n        /* \"contracts/PRCC_Vesting.sol\":145757:145767  uint256 v2 */\n      0x00\n        /* \"contracts/PRCC_Vesting.sol\":145776:145795  1000000000000000000 */\n      0x0de0b6b3a7640000\n        /* \"contracts/PRCC_Vesting.sol\":145770:145775  value */\n      dup4\n        /* \"contracts/PRCC_Vesting.sol\":145770:145795  value%1000000000000000000 */\n      tag_154\n      swap2\n      swap1\n      tag_155\n      jump\t// in\n    tag_154:\n        /* \"contracts/PRCC_Vesting.sol\":145757:145795  uint256 v2 = value%1000000000000000000 */\n      swap1\n      pop\n        /* \"contracts/PRCC_Vesting.sol\":145827:145844  _uintToString(v1) */\n      tag_156\n        /* \"contracts/PRCC_Vesting.sol\":145841:145843  v1 */\n      dup3\n        /* \"contracts/PRCC_Vesting.sol\":145827:145840  _uintToString */\n      tag_137\n        /* \"contracts/PRCC_Vesting.sol\":145827:145844  _uintToString(v1) */\n      jump\t// in\n    tag_156:\n        /* \"contracts/PRCC_Vesting.sol\":145852:145869  _uintToString(v2) */\n      tag_157\n        /* \"contracts/PRCC_Vesting.sol\":145866:145868  v2 */\n      dup3\n        /* \"contracts/PRCC_Vesting.sol\":145852:145865  _uintToString */\n      tag_137\n        /* \"contracts/PRCC_Vesting.sol\":145852:145869  _uintToString(v2) */\n      jump\t// in\n    tag_157:\n        /* \"contracts/PRCC_Vesting.sol\":145813:145871  string.concat(_uintToString(v1) , \".\", _uintToString(v2) ) */\n      add(0x20, mload(0x40))\n      tag_158\n      swap3\n      swap2\n      swap1\n      tag_159\n      jump\t// in\n    tag_158:\n      mload(0x40)\n      0x20\n      dup2\n      dup4\n      sub\n      sub\n      dup2\n      mstore\n      swap1\n      0x40\n      mstore\n        /* \"contracts/PRCC_Vesting.sol\":145806:145871  return string.concat(_uintToString(v1) , \".\", _uintToString(v2) ) */\n      swap5\n      pop\n      pop\n      pop\n      pop\n      pop\n        /* \"contracts/PRCC_Vesting.sol\":145406:145878  function vestedAmountWithDateTime(address token, string memory dateTime) public view virtual returns (string memory) {... */\n      swap3\n      swap2\n      pop\n      pop\n      jump\t// out\n        /* \"contracts/PRCC_Vesting.sol\":144166:144258  function getUsername() public view returns (string memory) {... */\n    tag_56:\n        /* \"contracts/PRCC_Vesting.sol\":144210:144223  string memory */\n      0x60\n        /* \"contracts/PRCC_Vesting.sol\":144242:144251  _username */\n      0x03\n        /* \"contracts/PRCC_Vesting.sol\":144235:144251  return _username */\n      dup1\n      sload\n      tag_161\n      swap1\n      tag_162\n      jump\t// in\n    tag_161:\n      dup1\n      0x1f\n      add\n      0x20\n      dup1\n      swap2\n      div\n      mul\n      0x20\n      add\n      mload(0x40)\n      swap1\n      dup2\n      add\n      0x40\n      mstore\n      dup1\n      swap3\n      swap2\n      swap1\n      dup2\n      dup2\n      mstore\n      0x20\n      add\n      dup3\n      dup1\n      sload\n      tag_163\n      swap1\n      tag_162\n      jump\t// in\n    tag_163:\n      dup1\n      iszero\n      tag_164\n      jumpi\n      dup1\n      0x1f\n      lt\n      tag_165\n      jumpi\n      0x0100\n      dup1\n      dup4\n      sload\n      div\n      mul\n      dup4\n      mstore\n      swap2\n      0x20\n      add\n      swap2\n      jump(tag_164)\n    tag_165:\n      dup3\n      add\n      swap2\n      swap1\n      0x00\n      mstore\n      keccak256(0x00, 0x20)\n      swap1\n    tag_166:\n      dup2\n      sload\n      dup2\n      mstore\n      swap1\n      0x01\n      add\n      swap1\n      0x20\n      add\n      dup1\n      dup4\n      gt\n      tag_166\n      jumpi\n      dup3\n      swap1\n      sub\n      0x1f\n      and\n      dup3\n      add\n      swap2\n    tag_164:\n      pop\n      pop\n      pop\n      pop\n      pop\n      swap1\n      pop\n        /* \"contracts/PRCC_Vesting.sol\":144166:144258  function getUsername() public view returns (string memory) {... */\n      swap1\n      jump\t// out\n        /* \"contracts/PRCC_Vesting.sol\":3397:3498  function renounceOwnership() public virtual onlyOwner {... */\n    tag_60:\n        /* \"contracts/PRCC_Vesting.sol\":2635:2648  _checkOwner() */\n      tag_168\n        /* \"contracts/PRCC_Vesting.sol\":2635:2646  _checkOwner */\n      tag_169\n        /* \"contracts/PRCC_Vesting.sol\":2635:2648  _checkOwner() */\n      jump\t// in\n    tag_168:\n        /* \"contracts/PRCC_Vesting.sol\":3461:3491  _transferOwnership(address(0)) */\n      tag_171\n        /* \"contracts/PRCC_Vesting.sol\":3488:3489  0 */\n      0x00\n        /* \"contracts/PRCC_Vesting.sol\":3461:3479  _transferOwnership */\n      tag_172\n        /* \"contracts/PRCC_Vesting.sol\":3461:3491  _transferOwnership(address(0)) */\n      jump\t// in\n    tag_171:\n        /* \"contracts/PRCC_Vesting.sol\":3397:3498  function renounceOwnership() public virtual onlyOwner {... */\n      jump\t// out\n        /* \"contracts/PRCC_Vesting.sol\":144264:144831  function startDateTime() public view returns (string memory) {... */\n    tag_63:\n        /* \"contracts/PRCC_Vesting.sol\":144310:144323  string memory */\n      0x60\n        /* \"contracts/PRCC_Vesting.sol\":144335:144352  uint256 timestamp */\n      0x00\n        /* \"contracts/PRCC_Vesting.sol\":144355:144362  start() */\n      tag_174\n        /* \"contracts/PRCC_Vesting.sol\":144355:144360  start */\n      tag_102\n        /* \"contracts/PRCC_Vesting.sol\":144355:144362  start() */\n      jump\t// in\n    tag_174:\n        /* \"contracts/PRCC_Vesting.sol\":144335:144362  uint256 timestamp = start() */\n      swap1\n      pop\n        /* \"contracts/PRCC_Vesting.sol\":144406:144426  uint256 newTimestamp */\n      0x00\n        /* \"contracts/PRCC_Vesting.sol\":144429:144479  BokkyPooBahsDateTimeLibrary.addHours(timestamp, 8) */\n      tag_175\n        /* \"contracts/PRCC_Vesting.sol\":144466:144475  timestamp */\n      dup3\n        /* \"contracts/PRCC_Vesting.sol\":144477:144478  8 */\n      0x08\n        /* \"contracts/PRCC_Vesting.sol\":144429:144465  BokkyPooBahsDateTimeLibrary.addHours */\n      tag_133\n        /* \"contracts/PRCC_Vesting.sol\":144429:144479  BokkyPooBahsDateTimeLibrary.addHours(timestamp, 8) */\n      jump\t// in\n    tag_175:\n        /* \"contracts/PRCC_Vesting.sol\":144406:144479  uint256 newTimestamp = BokkyPooBahsDateTimeLibrary.addHours(timestamp, 8) */\n      swap1\n      pop\n        /* \"contracts/PRCC_Vesting.sol\":144491:144500  uint year */\n      0x00\n        /* \"contracts/PRCC_Vesting.sol\":144502:144512  uint month */\n      dup1\n        /* \"contracts/PRCC_Vesting.sol\":144514:144522  uint day */\n      0x00\n        /* \"contracts/PRCC_Vesting.sol\":144524:144533  uint hour */\n      dup1\n        /* \"contracts/PRCC_Vesting.sol\":144535:144546  uint minute */\n      0x00\n        /* \"contracts/PRCC_Vesting.sol\":144548:144559  uint second */\n      dup1\n        /* \"contracts/PRCC_Vesting.sol\":144563:144624  BokkyPooBahsDateTimeLibrary.timestampToDateTime(newTimestamp) */\n      tag_176\n        /* \"contracts/PRCC_Vesting.sol\":144611:144623  newTimestamp */\n      dup8\n        /* \"contracts/PRCC_Vesting.sol\":144563:144610  BokkyPooBahsDateTimeLibrary.timestampToDateTime */\n      tag_135\n        /* \"contracts/PRCC_Vesting.sol\":144563:144624  BokkyPooBahsDateTimeLibrary.timestampToDateTime(newTimestamp) */\n      jump\t// in\n    tag_176:\n        /* \"contracts/PRCC_Vesting.sol\":144490:144624  (uint year, uint month, uint day, uint hour, uint minute, uint second) = BokkyPooBahsDateTimeLibrary.timestampToDateTime(newTimestamp) */\n      swap6\n      pop\n      swap6\n      pop\n      swap6\n      pop\n      swap6\n      pop\n      swap6\n      pop\n      swap6\n      pop\n        /* \"contracts/PRCC_Vesting.sol\":144669:144688  _uintToString(year) */\n      tag_177\n        /* \"contracts/PRCC_Vesting.sol\":144683:144687  year */\n      dup7\n        /* \"contracts/PRCC_Vesting.sol\":144669:144682  _uintToString */\n      tag_137\n        /* \"contracts/PRCC_Vesting.sol\":144669:144688  _uintToString(year) */\n      jump\t// in\n    tag_177:\n        /* \"contracts/PRCC_Vesting.sol\":144696:144711  _padZero(month) */\n      tag_178\n        /* \"contracts/PRCC_Vesting.sol\":144705:144710  month */\n      dup7\n        /* \"contracts/PRCC_Vesting.sol\":144696:144704  _padZero */\n      tag_139\n        /* \"contracts/PRCC_Vesting.sol\":144696:144711  _padZero(month) */\n      jump\t// in\n    tag_178:\n        /* \"contracts/PRCC_Vesting.sol\":144719:144732  _padZero(day) */\n      tag_179\n        /* \"contracts/PRCC_Vesting.sol\":144728:144731  day */\n      dup7\n        /* \"contracts/PRCC_Vesting.sol\":144719:144727  _padZero */\n      tag_139\n        /* \"contracts/PRCC_Vesting.sol\":144719:144732  _padZero(day) */\n      jump\t// in\n    tag_179:\n        /* \"contracts/PRCC_Vesting.sol\":144751:144765  _padZero(hour) */\n      tag_180\n        /* \"contracts/PRCC_Vesting.sol\":144760:144764  hour */\n      dup7\n        /* \"contracts/PRCC_Vesting.sol\":144751:144759  _padZero */\n      tag_139\n        /* \"contracts/PRCC_Vesting.sol\":144751:144765  _padZero(hour) */\n      jump\t// in\n    tag_180:\n        /* \"contracts/PRCC_Vesting.sol\":144773:144789  _padZero(minute) */\n      tag_181\n        /* \"contracts/PRCC_Vesting.sol\":144782:144788  minute */\n      dup7\n        /* \"contracts/PRCC_Vesting.sol\":144773:144781  _padZero */\n      tag_139\n        /* \"contracts/PRCC_Vesting.sol\":144773:144789  _padZero(minute) */\n      jump\t// in\n    tag_181:\n        /* \"contracts/PRCC_Vesting.sol\":144797:144813  _padZero(second) */\n      tag_182\n        /* \"contracts/PRCC_Vesting.sol\":144806:144812  second */\n      dup7\n        /* \"contracts/PRCC_Vesting.sol\":144797:144805  _padZero */\n      tag_139\n        /* \"contracts/PRCC_Vesting.sol\":144797:144813  _padZero(second) */\n      jump\t// in\n    tag_182:\n        /* \"contracts/PRCC_Vesting.sol\":144642:144823  string.concat(... */\n      add(0x20, mload(0x40))\n      tag_183\n      swap7\n      swap6\n      swap5\n      swap4\n      swap3\n      swap2\n      swap1\n      tag_145\n      jump\t// in\n    tag_183:\n      mload(0x40)\n      0x20\n      dup2\n      dup4\n      sub\n      sub\n      dup2\n      mstore\n      swap1\n      0x40\n      mstore\n        /* \"contracts/PRCC_Vesting.sol\":144635:144823  return string.concat(... */\n      swap9\n      pop\n      pop\n      pop\n      pop\n      pop\n      pop\n      pop\n      pop\n      pop\n        /* \"contracts/PRCC_Vesting.sol\":144264:144831  function startDateTime() public view returns (string memory) {... */\n      swap1\n      jump\t// out\n        /* \"contracts/PRCC_Vesting.sol\":35188:35390  function vestedAmount(address token, uint64 timestamp) public view virtual returns (uint256) {... */\n    tag_69:\n        /* \"contracts/PRCC_Vesting.sol\":35272:35279  uint256 */\n      0x00\n        /* \"contracts/PRCC_Vesting.sol\":35298:35383  _vestingSchedule(IERC20(token).balanceOf(address(this)) + released(token), timestamp) */\n      tag_185\n        /* \"contracts/PRCC_Vesting.sol\":35356:35371  released(token) */\n      tag_186\n        /* \"contracts/PRCC_Vesting.sol\":35365:35370  token */\n      dup5\n        /* \"contracts/PRCC_Vesting.sol\":35356:35364  released */\n      tag_86\n        /* \"contracts/PRCC_Vesting.sol\":35356:35371  released(token) */\n      jump\t// in\n    tag_186:\n        /* \"contracts/PRCC_Vesting.sol\":35322:35327  token */\n      dup5\n        /* \"contracts/PRCC_Vesting.sol\":35315:35338  IERC20(token).balanceOf */\n      0xffffffffffffffffffffffffffffffffffffffff\n      and\n      0x70a08231\n        /* \"contracts/PRCC_Vesting.sol\":35347:35351  this */\n      address\n        /* \"contracts/PRCC_Vesting.sol\":35315:35353  IERC20(token).balanceOf(address(this)) */\n      mload(0x40)\n      dup3\n      0xffffffff\n      and\n      0xe0\n      shl\n      dup2\n      mstore\n      0x04\n      add\n      tag_187\n      swap2\n      swap1\n      tag_78\n      jump\t// in\n    tag_187:\n      0x20\n      mload(0x40)\n      dup1\n      dup4\n      sub\n      dup2\n      dup7\n      gas\n      staticcall\n      iszero\n      dup1\n      iszero\n      tag_189\n      jumpi\n      returndatasize\n      0x00\n      dup1\n      returndatacopy\n      revert(0x00, returndatasize)\n    tag_189:\n      pop\n      pop\n      pop\n      pop\n      mload(0x40)\n      returndatasize\n      not(0x1f)\n      0x1f\n      dup3\n      add\n      and\n      dup3\n      add\n      dup1\n      0x40\n      mstore\n      pop\n      dup2\n      add\n      swap1\n      tag_190\n      swap2\n      swap1\n      tag_191\n      jump\t// in\n    tag_190:\n        /* \"contracts/PRCC_Vesting.sol\":35315:35371  IERC20(token).balanceOf(address(this)) + released(token) */\n      tag_192\n      swap2\n      swap1\n      tag_120\n      jump\t// in\n    tag_192:\n        /* \"contracts/PRCC_Vesting.sol\":35373:35382  timestamp */\n      dup4\n        /* \"contracts/PRCC_Vesting.sol\":35298:35314  _vestingSchedule */\n      tag_121\n        /* \"contracts/PRCC_Vesting.sol\":35298:35383  _vestingSchedule(IERC20(token).balanceOf(address(this)) + released(token), timestamp) */\n      jump\t// in\n    tag_185:\n        /* \"contracts/PRCC_Vesting.sol\":35291:35383  return _vestingSchedule(IERC20(token).balanceOf(address(this)) + released(token), timestamp) */\n      swap1\n      pop\n        /* \"contracts/PRCC_Vesting.sol\":35188:35390  function vestedAmount(address token, uint64 timestamp) public view virtual returns (uint256) {... */\n      swap3\n      swap2\n      pop\n      pop\n      jump\t// out\n        /* \"contracts/PRCC_Vesting.sol\":34174:34372  function release() public virtual {... */\n    tag_73:\n        /* \"contracts/PRCC_Vesting.sol\":34218:34232  uint256 amount */\n      0x00\n        /* \"contracts/PRCC_Vesting.sol\":34235:34247  releasable() */\n      tag_194\n        /* \"contracts/PRCC_Vesting.sol\":34235:34245  releasable */\n      tag_114\n        /* \"contracts/PRCC_Vesting.sol\":34235:34247  releasable() */\n      jump\t// in\n    tag_194:\n        /* \"contracts/PRCC_Vesting.sol\":34218:34247  uint256 amount = releasable() */\n      swap1\n      pop\n        /* \"contracts/PRCC_Vesting.sol\":34270:34276  amount */\n      dup1\n        /* \"contracts/PRCC_Vesting.sol\":34257:34266  _released */\n      0x01\n      0x00\n        /* \"contracts/PRCC_Vesting.sol\":34257:34276  _released += amount */\n      dup3\n      dup3\n      sload\n      tag_195\n      swap2\n      swap1\n      tag_120\n      jump\t// in\n    tag_195:\n      swap3\n      pop\n      pop\n      dup2\n      swap1\n      sstore\n      pop\n        /* \"contracts/PRCC_Vesting.sol\":34291:34312  EtherReleased(amount) */\n      0xda9d4e5f101b8b9b1c5b76d0c5a9f7923571acfc02376aa076b75a8c080c956b\n        /* \"contracts/PRCC_Vesting.sol\":34305:34311  amount */\n      dup2\n        /* \"contracts/PRCC_Vesting.sol\":34291:34312  EtherReleased(amount) */\n      mload(0x40)\n      tag_196\n      swap2\n      swap1\n      tag_33\n      jump\t// in\n    tag_196:\n      mload(0x40)\n      dup1\n      swap2\n      sub\n      swap1\n      log1\n        /* \"contracts/PRCC_Vesting.sol\":34322:34365  Address.sendValue(payable(owner()), amount) */\n      tag_197\n        /* \"contracts/PRCC_Vesting.sol\":34348:34355  owner() */\n      tag_198\n        /* \"contracts/PRCC_Vesting.sol\":34348:34353  owner */\n      tag_76\n        /* \"contracts/PRCC_Vesting.sol\":34348:34355  owner() */\n      jump\t// in\n    tag_198:\n        /* \"contracts/PRCC_Vesting.sol\":34358:34364  amount */\n      dup3\n        /* \"contracts/PRCC_Vesting.sol\":34322:34339  Address.sendValue */\n      tag_199\n        /* \"contracts/PRCC_Vesting.sol\":34322:34365  Address.sendValue(payable(owner()), amount) */\n      jump\t// in\n    tag_197:\n        /* \"contracts/PRCC_Vesting.sol\":34208:34372  {... */\n      pop\n        /* \"contracts/PRCC_Vesting.sol\":34174:34372  function release() public virtual {... */\n      jump\t// out\n        /* \"contracts/PRCC_Vesting.sol\":2742:2827  function owner() public view virtual returns (address) {... */\n    tag_76:\n        /* \"contracts/PRCC_Vesting.sol\":2788:2795  address */\n      0x00\n        /* \"contracts/PRCC_Vesting.sol\":2814:2820  _owner */\n      dup1\n      0x00\n      swap1\n      sload\n      swap1\n      0x0100\n      exp\n      swap1\n      div\n      0xffffffffffffffffffffffffffffffffffffffff\n      and\n        /* \"contracts/PRCC_Vesting.sol\":2807:2820  return _owner */\n      swap1\n      pop\n        /* \"contracts/PRCC_Vesting.sol\":2742:2827  function owner() public view virtual returns (address) {... */\n      swap1\n      jump\t// out\n        /* \"contracts/PRCC_Vesting.sol\":33246:33337  function released() public view virtual returns (uint256) {... */\n    tag_81:\n        /* \"contracts/PRCC_Vesting.sol\":33295:33302  uint256 */\n      0x00\n        /* \"contracts/PRCC_Vesting.sol\":33321:33330  _released */\n      sload(0x01)\n        /* \"contracts/PRCC_Vesting.sol\":33314:33330  return _released */\n      swap1\n      pop\n        /* \"contracts/PRCC_Vesting.sol\":33246:33337  function released() public view virtual returns (uint256) {... */\n      swap1\n      jump\t// out\n        /* \"contracts/PRCC_Vesting.sol\":33404:33520  function released(address token) public view virtual returns (uint256) {... */\n    tag_86:\n        /* \"contracts/PRCC_Vesting.sol\":33466:33473  uint256 */\n      0x00\n        /* \"contracts/PRCC_Vesting.sol\":33492:33506  _erc20Released */\n      0x02\n        /* \"contracts/PRCC_Vesting.sol\":33492:33513  _erc20Released[token] */\n      0x00\n        /* \"contracts/PRCC_Vesting.sol\":33507:33512  token */\n      dup4\n        /* \"contracts/PRCC_Vesting.sol\":33492:33513  _erc20Released[token] */\n      0xffffffffffffffffffffffffffffffffffffffff\n      and\n      0xffffffffffffffffffffffffffffffffffffffff\n      and\n      dup2\n      mstore\n      0x20\n      add\n      swap1\n      dup2\n      mstore\n      0x20\n      add\n      0x00\n      keccak256\n      sload\n        /* \"contracts/PRCC_Vesting.sol\":33485:33513  return _erc20Released[token] */\n      swap1\n      pop\n        /* \"contracts/PRCC_Vesting.sol\":33404:33520  function released(address token) public view virtual returns (uint256) {... */\n      swap2\n      swap1\n      pop\n      jump\t// out\n        /* \"contracts/PRCC_Vesting.sol\":33877:34036  function releasable(address token) public view virtual returns (uint256) {... */\n    tag_91:\n        /* \"contracts/PRCC_Vesting.sol\":33941:33948  uint256 */\n      0x00\n        /* \"contracts/PRCC_Vesting.sol\":34014:34029  released(token) */\n      tag_204\n        /* \"contracts/PRCC_Vesting.sol\":34023:34028  token */\n      dup3\n        /* \"contracts/PRCC_Vesting.sol\":34014:34022  released */\n      tag_86\n        /* \"contracts/PRCC_Vesting.sol\":34014:34029  released(token) */\n      jump\t// in\n    tag_204:\n        /* \"contracts/PRCC_Vesting.sol\":33967:34011  vestedAmount(token, uint64(block.timestamp)) */\n      tag_205\n        /* \"contracts/PRCC_Vesting.sol\":33980:33985  token */\n      dup4\n        /* \"contracts/PRCC_Vesting.sol\":33994:34009  block.timestamp */\n      timestamp\n        /* \"contracts/PRCC_Vesting.sol\":33967:33979  vestedAmount */\n      tag_69\n        /* \"contracts/PRCC_Vesting.sol\":33967:34011  vestedAmount(token, uint64(block.timestamp)) */\n      jump\t// in\n    tag_205:\n        /* \"contracts/PRCC_Vesting.sol\":33967:34029  vestedAmount(token, uint64(block.timestamp)) - released(token) */\n      tag_206\n      swap2\n      swap1\n      tag_207\n      jump\t// in\n    tag_206:\n        /* \"contracts/PRCC_Vesting.sol\":33960:34029  return vestedAmount(token, uint64(block.timestamp)) - released(token) */\n      swap1\n      pop\n        /* \"contracts/PRCC_Vesting.sol\":33877:34036  function releasable(address token) public view virtual returns (uint256) {... */\n      swap2\n      swap1\n      pop\n      jump\t// out\n        /* \"contracts/PRCC_Vesting.sol\":145884:146081  function dateTimeToTimestamp(string memory dateTime) public view virtual returns (uint64) {... */\n    tag_97:\n        /* \"contracts/PRCC_Vesting.sol\":145966:145972  uint64 */\n      0x00\n        /* \"contracts/PRCC_Vesting.sol\":145986:146003  uint256 timestamp */\n      dup1\n        /* \"contracts/PRCC_Vesting.sol\":146004:146032  _stringToTimestamp(dateTime) */\n      tag_209\n        /* \"contracts/PRCC_Vesting.sol\":146023:146031  dateTime */\n      dup4\n        /* \"contracts/PRCC_Vesting.sol\":146004:146022  _stringToTimestamp */\n      tag_148\n        /* \"contracts/PRCC_Vesting.sol\":146004:146032  _stringToTimestamp(dateTime) */\n      jump\t// in\n    tag_209:\n        /* \"contracts/PRCC_Vesting.sol\":145986:146032  uint256 timestamp=_stringToTimestamp(dateTime) */\n      swap1\n      pop\n        /* \"contracts/PRCC_Vesting.sol\":146050:146074  _toUint64Safe(timestamp) */\n      tag_210\n        /* \"contracts/PRCC_Vesting.sol\":146064:146073  timestamp */\n      dup2\n        /* \"contracts/PRCC_Vesting.sol\":146050:146063  _toUint64Safe */\n      tag_151\n        /* \"contracts/PRCC_Vesting.sol\":146050:146074  _toUint64Safe(timestamp) */\n      jump\t// in\n    tag_210:\n        /* \"contracts/PRCC_Vesting.sol\":146043:146074  return _toUint64Safe(timestamp) */\n      swap2\n      pop\n      pop\n        /* \"contracts/PRCC_Vesting.sol\":145884:146081  function dateTimeToTimestamp(string memory dateTime) public view virtual returns (uint64) {... */\n      swap2\n      swap1\n      pop\n      jump\t// out\n        /* \"contracts/PRCC_Vesting.sol\":32777:32862  function start() public view virtual returns (uint256) {... */\n    tag_102:\n        /* \"contracts/PRCC_Vesting.sol\":32823:32830  uint256 */\n      0x00\n        /* \"contracts/PRCC_Vesting.sol\":32849:32855  _start */\n      immutable(\"0x7e61868c26ad9542219295e4248d06589934ece56761f625f341eef80a4788c7\")\n        /* \"contracts/PRCC_Vesting.sol\":32842:32855  return _start */\n      0xffffffffffffffff\n      and\n      swap1\n      pop\n        /* \"contracts/PRCC_Vesting.sol\":32777:32862  function start() public view virtual returns (uint256) {... */\n      swap1\n      jump\t// out\n        /* \"contracts/PRCC_Vesting.sol\":33084:33181  function end() public view virtual returns (uint256) {... */\n    tag_106:\n        /* \"contracts/PRCC_Vesting.sol\":33128:33135  uint256 */\n      0x00\n        /* \"contracts/PRCC_Vesting.sol\":33164:33174  duration() */\n      tag_213\n        /* \"contracts/PRCC_Vesting.sol\":33164:33172  duration */\n      tag_36\n        /* \"contracts/PRCC_Vesting.sol\":33164:33174  duration() */\n      jump\t// in\n    tag_213:\n        /* \"contracts/PRCC_Vesting.sol\":33154:33161  start() */\n      tag_214\n        /* \"contracts/PRCC_Vesting.sol\":33154:33159  start */\n      tag_102\n        /* \"contracts/PRCC_Vesting.sol\":33154:33161  start() */\n      jump\t// in\n    tag_214:\n        /* \"contracts/PRCC_Vesting.sol\":33154:33174  start() + duration() */\n      tag_215\n      swap2\n      swap1\n      tag_120\n      jump\t// in\n    tag_215:\n        /* \"contracts/PRCC_Vesting.sol\":33147:33174  return start() + duration() */\n      swap1\n      pop\n        /* \"contracts/PRCC_Vesting.sol\":33084:33181  function end() public view virtual returns (uint256) {... */\n      swap1\n      jump\t// out\n        /* \"contracts/PRCC_Vesting.sol\":3647:3862  function transferOwnership(address newOwner) public virtual onlyOwner {... */\n    tag_111:\n        /* \"contracts/PRCC_Vesting.sol\":2635:2648  _checkOwner() */\n      tag_217\n        /* \"contracts/PRCC_Vesting.sol\":2635:2646  _checkOwner */\n      tag_169\n        /* \"contracts/PRCC_Vesting.sol\":2635:2648  _checkOwner() */\n      jump\t// in\n    tag_217:\n        /* \"contracts/PRCC_Vesting.sol\":3751:3752  0 */\n      0x00\n        /* \"contracts/PRCC_Vesting.sol\":3731:3753  newOwner == address(0) */\n      0xffffffffffffffffffffffffffffffffffffffff\n      and\n        /* \"contracts/PRCC_Vesting.sol\":3731:3739  newOwner */\n      dup2\n        /* \"contracts/PRCC_Vesting.sol\":3731:3753  newOwner == address(0) */\n      0xffffffffffffffffffffffffffffffffffffffff\n      and\n      sub\n        /* \"contracts/PRCC_Vesting.sol\":3727:3818  if (newOwner == address(0)) {... */\n      tag_219\n      jumpi\n        /* \"contracts/PRCC_Vesting.sol\":3804:3805  0 */\n      0x00\n        /* \"contracts/PRCC_Vesting.sol\":3776:3807  OwnableInvalidOwner(address(0)) */\n      mload(0x40)\n      0x1e4fbdf700000000000000000000000000000000000000000000000000000000\n      dup2\n      mstore\n      0x04\n      add\n      tag_220\n      swap2\n      swap1\n      tag_78\n      jump\t// in\n    tag_220:\n      mload(0x40)\n      dup1\n      swap2\n      sub\n      swap1\n      revert\n        /* \"contracts/PRCC_Vesting.sol\":3727:3818  if (newOwner == address(0)) {... */\n    tag_219:\n        /* \"contracts/PRCC_Vesting.sol\":3827:3855  _transferOwnership(newOwner) */\n      tag_221\n        /* \"contracts/PRCC_Vesting.sol\":3846:3854  newOwner */\n      dup2\n        /* \"contracts/PRCC_Vesting.sol\":3827:3845  _transferOwnership */\n      tag_172\n        /* \"contracts/PRCC_Vesting.sol\":3827:3855  _transferOwnership(newOwner) */\n      jump\t// in\n    tag_221:\n        /* \"contracts/PRCC_Vesting.sol\":3647:3862  function transferOwnership(address newOwner) public virtual onlyOwner {... */\n      pop\n      jump\t// out\n        /* \"contracts/PRCC_Vesting.sol\":33595:33729  function releasable() public view virtual returns (uint256) {... */\n    tag_114:\n        /* \"contracts/PRCC_Vesting.sol\":33646:33653  uint256 */\n      0x00\n        /* \"contracts/PRCC_Vesting.sol\":33712:33722  released() */\n      tag_223\n        /* \"contracts/PRCC_Vesting.sol\":33712:33720  released */\n      tag_81\n        /* \"contracts/PRCC_Vesting.sol\":33712:33722  released() */\n      jump\t// in\n    tag_223:\n        /* \"contracts/PRCC_Vesting.sol\":33672:33709  vestedAmount(uint64(block.timestamp)) */\n      tag_224\n        /* \"contracts/PRCC_Vesting.sol\":33692:33707  block.timestamp */\n      timestamp\n        /* \"contracts/PRCC_Vesting.sol\":33672:33684  vestedAmount */\n      tag_31\n        /* \"contracts/PRCC_Vesting.sol\":33672:33709  vestedAmount(uint64(block.timestamp)) */\n      jump\t// in\n    tag_224:\n        /* \"contracts/PRCC_Vesting.sol\":33672:33722  vestedAmount(uint64(block.timestamp)) - released() */\n      tag_225\n      swap2\n      swap1\n      tag_207\n      jump\t// in\n    tag_225:\n        /* \"contracts/PRCC_Vesting.sol\":33665:33722  return vestedAmount(uint64(block.timestamp)) - released() */\n      swap1\n      pop\n        /* \"contracts/PRCC_Vesting.sol\":33595:33729  function releasable() public view virtual returns (uint256) {... */\n      swap1\n      jump\t// out\n        /* \"contracts/PRCC_Vesting.sol\":35585:35937  function _vestingSchedule(uint256 totalAllocation, uint64 timestamp) internal view virtual returns (uint256) {... */\n    tag_121:\n        /* \"contracts/PRCC_Vesting.sol\":35685:35692  uint256 */\n      0x00\n        /* \"contracts/PRCC_Vesting.sol\":35720:35727  start() */\n      tag_227\n        /* \"contracts/PRCC_Vesting.sol\":35720:35725  start */\n      tag_102\n        /* \"contracts/PRCC_Vesting.sol\":35720:35727  start() */\n      jump\t// in\n    tag_227:\n        /* \"contracts/PRCC_Vesting.sol\":35708:35717  timestamp */\n      dup3\n        /* \"contracts/PRCC_Vesting.sol\":35708:35727  timestamp < start() */\n      0xffffffffffffffff\n      and\n      lt\n        /* \"contracts/PRCC_Vesting.sol\":35704:35931  if (timestamp < start()) {... */\n      iszero\n      tag_228\n      jumpi\n        /* \"contracts/PRCC_Vesting.sol\":35750:35751  0 */\n      0x00\n        /* \"contracts/PRCC_Vesting.sol\":35743:35751  return 0 */\n      swap1\n      pop\n      jump(tag_226)\n        /* \"contracts/PRCC_Vesting.sol\":35704:35931  if (timestamp < start()) {... */\n    tag_228:\n        /* \"contracts/PRCC_Vesting.sol\":35785:35790  end() */\n      tag_230\n        /* \"contracts/PRCC_Vesting.sol\":35785:35788  end */\n      tag_106\n        /* \"contracts/PRCC_Vesting.sol\":35785:35790  end() */\n      jump\t// in\n    tag_230:\n        /* \"contracts/PRCC_Vesting.sol\":35772:35781  timestamp */\n      dup3\n        /* \"contracts/PRCC_Vesting.sol\":35772:35790  timestamp >= end() */\n      0xffffffffffffffff\n      and\n      lt\n        /* \"contracts/PRCC_Vesting.sol\":35768:35931  if (timestamp >= end()) {... */\n      tag_231\n      jumpi\n        /* \"contracts/PRCC_Vesting.sol\":35813:35828  totalAllocation */\n      dup3\n        /* \"contracts/PRCC_Vesting.sol\":35806:35828  return totalAllocation */\n      swap1\n      pop\n      jump(tag_226)\n        /* \"contracts/PRCC_Vesting.sol\":35768:35931  if (timestamp >= end()) {... */\n    tag_231:\n        /* \"contracts/PRCC_Vesting.sol\":35910:35920  duration() */\n      tag_233\n        /* \"contracts/PRCC_Vesting.sol\":35910:35918  duration */\n      tag_36\n        /* \"contracts/PRCC_Vesting.sol\":35910:35920  duration() */\n      jump\t// in\n    tag_233:\n        /* \"contracts/PRCC_Vesting.sol\":35898:35905  start() */\n      tag_234\n        /* \"contracts/PRCC_Vesting.sol\":35898:35903  start */\n      tag_102\n        /* \"contracts/PRCC_Vesting.sol\":35898:35905  start() */\n      jump\t// in\n    tag_234:\n        /* \"contracts/PRCC_Vesting.sol\":35886:35895  timestamp */\n      dup4\n        /* \"contracts/PRCC_Vesting.sol\":35886:35905  timestamp - start() */\n      0xffffffffffffffff\n      and\n      tag_235\n      swap2\n      swap1\n      tag_207\n      jump\t// in\n    tag_235:\n        /* \"contracts/PRCC_Vesting.sol\":35867:35882  totalAllocation */\n      dup5\n        /* \"contracts/PRCC_Vesting.sol\":35867:35906  totalAllocation * (timestamp - start()) */\n      tag_236\n      swap2\n      swap1\n      tag_237\n      jump\t// in\n    tag_236:\n        /* \"contracts/PRCC_Vesting.sol\":35866:35920  (totalAllocation * (timestamp - start())) / duration() */\n      tag_238\n      swap2\n      swap1\n      tag_153\n      jump\t// in\n    tag_238:\n        /* \"contracts/PRCC_Vesting.sol\":35859:35920  return (totalAllocation * (timestamp - start())) / duration() */\n      swap1\n      pop\n        /* \"contracts/PRCC_Vesting.sol\":35585:35937  function _vestingSchedule(uint256 totalAllocation, uint64 timestamp) internal view virtual returns (uint256) {... */\n    tag_226:\n      swap3\n      swap2\n      pop\n      pop\n      jump\t// out\n        /* \"contracts/PRCC_Vesting.sol\":14133:14293  function safeTransfer(IERC20 token, address to, uint256 value) internal {... */\n    tag_129:\n        /* \"contracts/PRCC_Vesting.sol\":14215:14286  _callOptionalReturn(token, abi.encodeCall(token.transfer, (to, value))) */\n      tag_240\n        /* \"contracts/PRCC_Vesting.sol\":14235:14240  token */\n      dup4\n        /* \"contracts/PRCC_Vesting.sol\":14257:14262  token */\n      dup5\n        /* \"contracts/PRCC_Vesting.sol\":14257:14271  token.transfer */\n      0xffffffffffffffffffffffffffffffffffffffff\n      and\n      0xa9059cbb\n        /* \"contracts/PRCC_Vesting.sol\":14274:14276  to */\n      dup6\n        /* \"contracts/PRCC_Vesting.sol\":14278:14283  value */\n      dup6\n        /* \"contracts/PRCC_Vesting.sol\":14242:14285  abi.encodeCall(token.transfer, (to, value)) */\n      add(0x24, mload(0x40))\n      tag_241\n      swap3\n      swap2\n      swap1\n      tag_242\n      jump\t// in\n    tag_241:\n      mload(0x40)\n      0x20\n      dup2\n      dup4\n      sub\n      sub\n      dup2\n      mstore\n      swap1\n      0x40\n      mstore\n      swap2\n      pop\n      0xe0\n      shl\n      0x20\n      dup3\n      add\n      dup1\n      mload\n      0xffffffffffffffffffffffffffffffffffffffffffffffffffffffff\n      dup4\n      dup2\n      dup4\n      and\n      or\n      dup4\n      mstore\n      pop\n      pop\n      pop\n      pop\n        /* \"contracts/PRCC_Vesting.sol\":14215:14234  _callOptionalReturn */\n      tag_243\n        /* \"contracts/PRCC_Vesting.sol\":14215:14286  _callOptionalReturn(token, abi.encodeCall(token.transfer, (to, value))) */\n      jump\t// in\n    tag_240:\n        /* \"contracts/PRCC_Vesting.sol\":14133:14293  function safeTransfer(IERC20 token, address to, uint256 value) internal {... */\n      pop\n      pop\n      pop\n      jump\t// out\n        /* \"contracts/PRCC_Vesting.sol\":135910:136112  function addHours(uint timestamp, uint _hours) internal pure returns (uint newTimestamp) {... */\n    tag_133:\n        /* \"contracts/PRCC_Vesting.sol\":135980:135997  uint newTimestamp */\n      0x00\n        /* \"contracts/PRCC_Vesting.sol\":127738:127745  60 * 60 */\n      0x0e10\n        /* \"contracts/PRCC_Vesting.sol\":136036:136042  _hours */\n      dup3\n        /* \"contracts/PRCC_Vesting.sol\":136036:136061  _hours * SECONDS_PER_HOUR */\n      tag_245\n      swap2\n      swap1\n      tag_237\n      jump\t// in\n    tag_245:\n        /* \"contracts/PRCC_Vesting.sol\":136024:136033  timestamp */\n      dup4\n        /* \"contracts/PRCC_Vesting.sol\":136024:136061  timestamp + _hours * SECONDS_PER_HOUR */\n      tag_246\n      swap2\n      swap1\n      tag_120\n      jump\t// in\n    tag_246:\n        /* \"contracts/PRCC_Vesting.sol\":136009:136061  newTimestamp = timestamp + _hours * SECONDS_PER_HOUR */\n      swap1\n      pop\n        /* \"contracts/PRCC_Vesting.sol\":136095:136104  timestamp */\n      dup3\n        /* \"contracts/PRCC_Vesting.sol\":136079:136091  newTimestamp */\n      dup2\n        /* \"contracts/PRCC_Vesting.sol\":136079:136104  newTimestamp >= timestamp */\n      lt\n      iszero\n        /* \"contracts/PRCC_Vesting.sol\":136071:136105  require(newTimestamp >= timestamp) */\n      tag_247\n      jumpi\n      0x00\n      dup1\n      revert\n    tag_247:\n        /* \"contracts/PRCC_Vesting.sol\":135910:136112  function addHours(uint timestamp, uint _hours) internal pure returns (uint newTimestamp) {... */\n      swap3\n      swap2\n      pop\n      pop\n      jump\t// out\n        /* \"contracts/PRCC_Vesting.sol\":131244:131677  function timestampToDateTime(uint timestamp) internal pure returns (uint year, uint month, uint day, uint hour, uint minute, uint second) {... */\n    tag_135:\n        /* \"contracts/PRCC_Vesting.sol\":131312:131321  uint year */\n      0x00\n        /* \"contracts/PRCC_Vesting.sol\":131323:131333  uint month */\n      dup1\n        /* \"contracts/PRCC_Vesting.sol\":131335:131343  uint day */\n      0x00\n        /* \"contracts/PRCC_Vesting.sol\":131345:131354  uint hour */\n      dup1\n        /* \"contracts/PRCC_Vesting.sol\":131356:131367  uint minute */\n      0x00\n        /* \"contracts/PRCC_Vesting.sol\":131369:131380  uint second */\n      dup1\n        /* \"contracts/PRCC_Vesting.sol\":131413:131453  _daysToDate(timestamp / SECONDS_PER_DAY) */\n      tag_249\n        /* \"contracts/PRCC_Vesting.sol\":127687:127699  24 * 60 * 60 */\n      0x015180\n        /* \"contracts/PRCC_Vesting.sol\":131425:131434  timestamp */\n      dup9\n        /* \"contracts/PRCC_Vesting.sol\":131425:131452  timestamp / SECONDS_PER_DAY */\n      tag_250\n      swap2\n      swap1\n      tag_153\n      jump\t// in\n    tag_250:\n        /* \"contracts/PRCC_Vesting.sol\":131413:131424  _daysToDate */\n      tag_251\n        /* \"contracts/PRCC_Vesting.sol\":131413:131453  _daysToDate(timestamp / SECONDS_PER_DAY) */\n      jump\t// in\n    tag_249:\n        /* \"contracts/PRCC_Vesting.sol\":131392:131453  (year, month, day) = _daysToDate(timestamp / SECONDS_PER_DAY) */\n      dup1\n      swap7\n      pop\n      dup2\n      swap8\n      pop\n      dup3\n      swap9\n      pop\n      pop\n      pop\n      pop\n        /* \"contracts/PRCC_Vesting.sol\":131463:131472  uint secs */\n      0x00\n        /* \"contracts/PRCC_Vesting.sol\":127687:127699  24 * 60 * 60 */\n      0x015180\n        /* \"contracts/PRCC_Vesting.sol\":131475:131484  timestamp */\n      dup9\n        /* \"contracts/PRCC_Vesting.sol\":131475:131502  timestamp % SECONDS_PER_DAY */\n      tag_252\n      swap2\n      swap1\n      tag_155\n      jump\t// in\n    tag_252:\n        /* \"contracts/PRCC_Vesting.sol\":131463:131502  uint secs = timestamp % SECONDS_PER_DAY */\n      swap1\n      pop\n        /* \"contracts/PRCC_Vesting.sol\":127738:127745  60 * 60 */\n      0x0e10\n        /* \"contracts/PRCC_Vesting.sol\":131519:131523  secs */\n      dup2\n        /* \"contracts/PRCC_Vesting.sol\":131519:131542  secs / SECONDS_PER_HOUR */\n      tag_253\n      swap2\n      swap1\n      tag_153\n      jump\t// in\n    tag_253:\n        /* \"contracts/PRCC_Vesting.sol\":131512:131542  hour = secs / SECONDS_PER_HOUR */\n      swap4\n      pop\n        /* \"contracts/PRCC_Vesting.sol\":127738:127745  60 * 60 */\n      0x0e10\n        /* \"contracts/PRCC_Vesting.sol\":131559:131563  secs */\n      dup2\n        /* \"contracts/PRCC_Vesting.sol\":131559:131582  secs % SECONDS_PER_HOUR */\n      tag_254\n      swap2\n      swap1\n      tag_155\n      jump\t// in\n    tag_254:\n        /* \"contracts/PRCC_Vesting.sol\":131552:131582  secs = secs % SECONDS_PER_HOUR */\n      swap1\n      pop\n        /* \"contracts/PRCC_Vesting.sol\":127786:127788  60 */\n      0x3c\n        /* \"contracts/PRCC_Vesting.sol\":131601:131605  secs */\n      dup2\n        /* \"contracts/PRCC_Vesting.sol\":131601:131626  secs / SECONDS_PER_MINUTE */\n      tag_255\n      swap2\n      swap1\n      tag_153\n      jump\t// in\n    tag_255:\n        /* \"contracts/PRCC_Vesting.sol\":131592:131626  minute = secs / SECONDS_PER_MINUTE */\n      swap3\n      pop\n        /* \"contracts/PRCC_Vesting.sol\":127786:127788  60 */\n      0x3c\n        /* \"contracts/PRCC_Vesting.sol\":131645:131649  secs */\n      dup2\n        /* \"contracts/PRCC_Vesting.sol\":131645:131670  secs % SECONDS_PER_MINUTE */\n      tag_256\n      swap2\n      swap1\n      tag_155\n      jump\t// in\n    tag_256:\n        /* \"contracts/PRCC_Vesting.sol\":131636:131670  second = secs % SECONDS_PER_MINUTE */\n      swap2\n      pop\n        /* \"contracts/PRCC_Vesting.sol\":131382:131677  {... */\n      pop\n        /* \"contracts/PRCC_Vesting.sol\":131244:131677  function timestampToDateTime(uint timestamp) internal pure returns (uint year, uint month, uint day, uint hour, uint minute, uint second) {... */\n      swap2\n      swap4\n      swap6\n      pop\n      swap2\n      swap4\n      swap6\n      jump\t// out\n        /* \"contracts/PRCC_Vesting.sol\":140744:141228  function _uintToString(uint256 value) internal pure returns (string memory) {... */\n    tag_137:\n        /* \"contracts/PRCC_Vesting.sol\":140805:140818  string memory */\n      0x60\n        /* \"contracts/PRCC_Vesting.sol\":140843:140844  0 */\n      0x00\n        /* \"contracts/PRCC_Vesting.sol\":140834:140839  value */\n      dup3\n        /* \"contracts/PRCC_Vesting.sol\":140834:140844  value == 0 */\n      sub\n        /* \"contracts/PRCC_Vesting.sol\":140830:140856  if (value == 0) return \"0\" */\n      tag_258\n      jumpi\n        /* \"contracts/PRCC_Vesting.sol\":140846:140856  return \"0\" */\n      mload(0x40)\n      dup1\n      0x40\n      add\n      0x40\n      mstore\n      dup1\n      0x01\n      dup2\n      mstore\n      0x20\n      add\n      0x3000000000000000000000000000000000000000000000000000000000000000\n      dup2\n      mstore\n      pop\n      swap1\n      pop\n      jump(tag_257)\n        /* \"contracts/PRCC_Vesting.sol\":140830:140856  if (value == 0) return \"0\" */\n    tag_258:\n        /* \"contracts/PRCC_Vesting.sol\":140866:140878  uint256 temp */\n      0x00\n        /* \"contracts/PRCC_Vesting.sol\":140881:140886  value */\n      dup3\n        /* \"contracts/PRCC_Vesting.sol\":140866:140886  uint256 temp = value */\n      swap1\n      pop\n        /* \"contracts/PRCC_Vesting.sol\":140896:140910  uint256 digits */\n      0x00\n        /* \"contracts/PRCC_Vesting.sol\":140920:140995  while (temp != 0) {... */\n    tag_259:\n        /* \"contracts/PRCC_Vesting.sol\":140935:140936  0 */\n      0x00\n        /* \"contracts/PRCC_Vesting.sol\":140927:140931  temp */\n      dup3\n        /* \"contracts/PRCC_Vesting.sol\":140927:140936  temp != 0 */\n      eq\n        /* \"contracts/PRCC_Vesting.sol\":140920:140995  while (temp != 0) {... */\n      tag_260\n      jumpi\n        /* \"contracts/PRCC_Vesting.sol\":140952:140960  digits++ */\n      dup1\n      dup1\n      tag_261\n      swap1\n      tag_262\n      jump\t// in\n    tag_261:\n      swap2\n      pop\n      pop\n        /* \"contracts/PRCC_Vesting.sol\":140982:140984  10 */\n      0x0a\n        /* \"contracts/PRCC_Vesting.sol\":140974:140984  temp /= 10 */\n      dup3\n      tag_263\n      swap2\n      swap1\n      tag_153\n      jump\t// in\n    tag_263:\n      swap2\n      pop\n        /* \"contracts/PRCC_Vesting.sol\":140920:140995  while (temp != 0) {... */\n      jump(tag_259)\n    tag_260:\n        /* \"contracts/PRCC_Vesting.sol\":141004:141023  bytes memory buffer */\n      0x00\n        /* \"contracts/PRCC_Vesting.sol\":141036:141042  digits */\n      dup2\n        /* \"contracts/PRCC_Vesting.sol\":141026:141043  new bytes(digits) */\n      0xffffffffffffffff\n      dup2\n      gt\n      iszero\n      tag_264\n      jumpi\n      tag_265\n      tag_266\n      jump\t// in\n    tag_265:\n    tag_264:\n      mload(0x40)\n      swap1\n      dup1\n      dup3\n      mstore\n      dup1\n      0x1f\n      add\n      not(0x1f)\n      and\n      0x20\n      add\n      dup3\n      add\n      0x40\n      mstore\n      dup1\n      iszero\n      tag_267\n      jumpi\n      dup2\n      0x20\n      add\n      0x01\n      dup3\n      mul\n      dup1\n      calldatasize\n      dup4\n      calldatacopy\n      dup1\n      dup3\n      add\n      swap2\n      pop\n      pop\n      swap1\n      pop\n    tag_267:\n      pop\n        /* \"contracts/PRCC_Vesting.sol\":141004:141043  bytes memory buffer = new bytes(digits) */\n      swap1\n      pop\n        /* \"contracts/PRCC_Vesting.sol\":141053:141191  while (value != 0) {... */\n    tag_268:\n        /* \"contracts/PRCC_Vesting.sol\":141069:141070  0 */\n      0x00\n        /* \"contracts/PRCC_Vesting.sol\":141060:141065  value */\n      dup6\n        /* \"contracts/PRCC_Vesting.sol\":141060:141070  value != 0 */\n      eq\n        /* \"contracts/PRCC_Vesting.sol\":141053:141191  while (value != 0) {... */\n      tag_269\n      jumpi\n        /* \"contracts/PRCC_Vesting.sol\":141086:141094  digits-- */\n      dup2\n      dup1\n      tag_270\n      swap1\n      tag_271\n      jump\t// in\n    tag_270:\n      swap3\n      pop\n      pop\n        /* \"contracts/PRCC_Vesting.sol\":141151:141153  10 */\n      0x0a\n        /* \"contracts/PRCC_Vesting.sol\":141143:141148  value */\n      dup6\n        /* \"contracts/PRCC_Vesting.sol\":141143:141153  value % 10 */\n      tag_272\n      swap2\n      swap1\n      tag_155\n      jump\t// in\n    tag_272:\n        /* \"contracts/PRCC_Vesting.sol\":141138:141140  48 */\n      0x30\n        /* \"contracts/PRCC_Vesting.sol\":141138:141153  48 + value % 10 */\n      tag_273\n      swap2\n      swap1\n      tag_120\n      jump\t// in\n    tag_273:\n        /* \"contracts/PRCC_Vesting.sol\":141125:141155  bytes1(uint8(48 + value % 10)) */\n      0xf8\n      shl\n        /* \"contracts/PRCC_Vesting.sol\":141108:141114  buffer */\n      dup2\n        /* \"contracts/PRCC_Vesting.sol\":141115:141121  digits */\n      dup4\n        /* \"contracts/PRCC_Vesting.sol\":141108:141122  buffer[digits] */\n      dup2\n      mload\n      dup2\n      lt\n      tag_274\n      jumpi\n      tag_275\n      tag_276\n      jump\t// in\n    tag_275:\n    tag_274:\n      0x20\n      add\n      add\n        /* \"contracts/PRCC_Vesting.sol\":141108:141155  buffer[digits] = bytes1(uint8(48 + value % 10)) */\n      swap1\n      not(0xffffffffffffffffffffffffffffffffffffffffffffffffffffffffffffff)\n      and\n      swap1\n      dup2\n      0x00\n      byte\n      swap1\n      mstore8\n      pop\n        /* \"contracts/PRCC_Vesting.sol\":141178:141180  10 */\n      0x0a\n        /* \"contracts/PRCC_Vesting.sol\":141169:141180  value /= 10 */\n      dup6\n      tag_277\n      swap2\n      swap1\n      tag_153\n      jump\t// in\n    tag_277:\n      swap5\n      pop\n        /* \"contracts/PRCC_Vesting.sol\":141053:141191  while (value != 0) {... */\n      jump(tag_268)\n    tag_269:\n        /* \"contracts/PRCC_Vesting.sol\":141214:141220  buffer */\n      dup1\n        /* \"contracts/PRCC_Vesting.sol\":141200:141221  return string(buffer) */\n      swap4\n      pop\n      pop\n      pop\n      pop\n        /* \"contracts/PRCC_Vesting.sol\":140744:141228  function _uintToString(uint256 value) internal pure returns (string memory) {... */\n    tag_257:\n      swap2\n      swap1\n      pop\n      jump\t// out\n        /* \"contracts/PRCC_Vesting.sol\":140474:140670  function _padZero(uint256 n) internal pure returns (string memory) {... */\n    tag_139:\n        /* \"contracts/PRCC_Vesting.sol\":140526:140539  string memory */\n      0x60\n        /* \"contracts/PRCC_Vesting.sol\":140559:140561  10 */\n      0x0a\n        /* \"contracts/PRCC_Vesting.sol\":140555:140556  n */\n      dup3\n        /* \"contracts/PRCC_Vesting.sol\":140555:140561  n < 10 */\n      lt\n        /* \"contracts/PRCC_Vesting.sol\":140551:140631  if (n < 10) {... */\n      iszero\n      tag_279\n      jumpi\n        /* \"contracts/PRCC_Vesting.sol\":140603:140619  _uintToString(n) */\n      tag_280\n        /* \"contracts/PRCC_Vesting.sol\":140617:140618  n */\n      dup3\n        /* \"contracts/PRCC_Vesting.sol\":140603:140616  _uintToString */\n      tag_137\n        /* \"contracts/PRCC_Vesting.sol\":140603:140619  _uintToString(n) */\n      jump\t// in\n    tag_280:\n        /* \"contracts/PRCC_Vesting.sol\":140584:140620  string.concat(\"0\", _uintToString(n)) */\n      add(0x20, mload(0x40))\n      tag_281\n      swap2\n      swap1\n      tag_282\n      jump\t// in\n    tag_281:\n      mload(0x40)\n      0x20\n      dup2\n      dup4\n      sub\n      sub\n      dup2\n      mstore\n      swap1\n      0x40\n      mstore\n        /* \"contracts/PRCC_Vesting.sol\":140577:140620  return string.concat(\"0\", _uintToString(n)) */\n      swap1\n      pop\n      jump(tag_278)\n        /* \"contracts/PRCC_Vesting.sol\":140551:140631  if (n < 10) {... */\n    tag_279:\n        /* \"contracts/PRCC_Vesting.sol\":140647:140663  _uintToString(n) */\n      tag_283\n        /* \"contracts/PRCC_Vesting.sol\":140661:140662  n */\n      dup3\n        /* \"contracts/PRCC_Vesting.sol\":140647:140660  _uintToString */\n      tag_137\n        /* \"contracts/PRCC_Vesting.sol\":140647:140663  _uintToString(n) */\n      jump\t// in\n    tag_283:\n        /* \"contracts/PRCC_Vesting.sol\":140640:140663  return _uintToString(n) */\n      swap1\n      pop\n        /* \"contracts/PRCC_Vesting.sol\":140474:140670  function _padZero(uint256 n) internal pure returns (string memory) {... */\n    tag_278:\n      swap2\n      swap1\n      pop\n      jump\t// out\n        /* \"contracts/PRCC_Vesting.sol\":141856:143987  function _stringToTimestamp(string memory dateStr) private pure returns (uint256) {... */\n    tag_148:\n        /* \"contracts/PRCC_Vesting.sol\":141929:141936  uint256 */\n      0x00\n        /* \"contracts/PRCC_Vesting.sol\":141948:141962  bytes memory b */\n      dup1\n        /* \"contracts/PRCC_Vesting.sol\":141971:141978  dateStr */\n      dup3\n        /* \"contracts/PRCC_Vesting.sol\":141948:141979  bytes memory b = bytes(dateStr) */\n      swap1\n      pop\n        /* \"contracts/PRCC_Vesting.sol\":142009:142011  10 */\n      0x0a\n        /* \"contracts/PRCC_Vesting.sol\":141997:141998  b */\n      dup2\n        /* \"contracts/PRCC_Vesting.sol\":141997:142005  b.length */\n      mload\n        /* \"contracts/PRCC_Vesting.sol\":141997:142011  b.length == 10 */\n      eq\n        /* \"contracts/PRCC_Vesting.sol\":141997:142029  b.length == 10 || b.length == 19 */\n      dup1\n      tag_285\n      jumpi\n      pop\n        /* \"contracts/PRCC_Vesting.sol\":142027:142029  19 */\n      0x13\n        /* \"contracts/PRCC_Vesting.sol\":142015:142016  b */\n      dup2\n        /* \"contracts/PRCC_Vesting.sol\":142015:142023  b.length */\n      mload\n        /* \"contracts/PRCC_Vesting.sol\":142015:142029  b.length == 19 */\n      eq\n        /* \"contracts/PRCC_Vesting.sol\":141997:142029  b.length == 10 || b.length == 19 */\n    tag_285:\n        /* \"contracts/PRCC_Vesting.sol\":141989:142088  require(b.length == 10 || b.length == 19, \"Invalid format (use YYYY-MM-DD or YYYY-MM-DD hh:mm:ss)\") */\n      tag_286\n      jumpi\n      mload(0x40)\n      0x08c379a000000000000000000000000000000000000000000000000000000000\n      dup2\n      mstore\n      0x04\n      add\n      tag_287\n      swap1\n      tag_288\n      jump\t// in\n    tag_287:\n      mload(0x40)\n      dup1\n      swap2\n      sub\n      swap1\n      revert\n    tag_286:\n        /* \"contracts/PRCC_Vesting.sol\":142172:142184  uint256 year */\n      0x00\n        /* \"contracts/PRCC_Vesting.sol\":142187:142205  _parseInt(b, 0, 4) */\n      tag_289\n        /* \"contracts/PRCC_Vesting.sol\":142197:142198  b */\n      dup3\n        /* \"contracts/PRCC_Vesting.sol\":142200:142201  0 */\n      0x00\n        /* \"contracts/PRCC_Vesting.sol\":142203:142204  4 */\n      0x04\n        /* \"contracts/PRCC_Vesting.sol\":142187:142196  _parseInt */\n      tag_290\n        /* \"contracts/PRCC_Vesting.sol\":142187:142205  _parseInt(b, 0, 4) */\n      jump\t// in\n    tag_289:\n        /* \"contracts/PRCC_Vesting.sol\":142172:142205  uint256 year = _parseInt(b, 0, 4) */\n      swap1\n      pop\n        /* \"contracts/PRCC_Vesting.sol\":142237:142250  uint256 month */\n      0x00\n        /* \"contracts/PRCC_Vesting.sol\":142253:142271  _parseInt(b, 5, 2) */\n      tag_291\n        /* \"contracts/PRCC_Vesting.sol\":142263:142264  b */\n      dup4\n        /* \"contracts/PRCC_Vesting.sol\":142266:142267  5 */\n      0x05\n        /* \"contracts/PRCC_Vesting.sol\":142269:142270  2 */\n      0x02\n        /* \"contracts/PRCC_Vesting.sol\":142253:142262  _parseInt */\n      tag_290\n        /* \"contracts/PRCC_Vesting.sol\":142253:142271  _parseInt(b, 5, 2) */\n      jump\t// in\n    tag_291:\n        /* \"contracts/PRCC_Vesting.sol\":142237:142271  uint256 month = _parseInt(b, 5, 2) */\n      swap1\n      pop\n        /* \"contracts/PRCC_Vesting.sol\":142301:142312  uint256 day */\n      0x00\n        /* \"contracts/PRCC_Vesting.sol\":142315:142333  _parseInt(b, 8, 2) */\n      tag_292\n        /* \"contracts/PRCC_Vesting.sol\":142325:142326  b */\n      dup5\n        /* \"contracts/PRCC_Vesting.sol\":142328:142329  8 */\n      0x08\n        /* \"contracts/PRCC_Vesting.sol\":142331:142332  2 */\n      0x02\n        /* \"contracts/PRCC_Vesting.sol\":142315:142324  _parseInt */\n      tag_290\n        /* \"contracts/PRCC_Vesting.sol\":142315:142333  _parseInt(b, 8, 2) */\n      jump\t// in\n    tag_292:\n        /* \"contracts/PRCC_Vesting.sol\":142301:142333  uint256 day = _parseInt(b, 8, 2) */\n      swap1\n      pop\n        /* \"contracts/PRCC_Vesting.sol\":142366:142378  uint256 hour */\n      0x00\n        /* \"contracts/PRCC_Vesting.sol\":142392:142406  uint256 minute */\n      dup1\n        /* \"contracts/PRCC_Vesting.sol\":142420:142434  uint256 second */\n      0x00\n        /* \"contracts/PRCC_Vesting.sol\":142462:142464  19 */\n      0x13\n        /* \"contracts/PRCC_Vesting.sol\":142452:142453  b */\n      dup8\n        /* \"contracts/PRCC_Vesting.sol\":142452:142460  b.length */\n      mload\n        /* \"contracts/PRCC_Vesting.sol\":142452:142464  b.length==19 */\n      sub\n        /* \"contracts/PRCC_Vesting.sol\":142449:142603  if(b.length==19){... */\n      tag_293\n      jumpi\n        /* \"contracts/PRCC_Vesting.sol\":142487:142506  _parseInt(b, 11, 2) */\n      tag_294\n        /* \"contracts/PRCC_Vesting.sol\":142497:142498  b */\n      dup8\n        /* \"contracts/PRCC_Vesting.sol\":142500:142502  11 */\n      0x0b\n        /* \"contracts/PRCC_Vesting.sol\":142504:142505  2 */\n      0x02\n        /* \"contracts/PRCC_Vesting.sol\":142487:142496  _parseInt */\n      tag_290\n        /* \"contracts/PRCC_Vesting.sol\":142487:142506  _parseInt(b, 11, 2) */\n      jump\t// in\n    tag_294:\n        /* \"contracts/PRCC_Vesting.sol\":142479:142506  hour =  _parseInt(b, 11, 2) */\n      swap3\n      pop\n        /* \"contracts/PRCC_Vesting.sol\":142530:142549  _parseInt(b, 14, 2) */\n      tag_295\n        /* \"contracts/PRCC_Vesting.sol\":142540:142541  b */\n      dup8\n        /* \"contracts/PRCC_Vesting.sol\":142543:142545  14 */\n      0x0e\n        /* \"contracts/PRCC_Vesting.sol\":142547:142548  2 */\n      0x02\n        /* \"contracts/PRCC_Vesting.sol\":142530:142539  _parseInt */\n      tag_290\n        /* \"contracts/PRCC_Vesting.sol\":142530:142549  _parseInt(b, 14, 2) */\n      jump\t// in\n    tag_295:\n        /* \"contracts/PRCC_Vesting.sol\":142520:142549  minute =  _parseInt(b, 14, 2) */\n      swap2\n      pop\n        /* \"contracts/PRCC_Vesting.sol\":142573:142592  _parseInt(b, 17, 2) */\n      tag_296\n        /* \"contracts/PRCC_Vesting.sol\":142583:142584  b */\n      dup8\n        /* \"contracts/PRCC_Vesting.sol\":142586:142588  17 */\n      0x11\n        /* \"contracts/PRCC_Vesting.sol\":142590:142591  2 */\n      0x02\n        /* \"contracts/PRCC_Vesting.sol\":142573:142582  _parseInt */\n      tag_290\n        /* \"contracts/PRCC_Vesting.sol\":142573:142592  _parseInt(b, 17, 2) */\n      jump\t// in\n    tag_296:\n        /* \"contracts/PRCC_Vesting.sol\":142563:142592  second =  _parseInt(b, 17, 2) */\n      swap1\n      pop\n        /* \"contracts/PRCC_Vesting.sol\":142449:142603  if(b.length==19){... */\n    tag_293:\n        /* \"contracts/PRCC_Vesting.sol\":142674:142675  1 */\n      0x01\n        /* \"contracts/PRCC_Vesting.sol\":142665:142670  month */\n      dup6\n        /* \"contracts/PRCC_Vesting.sol\":142665:142675  month >= 1 */\n      lt\n      iszero\n        /* \"contracts/PRCC_Vesting.sol\":142665:142690  month >= 1 && month <= 12 */\n      dup1\n      iszero\n      tag_297\n      jumpi\n      pop\n        /* \"contracts/PRCC_Vesting.sol\":142688:142690  12 */\n      0x0c\n        /* \"contracts/PRCC_Vesting.sol\":142679:142684  month */\n      dup6\n        /* \"contracts/PRCC_Vesting.sol\":142679:142690  month <= 12 */\n      gt\n      iszero\n        /* \"contracts/PRCC_Vesting.sol\":142665:142690  month >= 1 && month <= 12 */\n    tag_297:\n        /* \"contracts/PRCC_Vesting.sol\":142657:142708  require(month >= 1 && month <= 12, \"Invalid month\") */\n      tag_298\n      jumpi\n      mload(0x40)\n      0x08c379a000000000000000000000000000000000000000000000000000000000\n      dup2\n      mstore\n      0x04\n      add\n      tag_299\n      swap1\n      tag_300\n      jump\t// in\n    tag_299:\n      mload(0x40)\n      dup1\n      swap2\n      sub\n      swap1\n      revert\n    tag_298:\n        /* \"contracts/PRCC_Vesting.sol\":142733:142734  1 */\n      0x01\n        /* \"contracts/PRCC_Vesting.sol\":142726:142729  day */\n      dup5\n        /* \"contracts/PRCC_Vesting.sol\":142726:142734  day >= 1 */\n      lt\n      iszero\n        /* \"contracts/PRCC_Vesting.sol\":142726:142747  day >= 1 && day <= 31 */\n      dup1\n      iszero\n      tag_301\n      jumpi\n      pop\n        /* \"contracts/PRCC_Vesting.sol\":142745:142747  31 */\n      0x1f\n        /* \"contracts/PRCC_Vesting.sol\":142738:142741  day */\n      dup5\n        /* \"contracts/PRCC_Vesting.sol\":142738:142747  day <= 31 */\n      gt\n      iszero\n        /* \"contracts/PRCC_Vesting.sol\":142726:142747  day >= 1 && day <= 31 */\n    tag_301:\n        /* \"contracts/PRCC_Vesting.sol\":142718:142763  require(day >= 1 && day <= 31, \"Invalid day\") */\n      tag_302\n      jumpi\n      mload(0x40)\n      0x08c379a000000000000000000000000000000000000000000000000000000000\n      dup2\n      mstore\n      0x04\n      add\n      tag_303\n      swap1\n      tag_304\n      jump\t// in\n    tag_303:\n      mload(0x40)\n      dup1\n      swap2\n      sub\n      swap1\n      revert\n    tag_302:\n        /* \"contracts/PRCC_Vesting.sol\":142790:142791  0 */\n      0x00\n        /* \"contracts/PRCC_Vesting.sol\":142782:142786  hour */\n      dup4\n        /* \"contracts/PRCC_Vesting.sol\":142782:142791  hour >= 0 */\n      lt\n      iszero\n        /* \"contracts/PRCC_Vesting.sol\":142782:142805  hour >= 0 && hour <= 23 */\n      dup1\n      iszero\n      tag_305\n      jumpi\n      pop\n        /* \"contracts/PRCC_Vesting.sol\":142803:142805  23 */\n      0x17\n        /* \"contracts/PRCC_Vesting.sol\":142795:142799  hour */\n      dup4\n        /* \"contracts/PRCC_Vesting.sol\":142795:142805  hour <= 23 */\n      gt\n      iszero\n        /* \"contracts/PRCC_Vesting.sol\":142782:142805  hour >= 0 && hour <= 23 */\n    tag_305:\n        /* \"contracts/PRCC_Vesting.sol\":142774:142822  require(hour >= 0 && hour <= 23, \"Invalid hour\") */\n      tag_306\n      jumpi\n      mload(0x40)\n      0x08c379a000000000000000000000000000000000000000000000000000000000\n      dup2\n      mstore\n      0x04\n      add\n      tag_307\n      swap1\n      tag_308\n      jump\t// in\n    tag_307:\n      mload(0x40)\n      dup1\n      swap2\n      sub\n      swap1\n      revert\n    tag_306:\n        /* \"contracts/PRCC_Vesting.sol\":142850:142851  0 */\n      0x00\n        /* \"contracts/PRCC_Vesting.sol\":142840:142846  minute */\n      dup3\n        /* \"contracts/PRCC_Vesting.sol\":142840:142851  minute >= 0 */\n      lt\n      iszero\n        /* \"contracts/PRCC_Vesting.sol\":142840:142867  minute >= 0 && minute <= 59 */\n      dup1\n      iszero\n      tag_309\n      jumpi\n      pop\n        /* \"contracts/PRCC_Vesting.sol\":142865:142867  59 */\n      0x3b\n        /* \"contracts/PRCC_Vesting.sol\":142855:142861  minute */\n      dup3\n        /* \"contracts/PRCC_Vesting.sol\":142855:142867  minute <= 59 */\n      gt\n      iszero\n        /* \"contracts/PRCC_Vesting.sol\":142840:142867  minute >= 0 && minute <= 59 */\n    tag_309:\n        /* \"contracts/PRCC_Vesting.sol\":142832:142886  require(minute >= 0 && minute <= 59, \"Invalid minute\") */\n      tag_310\n      jumpi\n      mload(0x40)\n      0x08c379a000000000000000000000000000000000000000000000000000000000\n      dup2\n      mstore\n      0x04\n      add\n      tag_311\n      swap1\n      tag_312\n      jump\t// in\n    tag_311:\n      mload(0x40)\n      dup1\n      swap2\n      sub\n      swap1\n      revert\n    tag_310:\n        /* \"contracts/PRCC_Vesting.sol\":142914:142915  0 */\n      0x00\n        /* \"contracts/PRCC_Vesting.sol\":142904:142910  second */\n      dup2\n        /* \"contracts/PRCC_Vesting.sol\":142904:142915  second >= 0 */\n      lt\n      iszero\n        /* \"contracts/PRCC_Vesting.sol\":142904:142931  second >= 0 && second <= 59 */\n      dup1\n      iszero\n      tag_313\n      jumpi\n      pop\n        /* \"contracts/PRCC_Vesting.sol\":142929:142931  59 */\n      0x3b\n        /* \"contracts/PRCC_Vesting.sol\":142919:142925  second */\n      dup2\n        /* \"contracts/PRCC_Vesting.sol\":142919:142931  second <= 59 */\n      gt\n      iszero\n        /* \"contracts/PRCC_Vesting.sol\":142904:142931  second >= 0 && second <= 59 */\n    tag_313:\n        /* \"contracts/PRCC_Vesting.sol\":142896:142950  require(second >= 0 && second <= 59, \"Invalid second\") */\n      tag_314\n      jumpi\n      mload(0x40)\n      0x08c379a000000000000000000000000000000000000000000000000000000000\n      dup2\n      mstore\n      0x04\n      add\n      tag_315\n      swap1\n      tag_316\n      jump\t// in\n    tag_315:\n      mload(0x40)\n      dup1\n      swap2\n      sub\n      swap1\n      revert\n    tag_314:\n        /* \"contracts/PRCC_Vesting.sol\":143046:143063  uint256 timestamp */\n      0x00\n        /* \"contracts/PRCC_Vesting.sol\":143082:143091  uint256 i */\n      dup1\n        /* \"contracts/PRCC_Vesting.sol\":143094:143098  1970 */\n      0x07b2\n        /* \"contracts/PRCC_Vesting.sol\":143082:143098  uint256 i = 1970 */\n      swap1\n      pop\n        /* \"contracts/PRCC_Vesting.sol\":143077:143210  for (uint256 i = 1970; i < year; i++) {... */\n    tag_317:\n        /* \"contracts/PRCC_Vesting.sol\":143104:143108  year */\n      dup8\n        /* \"contracts/PRCC_Vesting.sol\":143100:143101  i */\n      dup2\n        /* \"contracts/PRCC_Vesting.sol\":143100:143108  i < year */\n      lt\n        /* \"contracts/PRCC_Vesting.sol\":143077:143210  for (uint256 i = 1970; i < year; i++) {... */\n      iszero\n      tag_318\n      jumpi\n        /* \"contracts/PRCC_Vesting.sol\":143142:143156  _isLeapYear(i) */\n      tag_320\n        /* \"contracts/PRCC_Vesting.sol\":143154:143155  i */\n      dup2\n        /* \"contracts/PRCC_Vesting.sol\":143142:143153  _isLeapYear */\n      tag_321\n        /* \"contracts/PRCC_Vesting.sol\":143142:143156  _isLeapYear(i) */\n      jump\t// in\n    tag_320:\n        /* \"contracts/PRCC_Vesting.sol\":143142:143178  _isLeapYear(i) ? 31622400 : 31536000 */\n      tag_322\n      jumpi\n        /* \"contracts/PRCC_Vesting.sol\":143170:143178  31536000 */\n      0x01e13380\n        /* \"contracts/PRCC_Vesting.sol\":143142:143178  _isLeapYear(i) ? 31622400 : 31536000 */\n      jump(tag_323)\n    tag_322:\n        /* \"contracts/PRCC_Vesting.sol\":143159:143167  31622400 */\n      0x01e28500\n        /* \"contracts/PRCC_Vesting.sol\":143142:143178  _isLeapYear(i) ? 31622400 : 31536000 */\n    tag_323:\n        /* \"contracts/PRCC_Vesting.sol\":143129:143178  timestamp += _isLeapYear(i) ? 31622400 : 31536000 */\n      0xffffffff\n      and\n      dup3\n      tag_324\n      swap2\n      swap1\n      tag_120\n      jump\t// in\n    tag_324:\n      swap2\n      pop\n        /* \"contracts/PRCC_Vesting.sol\":143110:143113  i++ */\n      dup1\n      dup1\n      tag_325\n      swap1\n      tag_262\n      jump\t// in\n    tag_325:\n      swap2\n      pop\n      pop\n        /* \"contracts/PRCC_Vesting.sol\":143077:143210  for (uint256 i = 1970; i < year; i++) {... */\n      jump(tag_317)\n    tag_318:\n      pop\n        /* \"contracts/PRCC_Vesting.sol\":143220:143248  uint256[] memory daysInMonth */\n      0x00\n        /* \"contracts/PRCC_Vesting.sol\":143265:143267  12 */\n      0x0c\n        /* \"contracts/PRCC_Vesting.sol\":143251:143268  new uint256[](12) */\n      0xffffffffffffffff\n      dup2\n      gt\n      iszero\n      tag_326\n      jumpi\n      tag_327\n      tag_266\n      jump\t// in\n    tag_327:\n    tag_326:\n      mload(0x40)\n      swap1\n      dup1\n      dup3\n      mstore\n      dup1\n      0x20\n      mul\n      0x20\n      add\n      dup3\n      add\n      0x40\n      mstore\n      dup1\n      iszero\n      tag_328\n      jumpi\n      dup2\n      0x20\n      add\n      0x20\n      dup3\n      mul\n      dup1\n      calldatasize\n      dup4\n      calldatacopy\n      dup1\n      dup3\n      add\n      swap2\n      pop\n      pop\n      swap1\n      pop\n    tag_328:\n      pop\n        /* \"contracts/PRCC_Vesting.sol\":143220:143268  uint256[] memory daysInMonth = new uint256[](12) */\n      swap1\n      pop\n        /* \"contracts/PRCC_Vesting.sol\":143295:143297  31 */\n      0x1f\n        /* \"contracts/PRCC_Vesting.sol\":143278:143289  daysInMonth */\n      dup2\n        /* \"contracts/PRCC_Vesting.sol\":143290:143291  0 */\n      0x00\n        /* \"contracts/PRCC_Vesting.sol\":143278:143292  daysInMonth[0] */\n      dup2\n      mload\n      dup2\n      lt\n      tag_329\n      jumpi\n      tag_330\n      tag_276\n      jump\t// in\n    tag_330:\n    tag_329:\n      0x20\n      mul\n      0x20\n      add\n      add\n        /* \"contracts/PRCC_Vesting.sol\":143278:143297  daysInMonth[0] = 31 */\n      dup2\n      dup2\n      mstore\n      pop\n      pop\n        /* \"contracts/PRCC_Vesting.sol\":143324:143326  28 */\n      0x1c\n        /* \"contracts/PRCC_Vesting.sol\":143307:143318  daysInMonth */\n      dup2\n        /* \"contracts/PRCC_Vesting.sol\":143319:143320  1 */\n      0x01\n        /* \"contracts/PRCC_Vesting.sol\":143307:143321  daysInMonth[1] */\n      dup2\n      mload\n      dup2\n      lt\n      tag_331\n      jumpi\n      tag_332\n      tag_276\n      jump\t// in\n    tag_332:\n    tag_331:\n      0x20\n      mul\n      0x20\n      add\n      add\n        /* \"contracts/PRCC_Vesting.sol\":143307:143326  daysInMonth[1] = 28 */\n      dup2\n      dup2\n      mstore\n      pop\n      pop\n        /* \"contracts/PRCC_Vesting.sol\":143353:143355  31 */\n      0x1f\n        /* \"contracts/PRCC_Vesting.sol\":143336:143347  daysInMonth */\n      dup2\n        /* \"contracts/PRCC_Vesting.sol\":143348:143349  2 */\n      0x02\n        /* \"contracts/PRCC_Vesting.sol\":143336:143350  daysInMonth[2] */\n      dup2\n      mload\n      dup2\n      lt\n      tag_333\n      jumpi\n      tag_334\n      tag_276\n      jump\t// in\n    tag_334:\n    tag_333:\n      0x20\n      mul\n      0x20\n      add\n      add\n        /* \"contracts/PRCC_Vesting.sol\":143336:143355  daysInMonth[2] = 31 */\n      dup2\n      dup2\n      mstore\n      pop\n      pop\n        /* \"contracts/PRCC_Vesting.sol\":143382:143384  30 */\n      0x1e\n        /* \"contracts/PRCC_Vesting.sol\":143365:143376  daysInMonth */\n      dup2\n        /* \"contracts/PRCC_Vesting.sol\":143377:143378  3 */\n      0x03\n        /* \"contracts/PRCC_Vesting.sol\":143365:143379  daysInMonth[3] */\n      dup2\n      mload\n      dup2\n      lt\n      tag_335\n      jumpi\n      tag_336\n      tag_276\n      jump\t// in\n    tag_336:\n    tag_335:\n      0x20\n      mul\n      0x20\n      add\n      add\n        /* \"contracts/PRCC_Vesting.sol\":143365:143384  daysInMonth[3] = 30 */\n      dup2\n      dup2\n      mstore\n      pop\n      pop\n        /* \"contracts/PRCC_Vesting.sol\":143411:143413  31 */\n      0x1f\n        /* \"contracts/PRCC_Vesting.sol\":143394:143405  daysInMonth */\n      dup2\n        /* \"contracts/PRCC_Vesting.sol\":143406:143407  4 */\n      0x04\n        /* \"contracts/PRCC_Vesting.sol\":143394:143408  daysInMonth[4] */\n      dup2\n      mload\n      dup2\n      lt\n      tag_337\n      jumpi\n      tag_338\n      tag_276\n      jump\t// in\n    tag_338:\n    tag_337:\n      0x20\n      mul\n      0x20\n      add\n      add\n        /* \"contracts/PRCC_Vesting.sol\":143394:143413  daysInMonth[4] = 31 */\n      dup2\n      dup2\n      mstore\n      pop\n      pop\n        /* \"contracts/PRCC_Vesting.sol\":143440:143442  30 */\n      0x1e\n        /* \"contracts/PRCC_Vesting.sol\":143423:143434  daysInMonth */\n      dup2\n        /* \"contracts/PRCC_Vesting.sol\":143435:143436  5 */\n      0x05\n        /* \"contracts/PRCC_Vesting.sol\":143423:143437  daysInMonth[5] */\n      dup2\n      mload\n      dup2\n      lt\n      tag_339\n      jumpi\n      tag_340\n      tag_276\n      jump\t// in\n    tag_340:\n    tag_339:\n      0x20\n      mul\n      0x20\n      add\n      add\n        /* \"contracts/PRCC_Vesting.sol\":143423:143442  daysInMonth[5] = 30 */\n      dup2\n      dup2\n      mstore\n      pop\n      pop\n        /* \"contracts/PRCC_Vesting.sol\":143469:143471  31 */\n      0x1f\n        /* \"contracts/PRCC_Vesting.sol\":143452:143463  daysInMonth */\n      dup2\n        /* \"contracts/PRCC_Vesting.sol\":143464:143465  6 */\n      0x06\n        /* \"contracts/PRCC_Vesting.sol\":143452:143466  daysInMonth[6] */\n      dup2\n      mload\n      dup2\n      lt\n      tag_341\n      jumpi\n      tag_342\n      tag_276\n      jump\t// in\n    tag_342:\n    tag_341:\n      0x20\n      mul\n      0x20\n      add\n      add\n        /* \"contracts/PRCC_Vesting.sol\":143452:143471  daysInMonth[6] = 31 */\n      dup2\n      dup2\n      mstore\n      pop\n      pop\n        /* \"contracts/PRCC_Vesting.sol\":143498:143500  31 */\n      0x1f\n        /* \"contracts/PRCC_Vesting.sol\":143481:143492  daysInMonth */\n      dup2\n        /* \"contracts/PRCC_Vesting.sol\":143493:143494  7 */\n      0x07\n        /* \"contracts/PRCC_Vesting.sol\":143481:143495  daysInMonth[7] */\n      dup2\n      mload\n      dup2\n      lt\n      tag_343\n      jumpi\n      tag_344\n      tag_276\n      jump\t// in\n    tag_344:\n    tag_343:\n      0x20\n      mul\n      0x20\n      add\n      add\n        /* \"contracts/PRCC_Vesting.sol\":143481:143500  daysInMonth[7] = 31 */\n      dup2\n      dup2\n      mstore\n      pop\n      pop\n        /* \"contracts/PRCC_Vesting.sol\":143527:143529  30 */\n      0x1e\n        /* \"contracts/PRCC_Vesting.sol\":143510:143521  daysInMonth */\n      dup2\n        /* \"contracts/PRCC_Vesting.sol\":143522:143523  8 */\n      0x08\n        /* \"contracts/PRCC_Vesting.sol\":143510:143524  daysInMonth[8] */\n      dup2\n      mload\n      dup2\n      lt\n      tag_345\n      jumpi\n      tag_346\n      tag_276\n      jump\t// in\n    tag_346:\n    tag_345:\n      0x20\n      mul\n      0x20\n      add\n      add\n        /* \"contracts/PRCC_Vesting.sol\":143510:143529  daysInMonth[8] = 30 */\n      dup2\n      dup2\n      mstore\n      pop\n      pop\n        /* \"contracts/PRCC_Vesting.sol\":143556:143558  31 */\n      0x1f\n        /* \"contracts/PRCC_Vesting.sol\":143539:143550  daysInMonth */\n      dup2\n        /* \"contracts/PRCC_Vesting.sol\":143551:143552  9 */\n      0x09\n        /* \"contracts/PRCC_Vesting.sol\":143539:143553  daysInMonth[9] */\n      dup2\n      mload\n      dup2\n      lt\n      tag_347\n      jumpi\n      tag_348\n      tag_276\n      jump\t// in\n    tag_348:\n    tag_347:\n      0x20\n      mul\n      0x20\n      add\n      add\n        /* \"contracts/PRCC_Vesting.sol\":143539:143558  daysInMonth[9] = 31 */\n      dup2\n      dup2\n      mstore\n      pop\n      pop\n        /* \"contracts/PRCC_Vesting.sol\":143586:143588  30 */\n      0x1e\n        /* \"contracts/PRCC_Vesting.sol\":143568:143579  daysInMonth */\n      dup2\n        /* \"contracts/PRCC_Vesting.sol\":143580:143582  10 */\n      0x0a\n        /* \"contracts/PRCC_Vesting.sol\":143568:143583  daysInMonth[10] */\n      dup2\n      mload\n      dup2\n      lt\n      tag_349\n      jumpi\n      tag_350\n      tag_276\n      jump\t// in\n    tag_350:\n    tag_349:\n      0x20\n      mul\n      0x20\n      add\n      add\n        /* \"contracts/PRCC_Vesting.sol\":143568:143588  daysInMonth[10] = 30 */\n      dup2\n      dup2\n      mstore\n      pop\n      pop\n        /* \"contracts/PRCC_Vesting.sol\":143616:143618  31 */\n      0x1f\n        /* \"contracts/PRCC_Vesting.sol\":143598:143609  daysInMonth */\n      dup2\n        /* \"contracts/PRCC_Vesting.sol\":143610:143612  11 */\n      0x0b\n        /* \"contracts/PRCC_Vesting.sol\":143598:143613  daysInMonth[11] */\n      dup2\n      mload\n      dup2\n      lt\n      tag_351\n      jumpi\n      tag_352\n      tag_276\n      jump\t// in\n    tag_352:\n    tag_351:\n      0x20\n      mul\n      0x20\n      add\n      add\n        /* \"contracts/PRCC_Vesting.sol\":143598:143618  daysInMonth[11] = 31 */\n      dup2\n      dup2\n      mstore\n      pop\n      pop\n        /* \"contracts/PRCC_Vesting.sol\":143632:143649  _isLeapYear(year) */\n      tag_353\n        /* \"contracts/PRCC_Vesting.sol\":143644:143648  year */\n      dup9\n        /* \"contracts/PRCC_Vesting.sol\":143632:143643  _isLeapYear */\n      tag_321\n        /* \"contracts/PRCC_Vesting.sol\":143632:143649  _isLeapYear(year) */\n      jump\t// in\n    tag_353:\n        /* \"contracts/PRCC_Vesting.sol\":143628:143670  if (_isLeapYear(year)) daysInMonth[1] = 29 */\n      iszero\n      tag_354\n      jumpi\n        /* \"contracts/PRCC_Vesting.sol\":143668:143670  29 */\n      0x1d\n        /* \"contracts/PRCC_Vesting.sol\":143651:143662  daysInMonth */\n      dup2\n        /* \"contracts/PRCC_Vesting.sol\":143663:143664  1 */\n      0x01\n        /* \"contracts/PRCC_Vesting.sol\":143651:143665  daysInMonth[1] */\n      dup2\n      mload\n      dup2\n      lt\n      tag_355\n      jumpi\n      tag_356\n      tag_276\n      jump\t// in\n    tag_356:\n    tag_355:\n      0x20\n      mul\n      0x20\n      add\n      add\n        /* \"contracts/PRCC_Vesting.sol\":143651:143670  daysInMonth[1] = 29 */\n      dup2\n      dup2\n      mstore\n      pop\n      pop\n        /* \"contracts/PRCC_Vesting.sol\":143628:143670  if (_isLeapYear(year)) daysInMonth[1] = 29 */\n    tag_354:\n        /* \"contracts/PRCC_Vesting.sol\":143686:143695  uint256 j */\n      0x00\n        /* \"contracts/PRCC_Vesting.sol\":143698:143699  1 */\n      0x01\n        /* \"contracts/PRCC_Vesting.sol\":143686:143699  uint256 j = 1 */\n      swap1\n      pop\n        /* \"contracts/PRCC_Vesting.sol\":143681:143779  for (uint256 j = 1; j < month; j++) {... */\n    tag_357:\n        /* \"contracts/PRCC_Vesting.sol\":143705:143710  month */\n      dup8\n        /* \"contracts/PRCC_Vesting.sol\":143701:143702  j */\n      dup2\n        /* \"contracts/PRCC_Vesting.sol\":143701:143710  j < month */\n      lt\n        /* \"contracts/PRCC_Vesting.sol\":143681:143779  for (uint256 j = 1; j < month; j++) {... */\n      iszero\n      tag_358\n      jumpi\n        /* \"contracts/PRCC_Vesting.sol\":143763:143768  86400 */\n      0x015180\n        /* \"contracts/PRCC_Vesting.sol\":143744:143755  daysInMonth */\n      dup3\n        /* \"contracts/PRCC_Vesting.sol\":143758:143759  1 */\n      0x01\n        /* \"contracts/PRCC_Vesting.sol\":143756:143757  j */\n      dup4\n        /* \"contracts/PRCC_Vesting.sol\":143756:143759  j-1 */\n      tag_360\n      swap2\n      swap1\n      tag_207\n      jump\t// in\n    tag_360:\n        /* \"contracts/PRCC_Vesting.sol\":143744:143760  daysInMonth[j-1] */\n      dup2\n      mload\n      dup2\n      lt\n      tag_361\n      jumpi\n      tag_362\n      tag_276\n      jump\t// in\n    tag_362:\n    tag_361:\n      0x20\n      mul\n      0x20\n      add\n      add\n      mload\n        /* \"contracts/PRCC_Vesting.sol\":143744:143768  daysInMonth[j-1] * 86400 */\n      tag_363\n      swap2\n      swap1\n      tag_237\n      jump\t// in\n    tag_363:\n        /* \"contracts/PRCC_Vesting.sol\":143731:143768  timestamp += daysInMonth[j-1] * 86400 */\n      dup4\n      tag_364\n      swap2\n      swap1\n      tag_120\n      jump\t// in\n    tag_364:\n      swap3\n      pop\n        /* \"contracts/PRCC_Vesting.sol\":143712:143715  j++ */\n      dup1\n      dup1\n      tag_365\n      swap1\n      tag_262\n      jump\t// in\n    tag_365:\n      swap2\n      pop\n      pop\n        /* \"contracts/PRCC_Vesting.sol\":143681:143779  for (uint256 j = 1; j < month; j++) {... */\n      jump(tag_357)\n    tag_358:\n      pop\n        /* \"contracts/PRCC_Vesting.sol\":143813:143818  86400 */\n      0x015180\n        /* \"contracts/PRCC_Vesting.sol\":143808:143809  1 */\n      0x01\n        /* \"contracts/PRCC_Vesting.sol\":143802:143805  day */\n      dup8\n        /* \"contracts/PRCC_Vesting.sol\":143802:143809  day - 1 */\n      tag_366\n      swap2\n      swap1\n      tag_207\n      jump\t// in\n    tag_366:\n        /* \"contracts/PRCC_Vesting.sol\":143801:143818  (day - 1) * 86400 */\n      tag_367\n      swap2\n      swap1\n      tag_237\n      jump\t// in\n    tag_367:\n        /* \"contracts/PRCC_Vesting.sol\":143788:143818  timestamp += (day - 1) * 86400 */\n      dup3\n      tag_368\n      swap2\n      swap1\n      tag_120\n      jump\t// in\n    tag_368:\n      swap2\n      pop\n        /* \"contracts/PRCC_Vesting.sol\":143866:143872  second */\n      dup3\n        /* \"contracts/PRCC_Vesting.sol\":143861:143863  60 */\n      0x3c\n        /* \"contracts/PRCC_Vesting.sol\":143854:143860  minute */\n      dup6\n        /* \"contracts/PRCC_Vesting.sol\":143854:143863  minute*60 */\n      tag_369\n      swap2\n      swap1\n      tag_237\n      jump\t// in\n    tag_369:\n        /* \"contracts/PRCC_Vesting.sol\":143847:143851  3600 */\n      0x0e10\n        /* \"contracts/PRCC_Vesting.sol\":143842:143846  hour */\n      dup8\n        /* \"contracts/PRCC_Vesting.sol\":143842:143851  hour*3600 */\n      tag_370\n      swap2\n      swap1\n      tag_237\n      jump\t// in\n    tag_370:\n        /* \"contracts/PRCC_Vesting.sol\":143842:143863  hour*3600 + minute*60 */\n      tag_371\n      swap2\n      swap1\n      tag_120\n      jump\t// in\n    tag_371:\n        /* \"contracts/PRCC_Vesting.sol\":143842:143872  hour*3600 + minute*60 + second */\n      tag_372\n      swap2\n      swap1\n      tag_120\n      jump\t// in\n    tag_372:\n        /* \"contracts/PRCC_Vesting.sol\":143829:143872  timestamp += hour*3600 + minute*60 + second */\n      dup3\n      tag_373\n      swap2\n      swap1\n      tag_120\n      jump\t// in\n    tag_373:\n      swap2\n      pop\n        /* \"contracts/PRCC_Vesting.sol\":143947:143953  8*3600 */\n      0x7080\n        /* \"contracts/PRCC_Vesting.sol\":143934:143953  timestamp -= 8*3600 */\n      dup3\n      tag_374\n      swap2\n      swap1\n      tag_207\n      jump\t// in\n    tag_374:\n      swap2\n      pop\n        /* \"contracts/PRCC_Vesting.sol\":143971:143980  timestamp */\n      dup2\n        /* \"contracts/PRCC_Vesting.sol\":143964:143980  return timestamp */\n      swap10\n      pop\n      pop\n      pop\n      pop\n      pop\n      pop\n      pop\n      pop\n      pop\n      pop\n        /* \"contracts/PRCC_Vesting.sol\":141856:143987  function _stringToTimestamp(string memory dateStr) private pure returns (uint256) {... */\n      swap2\n      swap1\n      pop\n      jump\t// out\n        /* \"contracts/PRCC_Vesting.sol\":143993:144160  function _toUint64Safe(uint256 value) private pure returns (uint64) {... */\n    tag_151:\n        /* \"contracts/PRCC_Vesting.sol\":144053:144059  uint64 */\n      0x00\n        /* \"contracts/PRCC_Vesting.sol\":144088:144104  type(uint64).max */\n      0xffffffffffffffff\n        /* \"contracts/PRCC_Vesting.sol\":144079:144104  value <= type(uint64).max */\n      dup1\n      and\n        /* \"contracts/PRCC_Vesting.sol\":144079:144084  value */\n      dup3\n        /* \"contracts/PRCC_Vesting.sol\":144079:144104  value <= type(uint64).max */\n      gt\n      iszero\n        /* \"contracts/PRCC_Vesting.sol\":144071:144123  require(value <= type(uint64).max, \"Value overflow\") */\n      tag_376\n      jumpi\n      mload(0x40)\n      0x08c379a000000000000000000000000000000000000000000000000000000000\n      dup2\n      mstore\n      0x04\n      add\n      tag_377\n      swap1\n      tag_378\n      jump\t// in\n    tag_377:\n      mload(0x40)\n      dup1\n      swap2\n      sub\n      swap1\n      revert\n    tag_376:\n        /* \"contracts/PRCC_Vesting.sol\":144147:144152  value */\n      dup2\n        /* \"contracts/PRCC_Vesting.sol\":144133:144153  return uint64(value) */\n      swap1\n      pop\n        /* \"contracts/PRCC_Vesting.sol\":143993:144160  function _toUint64Safe(uint256 value) private pure returns (uint64) {... */\n      swap2\n      swap1\n      pop\n      jump\t// out\n        /* \"contracts/PRCC_Vesting.sol\":2900:3062  function _checkOwner() internal view virtual {... */\n    tag_169:\n        /* \"contracts/PRCC_Vesting.sol\":2970:2982  _msgSender() */\n      tag_380\n        /* \"contracts/PRCC_Vesting.sol\":2970:2980  _msgSender */\n      tag_381\n        /* \"contracts/PRCC_Vesting.sol\":2970:2982  _msgSender() */\n      jump\t// in\n    tag_380:\n        /* \"contracts/PRCC_Vesting.sol\":2959:2982  owner() != _msgSender() */\n      0xffffffffffffffffffffffffffffffffffffffff\n      and\n        /* \"contracts/PRCC_Vesting.sol\":2959:2966  owner() */\n      tag_382\n        /* \"contracts/PRCC_Vesting.sol\":2959:2964  owner */\n      tag_76\n        /* \"contracts/PRCC_Vesting.sol\":2959:2966  owner() */\n      jump\t// in\n    tag_382:\n        /* \"contracts/PRCC_Vesting.sol\":2959:2982  owner() != _msgSender() */\n      0xffffffffffffffffffffffffffffffffffffffff\n      and\n      eq\n        /* \"contracts/PRCC_Vesting.sol\":2955:3056  if (owner() != _msgSender()) {... */\n      tag_383\n      jumpi\n        /* \"contracts/PRCC_Vesting.sol\":3032:3044  _msgSender() */\n      tag_384\n        /* \"contracts/PRCC_Vesting.sol\":3032:3042  _msgSender */\n      tag_381\n        /* \"contracts/PRCC_Vesting.sol\":3032:3044  _msgSender() */\n      jump\t// in\n    tag_384:\n        /* \"contracts/PRCC_Vesting.sol\":3005:3045  OwnableUnauthorizedAccount(_msgSender()) */\n      mload(0x40)\n      0x118cdaa700000000000000000000000000000000000000000000000000000000\n      dup2\n      mstore\n      0x04\n      add\n      tag_385\n      swap2\n      swap1\n      tag_78\n      jump\t// in\n    tag_385:\n      mload(0x40)\n      dup1\n      swap2\n      sub\n      swap1\n      revert\n        /* \"contracts/PRCC_Vesting.sol\":2955:3056  if (owner() != _msgSender()) {... */\n    tag_383:\n        /* \"contracts/PRCC_Vesting.sol\":2900:3062  function _checkOwner() internal view virtual {... */\n      jump\t// out\n        /* \"contracts/PRCC_Vesting.sol\":4016:4203  function _transferOwnership(address newOwner) internal virtual {... */\n    tag_172:\n        /* \"contracts/PRCC_Vesting.sol\":4089:4105  address oldOwner */\n      0x00\n        /* \"contracts/PRCC_Vesting.sol\":4108:4114  _owner */\n      dup1\n      0x00\n      swap1\n      sload\n      swap1\n      0x0100\n      exp\n      swap1\n      div\n      0xffffffffffffffffffffffffffffffffffffffff\n      and\n        /* \"contracts/PRCC_Vesting.sol\":4089:4114  address oldOwner = _owner */\n      swap1\n      pop\n        /* \"contracts/PRCC_Vesting.sol\":4133:4141  newOwner */\n      dup2\n        /* \"contracts/PRCC_Vesting.sol\":4124:4130  _owner */\n      0x00\n      dup1\n        /* \"contracts/PRCC_Vesting.sol\":4124:4141  _owner = newOwner */\n      0x0100\n      exp\n      dup2\n      sload\n      dup2\n      0xffffffffffffffffffffffffffffffffffffffff\n      mul\n      not\n      and\n      swap1\n      dup4\n      0xffffffffffffffffffffffffffffffffffffffff\n      and\n      mul\n      or\n      swap1\n      sstore\n      pop\n        /* \"contracts/PRCC_Vesting.sol\":4187:4195  newOwner */\n      dup2\n        /* \"contracts/PRCC_Vesting.sol\":4156:4196  OwnershipTransferred(oldOwner, newOwner) */\n      0xffffffffffffffffffffffffffffffffffffffff\n      and\n        /* \"contracts/PRCC_Vesting.sol\":4177:4185  oldOwner */\n      dup2\n        /* \"contracts/PRCC_Vesting.sol\":4156:4196  OwnershipTransferred(oldOwner, newOwner) */\n      0xffffffffffffffffffffffffffffffffffffffff\n      and\n      0x8be0079c531659141344cd1fd0a4f28419497f9722a3daafe3b4186f6b6457e0\n      mload(0x40)\n      mload(0x40)\n      dup1\n      swap2\n      sub\n      swap1\n      log3\n        /* \"contracts/PRCC_Vesting.sol\":4079:4203  {... */\n      pop\n        /* \"contracts/PRCC_Vesting.sol\":4016:4203  function _transferOwnership(address newOwner) internal virtual {... */\n      pop\n      jump\t// out\n        /* \"contracts/PRCC_Vesting.sol\":25288:25653  function sendValue(address payable recipient, uint256 amount) internal {... */\n    tag_199:\n        /* \"contracts/PRCC_Vesting.sol\":25397:25403  amount */\n      dup1\n        /* \"contracts/PRCC_Vesting.sol\":25373:25394  address(this).balance */\n      selfbalance\n        /* \"contracts/PRCC_Vesting.sol\":25373:25403  address(this).balance < amount */\n      lt\n        /* \"contracts/PRCC_Vesting.sol\":25369:25494  if (address(this).balance < amount) {... */\n      iszero\n      tag_388\n      jumpi\n        /* \"contracts/PRCC_Vesting.sol\":25453:25474  address(this).balance */\n      selfbalance\n        /* \"contracts/PRCC_Vesting.sol\":25476:25482  amount */\n      dup2\n        /* \"contracts/PRCC_Vesting.sol\":25426:25483  Errors.InsufficientBalance(address(this).balance, amount) */\n      mload(0x40)\n      0xcf47918100000000000000000000000000000000000000000000000000000000\n      dup2\n      mstore\n      0x04\n      add\n      tag_389\n      swap3\n      swap2\n      swap1\n      tag_390\n      jump\t// in\n    tag_389:\n      mload(0x40)\n      dup1\n      swap2\n      sub\n      swap1\n      revert\n        /* \"contracts/PRCC_Vesting.sol\":25369:25494  if (address(this).balance < amount) {... */\n    tag_388:\n        /* \"contracts/PRCC_Vesting.sol\":25505:25517  bool success */\n      0x00\n        /* \"contracts/PRCC_Vesting.sol\":25519:25542  bytes memory returndata */\n      dup1\n        /* \"contracts/PRCC_Vesting.sol\":25546:25555  recipient */\n      dup4\n        /* \"contracts/PRCC_Vesting.sol\":25546:25560  recipient.call */\n      0xffffffffffffffffffffffffffffffffffffffff\n      and\n        /* \"contracts/PRCC_Vesting.sol\":25568:25574  amount */\n      dup4\n        /* \"contracts/PRCC_Vesting.sol\":25546:25579  recipient.call{value: amount}(\"\") */\n      mload(0x40)\n      tag_391\n      swap1\n      tag_392\n      jump\t// in\n    tag_391:\n      0x00\n      mload(0x40)\n      dup1\n      dup4\n      sub\n      dup2\n      dup6\n      dup8\n      gas\n      call\n      swap3\n      pop\n      pop\n      pop\n      returndatasize\n      dup1\n      0x00\n      dup2\n      eq\n      tag_395\n      jumpi\n      mload(0x40)\n      swap2\n      pop\n      and(add(returndatasize, 0x3f), not(0x1f))\n      dup3\n      add\n      0x40\n      mstore\n      returndatasize\n      dup3\n      mstore\n      returndatasize\n      0x00\n      0x20\n      dup5\n      add\n      returndatacopy\n      jump(tag_394)\n    tag_395:\n      0x60\n      swap2\n      pop\n    tag_394:\n      pop\n        /* \"contracts/PRCC_Vesting.sol\":25504:25579  (bool success, bytes memory returndata) = recipient.call{value: amount}(\"\") */\n      swap2\n      pop\n      swap2\n      pop\n        /* \"contracts/PRCC_Vesting.sol\":25594:25601  success */\n      dup2\n        /* \"contracts/PRCC_Vesting.sol\":25589:25647  if (!success) {... */\n      tag_396\n      jumpi\n        /* \"contracts/PRCC_Vesting.sol\":25617:25636  _revert(returndata) */\n      tag_397\n        /* \"contracts/PRCC_Vesting.sol\":25625:25635  returndata */\n      dup2\n        /* \"contracts/PRCC_Vesting.sol\":25617:25624  _revert */\n      tag_398\n        /* \"contracts/PRCC_Vesting.sol\":25617:25636  _revert(returndata) */\n      jump\t// in\n    tag_397:\n        /* \"contracts/PRCC_Vesting.sol\":25589:25647  if (!success) {... */\n    tag_396:\n        /* \"contracts/PRCC_Vesting.sol\":25359:25653  {... */\n      pop\n      pop\n        /* \"contracts/PRCC_Vesting.sol\":25288:25653  function sendValue(address payable recipient, uint256 amount) internal {... */\n      pop\n      pop\n      jump\t// out\n        /* \"contracts/PRCC_Vesting.sol\":21284:22000  function _callOptionalReturn(IERC20 token, bytes memory data) private {... */\n    tag_243:\n        /* \"contracts/PRCC_Vesting.sol\":21364:21382  uint256 returnSize */\n      0x00\n        /* \"contracts/PRCC_Vesting.sol\":21392:21411  uint256 returnValue */\n      dup1\n        /* \"contracts/PRCC_Vesting.sol\":21530:21534  0x20 */\n      0x20\n        /* \"contracts/PRCC_Vesting.sol\":21527:21528  0 */\n      0x00\n        /* \"contracts/PRCC_Vesting.sol\":21520:21524  data */\n      dup5\n        /* \"contracts/PRCC_Vesting.sol\":21514:21525  mload(data) */\n      mload\n        /* \"contracts/PRCC_Vesting.sol\":21507:21511  0x20 */\n      0x20\n        /* \"contracts/PRCC_Vesting.sol\":21501:21505  data */\n      dup7\n        /* \"contracts/PRCC_Vesting.sol\":21497:21512  add(data, 0x20) */\n      add\n        /* \"contracts/PRCC_Vesting.sol\":21494:21495  0 */\n      0x00\n        /* \"contracts/PRCC_Vesting.sol\":21487:21492  token */\n      dup9\n        /* \"contracts/PRCC_Vesting.sol\":21480:21485  gas() */\n      gas\n        /* \"contracts/PRCC_Vesting.sol\":21475:21535  call(gas(), token, 0, add(data, 0x20), mload(data), 0, 0x20) */\n      call\n        /* \"contracts/PRCC_Vesting.sol\":21583:21590  success */\n      dup1\n        /* \"contracts/PRCC_Vesting.sol\":21573:21749  if iszero(success) {... */\n      tag_400\n      jumpi\n        /* \"contracts/PRCC_Vesting.sol\":21627:21631  0x40 */\n      0x40\n        /* \"contracts/PRCC_Vesting.sol\":21621:21632  mload(0x40) */\n      mload\n        /* \"contracts/PRCC_Vesting.sol\":21672:21688  returndatasize() */\n      returndatasize\n        /* \"contracts/PRCC_Vesting.sol\":21669:21670  0 */\n      0x00\n        /* \"contracts/PRCC_Vesting.sol\":21664:21667  ptr */\n      dup3\n        /* \"contracts/PRCC_Vesting.sol\":21649:21689  returndatacopy(ptr, 0, returndatasize()) */\n      returndatacopy\n        /* \"contracts/PRCC_Vesting.sol\":21718:21734  returndatasize() */\n      returndatasize\n        /* \"contracts/PRCC_Vesting.sol\":21713:21716  ptr */\n      dup2\n        /* \"contracts/PRCC_Vesting.sol\":21706:21735  revert(ptr, returndatasize()) */\n      revert\n        /* \"contracts/PRCC_Vesting.sol\":21573:21749  if iszero(success) {... */\n    tag_400:\n        /* \"contracts/PRCC_Vesting.sol\":21776:21792  returndatasize() */\n      returndatasize\n        /* \"contracts/PRCC_Vesting.sol\":21762:21792  returnSize := returndatasize() */\n      swap3\n      pop\n        /* \"contracts/PRCC_Vesting.sol\":21826:21827  0 */\n      0x00\n        /* \"contracts/PRCC_Vesting.sol\":21820:21828  mload(0) */\n      mload\n        /* \"contracts/PRCC_Vesting.sol\":21805:21828  returnValue := mload(0) */\n      swap2\n      pop\n        /* \"contracts/PRCC_Vesting.sol\":21446:21838  {... */\n      pop\n        /* \"contracts/PRCC_Vesting.sol\":21866:21867  0 */\n      0x00\n        /* \"contracts/PRCC_Vesting.sol\":21852:21862  returnSize */\n      dup3\n        /* \"contracts/PRCC_Vesting.sol\":21852:21867  returnSize == 0 */\n      eq\n        /* \"contracts/PRCC_Vesting.sol\":21852:21920  returnSize == 0 ? address(token).code.length == 0 : returnValue != 1 */\n      tag_401\n      jumpi\n        /* \"contracts/PRCC_Vesting.sol\":21919:21920  1 */\n      0x01\n        /* \"contracts/PRCC_Vesting.sol\":21904:21915  returnValue */\n      dup2\n        /* \"contracts/PRCC_Vesting.sol\":21904:21920  returnValue != 1 */\n      eq\n      iszero\n        /* \"contracts/PRCC_Vesting.sol\":21852:21920  returnSize == 0 ? address(token).code.length == 0 : returnValue != 1 */\n      jump(tag_402)\n    tag_401:\n        /* \"contracts/PRCC_Vesting.sol\":21900:21901  0 */\n      0x00\n        /* \"contracts/PRCC_Vesting.sol\":21878:21883  token */\n      dup5\n        /* \"contracts/PRCC_Vesting.sol\":21870:21896  address(token).code.length */\n      0xffffffffffffffffffffffffffffffffffffffff\n      and\n      extcodesize\n        /* \"contracts/PRCC_Vesting.sol\":21870:21901  address(token).code.length == 0 */\n      eq\n        /* \"contracts/PRCC_Vesting.sol\":21852:21920  returnSize == 0 ? address(token).code.length == 0 : returnValue != 1 */\n    tag_402:\n        /* \"contracts/PRCC_Vesting.sol\":21848:21994  if (returnSize == 0 ? address(token).code.length == 0 : returnValue != 1) {... */\n      iszero\n      tag_403\n      jumpi\n        /* \"contracts/PRCC_Vesting.sol\":21976:21981  token */\n      dup4\n        /* \"contracts/PRCC_Vesting.sol\":21943:21983  SafeERC20FailedOperation(address(token)) */\n      mload(0x40)\n      0x5274afe700000000000000000000000000000000000000000000000000000000\n      dup2\n      mstore\n      0x04\n      add\n      tag_404\n      swap2\n      swap1\n      tag_78\n      jump\t// in\n    tag_404:\n      mload(0x40)\n      dup1\n      swap2\n      sub\n      swap1\n      revert\n        /* \"contracts/PRCC_Vesting.sol\":21848:21994  if (returnSize == 0 ? address(token).code.length == 0 : returnValue != 1) {... */\n    tag_403:\n        /* \"contracts/PRCC_Vesting.sol\":21354:22000  {... */\n      pop\n      pop\n        /* \"contracts/PRCC_Vesting.sol\":21284:22000  function _callOptionalReturn(IERC20 token, bytes memory data) private {... */\n      pop\n      pop\n      jump\t// out\n        /* \"contracts/PRCC_Vesting.sol\":129983:130588  function _daysToDate(uint _days) internal pure returns (uint year, uint month, uint day) {... */\n    tag_251:\n        /* \"contracts/PRCC_Vesting.sol\":130039:130048  uint year */\n      0x00\n        /* \"contracts/PRCC_Vesting.sol\":130050:130060  uint month */\n      dup1\n        /* \"contracts/PRCC_Vesting.sol\":130062:130070  uint day */\n      0x00\n        /* \"contracts/PRCC_Vesting.sol\":130082:130092  int __days */\n      dup1\n        /* \"contracts/PRCC_Vesting.sol\":130099:130104  _days */\n      dup5\n        /* \"contracts/PRCC_Vesting.sol\":130082:130105  int __days = int(_days) */\n      swap1\n      pop\n        /* \"contracts/PRCC_Vesting.sol\":130116:130121  int L */\n      0x00\n        /* \"contracts/PRCC_Vesting.sol\":127824:127831  2440588 */\n      0x253d8c\n        /* \"contracts/PRCC_Vesting.sol\":130133:130138  68569 */\n      0x010bd9\n        /* \"contracts/PRCC_Vesting.sol\":130124:130130  __days */\n      dup4\n        /* \"contracts/PRCC_Vesting.sol\":130124:130138  __days + 68569 */\n      tag_406\n      swap2\n      swap1\n      tag_407\n      jump\t// in\n    tag_406:\n        /* \"contracts/PRCC_Vesting.sol\":130124:130155  __days + 68569 + OFFSET19700101 */\n      tag_408\n      swap2\n      swap1\n      tag_407\n      jump\t// in\n    tag_408:\n        /* \"contracts/PRCC_Vesting.sol\":130116:130155  int L = __days + 68569 + OFFSET19700101 */\n      swap1\n      pop\n        /* \"contracts/PRCC_Vesting.sol\":130165:130170  int N */\n      0x00\n        /* \"contracts/PRCC_Vesting.sol\":130181:130187  146097 */\n      0x023ab1\n        /* \"contracts/PRCC_Vesting.sol\":130177:130178  L */\n      dup3\n        /* \"contracts/PRCC_Vesting.sol\":130173:130174  4 */\n      0x04\n        /* \"contracts/PRCC_Vesting.sol\":130173:130178  4 * L */\n      tag_409\n      swap2\n      swap1\n      tag_410\n      jump\t// in\n    tag_409:\n        /* \"contracts/PRCC_Vesting.sol\":130173:130187  4 * L / 146097 */\n      tag_411\n      swap2\n      swap1\n      tag_412\n      jump\t// in\n    tag_411:\n        /* \"contracts/PRCC_Vesting.sol\":130165:130187  int N = 4 * L / 146097 */\n      swap1\n      pop\n        /* \"contracts/PRCC_Vesting.sol\":130224:130225  4 */\n      0x04\n        /* \"contracts/PRCC_Vesting.sol\":130219:130220  3 */\n      0x03\n        /* \"contracts/PRCC_Vesting.sol\":130215:130216  N */\n      dup3\n        /* \"contracts/PRCC_Vesting.sol\":130206:130212  146097 */\n      0x023ab1\n        /* \"contracts/PRCC_Vesting.sol\":130206:130216  146097 * N */\n      tag_413\n      swap2\n      swap1\n      tag_410\n      jump\t// in\n    tag_413:\n        /* \"contracts/PRCC_Vesting.sol\":130206:130220  146097 * N + 3 */\n      tag_414\n      swap2\n      swap1\n      tag_407\n      jump\t// in\n    tag_414:\n        /* \"contracts/PRCC_Vesting.sol\":130205:130225  (146097 * N + 3) / 4 */\n      tag_415\n      swap2\n      swap1\n      tag_412\n      jump\t// in\n    tag_415:\n        /* \"contracts/PRCC_Vesting.sol\":130201:130202  L */\n      dup3\n        /* \"contracts/PRCC_Vesting.sol\":130201:130225  L - (146097 * N + 3) / 4 */\n      tag_416\n      swap2\n      swap1\n      tag_417\n      jump\t// in\n    tag_416:\n        /* \"contracts/PRCC_Vesting.sol\":130197:130225  L = L - (146097 * N + 3) / 4 */\n      swap2\n      pop\n        /* \"contracts/PRCC_Vesting.sol\":130235:130244  int _year */\n      0x00\n        /* \"contracts/PRCC_Vesting.sol\":130264:130271  1461001 */\n      0x164b09\n        /* \"contracts/PRCC_Vesting.sol\":130259:130260  1 */\n      0x01\n        /* \"contracts/PRCC_Vesting.sol\":130255:130256  L */\n      dup5\n        /* \"contracts/PRCC_Vesting.sol\":130255:130260  L + 1 */\n      tag_418\n      swap2\n      swap1\n      tag_407\n      jump\t// in\n    tag_418:\n        /* \"contracts/PRCC_Vesting.sol\":130247:130251  4000 */\n      0x0fa0\n        /* \"contracts/PRCC_Vesting.sol\":130247:130261  4000 * (L + 1) */\n      tag_419\n      swap2\n      swap1\n      tag_410\n      jump\t// in\n    tag_419:\n        /* \"contracts/PRCC_Vesting.sol\":130247:130271  4000 * (L + 1) / 1461001 */\n      tag_420\n      swap2\n      swap1\n      tag_412\n      jump\t// in\n    tag_420:\n        /* \"contracts/PRCC_Vesting.sol\":130235:130271  int _year = 4000 * (L + 1) / 1461001 */\n      swap1\n      pop\n        /* \"contracts/PRCC_Vesting.sol\":130308:130310  31 */\n      0x1f\n        /* \"contracts/PRCC_Vesting.sol\":130304:130305  4 */\n      0x04\n        /* \"contracts/PRCC_Vesting.sol\":130296:130301  _year */\n      dup3\n        /* \"contracts/PRCC_Vesting.sol\":130289:130293  1461 */\n      0x05b5\n        /* \"contracts/PRCC_Vesting.sol\":130289:130301  1461 * _year */\n      tag_421\n      swap2\n      swap1\n      tag_410\n      jump\t// in\n    tag_421:\n        /* \"contracts/PRCC_Vesting.sol\":130289:130305  1461 * _year / 4 */\n      tag_422\n      swap2\n      swap1\n      tag_412\n      jump\t// in\n    tag_422:\n        /* \"contracts/PRCC_Vesting.sol\":130285:130286  L */\n      dup5\n        /* \"contracts/PRCC_Vesting.sol\":130285:130305  L - 1461 * _year / 4 */\n      tag_423\n      swap2\n      swap1\n      tag_417\n      jump\t// in\n    tag_423:\n        /* \"contracts/PRCC_Vesting.sol\":130285:130310  L - 1461 * _year / 4 + 31 */\n      tag_424\n      swap2\n      swap1\n      tag_407\n      jump\t// in\n    tag_424:\n        /* \"contracts/PRCC_Vesting.sol\":130281:130310  L = L - 1461 * _year / 4 + 31 */\n      swap3\n      pop\n        /* \"contracts/PRCC_Vesting.sol\":130320:130330  int _month */\n      0x00\n        /* \"contracts/PRCC_Vesting.sol\":130342:130346  2447 */\n      0x098f\n        /* \"contracts/PRCC_Vesting.sol\":130338:130339  L */\n      dup5\n        /* \"contracts/PRCC_Vesting.sol\":130333:130335  80 */\n      0x50\n        /* \"contracts/PRCC_Vesting.sol\":130333:130339  80 * L */\n      tag_425\n      swap2\n      swap1\n      tag_410\n      jump\t// in\n    tag_425:\n        /* \"contracts/PRCC_Vesting.sol\":130333:130346  80 * L / 2447 */\n      tag_426\n      swap2\n      swap1\n      tag_412\n      jump\t// in\n    tag_426:\n        /* \"contracts/PRCC_Vesting.sol\":130320:130346  int _month = 80 * L / 2447 */\n      swap1\n      pop\n        /* \"contracts/PRCC_Vesting.sol\":130356:130364  int _day */\n      0x00\n        /* \"contracts/PRCC_Vesting.sol\":130387:130389  80 */\n      0x50\n        /* \"contracts/PRCC_Vesting.sol\":130378:130384  _month */\n      dup3\n        /* \"contracts/PRCC_Vesting.sol\":130371:130375  2447 */\n      0x098f\n        /* \"contracts/PRCC_Vesting.sol\":130371:130384  2447 * _month */\n      tag_427\n      swap2\n      swap1\n      tag_410\n      jump\t// in\n    tag_427:\n        /* \"contracts/PRCC_Vesting.sol\":130371:130389  2447 * _month / 80 */\n      tag_428\n      swap2\n      swap1\n      tag_412\n      jump\t// in\n    tag_428:\n        /* \"contracts/PRCC_Vesting.sol\":130367:130368  L */\n      dup6\n        /* \"contracts/PRCC_Vesting.sol\":130367:130389  L - 2447 * _month / 80 */\n      tag_429\n      swap2\n      swap1\n      tag_417\n      jump\t// in\n    tag_429:\n        /* \"contracts/PRCC_Vesting.sol\":130356:130389  int _day = L - 2447 * _month / 80 */\n      swap1\n      pop\n        /* \"contracts/PRCC_Vesting.sol\":130412:130414  11 */\n      0x0b\n        /* \"contracts/PRCC_Vesting.sol\":130403:130409  _month */\n      dup3\n        /* \"contracts/PRCC_Vesting.sol\":130403:130414  _month / 11 */\n      tag_430\n      swap2\n      swap1\n      tag_412\n      jump\t// in\n    tag_430:\n        /* \"contracts/PRCC_Vesting.sol\":130399:130414  L = _month / 11 */\n      swap5\n      pop\n        /* \"contracts/PRCC_Vesting.sol\":130451:130452  L */\n      dup5\n        /* \"contracts/PRCC_Vesting.sol\":130446:130448  12 */\n      0x0c\n        /* \"contracts/PRCC_Vesting.sol\":130446:130452  12 * L */\n      tag_431\n      swap2\n      swap1\n      tag_410\n      jump\t// in\n    tag_431:\n        /* \"contracts/PRCC_Vesting.sol\":130442:130443  2 */\n      0x02\n        /* \"contracts/PRCC_Vesting.sol\":130433:130439  _month */\n      dup4\n        /* \"contracts/PRCC_Vesting.sol\":130433:130443  _month + 2 */\n      tag_432\n      swap2\n      swap1\n      tag_407\n      jump\t// in\n    tag_432:\n        /* \"contracts/PRCC_Vesting.sol\":130433:130452  _month + 2 - 12 * L */\n      tag_433\n      swap2\n      swap1\n      tag_417\n      jump\t// in\n    tag_433:\n        /* \"contracts/PRCC_Vesting.sol\":130424:130452  _month = _month + 2 - 12 * L */\n      swap2\n      pop\n        /* \"contracts/PRCC_Vesting.sol\":130495:130496  L */\n      dup5\n        /* \"contracts/PRCC_Vesting.sol\":130487:130492  _year */\n      dup4\n        /* \"contracts/PRCC_Vesting.sol\":130481:130483  49 */\n      0x31\n        /* \"contracts/PRCC_Vesting.sol\":130477:130478  N */\n      dup7\n        /* \"contracts/PRCC_Vesting.sol\":130477:130483  N - 49 */\n      tag_434\n      swap2\n      swap1\n      tag_417\n      jump\t// in\n    tag_434:\n        /* \"contracts/PRCC_Vesting.sol\":130470:130473  100 */\n      0x64\n        /* \"contracts/PRCC_Vesting.sol\":130470:130484  100 * (N - 49) */\n      tag_435\n      swap2\n      swap1\n      tag_410\n      jump\t// in\n    tag_435:\n        /* \"contracts/PRCC_Vesting.sol\":130470:130492  100 * (N - 49) + _year */\n      tag_436\n      swap2\n      swap1\n      tag_407\n      jump\t// in\n    tag_436:\n        /* \"contracts/PRCC_Vesting.sol\":130470:130496  100 * (N - 49) + _year + L */\n      tag_437\n      swap2\n      swap1\n      tag_407\n      jump\t// in\n    tag_437:\n        /* \"contracts/PRCC_Vesting.sol\":130462:130496  _year = 100 * (N - 49) + _year + L */\n      swap3\n      pop\n        /* \"contracts/PRCC_Vesting.sol\":130519:130524  _year */\n      dup3\n        /* \"contracts/PRCC_Vesting.sol\":130507:130525  year = uint(_year) */\n      swap9\n      pop\n        /* \"contracts/PRCC_Vesting.sol\":130548:130554  _month */\n      dup2\n        /* \"contracts/PRCC_Vesting.sol\":130535:130555  month = uint(_month) */\n      swap8\n      pop\n        /* \"contracts/PRCC_Vesting.sol\":130576:130580  _day */\n      dup1\n        /* \"contracts/PRCC_Vesting.sol\":130565:130581  day = uint(_day) */\n      swap7\n      pop\n        /* \"contracts/PRCC_Vesting.sol\":130072:130588  {... */\n      pop\n      pop\n      pop\n      pop\n      pop\n      pop\n        /* \"contracts/PRCC_Vesting.sol\":129983:130588  function _daysToDate(uint _days) internal pure returns (uint year, uint month, uint day) {... */\n      swap2\n      swap4\n      swap1\n      swap3\n      pop\n      jump\t// out\n        /* \"contracts/PRCC_Vesting.sol\":141300:141675  function _parseInt(bytes memory b, uint256 start, uint256 length) private pure returns (uint256) {... */\n    tag_290:\n        /* \"contracts/PRCC_Vesting.sol\":141388:141395  uint256 */\n      0x00\n        /* \"contracts/PRCC_Vesting.sol\":141407:141421  uint256 result */\n      dup1\n        /* \"contracts/PRCC_Vesting.sol\":141424:141425  0 */\n      0x00\n        /* \"contracts/PRCC_Vesting.sol\":141407:141425  uint256 result = 0 */\n      swap1\n      pop\n        /* \"contracts/PRCC_Vesting.sol\":141440:141449  uint256 i */\n      0x00\n        /* \"contracts/PRCC_Vesting.sol\":141452:141457  start */\n      dup5\n        /* \"contracts/PRCC_Vesting.sol\":141440:141457  uint256 i = start */\n      swap1\n      pop\n        /* \"contracts/PRCC_Vesting.sol\":141435:141646  for (uint256 i = start; i < start + length; i++) {... */\n    tag_439:\n        /* \"contracts/PRCC_Vesting.sol\":141471:141477  length */\n      dup4\n        /* \"contracts/PRCC_Vesting.sol\":141463:141468  start */\n      dup6\n        /* \"contracts/PRCC_Vesting.sol\":141463:141477  start + length */\n      tag_442\n      swap2\n      swap1\n      tag_120\n      jump\t// in\n    tag_442:\n        /* \"contracts/PRCC_Vesting.sol\":141459:141460  i */\n      dup2\n        /* \"contracts/PRCC_Vesting.sol\":141459:141477  i < start + length */\n      lt\n        /* \"contracts/PRCC_Vesting.sol\":141435:141646  for (uint256 i = start; i < start + length; i++) {... */\n      iszero\n      tag_440\n      jumpi\n        /* \"contracts/PRCC_Vesting.sol\":141514:141518  0x30 */\n      0x30\n        /* \"contracts/PRCC_Vesting.sol\":141506:141518  b[i] >= 0x30 */\n      0xf8\n      shl\n        /* \"contracts/PRCC_Vesting.sol\":141506:141507  b */\n      dup7\n        /* \"contracts/PRCC_Vesting.sol\":141508:141509  i */\n      dup3\n        /* \"contracts/PRCC_Vesting.sol\":141506:141510  b[i] */\n      dup2\n      mload\n      dup2\n      lt\n      tag_443\n      jumpi\n      tag_444\n      tag_276\n      jump\t// in\n    tag_444:\n    tag_443:\n      0x20\n      add\n      add\n      mload\n      0xf8\n      shr\n      0xf8\n      shl\n        /* \"contracts/PRCC_Vesting.sol\":141506:141518  b[i] >= 0x30 */\n      not(0xffffffffffffffffffffffffffffffffffffffffffffffffffffffffffffff)\n      and\n      lt\n      iszero\n        /* \"contracts/PRCC_Vesting.sol\":141506:141534  b[i] >= 0x30 && b[i] <= 0x39 */\n      dup1\n      iszero\n      tag_445\n      jumpi\n      pop\n        /* \"contracts/PRCC_Vesting.sol\":141530:141534  0x39 */\n      0x39\n        /* \"contracts/PRCC_Vesting.sol\":141522:141534  b[i] <= 0x39 */\n      0xf8\n      shl\n        /* \"contracts/PRCC_Vesting.sol\":141522:141523  b */\n      dup7\n        /* \"contracts/PRCC_Vesting.sol\":141524:141525  i */\n      dup3\n        /* \"contracts/PRCC_Vesting.sol\":141522:141526  b[i] */\n      dup2\n      mload\n      dup2\n      lt\n      tag_446\n      jumpi\n      tag_447\n      tag_276\n      jump\t// in\n    tag_447:\n    tag_446:\n      0x20\n      add\n      add\n      mload\n      0xf8\n      shr\n      0xf8\n      shl\n        /* \"contracts/PRCC_Vesting.sol\":141522:141534  b[i] <= 0x39 */\n      not(0xffffffffffffffffffffffffffffffffffffffffffffffffffffffffffffff)\n      and\n      gt\n      iszero\n        /* \"contracts/PRCC_Vesting.sol\":141506:141534  b[i] >= 0x30 && b[i] <= 0x39 */\n    tag_445:\n        /* \"contracts/PRCC_Vesting.sol\":141498:141552  require(b[i] >= 0x30 && b[i] <= 0x39, \"Invalid digit\") */\n      tag_448\n      jumpi\n      mload(0x40)\n      0x08c379a000000000000000000000000000000000000000000000000000000000\n      dup2\n      mstore\n      0x04\n      add\n      tag_449\n      swap1\n      tag_450\n      jump\t// in\n    tag_449:\n      mload(0x40)\n      dup1\n      swap2\n      sub\n      swap1\n      revert\n    tag_448:\n        /* \"contracts/PRCC_Vesting.sol\":141632:141634  48 */\n      0x30\n        /* \"contracts/PRCC_Vesting.sol\":141623:141624  b */\n      dup7\n        /* \"contracts/PRCC_Vesting.sol\":141625:141626  i */\n      dup3\n        /* \"contracts/PRCC_Vesting.sol\":141623:141627  b[i] */\n      dup2\n      mload\n      dup2\n      lt\n      tag_451\n      jumpi\n      tag_452\n      tag_276\n      jump\t// in\n    tag_452:\n    tag_451:\n      0x20\n      add\n      add\n      mload\n      0xf8\n      shr\n      0xf8\n      shl\n        /* \"contracts/PRCC_Vesting.sol\":141617:141628  uint8(b[i]) */\n      0xf8\n      shr\n        /* \"contracts/PRCC_Vesting.sol\":141609:141629  uint256(uint8(b[i])) */\n      0xff\n      and\n        /* \"contracts/PRCC_Vesting.sol\":141609:141634  uint256(uint8(b[i])) - 48 */\n      tag_453\n      swap2\n      swap1\n      tag_207\n      jump\t// in\n    tag_453:\n        /* \"contracts/PRCC_Vesting.sol\":141603:141605  10 */\n      0x0a\n        /* \"contracts/PRCC_Vesting.sol\":141594:141600  result */\n      dup4\n        /* \"contracts/PRCC_Vesting.sol\":141594:141605  result * 10 */\n      tag_454\n      swap2\n      swap1\n      tag_237\n      jump\t// in\n    tag_454:\n        /* \"contracts/PRCC_Vesting.sol\":141594:141635  result * 10 + (uint256(uint8(b[i])) - 48) */\n      tag_455\n      swap2\n      swap1\n      tag_120\n      jump\t// in\n    tag_455:\n        /* \"contracts/PRCC_Vesting.sol\":141585:141635  result = result * 10 + (uint256(uint8(b[i])) - 48) */\n      swap2\n      pop\n        /* \"contracts/PRCC_Vesting.sol\":141479:141482  i++ */\n      dup1\n      dup1\n      tag_456\n      swap1\n      tag_262\n      jump\t// in\n    tag_456:\n      swap2\n      pop\n      pop\n        /* \"contracts/PRCC_Vesting.sol\":141435:141646  for (uint256 i = start; i < start + length; i++) {... */\n      jump(tag_439)\n    tag_440:\n      pop\n        /* \"contracts/PRCC_Vesting.sol\":141662:141668  result */\n      dup1\n        /* \"contracts/PRCC_Vesting.sol\":141655:141668  return result */\n      swap2\n      pop\n      pop\n        /* \"contracts/PRCC_Vesting.sol\":141300:141675  function _parseInt(bytes memory b, uint256 start, uint256 length) private pure returns (uint256) {... */\n      swap4\n      swap3\n      pop\n      pop\n      pop\n      jump\t// out\n        /* \"contracts/PRCC_Vesting.sol\":141707:141849  function _isLeapYear(uint256 year) private pure returns (bool) {... */\n    tag_321:\n        /* \"contracts/PRCC_Vesting.sol\":141764:141768  bool */\n      0x00\n        /* \"contracts/PRCC_Vesting.sol\":141800:141801  0 */\n      dup1\n        /* \"contracts/PRCC_Vesting.sol\":141795:141796  4 */\n      0x04\n        /* \"contracts/PRCC_Vesting.sol\":141788:141792  year */\n      dup4\n        /* \"contracts/PRCC_Vesting.sol\":141788:141796  year % 4 */\n      tag_458\n      swap2\n      swap1\n      tag_155\n      jump\t// in\n    tag_458:\n        /* \"contracts/PRCC_Vesting.sol\":141788:141801  year % 4 == 0 */\n      eq\n        /* \"contracts/PRCC_Vesting.sol\":141788:141820  year % 4 == 0 && year % 100 != 0 */\n      dup1\n      iszero\n      tag_459\n      jumpi\n      pop\n        /* \"contracts/PRCC_Vesting.sol\":141819:141820  0 */\n      0x00\n        /* \"contracts/PRCC_Vesting.sol\":141812:141815  100 */\n      0x64\n        /* \"contracts/PRCC_Vesting.sol\":141805:141809  year */\n      dup4\n        /* \"contracts/PRCC_Vesting.sol\":141805:141815  year % 100 */\n      tag_460\n      swap2\n      swap1\n      tag_155\n      jump\t// in\n    tag_460:\n        /* \"contracts/PRCC_Vesting.sol\":141805:141820  year % 100 != 0 */\n      eq\n      iszero\n        /* \"contracts/PRCC_Vesting.sol\":141788:141820  year % 4 == 0 && year % 100 != 0 */\n    tag_459:\n        /* \"contracts/PRCC_Vesting.sol\":141787:141842  (year % 4 == 0 && year % 100 != 0) || (year % 400 == 0) */\n      dup1\n      tag_461\n      jumpi\n      pop\n        /* \"contracts/PRCC_Vesting.sol\":141840:141841  0 */\n      0x00\n        /* \"contracts/PRCC_Vesting.sol\":141833:141836  400 */\n      0x0190\n        /* \"contracts/PRCC_Vesting.sol\":141826:141830  year */\n      dup4\n        /* \"contracts/PRCC_Vesting.sol\":141826:141836  year % 400 */\n      tag_462\n      swap2\n      swap1\n      tag_155\n      jump\t// in\n    tag_462:\n        /* \"contracts/PRCC_Vesting.sol\":141826:141841  year % 400 == 0 */\n      eq\n        /* \"contracts/PRCC_Vesting.sol\":141787:141842  (year % 4 == 0 && year % 100 != 0) || (year % 400 == 0) */\n    tag_461:\n        /* \"contracts/PRCC_Vesting.sol\":141780:141842  return (year % 4 == 0 && year % 100 != 0) || (year % 400 == 0) */\n      swap1\n      pop\n        /* \"contracts/PRCC_Vesting.sol\":141707:141849  function _isLeapYear(uint256 year) private pure returns (bool) {... */\n      swap2\n      swap1\n      pop\n      jump\t// out\n        /* \"contracts/PRCC_Vesting.sol\":765:861  function _msgSender() internal view virtual returns (address) {... */\n    tag_381:\n        /* \"contracts/PRCC_Vesting.sol\":818:825  address */\n      0x00\n        /* \"contracts/PRCC_Vesting.sol\":844:854  msg.sender */\n      caller\n        /* \"contracts/PRCC_Vesting.sol\":837:854  return msg.sender */\n      swap1\n      pop\n        /* \"contracts/PRCC_Vesting.sol\":765:861  function _msgSender() internal view virtual returns (address) {... */\n      swap1\n      jump\t// out\n        /* \"contracts/PRCC_Vesting.sol\":29557:30044  function _revert(bytes memory returndata) private pure {... */\n    tag_398:\n        /* \"contracts/PRCC_Vesting.sol\":29708:29709  0 */\n      0x00\n        /* \"contracts/PRCC_Vesting.sol\":29688:29698  returndata */\n      dup2\n        /* \"contracts/PRCC_Vesting.sol\":29688:29705  returndata.length */\n      mload\n        /* \"contracts/PRCC_Vesting.sol\":29688:29709  returndata.length > 0 */\n      gt\n        /* \"contracts/PRCC_Vesting.sol\":29684:30038  if (returndata.length > 0) {... */\n      iszero\n      tag_465\n      jumpi\n        /* \"contracts/PRCC_Vesting.sol\":29885:29895  returndata */\n      dup1\n        /* \"contracts/PRCC_Vesting.sol\":29879:29896  mload(returndata) */\n      mload\n        /* \"contracts/PRCC_Vesting.sol\":29941:29956  returndata_size */\n      dup1\n        /* \"contracts/PRCC_Vesting.sol\":29928:29938  returndata */\n      dup3\n        /* \"contracts/PRCC_Vesting.sol\":29924:29926  32 */\n      0x20\n        /* \"contracts/PRCC_Vesting.sol\":29920:29939  add(32, returndata) */\n      add\n        /* \"contracts/PRCC_Vesting.sol\":29913:29957  revert(add(32, returndata), returndata_size) */\n      revert\n        /* \"contracts/PRCC_Vesting.sol\":29684:30038  if (returndata.length > 0) {... */\n    tag_465:\n        /* \"contracts/PRCC_Vesting.sol\":30008:30027  Errors.FailedCall() */\n      mload(0x40)\n      0xd6bda27500000000000000000000000000000000000000000000000000000000\n      dup2\n      mstore\n      0x04\n      add\n      mload(0x40)\n      dup1\n      swap2\n      sub\n      swap1\n      revert\n        /* \"#utility.yul\":7:82   */\n    tag_467:\n        /* \"#utility.yul\":40:46   */\n      0x00\n        /* \"#utility.yul\":73:75   */\n      0x40\n        /* \"#utility.yul\":67:76   */\n      mload\n        /* \"#utility.yul\":57:76   */\n      swap1\n      pop\n        /* \"#utility.yul\":7:82   */\n      swap1\n      jump\t// out\n        /* \"#utility.yul\":88:205   */\n    tag_468:\n        /* \"#utility.yul\":197:198   */\n      0x00\n        /* \"#utility.yul\":194:195   */\n      dup1\n        /* \"#utility.yul\":187:199   */\n      revert\n        /* \"#utility.yul\":211:328   */\n    tag_469:\n        /* \"#utility.yul\":320:321   */\n      0x00\n        /* \"#utility.yul\":317:318   */\n      dup1\n        /* \"#utility.yul\":310:322   */\n      revert\n        /* \"#utility.yul\":334:435   */\n    tag_470:\n        /* \"#utility.yul\":370:377   */\n      0x00\n        /* \"#utility.yul\":410:428   */\n      0xffffffffffffffff\n        /* \"#utility.yul\":403:408   */\n      dup3\n        /* \"#utility.yul\":399:429   */\n      and\n        /* \"#utility.yul\":388:429   */\n      swap1\n      pop\n        /* \"#utility.yul\":334:435   */\n      swap2\n      swap1\n      pop\n      jump\t// out\n        /* \"#utility.yul\":441:561   */\n    tag_471:\n        /* \"#utility.yul\":513:536   */\n      tag_532\n        /* \"#utility.yul\":530:535   */\n      dup2\n        /* \"#utility.yul\":513:536   */\n      tag_470\n      jump\t// in\n    tag_532:\n        /* \"#utility.yul\":506:511   */\n      dup2\n        /* \"#utility.yul\":503:537   */\n      eq\n        /* \"#utility.yul\":493:555   */\n      tag_533\n      jumpi\n        /* \"#utility.yul\":551:552   */\n      0x00\n        /* \"#utility.yul\":548:549   */\n      dup1\n        /* \"#utility.yul\":541:553   */\n      revert\n        /* \"#utility.yul\":493:555   */\n    tag_533:\n        /* \"#utility.yul\":441:561   */\n      pop\n      jump\t// out\n        /* \"#utility.yul\":567:704   */\n    tag_472:\n        /* \"#utility.yul\":612:617   */\n      0x00\n        /* \"#utility.yul\":650:656   */\n      dup2\n        /* \"#utility.yul\":637:657   */\n      calldataload\n        /* \"#utility.yul\":628:657   */\n      swap1\n      pop\n        /* \"#utility.yul\":666:698   */\n      tag_535\n        /* \"#utility.yul\":692:697   */\n      dup2\n        /* \"#utility.yul\":666:698   */\n      tag_471\n      jump\t// in\n    tag_535:\n        /* \"#utility.yul\":567:704   */\n      swap3\n      swap2\n      pop\n      pop\n      jump\t// out\n        /* \"#utility.yul\":710:1037   */\n    tag_30:\n        /* \"#utility.yul\":768:774   */\n      0x00\n        /* \"#utility.yul\":817:819   */\n      0x20\n        /* \"#utility.yul\":805:814   */\n      dup3\n        /* \"#utility.yul\":796:803   */\n      dup5\n        /* \"#utility.yul\":792:815   */\n      sub\n        /* \"#utility.yul\":788:820   */\n      slt\n        /* \"#utility.yul\":785:904   */\n      iszero\n      tag_537\n      jumpi\n        /* \"#utility.yul\":823:902   */\n      tag_538\n      tag_468\n      jump\t// in\n    tag_538:\n        /* \"#utility.yul\":785:904   */\n    tag_537:\n        /* \"#utility.yul\":943:944   */\n      0x00\n        /* \"#utility.yul\":968:1020   */\n      tag_539\n        /* \"#utility.yul\":1012:1019   */\n      dup5\n        /* \"#utility.yul\":1003:1009   */\n      dup3\n        /* \"#utility.yul\":992:1001   */\n      dup6\n        /* \"#utility.yul\":988:1010   */\n      add\n        /* \"#utility.yul\":968:1020   */\n      tag_472\n      jump\t// in\n    tag_539:\n        /* \"#utility.yul\":958:1020   */\n      swap2\n      pop\n        /* \"#utility.yul\":914:1030   */\n      pop\n        /* \"#utility.yul\":710:1037   */\n      swap3\n      swap2\n      pop\n      pop\n      jump\t// out\n        /* \"#utility.yul\":1043:1120   */\n    tag_473:\n        /* \"#utility.yul\":1080:1087   */\n      0x00\n        /* \"#utility.yul\":1109:1114   */\n      dup2\n        /* \"#utility.yul\":1098:1114   */\n      swap1\n      pop\n        /* \"#utility.yul\":1043:1120   */\n      swap2\n      swap1\n      pop\n      jump\t// out\n        /* \"#utility.yul\":1126:1244   */\n    tag_474:\n        /* \"#utility.yul\":1213:1237   */\n      tag_542\n        /* \"#utility.yul\":1231:1236   */\n      dup2\n        /* \"#utility.yul\":1213:1237   */\n      tag_473\n      jump\t// in\n    tag_542:\n        /* \"#utility.yul\":1208:1211   */\n      dup3\n        /* \"#utility.yul\":1201:1238   */\n      mstore\n        /* \"#utility.yul\":1126:1244   */\n      pop\n      pop\n      jump\t// out\n        /* \"#utility.yul\":1250:1472   */\n    tag_33:\n        /* \"#utility.yul\":1343:1347   */\n      0x00\n        /* \"#utility.yul\":1381:1383   */\n      0x20\n        /* \"#utility.yul\":1370:1379   */\n      dup3\n        /* \"#utility.yul\":1366:1384   */\n      add\n        /* \"#utility.yul\":1358:1384   */\n      swap1\n      pop\n        /* \"#utility.yul\":1394:1465   */\n      tag_544\n        /* \"#utility.yul\":1462:1463   */\n      0x00\n        /* \"#utility.yul\":1451:1460   */\n      dup4\n        /* \"#utility.yul\":1447:1464   */\n      add\n        /* \"#utility.yul\":1438:1444   */\n      dup5\n        /* \"#utility.yul\":1394:1465   */\n      tag_474\n      jump\t// in\n    tag_544:\n        /* \"#utility.yul\":1250:1472   */\n      swap3\n      swap2\n      pop\n      pop\n      jump\t// out\n        /* \"#utility.yul\":1478:1604   */\n    tag_475:\n        /* \"#utility.yul\":1515:1522   */\n      0x00\n        /* \"#utility.yul\":1555:1597   */\n      0xffffffffffffffffffffffffffffffffffffffff\n        /* \"#utility.yul\":1548:1553   */\n      dup3\n        /* \"#utility.yul\":1544:1598   */\n      and\n        /* \"#utility.yul\":1533:1598   */\n      swap1\n      pop\n        /* \"#utility.yul\":1478:1604   */\n      swap2\n      swap1\n      pop\n      jump\t// out\n        /* \"#utility.yul\":1610:1706   */\n    tag_476:\n        /* \"#utility.yul\":1647:1654   */\n      0x00\n        /* \"#utility.yul\":1676:1700   */\n      tag_547\n        /* \"#utility.yul\":1694:1699   */\n      dup3\n        /* \"#utility.yul\":1676:1700   */\n      tag_475\n      jump\t// in\n    tag_547:\n        /* \"#utility.yul\":1665:1700   */\n      swap1\n      pop\n        /* \"#utility.yul\":1610:1706   */\n      swap2\n      swap1\n      pop\n      jump\t// out\n        /* \"#utility.yul\":1712:1834   */\n    tag_477:\n        /* \"#utility.yul\":1785:1809   */\n      tag_549\n        /* \"#utility.yul\":1803:1808   */\n      dup2\n        /* \"#utility.yul\":1785:1809   */\n      tag_476\n      jump\t// in\n    tag_549:\n        /* \"#utility.yul\":1778:1783   */\n      dup2\n        /* \"#utility.yul\":1775:1810   */\n      eq\n        /* \"#utility.yul\":1765:1828   */\n      tag_550\n      jumpi\n        /* \"#utility.yul\":1824:1825   */\n      0x00\n        /* \"#utility.yul\":1821:1822   */\n      dup1\n        /* \"#utility.yul\":1814:1826   */\n      revert\n        /* \"#utility.yul\":1765:1828   */\n    tag_550:\n        /* \"#utility.yul\":1712:1834   */\n      pop\n      jump\t// out\n        /* \"#utility.yul\":1840:1979   */\n    tag_478:\n        /* \"#utility.yul\":1886:1891   */\n      0x00\n        /* \"#utility.yul\":1924:1930   */\n      dup2\n        /* \"#utility.yul\":1911:1931   */\n      calldataload\n        /* \"#utility.yul\":1902:1931   */\n      swap1\n      pop\n        /* \"#utility.yul\":1940:1973   */\n      tag_552\n        /* \"#utility.yul\":1967:1972   */\n      dup2\n        /* \"#utility.yul\":1940:1973   */\n      tag_477\n      jump\t// in\n    tag_552:\n        /* \"#utility.yul\":1840:1979   */\n      swap3\n      swap2\n      pop\n      pop\n      jump\t// out\n        /* \"#utility.yul\":1985:2314   */\n    tag_41:\n        /* \"#utility.yul\":2044:2050   */\n      0x00\n        /* \"#utility.yul\":2093:2095   */\n      0x20\n        /* \"#utility.yul\":2081:2090   */\n      dup3\n        /* \"#utility.yul\":2072:2079   */\n      dup5\n        /* \"#utility.yul\":2068:2091   */\n      sub\n        /* \"#utility.yul\":2064:2096   */\n      slt\n        /* \"#utility.yul\":2061:2180   */\n      iszero\n      tag_554\n      jumpi\n        /* \"#utility.yul\":2099:2178   */\n      tag_555\n      tag_468\n      jump\t// in\n    tag_555:\n        /* \"#utility.yul\":2061:2180   */\n    tag_554:\n        /* \"#utility.yul\":2219:2220   */\n      0x00\n        /* \"#utility.yul\":2244:2297   */\n      tag_556\n        /* \"#utility.yul\":2289:2296   */\n      dup5\n        /* \"#utility.yul\":2280:2286   */\n      dup3\n        /* \"#utility.yul\":2269:2278   */\n      dup6\n        /* \"#utility.yul\":2265:2287   */\n      add\n        /* \"#utility.yul\":2244:2297   */\n      tag_478\n      jump\t// in\n    tag_556:\n        /* \"#utility.yul\":2234:2297   */\n      swap2\n      pop\n        /* \"#utility.yul\":2190:2307   */\n      pop\n        /* \"#utility.yul\":1985:2314   */\n      swap3\n      swap2\n      pop\n      pop\n      jump\t// out\n        /* \"#utility.yul\":2320:2419   */\n    tag_479:\n        /* \"#utility.yul\":2372:2378   */\n      0x00\n        /* \"#utility.yul\":2406:2411   */\n      dup2\n        /* \"#utility.yul\":2400:2412   */\n      mload\n        /* \"#utility.yul\":2390:2412   */\n      swap1\n      pop\n        /* \"#utility.yul\":2320:2419   */\n      swap2\n      swap1\n      pop\n      jump\t// out\n        /* \"#utility.yul\":2425:2594   */\n    tag_480:\n        /* \"#utility.yul\":2509:2520   */\n      0x00\n        /* \"#utility.yul\":2543:2549   */\n      dup3\n        /* \"#utility.yul\":2538:2541   */\n      dup3\n        /* \"#utility.yul\":2531:2550   */\n      mstore\n        /* \"#utility.yul\":2583:2587   */\n      0x20\n        /* \"#utility.yul\":2578:2581   */\n      dup3\n        /* \"#utility.yul\":2574:2588   */\n      add\n        /* \"#utility.yul\":2559:2588   */\n      swap1\n      pop\n        /* \"#utility.yul\":2425:2594   */\n      swap3\n      swap2\n      pop\n      pop\n      jump\t// out\n        /* \"#utility.yul\":2600:2846   */\n    tag_481:\n        /* \"#utility.yul\":2681:2682   */\n      0x00\n        /* \"#utility.yul\":2691:2804   */\n    tag_560:\n        /* \"#utility.yul\":2705:2711   */\n      dup4\n        /* \"#utility.yul\":2702:2703   */\n      dup2\n        /* \"#utility.yul\":2699:2712   */\n      lt\n        /* \"#utility.yul\":2691:2804   */\n      iszero\n      tag_562\n      jumpi\n        /* \"#utility.yul\":2790:2791   */\n      dup1\n        /* \"#utility.yul\":2785:2788   */\n      dup3\n        /* \"#utility.yul\":2781:2792   */\n      add\n        /* \"#utility.yul\":2775:2793   */\n      mload\n        /* \"#utility.yul\":2771:2772   */\n      dup2\n        /* \"#utility.yul\":2766:2769   */\n      dup5\n        /* \"#utility.yul\":2762:2773   */\n      add\n        /* \"#utility.yul\":2755:2794   */\n      mstore\n        /* \"#utility.yul\":2727:2729   */\n      0x20\n        /* \"#utility.yul\":2724:2725   */\n      dup2\n        /* \"#utility.yul\":2720:2730   */\n      add\n        /* \"#utility.yul\":2715:2730   */\n      swap1\n      pop\n        /* \"#utility.yul\":2691:2804   */\n      jump(tag_560)\n    tag_562:\n        /* \"#utility.yul\":2838:2839   */\n      0x00\n        /* \"#utility.yul\":2829:2835   */\n      dup5\n        /* \"#utility.yul\":2824:2827   */\n      dup5\n        /* \"#utility.yul\":2820:2836   */\n      add\n        /* \"#utility.yul\":2813:2840   */\n      mstore\n        /* \"#utility.yul\":2662:2846   */\n      pop\n        /* \"#utility.yul\":2600:2846   */\n      pop\n      pop\n      pop\n      jump\t// out\n        /* \"#utility.yul\":2852:2954   */\n    tag_482:\n        /* \"#utility.yul\":2893:2899   */\n      0x00\n        /* \"#utility.yul\":2944:2946   */\n      0x1f\n        /* \"#utility.yul\":2940:2947   */\n      not\n        /* \"#utility.yul\":2935:2937   */\n      0x1f\n        /* \"#utility.yul\":2928:2933   */\n      dup4\n        /* \"#utility.yul\":2924:2938   */\n      add\n        /* \"#utility.yul\":2920:2948   */\n      and\n        /* \"#utility.yul\":2910:2948   */\n      swap1\n      pop\n        /* \"#utility.yul\":2852:2954   */\n      swap2\n      swap1\n      pop\n      jump\t// out\n        /* \"#utility.yul\":2960:3337   */\n    tag_483:\n        /* \"#utility.yul\":3048:3051   */\n      0x00\n        /* \"#utility.yul\":3076:3115   */\n      tag_565\n        /* \"#utility.yul\":3109:3114   */\n      dup3\n        /* \"#utility.yul\":3076:3115   */\n      tag_479\n      jump\t// in\n    tag_565:\n        /* \"#utility.yul\":3131:3202   */\n      tag_566\n        /* \"#utility.yul\":3195:3201   */\n      dup2\n        /* \"#utility.yul\":3190:3193   */\n      dup6\n        /* \"#utility.yul\":3131:3202   */\n      tag_480\n      jump\t// in\n    tag_566:\n        /* \"#utility.yul\":3124:3202   */\n      swap4\n      pop\n        /* \"#utility.yul\":3211:3276   */\n      tag_567\n        /* \"#utility.yul\":3269:3275   */\n      dup2\n        /* \"#utility.yul\":3264:3267   */\n      dup6\n        /* \"#utility.yul\":3257:3261   */\n      0x20\n        /* \"#utility.yul\":3250:3255   */\n      dup7\n        /* \"#utility.yul\":3246:3262   */\n      add\n        /* \"#utility.yul\":3211:3276   */\n      tag_481\n      jump\t// in\n    tag_567:\n        /* \"#utility.yul\":3301:3330   */\n      tag_568\n        /* \"#utility.yul\":3323:3329   */\n      dup2\n        /* \"#utility.yul\":3301:3330   */\n      tag_482\n      jump\t// in\n    tag_568:\n        /* \"#utility.yul\":3296:3299   */\n      dup5\n        /* \"#utility.yul\":3292:3331   */\n      add\n        /* \"#utility.yul\":3285:3331   */\n      swap2\n      pop\n        /* \"#utility.yul\":3052:3337   */\n      pop\n        /* \"#utility.yul\":2960:3337   */\n      swap3\n      swap2\n      pop\n      pop\n      jump\t// out\n        /* \"#utility.yul\":3343:3656   */\n    tag_47:\n        /* \"#utility.yul\":3456:3460   */\n      0x00\n        /* \"#utility.yul\":3494:3496   */\n      0x20\n        /* \"#utility.yul\":3483:3492   */\n      dup3\n        /* \"#utility.yul\":3479:3497   */\n      add\n        /* \"#utility.yul\":3471:3497   */\n      swap1\n      pop\n        /* \"#utility.yul\":3543:3552   */\n      dup2\n        /* \"#utility.yul\":3537:3541   */\n      dup2\n        /* \"#utility.yul\":3533:3553   */\n      sub\n        /* \"#utility.yul\":3529:3530   */\n      0x00\n        /* \"#utility.yul\":3518:3527   */\n      dup4\n        /* \"#utility.yul\":3514:3531   */\n      add\n        /* \"#utility.yul\":3507:3554   */\n      mstore\n        /* \"#utility.yul\":3571:3649   */\n      tag_570\n        /* \"#utility.yul\":3644:3648   */\n      dup2\n        /* \"#utility.yul\":3635:3641   */\n      dup5\n        /* \"#utility.yul\":3571:3649   */\n      tag_483\n      jump\t// in\n    tag_570:\n        /* \"#utility.yul\":3563:3649   */\n      swap1\n      pop\n        /* \"#utility.yul\":3343:3656   */\n      swap3\n      swap2\n      pop\n      pop\n      jump\t// out\n        /* \"#utility.yul\":3662:3779   */\n    tag_484:\n        /* \"#utility.yul\":3771:3772   */\n      0x00\n        /* \"#utility.yul\":3768:3769   */\n      dup1\n        /* \"#utility.yul\":3761:3773   */\n      revert\n        /* \"#utility.yul\":3785:3902   */\n    tag_485:\n        /* \"#utility.yul\":3894:3895   */\n      0x00\n        /* \"#utility.yul\":3891:3892   */\n      dup1\n        /* \"#utility.yul\":3884:3896   */\n      revert\n        /* \"#utility.yul\":3908:4088   */\n    tag_266:\n        /* \"#utility.yul\":3956:4033   */\n      0x4e487b7100000000000000000000000000000000000000000000000000000000\n        /* \"#utility.yul\":3953:3954   */\n      0x00\n        /* \"#utility.yul\":3946:4034   */\n      mstore\n        /* \"#utility.yul\":4053:4057   */\n      0x41\n        /* \"#utility.yul\":4050:4051   */\n      0x04\n        /* \"#utility.yul\":4043:4058   */\n      mstore\n        /* \"#utility.yul\":4077:4081   */\n      0x24\n        /* \"#utility.yul\":4074:4075   */\n      0x00\n        /* \"#utility.yul\":4067:4082   */\n      revert\n        /* \"#utility.yul\":4094:4375   */\n    tag_486:\n        /* \"#utility.yul\":4177:4204   */\n      tag_575\n        /* \"#utility.yul\":4199:4203   */\n      dup3\n        /* \"#utility.yul\":4177:4204   */\n      tag_482\n      jump\t// in\n    tag_575:\n        /* \"#utility.yul\":4169:4175   */\n      dup2\n        /* \"#utility.yul\":4165:4205   */\n      add\n        /* \"#utility.yul\":4307:4313   */\n      dup2\n        /* \"#utility.yul\":4295:4305   */\n      dup2\n        /* \"#utility.yul\":4292:4314   */\n      lt\n        /* \"#utility.yul\":4271:4289   */\n      0xffffffffffffffff\n        /* \"#utility.yul\":4259:4269   */\n      dup3\n        /* \"#utility.yul\":4256:4290   */\n      gt\n        /* \"#utility.yul\":4253:4315   */\n      or\n        /* \"#utility.yul\":4250:4338   */\n      iszero\n      tag_576\n      jumpi\n        /* \"#utility.yul\":4318:4336   */\n      tag_577\n      tag_266\n      jump\t// in\n    tag_577:\n        /* \"#utility.yul\":4250:4338   */\n    tag_576:\n        /* \"#utility.yul\":4358:4368   */\n      dup1\n        /* \"#utility.yul\":4354:4356   */\n      0x40\n        /* \"#utility.yul\":4347:4369   */\n      mstore\n        /* \"#utility.yul\":4137:4375   */\n      pop\n        /* \"#utility.yul\":4094:4375   */\n      pop\n      pop\n      jump\t// out\n        /* \"#utility.yul\":4381:4510   */\n    tag_487:\n        /* \"#utility.yul\":4415:4421   */\n      0x00\n        /* \"#utility.yul\":4442:4462   */\n      tag_579\n      tag_467\n      jump\t// in\n    tag_579:\n        /* \"#utility.yul\":4432:4462   */\n      swap1\n      pop\n        /* \"#utility.yul\":4471:4504   */\n      tag_580\n        /* \"#utility.yul\":4499:4503   */\n      dup3\n        /* \"#utility.yul\":4491:4497   */\n      dup3\n        /* \"#utility.yul\":4471:4504   */\n      tag_486\n      jump\t// in\n    tag_580:\n        /* \"#utility.yul\":4381:4510   */\n      swap2\n      swap1\n      pop\n      jump\t// out\n        /* \"#utility.yul\":4516:4824   */\n    tag_488:\n        /* \"#utility.yul\":4578:4582   */\n      0x00\n        /* \"#utility.yul\":4668:4686   */\n      0xffffffffffffffff\n        /* \"#utility.yul\":4660:4666   */\n      dup3\n        /* \"#utility.yul\":4657:4687   */\n      gt\n        /* \"#utility.yul\":4654:4710   */\n      iszero\n      tag_582\n      jumpi\n        /* \"#utility.yul\":4690:4708   */\n      tag_583\n      tag_266\n      jump\t// in\n    tag_583:\n        /* \"#utility.yul\":4654:4710   */\n    tag_582:\n        /* \"#utility.yul\":4728:4757   */\n      tag_584\n        /* \"#utility.yul\":4750:4756   */\n      dup3\n        /* \"#utility.yul\":4728:4757   */\n      tag_482\n      jump\t// in\n    tag_584:\n        /* \"#utility.yul\":4720:4757   */\n      swap1\n      pop\n        /* \"#utility.yul\":4812:4816   */\n      0x20\n        /* \"#utility.yul\":4806:4810   */\n      dup2\n        /* \"#utility.yul\":4802:4817   */\n      add\n        /* \"#utility.yul\":4794:4817   */\n      swap1\n      pop\n        /* \"#utility.yul\":4516:4824   */\n      swap2\n      swap1\n      pop\n      jump\t// out\n        /* \"#utility.yul\":4830:4976   */\n    tag_489:\n        /* \"#utility.yul\":4927:4933   */\n      dup3\n        /* \"#utility.yul\":4922:4925   */\n      dup2\n        /* \"#utility.yul\":4917:4920   */\n      dup4\n        /* \"#utility.yul\":4904:4934   */\n      calldatacopy\n        /* \"#utility.yul\":4968:4969   */\n      0x00\n        /* \"#utility.yul\":4959:4965   */\n      dup4\n        /* \"#utility.yul\":4954:4957   */\n      dup4\n        /* \"#utility.yul\":4950:4966   */\n      add\n        /* \"#utility.yul\":4943:4970   */\n      mstore\n        /* \"#utility.yul\":4830:4976   */\n      pop\n      pop\n      pop\n      jump\t// out\n        /* \"#utility.yul\":4982:5407   */\n    tag_490:\n        /* \"#utility.yul\":5060:5065   */\n      0x00\n        /* \"#utility.yul\":5085:5151   */\n      tag_587\n        /* \"#utility.yul\":5101:5150   */\n      tag_588\n        /* \"#utility.yul\":5143:5149   */\n      dup5\n        /* \"#utility.yul\":5101:5150   */\n      tag_488\n      jump\t// in\n    tag_588:\n        /* \"#utility.yul\":5085:5151   */\n      tag_487\n      jump\t// in\n    tag_587:\n        /* \"#utility.yul\":5076:5151   */\n      swap1\n      pop\n        /* \"#utility.yul\":5174:5180   */\n      dup3\n        /* \"#utility.yul\":5167:5172   */\n      dup2\n        /* \"#utility.yul\":5160:5181   */\n      mstore\n        /* \"#utility.yul\":5212:5216   */\n      0x20\n        /* \"#utility.yul\":5205:5210   */\n      dup2\n        /* \"#utility.yul\":5201:5217   */\n      add\n        /* \"#utility.yul\":5250:5253   */\n      dup5\n        /* \"#utility.yul\":5241:5247   */\n      dup5\n        /* \"#utility.yul\":5236:5239   */\n      dup5\n        /* \"#utility.yul\":5232:5248   */\n      add\n        /* \"#utility.yul\":5229:5254   */\n      gt\n        /* \"#utility.yul\":5226:5338   */\n      iszero\n      tag_589\n      jumpi\n        /* \"#utility.yul\":5257:5336   */\n      tag_590\n      tag_485\n      jump\t// in\n    tag_590:\n        /* \"#utility.yul\":5226:5338   */\n    tag_589:\n        /* \"#utility.yul\":5347:5401   */\n      tag_591\n        /* \"#utility.yul\":5394:5400   */\n      dup5\n        /* \"#utility.yul\":5389:5392   */\n      dup3\n        /* \"#utility.yul\":5384:5387   */\n      dup6\n        /* \"#utility.yul\":5347:5401   */\n      tag_489\n      jump\t// in\n    tag_591:\n        /* \"#utility.yul\":5066:5407   */\n      pop\n        /* \"#utility.yul\":4982:5407   */\n      swap4\n      swap3\n      pop\n      pop\n      pop\n      jump\t// out\n        /* \"#utility.yul\":5427:5767   */\n    tag_491:\n        /* \"#utility.yul\":5483:5488   */\n      0x00\n        /* \"#utility.yul\":5532:5535   */\n      dup3\n        /* \"#utility.yul\":5525:5529   */\n      0x1f\n        /* \"#utility.yul\":5517:5523   */\n      dup4\n        /* \"#utility.yul\":5513:5530   */\n      add\n        /* \"#utility.yul\":5509:5536   */\n      slt\n        /* \"#utility.yul\":5499:5621   */\n      tag_593\n      jumpi\n        /* \"#utility.yul\":5540:5619   */\n      tag_594\n      tag_484\n      jump\t// in\n    tag_594:\n        /* \"#utility.yul\":5499:5621   */\n    tag_593:\n        /* \"#utility.yul\":5657:5663   */\n      dup2\n        /* \"#utility.yul\":5644:5664   */\n      calldataload\n        /* \"#utility.yul\":5682:5761   */\n      tag_595\n        /* \"#utility.yul\":5757:5760   */\n      dup5\n        /* \"#utility.yul\":5749:5755   */\n      dup3\n        /* \"#utility.yul\":5742:5746   */\n      0x20\n        /* \"#utility.yul\":5734:5740   */\n      dup7\n        /* \"#utility.yul\":5730:5747   */\n      add\n        /* \"#utility.yul\":5682:5761   */\n      tag_490\n      jump\t// in\n    tag_595:\n        /* \"#utility.yul\":5673:5761   */\n      swap2\n      pop\n        /* \"#utility.yul\":5489:5767   */\n      pop\n        /* \"#utility.yul\":5427:5767   */\n      swap3\n      swap2\n      pop\n      pop\n      jump\t// out\n        /* \"#utility.yul\":5773:6427   */\n    tag_51:\n        /* \"#utility.yul\":5851:5857   */\n      0x00\n        /* \"#utility.yul\":5859:5865   */\n      dup1\n        /* \"#utility.yul\":5908:5910   */\n      0x40\n        /* \"#utility.yul\":5896:5905   */\n      dup4\n        /* \"#utility.yul\":5887:5894   */\n      dup6\n        /* \"#utility.yul\":5883:5906   */\n      sub\n        /* \"#utility.yul\":5879:5911   */\n      slt\n        /* \"#utility.yul\":5876:5995   */\n      iszero\n      tag_597\n      jumpi\n        /* \"#utility.yul\":5914:5993   */\n      tag_598\n      tag_468\n      jump\t// in\n    tag_598:\n        /* \"#utility.yul\":5876:5995   */\n    tag_597:\n        /* \"#utility.yul\":6034:6035   */\n      0x00\n        /* \"#utility.yul\":6059:6112   */\n      tag_599\n        /* \"#utility.yul\":6104:6111   */\n      dup6\n        /* \"#utility.yul\":6095:6101   */\n      dup3\n        /* \"#utility.yul\":6084:6093   */\n      dup7\n        /* \"#utility.yul\":6080:6102   */\n      add\n        /* \"#utility.yul\":6059:6112   */\n      tag_478\n      jump\t// in\n    tag_599:\n        /* \"#utility.yul\":6049:6112   */\n      swap3\n      pop\n        /* \"#utility.yul\":6005:6122   */\n      pop\n        /* \"#utility.yul\":6189:6191   */\n      0x20\n        /* \"#utility.yul\":6178:6187   */\n      dup4\n        /* \"#utility.yul\":6174:6192   */\n      add\n        /* \"#utility.yul\":6161:6193   */\n      calldataload\n        /* \"#utility.yul\":6220:6238   */\n      0xffffffffffffffff\n        /* \"#utility.yul\":6212:6218   */\n      dup2\n        /* \"#utility.yul\":6209:6239   */\n      gt\n        /* \"#utility.yul\":6206:6323   */\n      iszero\n      tag_600\n      jumpi\n        /* \"#utility.yul\":6242:6321   */\n      tag_601\n      tag_469\n      jump\t// in\n    tag_601:\n        /* \"#utility.yul\":6206:6323   */\n    tag_600:\n        /* \"#utility.yul\":6347:6410   */\n      tag_602\n        /* \"#utility.yul\":6402:6409   */\n      dup6\n        /* \"#utility.yul\":6393:6399   */\n      dup3\n        /* \"#utility.yul\":6382:6391   */\n      dup7\n        /* \"#utility.yul\":6378:6400   */\n      add\n        /* \"#utility.yul\":6347:6410   */\n      tag_491\n      jump\t// in\n    tag_602:\n        /* \"#utility.yul\":6337:6410   */\n      swap2\n      pop\n        /* \"#utility.yul\":6132:6420   */\n      pop\n        /* \"#utility.yul\":5773:6427   */\n      swap3\n      pop\n      swap3\n      swap1\n      pop\n      jump\t// out\n        /* \"#utility.yul\":6433:6905   */\n    tag_68:\n        /* \"#utility.yul\":6500:6506   */\n      0x00\n        /* \"#utility.yul\":6508:6514   */\n      dup1\n        /* \"#utility.yul\":6557:6559   */\n      0x40\n        /* \"#utility.yul\":6545:6554   */\n      dup4\n        /* \"#utility.yul\":6536:6543   */\n      dup6\n        /* \"#utility.yul\":6532:6555   */\n      sub\n        /* \"#utility.yul\":6528:6560   */\n      slt\n        /* \"#utility.yul\":6525:6644   */\n      iszero\n      tag_604\n      jumpi\n        /* \"#utility.yul\":6563:6642   */\n      tag_605\n      tag_468\n      jump\t// in\n    tag_605:\n        /* \"#utility.yul\":6525:6644   */\n    tag_604:\n        /* \"#utility.yul\":6683:6684   */\n      0x00\n        /* \"#utility.yul\":6708:6761   */\n      tag_606\n        /* \"#utility.yul\":6753:6760   */\n      dup6\n        /* \"#utility.yul\":6744:6750   */\n      dup3\n        /* \"#utility.yul\":6733:6742   */\n      dup7\n        /* \"#utility.yul\":6729:6751   */\n      add\n        /* \"#utility.yul\":6708:6761   */\n      tag_478\n      jump\t// in\n    tag_606:\n        /* \"#utility.yul\":6698:6761   */\n      swap3\n      pop\n        /* \"#utility.yul\":6654:6771   */\n      pop\n        /* \"#utility.yul\":6810:6812   */\n      0x20\n        /* \"#utility.yul\":6836:6888   */\n      tag_607\n        /* \"#utility.yul\":6880:6887   */\n      dup6\n        /* \"#utility.yul\":6871:6877   */\n      dup3\n        /* \"#utility.yul\":6860:6869   */\n      dup7\n        /* \"#utility.yul\":6856:6878   */\n      add\n        /* \"#utility.yul\":6836:6888   */\n      tag_472\n      jump\t// in\n    tag_607:\n        /* \"#utility.yul\":6826:6888   */\n      swap2\n      pop\n        /* \"#utility.yul\":6781:6898   */\n      pop\n        /* \"#utility.yul\":6433:6905   */\n      swap3\n      pop\n      swap3\n      swap1\n      pop\n      jump\t// out\n        /* \"#utility.yul\":6911:7029   */\n    tag_492:\n        /* \"#utility.yul\":6998:7022   */\n      tag_609\n        /* \"#utility.yul\":7016:7021   */\n      dup2\n        /* \"#utility.yul\":6998:7022   */\n      tag_476\n      jump\t// in\n    tag_609:\n        /* \"#utility.yul\":6993:6996   */\n      dup3\n        /* \"#utility.yul\":6986:7023   */\n      mstore\n        /* \"#utility.yul\":6911:7029   */\n      pop\n      pop\n      jump\t// out\n        /* \"#utility.yul\":7035:7257   */\n    tag_78:\n        /* \"#utility.yul\":7128:7132   */\n      0x00\n        /* \"#utility.yul\":7166:7168   */\n      0x20\n        /* \"#utility.yul\":7155:7164   */\n      dup3\n        /* \"#utility.yul\":7151:7169   */\n      add\n        /* \"#utility.yul\":7143:7169   */\n      swap1\n      pop\n        /* \"#utility.yul\":7179:7250   */\n      tag_611\n        /* \"#utility.yul\":7247:7248   */\n      0x00\n        /* \"#utility.yul\":7236:7245   */\n      dup4\n        /* \"#utility.yul\":7232:7249   */\n      add\n        /* \"#utility.yul\":7223:7229   */\n      dup5\n        /* \"#utility.yul\":7179:7250   */\n      tag_492\n      jump\t// in\n    tag_611:\n        /* \"#utility.yul\":7035:7257   */\n      swap3\n      swap2\n      pop\n      pop\n      jump\t// out\n        /* \"#utility.yul\":7263:7772   */\n    tag_96:\n        /* \"#utility.yul\":7332:7338   */\n      0x00\n        /* \"#utility.yul\":7381:7383   */\n      0x20\n        /* \"#utility.yul\":7369:7378   */\n      dup3\n        /* \"#utility.yul\":7360:7367   */\n      dup5\n        /* \"#utility.yul\":7356:7379   */\n      sub\n        /* \"#utility.yul\":7352:7384   */\n      slt\n        /* \"#utility.yul\":7349:7468   */\n      iszero\n      tag_613\n      jumpi\n        /* \"#utility.yul\":7387:7466   */\n      tag_614\n      tag_468\n      jump\t// in\n    tag_614:\n        /* \"#utility.yul\":7349:7468   */\n    tag_613:\n        /* \"#utility.yul\":7535:7536   */\n      0x00\n        /* \"#utility.yul\":7524:7533   */\n      dup3\n        /* \"#utility.yul\":7520:7537   */\n      add\n        /* \"#utility.yul\":7507:7538   */\n      calldataload\n        /* \"#utility.yul\":7565:7583   */\n      0xffffffffffffffff\n        /* \"#utility.yul\":7557:7563   */\n      dup2\n        /* \"#utility.yul\":7554:7584   */\n      gt\n        /* \"#utility.yul\":7551:7668   */\n      iszero\n      tag_615\n      jumpi\n        /* \"#utility.yul\":7587:7666   */\n      tag_616\n      tag_469\n      jump\t// in\n    tag_616:\n        /* \"#utility.yul\":7551:7668   */\n    tag_615:\n        /* \"#utility.yul\":7692:7755   */\n      tag_617\n        /* \"#utility.yul\":7747:7754   */\n      dup5\n        /* \"#utility.yul\":7738:7744   */\n      dup3\n        /* \"#utility.yul\":7727:7736   */\n      dup6\n        /* \"#utility.yul\":7723:7745   */\n      add\n        /* \"#utility.yul\":7692:7755   */\n      tag_491\n      jump\t// in\n    tag_617:\n        /* \"#utility.yul\":7682:7755   */\n      swap2\n      pop\n        /* \"#utility.yul\":7478:7765   */\n      pop\n        /* \"#utility.yul\":7263:7772   */\n      swap3\n      swap2\n      pop\n      pop\n      jump\t// out\n        /* \"#utility.yul\":7778:7893   */\n    tag_493:\n        /* \"#utility.yul\":7863:7886   */\n      tag_619\n        /* \"#utility.yul\":7880:7885   */\n      dup2\n        /* \"#utility.yul\":7863:7886   */\n      tag_470\n      jump\t// in\n    tag_619:\n        /* \"#utility.yul\":7858:7861   */\n      dup3\n        /* \"#utility.yul\":7851:7887   */\n      mstore\n        /* \"#utility.yul\":7778:7893   */\n      pop\n      pop\n      jump\t// out\n        /* \"#utility.yul\":7899:8117   */\n    tag_99:\n        /* \"#utility.yul\":7990:7994   */\n      0x00\n        /* \"#utility.yul\":8028:8030   */\n      0x20\n        /* \"#utility.yul\":8017:8026   */\n      dup3\n        /* \"#utility.yul\":8013:8031   */\n      add\n        /* \"#utility.yul\":8005:8031   */\n      swap1\n      pop\n        /* \"#utility.yul\":8041:8110   */\n      tag_621\n        /* \"#utility.yul\":8107:8108   */\n      0x00\n        /* \"#utility.yul\":8096:8105   */\n      dup4\n        /* \"#utility.yul\":8092:8109   */\n      add\n        /* \"#utility.yul\":8083:8089   */\n      dup5\n        /* \"#utility.yul\":8041:8110   */\n      tag_493\n      jump\t// in\n    tag_621:\n        /* \"#utility.yul\":7899:8117   */\n      swap3\n      swap2\n      pop\n      pop\n      jump\t// out\n        /* \"#utility.yul\":8123:8303   */\n    tag_494:\n        /* \"#utility.yul\":8171:8248   */\n      0x4e487b7100000000000000000000000000000000000000000000000000000000\n        /* \"#utility.yul\":8168:8169   */\n      0x00\n        /* \"#utility.yul\":8161:8249   */\n      mstore\n        /* \"#utility.yul\":8268:8272   */\n      0x11\n        /* \"#utility.yul\":8265:8266   */\n      0x04\n        /* \"#utility.yul\":8258:8273   */\n      mstore\n        /* \"#utility.yul\":8292:8296   */\n      0x24\n        /* \"#utility.yul\":8289:8290   */\n      0x00\n        /* \"#utility.yul\":8282:8297   */\n      revert\n        /* \"#utility.yul\":8309:8500   */\n    tag_120:\n        /* \"#utility.yul\":8349:8352   */\n      0x00\n        /* \"#utility.yul\":8368:8388   */\n      tag_624\n        /* \"#utility.yul\":8386:8387   */\n      dup3\n        /* \"#utility.yul\":8368:8388   */\n      tag_473\n      jump\t// in\n    tag_624:\n        /* \"#utility.yul\":8363:8388   */\n      swap2\n      pop\n        /* \"#utility.yul\":8402:8422   */\n      tag_625\n        /* \"#utility.yul\":8420:8421   */\n      dup4\n        /* \"#utility.yul\":8402:8422   */\n      tag_473\n      jump\t// in\n    tag_625:\n        /* \"#utility.yul\":8397:8422   */\n      swap3\n      pop\n        /* \"#utility.yul\":8445:8446   */\n      dup3\n        /* \"#utility.yul\":8442:8443   */\n      dup3\n        /* \"#utility.yul\":8438:8447   */\n      add\n        /* \"#utility.yul\":8431:8447   */\n      swap1\n      pop\n        /* \"#utility.yul\":8466:8469   */\n      dup1\n        /* \"#utility.yul\":8463:8464   */\n      dup3\n        /* \"#utility.yul\":8460:8470   */\n      gt\n        /* \"#utility.yul\":8457:8493   */\n      iszero\n      tag_626\n      jumpi\n        /* \"#utility.yul\":8473:8491   */\n      tag_627\n      tag_494\n      jump\t// in\n    tag_627:\n        /* \"#utility.yul\":8457:8493   */\n    tag_626:\n        /* \"#utility.yul\":8309:8500   */\n      swap3\n      swap2\n      pop\n      pop\n      jump\t// out\n        /* \"#utility.yul\":8506:8654   */\n    tag_495:\n        /* \"#utility.yul\":8608:8619   */\n      0x00\n        /* \"#utility.yul\":8645:8648   */\n      dup2\n        /* \"#utility.yul\":8630:8648   */\n      swap1\n      pop\n        /* \"#utility.yul\":8506:8654   */\n      swap3\n      swap2\n      pop\n      pop\n      jump\t// out\n        /* \"#utility.yul\":8660:9050   */\n    tag_496:\n        /* \"#utility.yul\":8766:8769   */\n      0x00\n        /* \"#utility.yul\":8794:8833   */\n      tag_630\n        /* \"#utility.yul\":8827:8832   */\n      dup3\n        /* \"#utility.yul\":8794:8833   */\n      tag_479\n      jump\t// in\n    tag_630:\n        /* \"#utility.yul\":8849:8938   */\n      tag_631\n        /* \"#utility.yul\":8931:8937   */\n      dup2\n        /* \"#utility.yul\":8926:8929   */\n      dup6\n        /* \"#utility.yul\":8849:8938   */\n      tag_495\n      jump\t// in\n    tag_631:\n        /* \"#utility.yul\":8842:8938   */\n      swap4\n      pop\n        /* \"#utility.yul\":8947:9012   */\n      tag_632\n        /* \"#utility.yul\":9005:9011   */\n      dup2\n        /* \"#utility.yul\":9000:9003   */\n      dup6\n        /* \"#utility.yul\":8993:8997   */\n      0x20\n        /* \"#utility.yul\":8986:8991   */\n      dup7\n        /* \"#utility.yul\":8982:8998   */\n      add\n        /* \"#utility.yul\":8947:9012   */\n      tag_481\n      jump\t// in\n    tag_632:\n        /* \"#utility.yul\":9037:9043   */\n      dup1\n        /* \"#utility.yul\":9032:9035   */\n      dup5\n        /* \"#utility.yul\":9028:9044   */\n      add\n        /* \"#utility.yul\":9021:9044   */\n      swap2\n      pop\n        /* \"#utility.yul\":8770:9050   */\n      pop\n        /* \"#utility.yul\":8660:9050   */\n      swap3\n      swap2\n      pop\n      pop\n      jump\t// out\n        /* \"#utility.yul\":9056:9234   */\n    tag_497:\n        /* \"#utility.yul\":9224:9227   */\n      0x2d00000000000000000000000000000000000000000000000000000000000000\n        /* \"#utility.yul\":9219:9222   */\n      dup2\n        /* \"#utility.yul\":9212:9228   */\n      mstore\n        /* \"#utility.yul\":9056:9234   */\n      pop\n      jump\t// out\n        /* \"#utility.yul\":9240:9418   */\n    tag_498:\n        /* \"#utility.yul\":9408:9411   */\n      0x2000000000000000000000000000000000000000000000000000000000000000\n        /* \"#utility.yul\":9403:9406   */\n      dup2\n        /* \"#utility.yul\":9396:9412   */\n      mstore\n        /* \"#utility.yul\":9240:9418   */\n      pop\n      jump\t// out\n        /* \"#utility.yul\":9424:9602   */\n    tag_499:\n        /* \"#utility.yul\":9592:9595   */\n      0x3a00000000000000000000000000000000000000000000000000000000000000\n        /* \"#utility.yul\":9587:9590   */\n      dup2\n        /* \"#utility.yul\":9580:9596   */\n      mstore\n        /* \"#utility.yul\":9424:9602   */\n      pop\n      jump\t// out\n        /* \"#utility.yul\":9608:12003   */\n    tag_145:\n        /* \"#utility.yul\":10430:10433   */\n      0x00\n        /* \"#utility.yul\":10452:10547   */\n      tag_637\n        /* \"#utility.yul\":10543:10546   */\n      dup3\n        /* \"#utility.yul\":10534:10540   */\n      dup10\n        /* \"#utility.yul\":10452:10547   */\n      tag_496\n      jump\t// in\n    tag_637:\n        /* \"#utility.yul\":10445:10547   */\n      swap2\n      pop\n        /* \"#utility.yul\":10557:10694   */\n      tag_638\n        /* \"#utility.yul\":10690:10693   */\n      dup3\n        /* \"#utility.yul\":10557:10694   */\n      tag_497\n      jump\t// in\n    tag_638:\n        /* \"#utility.yul\":10719:10720   */\n      0x01\n        /* \"#utility.yul\":10714:10717   */\n      dup3\n        /* \"#utility.yul\":10710:10721   */\n      add\n        /* \"#utility.yul\":10703:10721   */\n      swap2\n      pop\n        /* \"#utility.yul\":10738:10833   */\n      tag_639\n        /* \"#utility.yul\":10829:10832   */\n      dup3\n        /* \"#utility.yul\":10820:10826   */\n      dup9\n        /* \"#utility.yul\":10738:10833   */\n      tag_496\n      jump\t// in\n    tag_639:\n        /* \"#utility.yul\":10731:10833   */\n      swap2\n      pop\n        /* \"#utility.yul\":10843:10980   */\n      tag_640\n        /* \"#utility.yul\":10976:10979   */\n      dup3\n        /* \"#utility.yul\":10843:10980   */\n      tag_497\n      jump\t// in\n    tag_640:\n        /* \"#utility.yul\":11005:11006   */\n      0x01\n        /* \"#utility.yul\":11000:11003   */\n      dup3\n        /* \"#utility.yul\":10996:11007   */\n      add\n        /* \"#utility.yul\":10989:11007   */\n      swap2\n      pop\n        /* \"#utility.yul\":11024:11119   */\n      tag_641\n        /* \"#utility.yul\":11115:11118   */\n      dup3\n        /* \"#utility.yul\":11106:11112   */\n      dup8\n        /* \"#utility.yul\":11024:11119   */\n      tag_496\n      jump\t// in\n    tag_641:\n        /* \"#utility.yul\":11017:11119   */\n      swap2\n      pop\n        /* \"#utility.yul\":11129:11266   */\n      tag_642\n        /* \"#utility.yul\":11262:11265   */\n      dup3\n        /* \"#utility.yul\":11129:11266   */\n      tag_498\n      jump\t// in\n    tag_642:\n        /* \"#utility.yul\":11291:11292   */\n      0x01\n        /* \"#utility.yul\":11286:11289   */\n      dup3\n        /* \"#utility.yul\":11282:11293   */\n      add\n        /* \"#utility.yul\":11275:11293   */\n      swap2\n      pop\n        /* \"#utility.yul\":11310:11405   */\n      tag_643\n        /* \"#utility.yul\":11401:11404   */\n      dup3\n        /* \"#utility.yul\":11392:11398   */\n      dup7\n        /* \"#utility.yul\":11310:11405   */\n      tag_496\n      jump\t// in\n    tag_643:\n        /* \"#utility.yul\":11303:11405   */\n      swap2\n      pop\n        /* \"#utility.yul\":11415:11552   */\n      tag_644\n        /* \"#utility.yul\":11548:11551   */\n      dup3\n        /* \"#utility.yul\":11415:11552   */\n      tag_499\n      jump\t// in\n    tag_644:\n        /* \"#utility.yul\":11577:11578   */\n      0x01\n        /* \"#utility.yul\":11572:11575   */\n      dup3\n        /* \"#utility.yul\":11568:11579   */\n      add\n        /* \"#utility.yul\":11561:11579   */\n      swap2\n      pop\n        /* \"#utility.yul\":11596:11691   */\n      tag_645\n        /* \"#utility.yul\":11687:11690   */\n      dup3\n        /* \"#utility.yul\":11678:11684   */\n      dup6\n        /* \"#utility.yul\":11596:11691   */\n      tag_496\n      jump\t// in\n    tag_645:\n        /* \"#utility.yul\":11589:11691   */\n      swap2\n      pop\n        /* \"#utility.yul\":11701:11838   */\n      tag_646\n        /* \"#utility.yul\":11834:11837   */\n      dup3\n        /* \"#utility.yul\":11701:11838   */\n      tag_499\n      jump\t// in\n    tag_646:\n        /* \"#utility.yul\":11863:11864   */\n      0x01\n        /* \"#utility.yul\":11858:11861   */\n      dup3\n        /* \"#utility.yul\":11854:11865   */\n      add\n        /* \"#utility.yul\":11847:11865   */\n      swap2\n      pop\n        /* \"#utility.yul\":11882:11977   */\n      tag_647\n        /* \"#utility.yul\":11973:11976   */\n      dup3\n        /* \"#utility.yul\":11964:11970   */\n      dup5\n        /* \"#utility.yul\":11882:11977   */\n      tag_496\n      jump\t// in\n    tag_647:\n        /* \"#utility.yul\":11875:11977   */\n      swap2\n      pop\n        /* \"#utility.yul\":11994:11997   */\n      dup2\n        /* \"#utility.yul\":11987:11997   */\n      swap1\n      pop\n        /* \"#utility.yul\":9608:12003   */\n      swap8\n      swap7\n      pop\n      pop\n      pop\n      pop\n      pop\n      pop\n      pop\n      jump\t// out\n        /* \"#utility.yul\":12009:12189   */\n    tag_500:\n        /* \"#utility.yul\":12057:12134   */\n      0x4e487b7100000000000000000000000000000000000000000000000000000000\n        /* \"#utility.yul\":12054:12055   */\n      0x00\n        /* \"#utility.yul\":12047:12135   */\n      mstore\n        /* \"#utility.yul\":12154:12158   */\n      0x12\n        /* \"#utility.yul\":12151:12152   */\n      0x04\n        /* \"#utility.yul\":12144:12159   */\n      mstore\n        /* \"#utility.yul\":12178:12182   */\n      0x24\n        /* \"#utility.yul\":12175:12176   */\n      0x00\n        /* \"#utility.yul\":12168:12183   */\n      revert\n        /* \"#utility.yul\":12195:12380   */\n    tag_153:\n        /* \"#utility.yul\":12235:12236   */\n      0x00\n        /* \"#utility.yul\":12252:12272   */\n      tag_650\n        /* \"#utility.yul\":12270:12271   */\n      dup3\n        /* \"#utility.yul\":12252:12272   */\n      tag_473\n      jump\t// in\n    tag_650:\n        /* \"#utility.yul\":12247:12272   */\n      swap2\n      pop\n        /* \"#utility.yul\":12286:12306   */\n      tag_651\n        /* \"#utility.yul\":12304:12305   */\n      dup4\n        /* \"#utility.yul\":12286:12306   */\n      tag_473\n      jump\t// in\n    tag_651:\n        /* \"#utility.yul\":12281:12306   */\n      swap3\n      pop\n        /* \"#utility.yul\":12325:12326   */\n      dup3\n        /* \"#utility.yul\":12315:12350   */\n      tag_652\n      jumpi\n        /* \"#utility.yul\":12330:12348   */\n      tag_653\n      tag_500\n      jump\t// in\n    tag_653:\n        /* \"#utility.yul\":12315:12350   */\n    tag_652:\n        /* \"#utility.yul\":12372:12373   */\n      dup3\n        /* \"#utility.yul\":12369:12370   */\n      dup3\n        /* \"#utility.yul\":12365:12374   */\n      div\n        /* \"#utility.yul\":12360:12374   */\n      swap1\n      pop\n        /* \"#utility.yul\":12195:12380   */\n      swap3\n      swap2\n      pop\n      pop\n      jump\t// out\n        /* \"#utility.yul\":12386:12562   */\n    tag_155:\n        /* \"#utility.yul\":12418:12419   */\n      0x00\n        /* \"#utility.yul\":12435:12455   */\n      tag_655\n        /* \"#utility.yul\":12453:12454   */\n      dup3\n        /* \"#utility.yul\":12435:12455   */\n      tag_473\n      jump\t// in\n    tag_655:\n        /* \"#utility.yul\":12430:12455   */\n      swap2\n      pop\n        /* \"#utility.yul\":12469:12489   */\n      tag_656\n        /* \"#utility.yul\":12487:12488   */\n      dup4\n        /* \"#utility.yul\":12469:12489   */\n      tag_473\n      jump\t// in\n    tag_656:\n        /* \"#utility.yul\":12464:12489   */\n      swap3\n      pop\n        /* \"#utility.yul\":12508:12509   */\n      dup3\n        /* \"#utility.yul\":12498:12533   */\n      tag_657\n      jumpi\n        /* \"#utility.yul\":12513:12531   */\n      tag_658\n      tag_500\n      jump\t// in\n    tag_658:\n        /* \"#utility.yul\":12498:12533   */\n    tag_657:\n        /* \"#utility.yul\":12554:12555   */\n      dup3\n        /* \"#utility.yul\":12551:12552   */\n      dup3\n        /* \"#utility.yul\":12547:12556   */\n      mod\n        /* \"#utility.yul\":12542:12556   */\n      swap1\n      pop\n        /* \"#utility.yul\":12386:12562   */\n      swap3\n      swap2\n      pop\n      pop\n      jump\t// out\n        /* \"#utility.yul\":12568:12746   */\n    tag_501:\n        /* \"#utility.yul\":12736:12739   */\n      0x2e00000000000000000000000000000000000000000000000000000000000000\n        /* \"#utility.yul\":12731:12734   */\n      dup2\n        /* \"#utility.yul\":12724:12740   */\n      mstore\n        /* \"#utility.yul\":12568:12746   */\n      pop\n      jump\t// out\n        /* \"#utility.yul\":12752:13451   */\n    tag_159:\n        /* \"#utility.yul\":13022:13025   */\n      0x00\n        /* \"#utility.yul\":13044:13139   */\n      tag_661\n        /* \"#utility.yul\":13135:13138   */\n      dup3\n        /* \"#utility.yul\":13126:13132   */\n      dup6\n        /* \"#utility.yul\":13044:13139   */\n      tag_496\n      jump\t// in\n    tag_661:\n        /* \"#utility.yul\":13037:13139   */\n      swap2\n      pop\n        /* \"#utility.yul\":13149:13286   */\n      tag_662\n        /* \"#utility.yul\":13282:13285   */\n      dup3\n        /* \"#utility.yul\":13149:13286   */\n      tag_501\n      jump\t// in\n    tag_662:\n        /* \"#utility.yul\":13311:13312   */\n      0x01\n        /* \"#utility.yul\":13306:13309   */\n      dup3\n        /* \"#utility.yul\":13302:13313   */\n      add\n        /* \"#utility.yul\":13295:13313   */\n      swap2\n      pop\n        /* \"#utility.yul\":13330:13425   */\n      tag_663\n        /* \"#utility.yul\":13421:13424   */\n      dup3\n        /* \"#utility.yul\":13412:13418   */\n      dup5\n        /* \"#utility.yul\":13330:13425   */\n      tag_496\n      jump\t// in\n    tag_663:\n        /* \"#utility.yul\":13323:13425   */\n      swap2\n      pop\n        /* \"#utility.yul\":13442:13445   */\n      dup2\n        /* \"#utility.yul\":13435:13445   */\n      swap1\n      pop\n        /* \"#utility.yul\":12752:13451   */\n      swap4\n      swap3\n      pop\n      pop\n      pop\n      jump\t// out\n        /* \"#utility.yul\":13457:13637   */\n    tag_502:\n        /* \"#utility.yul\":13505:13582   */\n      0x4e487b7100000000000000000000000000000000000000000000000000000000\n        /* \"#utility.yul\":13502:13503   */\n      0x00\n        /* \"#utility.yul\":13495:13583   */\n      mstore\n        /* \"#utility.yul\":13602:13606   */\n      0x22\n        /* \"#utility.yul\":13599:13600   */\n      0x04\n        /* \"#utility.yul\":13592:13607   */\n      mstore\n        /* \"#utility.yul\":13626:13630   */\n      0x24\n        /* \"#utility.yul\":13623:13624   */\n      0x00\n        /* \"#utility.yul\":13616:13631   */\n      revert\n        /* \"#utility.yul\":13643:13963   */\n    tag_162:\n        /* \"#utility.yul\":13687:13693   */\n      0x00\n        /* \"#utility.yul\":13724:13725   */\n      0x02\n        /* \"#utility.yul\":13718:13722   */\n      dup3\n        /* \"#utility.yul\":13714:13726   */\n      div\n        /* \"#utility.yul\":13704:13726   */\n      swap1\n      pop\n        /* \"#utility.yul\":13771:13772   */\n      0x01\n        /* \"#utility.yul\":13765:13769   */\n      dup3\n        /* \"#utility.yul\":13761:13773   */\n      and\n        /* \"#utility.yul\":13792:13810   */\n      dup1\n        /* \"#utility.yul\":13782:13863   */\n      tag_666\n      jumpi\n        /* \"#utility.yul\":13848:13852   */\n      0x7f\n        /* \"#utility.yul\":13840:13846   */\n      dup3\n        /* \"#utility.yul\":13836:13853   */\n      and\n        /* \"#utility.yul\":13826:13853   */\n      swap2\n      pop\n        /* \"#utility.yul\":13782:13863   */\n    tag_666:\n        /* \"#utility.yul\":13910:13912   */\n      0x20\n        /* \"#utility.yul\":13902:13908   */\n      dup3\n        /* \"#utility.yul\":13899:13913   */\n      lt\n        /* \"#utility.yul\":13879:13897   */\n      dup2\n        /* \"#utility.yul\":13876:13914   */\n      sub\n        /* \"#utility.yul\":13873:13957   */\n      tag_667\n      jumpi\n        /* \"#utility.yul\":13929:13947   */\n      tag_668\n      tag_502\n      jump\t// in\n    tag_668:\n        /* \"#utility.yul\":13873:13957   */\n    tag_667:\n        /* \"#utility.yul\":13694:13963   */\n      pop\n        /* \"#utility.yul\":13643:13963   */\n      swap2\n      swap1\n      pop\n      jump\t// out\n        /* \"#utility.yul\":13969:14091   */\n    tag_503:\n        /* \"#utility.yul\":14042:14066   */\n      tag_670\n        /* \"#utility.yul\":14060:14065   */\n      dup2\n        /* \"#utility.yul\":14042:14066   */\n      tag_473\n      jump\t// in\n    tag_670:\n        /* \"#utility.yul\":14035:14040   */\n      dup2\n        /* \"#utility.yul\":14032:14067   */\n      eq\n        /* \"#utility.yul\":14022:14085   */\n      tag_671\n      jumpi\n        /* \"#utility.yul\":14081:14082   */\n      0x00\n        /* \"#utility.yul\":14078:14079   */\n      dup1\n        /* \"#utility.yul\":14071:14083   */\n      revert\n        /* \"#utility.yul\":14022:14085   */\n    tag_671:\n        /* \"#utility.yul\":13969:14091   */\n      pop\n      jump\t// out\n        /* \"#utility.yul\":14097:14240   */\n    tag_504:\n        /* \"#utility.yul\":14154:14159   */\n      0x00\n        /* \"#utility.yul\":14185:14191   */\n      dup2\n        /* \"#utility.yul\":14179:14192   */\n      mload\n        /* \"#utility.yul\":14170:14192   */\n      swap1\n      pop\n        /* \"#utility.yul\":14201:14234   */\n      tag_673\n        /* \"#utility.yul\":14228:14233   */\n      dup2\n        /* \"#utility.yul\":14201:14234   */\n      tag_503\n      jump\t// in\n    tag_673:\n        /* \"#utility.yul\":14097:14240   */\n      swap3\n      swap2\n      pop\n      pop\n      jump\t// out\n        /* \"#utility.yul\":14246:14597   */\n    tag_191:\n        /* \"#utility.yul\":14316:14322   */\n      0x00\n        /* \"#utility.yul\":14365:14367   */\n      0x20\n        /* \"#utility.yul\":14353:14362   */\n      dup3\n        /* \"#utility.yul\":14344:14351   */\n      dup5\n        /* \"#utility.yul\":14340:14363   */\n      sub\n        /* \"#utility.yul\":14336:14368   */\n      slt\n        /* \"#utility.yul\":14333:14452   */\n      iszero\n      tag_675\n      jumpi\n        /* \"#utility.yul\":14371:14450   */\n      tag_676\n      tag_468\n      jump\t// in\n    tag_676:\n        /* \"#utility.yul\":14333:14452   */\n    tag_675:\n        /* \"#utility.yul\":14491:14492   */\n      0x00\n        /* \"#utility.yul\":14516:14580   */\n      tag_677\n        /* \"#utility.yul\":14572:14579   */\n      dup5\n        /* \"#utility.yul\":14563:14569   */\n      dup3\n        /* \"#utility.yul\":14552:14561   */\n      dup6\n        /* \"#utility.yul\":14548:14570   */\n      add\n        /* \"#utility.yul\":14516:14580   */\n      tag_504\n      jump\t// in\n    tag_677:\n        /* \"#utility.yul\":14506:14580   */\n      swap2\n      pop\n        /* \"#utility.yul\":14462:14590   */\n      pop\n        /* \"#utility.yul\":14246:14597   */\n      swap3\n      swap2\n      pop\n      pop\n      jump\t// out\n        /* \"#utility.yul\":14603:14797   */\n    tag_207:\n        /* \"#utility.yul\":14643:14647   */\n      0x00\n        /* \"#utility.yul\":14663:14683   */\n      tag_679\n        /* \"#utility.yul\":14681:14682   */\n      dup3\n        /* \"#utility.yul\":14663:14683   */\n      tag_473\n      jump\t// in\n    tag_679:\n        /* \"#utility.yul\":14658:14683   */\n      swap2\n      pop\n        /* \"#utility.yul\":14697:14717   */\n      tag_680\n        /* \"#utility.yul\":14715:14716   */\n      dup4\n        /* \"#utility.yul\":14697:14717   */\n      tag_473\n      jump\t// in\n    tag_680:\n        /* \"#utility.yul\":14692:14717   */\n      swap3\n      pop\n        /* \"#utility.yul\":14741:14742   */\n      dup3\n        /* \"#utility.yul\":14738:14739   */\n      dup3\n        /* \"#utility.yul\":14734:14743   */\n      sub\n        /* \"#utility.yul\":14726:14743   */\n      swap1\n      pop\n        /* \"#utility.yul\":14765:14766   */\n      dup2\n        /* \"#utility.yul\":14759:14763   */\n      dup2\n        /* \"#utility.yul\":14756:14767   */\n      gt\n        /* \"#utility.yul\":14753:14790   */\n      iszero\n      tag_681\n      jumpi\n        /* \"#utility.yul\":14770:14788   */\n      tag_682\n      tag_494\n      jump\t// in\n    tag_682:\n        /* \"#utility.yul\":14753:14790   */\n    tag_681:\n        /* \"#utility.yul\":14603:14797   */\n      swap3\n      swap2\n      pop\n      pop\n      jump\t// out\n        /* \"#utility.yul\":14803:15213   */\n    tag_237:\n        /* \"#utility.yul\":14843:14850   */\n      0x00\n        /* \"#utility.yul\":14866:14886   */\n      tag_684\n        /* \"#utility.yul\":14884:14885   */\n      dup3\n        /* \"#utility.yul\":14866:14886   */\n      tag_473\n      jump\t// in\n    tag_684:\n        /* \"#utility.yul\":14861:14886   */\n      swap2\n      pop\n        /* \"#utility.yul\":14900:14920   */\n      tag_685\n        /* \"#utility.yul\":14918:14919   */\n      dup4\n        /* \"#utility.yul\":14900:14920   */\n      tag_473\n      jump\t// in\n    tag_685:\n        /* \"#utility.yul\":14895:14920   */\n      swap3\n      pop\n        /* \"#utility.yul\":14955:14956   */\n      dup3\n        /* \"#utility.yul\":14952:14953   */\n      dup3\n        /* \"#utility.yul\":14948:14957   */\n      mul\n        /* \"#utility.yul\":14977:15007   */\n      tag_686\n        /* \"#utility.yul\":14995:15006   */\n      dup2\n        /* \"#utility.yul\":14977:15007   */\n      tag_473\n      jump\t// in\n    tag_686:\n        /* \"#utility.yul\":14966:15007   */\n      swap2\n      pop\n        /* \"#utility.yul\":15156:15157   */\n      dup3\n        /* \"#utility.yul\":15147:15154   */\n      dup3\n        /* \"#utility.yul\":15143:15158   */\n      div\n        /* \"#utility.yul\":15140:15141   */\n      dup5\n        /* \"#utility.yul\":15137:15159   */\n      eq\n        /* \"#utility.yul\":15117:15118   */\n      dup4\n        /* \"#utility.yul\":15110:15119   */\n      iszero\n        /* \"#utility.yul\":15090:15173   */\n      or\n        /* \"#utility.yul\":15067:15206   */\n      tag_687\n      jumpi\n        /* \"#utility.yul\":15186:15204   */\n      tag_688\n      tag_494\n      jump\t// in\n    tag_688:\n        /* \"#utility.yul\":15067:15206   */\n    tag_687:\n        /* \"#utility.yul\":14851:15213   */\n      pop\n        /* \"#utility.yul\":14803:15213   */\n      swap3\n      swap2\n      pop\n      pop\n      jump\t// out\n        /* \"#utility.yul\":15219:15551   */\n    tag_242:\n        /* \"#utility.yul\":15340:15344   */\n      0x00\n        /* \"#utility.yul\":15378:15380   */\n      0x40\n        /* \"#utility.yul\":15367:15376   */\n      dup3\n        /* \"#utility.yul\":15363:15381   */\n      add\n        /* \"#utility.yul\":15355:15381   */\n      swap1\n      pop\n        /* \"#utility.yul\":15391:15462   */\n      tag_690\n        /* \"#utility.yul\":15459:15460   */\n      0x00\n        /* \"#utility.yul\":15448:15457   */\n      dup4\n        /* \"#utility.yul\":15444:15461   */\n      add\n        /* \"#utility.yul\":15435:15441   */\n      dup6\n        /* \"#utility.yul\":15391:15462   */\n      tag_492\n      jump\t// in\n    tag_690:\n        /* \"#utility.yul\":15472:15544   */\n      tag_691\n        /* \"#utility.yul\":15540:15542   */\n      0x20\n        /* \"#utility.yul\":15529:15538   */\n      dup4\n        /* \"#utility.yul\":15525:15543   */\n      add\n        /* \"#utility.yul\":15516:15522   */\n      dup5\n        /* \"#utility.yul\":15472:15544   */\n      tag_474\n      jump\t// in\n    tag_691:\n        /* \"#utility.yul\":15219:15551   */\n      swap4\n      swap3\n      pop\n      pop\n      pop\n      jump\t// out\n        /* \"#utility.yul\":15557:15790   */\n    tag_262:\n        /* \"#utility.yul\":15596:15599   */\n      0x00\n        /* \"#utility.yul\":15619:15643   */\n      tag_693\n        /* \"#utility.yul\":15637:15642   */\n      dup3\n        /* \"#utility.yul\":15619:15643   */\n      tag_473\n      jump\t// in\n    tag_693:\n        /* \"#utility.yul\":15610:15643   */\n      swap2\n      pop\n        /* \"#utility.yul\":15665:15731   */\n      0xffffffffffffffffffffffffffffffffffffffffffffffffffffffffffffffff\n        /* \"#utility.yul\":15658:15663   */\n      dup3\n        /* \"#utility.yul\":15655:15732   */\n      sub\n        /* \"#utility.yul\":15652:15755   */\n      tag_694\n      jumpi\n        /* \"#utility.yul\":15735:15753   */\n      tag_695\n      tag_494\n      jump\t// in\n    tag_695:\n        /* \"#utility.yul\":15652:15755   */\n    tag_694:\n        /* \"#utility.yul\":15782:15783   */\n      0x01\n        /* \"#utility.yul\":15775:15780   */\n      dup3\n        /* \"#utility.yul\":15771:15784   */\n      add\n        /* \"#utility.yul\":15764:15784   */\n      swap1\n      pop\n        /* \"#utility.yul\":15557:15790   */\n      swap2\n      swap1\n      pop\n      jump\t// out\n        /* \"#utility.yul\":15796:15967   */\n    tag_271:\n        /* \"#utility.yul\":15835:15838   */\n      0x00\n        /* \"#utility.yul\":15858:15882   */\n      tag_697\n        /* \"#utility.yul\":15876:15881   */\n      dup3\n        /* \"#utility.yul\":15858:15882   */\n      tag_473\n      jump\t// in\n    tag_697:\n        /* \"#utility.yul\":15849:15882   */\n      swap2\n      pop\n        /* \"#utility.yul\":15904:15908   */\n      0x00\n        /* \"#utility.yul\":15897:15902   */\n      dup3\n        /* \"#utility.yul\":15894:15909   */\n      sub\n        /* \"#utility.yul\":15891:15932   */\n      tag_698\n      jumpi\n        /* \"#utility.yul\":15912:15930   */\n      tag_699\n      tag_494\n      jump\t// in\n    tag_699:\n        /* \"#utility.yul\":15891:15932   */\n    tag_698:\n        /* \"#utility.yul\":15959:15960   */\n      0x01\n        /* \"#utility.yul\":15952:15957   */\n      dup3\n        /* \"#utility.yul\":15948:15961   */\n      sub\n        /* \"#utility.yul\":15941:15961   */\n      swap1\n      pop\n        /* \"#utility.yul\":15796:15967   */\n      swap2\n      swap1\n      pop\n      jump\t// out\n        /* \"#utility.yul\":15973:16153   */\n    tag_276:\n        /* \"#utility.yul\":16021:16098   */\n      0x4e487b7100000000000000000000000000000000000000000000000000000000\n        /* \"#utility.yul\":16018:16019   */\n      0x00\n        /* \"#utility.yul\":16011:16099   */\n      mstore\n        /* \"#utility.yul\":16118:16122   */\n      0x32\n        /* \"#utility.yul\":16115:16116   */\n      0x04\n        /* \"#utility.yul\":16108:16123   */\n      mstore\n        /* \"#utility.yul\":16142:16146   */\n      0x24\n        /* \"#utility.yul\":16139:16140   */\n      0x00\n        /* \"#utility.yul\":16132:16147   */\n      revert\n        /* \"#utility.yul\":16159:16337   */\n    tag_505:\n        /* \"#utility.yul\":16327:16330   */\n      0x3000000000000000000000000000000000000000000000000000000000000000\n        /* \"#utility.yul\":16322:16325   */\n      dup2\n        /* \"#utility.yul\":16315:16331   */\n      mstore\n        /* \"#utility.yul\":16159:16337   */\n      pop\n      jump\t// out\n        /* \"#utility.yul\":16343:16882   */\n    tag_282:\n        /* \"#utility.yul\":16565:16568   */\n      0x00\n        /* \"#utility.yul\":16580:16717   */\n      tag_703\n        /* \"#utility.yul\":16713:16716   */\n      dup3\n        /* \"#utility.yul\":16580:16717   */\n      tag_505\n      jump\t// in\n    tag_703:\n        /* \"#utility.yul\":16742:16743   */\n      0x01\n        /* \"#utility.yul\":16737:16740   */\n      dup3\n        /* \"#utility.yul\":16733:16744   */\n      add\n        /* \"#utility.yul\":16726:16744   */\n      swap2\n      pop\n        /* \"#utility.yul\":16761:16856   */\n      tag_704\n        /* \"#utility.yul\":16852:16855   */\n      dup3\n        /* \"#utility.yul\":16843:16849   */\n      dup5\n        /* \"#utility.yul\":16761:16856   */\n      tag_496\n      jump\t// in\n    tag_704:\n        /* \"#utility.yul\":16754:16856   */\n      swap2\n      pop\n        /* \"#utility.yul\":16873:16876   */\n      dup2\n        /* \"#utility.yul\":16866:16876   */\n      swap1\n      pop\n        /* \"#utility.yul\":16343:16882   */\n      swap3\n      swap2\n      pop\n      pop\n      jump\t// out\n        /* \"#utility.yul\":16888:17129   */\n    tag_506:\n        /* \"#utility.yul\":17028:17062   */\n      0x496e76616c696420666f726d6174202875736520595959592d4d4d2d4444206f\n        /* \"#utility.yul\":17024:17025   */\n      0x00\n        /* \"#utility.yul\":17016:17022   */\n      dup3\n        /* \"#utility.yul\":17012:17026   */\n      add\n        /* \"#utility.yul\":17005:17063   */\n      mstore\n        /* \"#utility.yul\":17097:17121   */\n      0x7220595959592d4d4d2d44442068683a6d6d3a73732900000000000000000000\n        /* \"#utility.yul\":17092:17094   */\n      0x20\n        /* \"#utility.yul\":17084:17090   */\n      dup3\n        /* \"#utility.yul\":17080:17095   */\n      add\n        /* \"#utility.yul\":17073:17122   */\n      mstore\n        /* \"#utility.yul\":16888:17129   */\n      pop\n      jump\t// out\n        /* \"#utility.yul\":17135:17501   */\n    tag_507:\n        /* \"#utility.yul\":17277:17280   */\n      0x00\n        /* \"#utility.yul\":17298:17365   */\n      tag_707\n        /* \"#utility.yul\":17362:17364   */\n      0x36\n        /* \"#utility.yul\":17357:17360   */\n      dup4\n        /* \"#utility.yul\":17298:17365   */\n      tag_480\n      jump\t// in\n    tag_707:\n        /* \"#utility.yul\":17291:17365   */\n      swap2\n      pop\n        /* \"#utility.yul\":17374:17467   */\n      tag_708\n        /* \"#utility.yul\":17463:17466   */\n      dup3\n        /* \"#utility.yul\":17374:17467   */\n      tag_506\n      jump\t// in\n    tag_708:\n        /* \"#utility.yul\":17492:17494   */\n      0x40\n        /* \"#utility.yul\":17487:17490   */\n      dup3\n        /* \"#utility.yul\":17483:17495   */\n      add\n        /* \"#utility.yul\":17476:17495   */\n      swap1\n      pop\n        /* \"#utility.yul\":17135:17501   */\n      swap2\n      swap1\n      pop\n      jump\t// out\n        /* \"#utility.yul\":17507:17926   */\n    tag_288:\n        /* \"#utility.yul\":17673:17677   */\n      0x00\n        /* \"#utility.yul\":17711:17713   */\n      0x20\n        /* \"#utility.yul\":17700:17709   */\n      dup3\n        /* \"#utility.yul\":17696:17714   */\n      add\n        /* \"#utility.yul\":17688:17714   */\n      swap1\n      pop\n        /* \"#utility.yul\":17760:17769   */\n      dup2\n        /* \"#utility.yul\":17754:17758   */\n      dup2\n        /* \"#utility.yul\":17750:17770   */\n      sub\n        /* \"#utility.yul\":17746:17747   */\n      0x00\n        /* \"#utility.yul\":17735:17744   */\n      dup4\n        /* \"#utility.yul\":17731:17748   */\n      add\n        /* \"#utility.yul\":17724:17771   */\n      mstore\n        /* \"#utility.yul\":17788:17919   */\n      tag_710\n        /* \"#utility.yul\":17914:17918   */\n      dup2\n        /* \"#utility.yul\":17788:17919   */\n      tag_507\n      jump\t// in\n    tag_710:\n        /* \"#utility.yul\":17780:17919   */\n      swap1\n      pop\n        /* \"#utility.yul\":17507:17926   */\n      swap2\n      swap1\n      pop\n      jump\t// out\n        /* \"#utility.yul\":17932:18095   */\n    tag_508:\n        /* \"#utility.yul\":18072:18087   */\n      0x496e76616c6964206d6f6e746800000000000000000000000000000000000000\n        /* \"#utility.yul\":18068:18069   */\n      0x00\n        /* \"#utility.yul\":18060:18066   */\n      dup3\n        /* \"#utility.yul\":18056:18070   */\n      add\n        /* \"#utility.yul\":18049:18088   */\n      mstore\n        /* \"#utility.yul\":17932:18095   */\n      pop\n      jump\t// out\n        /* \"#utility.yul\":18101:18467   */\n    tag_509:\n        /* \"#utility.yul\":18243:18246   */\n      0x00\n        /* \"#utility.yul\":18264:18331   */\n      tag_713\n        /* \"#utility.yul\":18328:18330   */\n      0x0d\n        /* \"#utility.yul\":18323:18326   */\n      dup4\n        /* \"#utility.yul\":18264:18331   */\n      tag_480\n      jump\t// in\n    tag_713:\n        /* \"#utility.yul\":18257:18331   */\n      swap2\n      pop\n        /* \"#utility.yul\":18340:18433   */\n      tag_714\n        /* \"#utility.yul\":18429:18432   */\n      dup3\n        /* \"#utility.yul\":18340:18433   */\n      tag_508\n      jump\t// in\n    tag_714:\n        /* \"#utility.yul\":18458:18460   */\n      0x20\n        /* \"#utility.yul\":18453:18456   */\n      dup3\n        /* \"#utility.yul\":18449:18461   */\n      add\n        /* \"#utility.yul\":18442:18461   */\n      swap1\n      pop\n        /* \"#utility.yul\":18101:18467   */\n      swap2\n      swap1\n      pop\n      jump\t// out\n        /* \"#utility.yul\":18473:18892   */\n    tag_300:\n        /* \"#utility.yul\":18639:18643   */\n      0x00\n        /* \"#utility.yul\":18677:18679   */\n      0x20\n        /* \"#utility.yul\":18666:18675   */\n      dup3\n        /* \"#utility.yul\":18662:18680   */\n      add\n        /* \"#utility.yul\":18654:18680   */\n      swap1\n      pop\n        /* \"#utility.yul\":18726:18735   */\n      dup2\n        /* \"#utility.yul\":18720:18724   */\n      dup2\n        /* \"#utility.yul\":18716:18736   */\n      sub\n        /* \"#utility.yul\":18712:18713   */\n      0x00\n        /* \"#utility.yul\":18701:18710   */\n      dup4\n        /* \"#utility.yul\":18697:18714   */\n      add\n        /* \"#utility.yul\":18690:18737   */\n      mstore\n        /* \"#utility.yul\":18754:18885   */\n      tag_716\n        /* \"#utility.yul\":18880:18884   */\n      dup2\n        /* \"#utility.yul\":18754:18885   */\n      tag_509\n      jump\t// in\n    tag_716:\n        /* \"#utility.yul\":18746:18885   */\n      swap1\n      pop\n        /* \"#utility.yul\":18473:18892   */\n      swap2\n      swap1\n      pop\n      jump\t// out\n        /* \"#utility.yul\":18898:19059   */\n    tag_510:\n        /* \"#utility.yul\":19038:19051   */\n      0x496e76616c696420646179000000000000000000000000000000000000000000\n        /* \"#utility.yul\":19034:19035   */\n      0x00\n        /* \"#utility.yul\":19026:19032   */\n      dup3\n        /* \"#utility.yul\":19022:19036   */\n      add\n        /* \"#utility.yul\":19015:19052   */\n      mstore\n        /* \"#utility.yul\":18898:19059   */\n      pop\n      jump\t// out\n        /* \"#utility.yul\":19065:19431   */\n    tag_511:\n        /* \"#utility.yul\":19207:19210   */\n      0x00\n        /* \"#utility.yul\":19228:19295   */\n      tag_719\n        /* \"#utility.yul\":19292:19294   */\n      0x0b\n        /* \"#utility.yul\":19287:19290   */\n      dup4\n        /* \"#utility.yul\":19228:19295   */\n      tag_480\n      jump\t// in\n    tag_719:\n        /* \"#utility.yul\":19221:19295   */\n      swap2\n      pop\n        /* \"#utility.yul\":19304:19397   */\n      tag_720\n        /* \"#utility.yul\":19393:19396   */\n      dup3\n        /* \"#utility.yul\":19304:19397   */\n      tag_510\n      jump\t// in\n    tag_720:\n        /* \"#utility.yul\":19422:19424   */\n      0x20\n        /* \"#utility.yul\":19417:19420   */\n      dup3\n        /* \"#utility.yul\":19413:19425   */\n      add\n        /* \"#utility.yul\":19406:19425   */\n      swap1\n      pop\n        /* \"#utility.yul\":19065:19431   */\n      swap2\n      swap1\n      pop\n      jump\t// out\n        /* \"#utility.yul\":19437:19856   */\n    tag_304:\n        /* \"#utility.yul\":19603:19607   */\n      0x00\n        /* \"#utility.yul\":19641:19643   */\n      0x20\n        /* \"#utility.yul\":19630:19639   */\n      dup3\n        /* \"#utility.yul\":19626:19644   */\n      add\n        /* \"#utility.yul\":19618:19644   */\n      swap1\n      pop\n        /* \"#utility.yul\":19690:19699   */\n      dup2\n        /* \"#utility.yul\":19684:19688   */\n      dup2\n        /* \"#utility.yul\":19680:19700   */\n      sub\n        /* \"#utility.yul\":19676:19677   */\n      0x00\n        /* \"#utility.yul\":19665:19674   */\n      dup4\n        /* \"#utility.yul\":19661:19678   */\n      add\n        /* \"#utility.yul\":19654:19701   */\n      mstore\n        /* \"#utility.yul\":19718:19849   */\n      tag_722\n        /* \"#utility.yul\":19844:19848   */\n      dup2\n        /* \"#utility.yul\":19718:19849   */\n      tag_511\n      jump\t// in\n    tag_722:\n        /* \"#utility.yul\":19710:19849   */\n      swap1\n      pop\n        /* \"#utility.yul\":19437:19856   */\n      swap2\n      swap1\n      pop\n      jump\t// out\n        /* \"#utility.yul\":19862:20024   */\n    tag_512:\n        /* \"#utility.yul\":20002:20016   */\n      0x496e76616c696420686f75720000000000000000000000000000000000000000\n        /* \"#utility.yul\":19998:19999   */\n      0x00\n        /* \"#utility.yul\":19990:19996   */\n      dup3\n        /* \"#utility.yul\":19986:20000   */\n      add\n        /* \"#utility.yul\":19979:20017   */\n      mstore\n        /* \"#utility.yul\":19862:20024   */\n      pop\n      jump\t// out\n        /* \"#utility.yul\":20030:20396   */\n    tag_513:\n        /* \"#utility.yul\":20172:20175   */\n      0x00\n        /* \"#utility.yul\":20193:20260   */\n      tag_725\n        /* \"#utility.yul\":20257:20259   */\n      0x0c\n        /* \"#utility.yul\":20252:20255   */\n      dup4\n        /* \"#utility.yul\":20193:20260   */\n      tag_480\n      jump\t// in\n    tag_725:\n        /* \"#utility.yul\":20186:20260   */\n      swap2\n      pop\n        /* \"#utility.yul\":20269:20362   */\n      tag_726\n        /* \"#utility.yul\":20358:20361   */\n      dup3\n        /* \"#utility.yul\":20269:20362   */\n      tag_512\n      jump\t// in\n    tag_726:\n        /* \"#utility.yul\":20387:20389   */\n      0x20\n        /* \"#utility.yul\":20382:20385   */\n      dup3\n        /* \"#utility.yul\":20378:20390   */\n      add\n        /* \"#utility.yul\":20371:20390   */\n      swap1\n      pop\n        /* \"#utility.yul\":20030:20396   */\n      swap2\n      swap1\n      pop\n      jump\t// out\n        /* \"#utility.yul\":20402:20821   */\n    tag_308:\n        /* \"#utility.yul\":20568:20572   */\n      0x00\n        /* \"#utility.yul\":20606:20608   */\n      0x20\n        /* \"#utility.yul\":20595:20604   */\n      dup3\n        /* \"#utility.yul\":20591:20609   */\n      add\n        /* \"#utility.yul\":20583:20609   */\n      swap1\n      pop\n        /* \"#utility.yul\":20655:20664   */\n      dup2\n        /* \"#utility.yul\":20649:20653   */\n      dup2\n        /* \"#utility.yul\":20645:20665   */\n      sub\n        /* \"#utility.yul\":20641:20642   */\n      0x00\n        /* \"#utility.yul\":20630:20639   */\n      dup4\n        /* \"#utility.yul\":20626:20643   */\n      add\n        /* \"#utility.yul\":20619:20666   */\n      mstore\n        /* \"#utility.yul\":20683:20814   */\n      tag_728\n        /* \"#utility.yul\":20809:20813   */\n      dup2\n        /* \"#utility.yul\":20683:20814   */\n      tag_513\n      jump\t// in\n    tag_728:\n        /* \"#utility.yul\":20675:20814   */\n      swap1\n      pop\n        /* \"#utility.yul\":20402:20821   */\n      swap2\n      swap1\n      pop\n      jump\t// out\n        /* \"#utility.yul\":20827:20991   */\n    tag_514:\n        /* \"#utility.yul\":20967:20983   */\n      0x496e76616c6964206d696e757465000000000000000000000000000000000000\n        /* \"#utility.yul\":20963:20964   */\n      0x00\n        /* \"#utility.yul\":20955:20961   */\n      dup3\n        /* \"#utility.yul\":20951:20965   */\n      add\n        /* \"#utility.yul\":20944:20984   */\n      mstore\n        /* \"#utility.yul\":20827:20991   */\n      pop\n      jump\t// out\n        /* \"#utility.yul\":20997:21363   */\n    tag_515:\n        /* \"#utility.yul\":21139:21142   */\n      0x00\n        /* \"#utility.yul\":21160:21227   */\n      tag_731\n        /* \"#utility.yul\":21224:21226   */\n      0x0e\n        /* \"#utility.yul\":21219:21222   */\n      dup4\n        /* \"#utility.yul\":21160:21227   */\n      tag_480\n      jump\t// in\n    tag_731:\n        /* \"#utility.yul\":21153:21227   */\n      swap2\n      pop\n        /* \"#utility.yul\":21236:21329   */\n      tag_732\n        /* \"#utility.yul\":21325:21328   */\n      dup3\n        /* \"#utility.yul\":21236:21329   */\n      tag_514\n      jump\t// in\n    tag_732:\n        /* \"#utility.yul\":21354:21356   */\n      0x20\n        /* \"#utility.yul\":21349:21352   */\n      dup3\n        /* \"#utility.yul\":21345:21357   */\n      add\n        /* \"#utility.yul\":21338:21357   */\n      swap1\n      pop\n        /* \"#utility.yul\":20997:21363   */\n      swap2\n      swap1\n      pop\n      jump\t// out\n        /* \"#utility.yul\":21369:21788   */\n    tag_312:\n        /* \"#utility.yul\":21535:21539   */\n      0x00\n        /* \"#utility.yul\":21573:21575   */\n      0x20\n        /* \"#utility.yul\":21562:21571   */\n      dup3\n        /* \"#utility.yul\":21558:21576   */\n      add\n        /* \"#utility.yul\":21550:21576   */\n      swap1\n      pop\n        /* \"#utility.yul\":21622:21631   */\n      dup2\n        /* \"#utility.yul\":21616:21620   */\n      dup2\n        /* \"#utility.yul\":21612:21632   */\n      sub\n        /* \"#utility.yul\":21608:21609   */\n      0x00\n        /* \"#utility.yul\":21597:21606   */\n      dup4\n        /* \"#utility.yul\":21593:21610   */\n      add\n        /* \"#utility.yul\":21586:21633   */\n      mstore\n        /* \"#utility.yul\":21650:21781   */\n      tag_734\n        /* \"#utility.yul\":21776:21780   */\n      dup2\n        /* \"#utility.yul\":21650:21781   */\n      tag_515\n      jump\t// in\n    tag_734:\n        /* \"#utility.yul\":21642:21781   */\n      swap1\n      pop\n        /* \"#utility.yul\":21369:21788   */\n      swap2\n      swap1\n      pop\n      jump\t// out\n        /* \"#utility.yul\":21794:21958   */\n    tag_516:\n        /* \"#utility.yul\":21934:21950   */\n      0x496e76616c6964207365636f6e64000000000000000000000000000000000000\n        /* \"#utility.yul\":21930:21931   */\n      0x00\n        /* \"#utility.yul\":21922:21928   */\n      dup3\n        /* \"#utility.yul\":21918:21932   */\n      add\n        /* \"#utility.yul\":21911:21951   */\n      mstore\n        /* \"#utility.yul\":21794:21958   */\n      pop\n      jump\t// out\n        /* \"#utility.yul\":21964:22330   */\n    tag_517:\n        /* \"#utility.yul\":22106:22109   */\n      0x00\n        /* \"#utility.yul\":22127:22194   */\n      tag_737\n        /* \"#utility.yul\":22191:22193   */\n      0x0e\n        /* \"#utility.yul\":22186:22189   */\n      dup4\n        /* \"#utility.yul\":22127:22194   */\n      tag_480\n      jump\t// in\n    tag_737:\n        /* \"#utility.yul\":22120:22194   */\n      swap2\n      pop\n        /* \"#utility.yul\":22203:22296   */\n      tag_738\n        /* \"#utility.yul\":22292:22295   */\n      dup3\n        /* \"#utility.yul\":22203:22296   */\n      tag_516\n      jump\t// in\n    tag_738:\n        /* \"#utility.yul\":22321:22323   */\n      0x20\n        /* \"#utility.yul\":22316:22319   */\n      dup3\n        /* \"#utility.yul\":22312:22324   */\n      add\n        /* \"#utility.yul\":22305:22324   */\n      swap1\n      pop\n        /* \"#utility.yul\":21964:22330   */\n      swap2\n      swap1\n      pop\n      jump\t// out\n        /* \"#utility.yul\":22336:22755   */\n    tag_316:\n        /* \"#utility.yul\":22502:22506   */\n      0x00\n        /* \"#utility.yul\":22540:22542   */\n      0x20\n        /* \"#utility.yul\":22529:22538   */\n      dup3\n        /* \"#utility.yul\":22525:22543   */\n      add\n        /* \"#utility.yul\":22517:22543   */\n      swap1\n      pop\n        /* \"#utility.yul\":22589:22598   */\n      dup2\n        /* \"#utility.yul\":22583:22587   */\n      dup2\n        /* \"#utility.yul\":22579:22599   */\n      sub\n        /* \"#utility.yul\":22575:22576   */\n      0x00\n        /* \"#utility.yul\":22564:22573   */\n      dup4\n        /* \"#utility.yul\":22560:22577   */\n      add\n        /* \"#utility.yul\":22553:22600   */\n      mstore\n        /* \"#utility.yul\":22617:22748   */\n      tag_740\n        /* \"#utility.yul\":22743:22747   */\n      dup2\n        /* \"#utility.yul\":22617:22748   */\n      tag_517\n      jump\t// in\n    tag_740:\n        /* \"#utility.yul\":22609:22748   */\n      swap1\n      pop\n        /* \"#utility.yul\":22336:22755   */\n      swap2\n      swap1\n      pop\n      jump\t// out\n        /* \"#utility.yul\":22761:22925   */\n    tag_518:\n        /* \"#utility.yul\":22901:22917   */\n      0x56616c7565206f766572666c6f77000000000000000000000000000000000000\n        /* \"#utility.yul\":22897:22898   */\n      0x00\n        /* \"#utility.yul\":22889:22895   */\n      dup3\n        /* \"#utility.yul\":22885:22899   */\n      add\n        /* \"#utility.yul\":22878:22918   */\n      mstore\n        /* \"#utility.yul\":22761:22925   */\n      pop\n      jump\t// out\n        /* \"#utility.yul\":22931:23297   */\n    tag_519:\n        /* \"#utility.yul\":23073:23076   */\n      0x00\n        /* \"#utility.yul\":23094:23161   */\n      tag_743\n        /* \"#utility.yul\":23158:23160   */\n      0x0e\n        /* \"#utility.yul\":23153:23156   */\n      dup4\n        /* \"#utility.yul\":23094:23161   */\n      tag_480\n      jump\t// in\n    tag_743:\n        /* \"#utility.yul\":23087:23161   */\n      swap2\n      pop\n        /* \"#utility.yul\":23170:23263   */\n      tag_744\n        /* \"#utility.yul\":23259:23262   */\n      dup3\n        /* \"#utility.yul\":23170:23263   */\n      tag_518\n      jump\t// in\n    tag_744:\n        /* \"#utility.yul\":23288:23290   */\n      0x20\n        /* \"#utility.yul\":23283:23286   */\n      dup3\n        /* \"#utility.yul\":23279:23291   */\n      add\n        /* \"#utility.yul\":23272:23291   */\n      swap1\n      pop\n        /* \"#utility.yul\":22931:23297   */\n      swap2\n      swap1\n      pop\n      jump\t// out\n        /* \"#utility.yul\":23303:23722   */\n    tag_378:\n        /* \"#utility.yul\":23469:23473   */\n      0x00\n        /* \"#utility.yul\":23507:23509   */\n      0x20\n        /* \"#utility.yul\":23496:23505   */\n      dup3\n        /* \"#utility.yul\":23492:23510   */\n      add\n        /* \"#utility.yul\":23484:23510   */\n      swap1\n      pop\n        /* \"#utility.yul\":23556:23565   */\n      dup2\n        /* \"#utility.yul\":23550:23554   */\n      dup2\n        /* \"#utility.yul\":23546:23566   */\n      sub\n        /* \"#utility.yul\":23542:23543   */\n      0x00\n        /* \"#utility.yul\":23531:23540   */\n      dup4\n        /* \"#utility.yul\":23527:23544   */\n      add\n        /* \"#utility.yul\":23520:23567   */\n      mstore\n        /* \"#utility.yul\":23584:23715   */\n      tag_746\n        /* \"#utility.yul\":23710:23714   */\n      dup2\n        /* \"#utility.yul\":23584:23715   */\n      tag_519\n      jump\t// in\n    tag_746:\n        /* \"#utility.yul\":23576:23715   */\n      swap1\n      pop\n        /* \"#utility.yul\":23303:23722   */\n      swap2\n      swap1\n      pop\n      jump\t// out\n        /* \"#utility.yul\":23728:24060   */\n    tag_390:\n        /* \"#utility.yul\":23849:23853   */\n      0x00\n        /* \"#utility.yul\":23887:23889   */\n      0x40\n        /* \"#utility.yul\":23876:23885   */\n      dup3\n        /* \"#utility.yul\":23872:23890   */\n      add\n        /* \"#utility.yul\":23864:23890   */\n      swap1\n      pop\n        /* \"#utility.yul\":23900:23971   */\n      tag_748\n        /* \"#utility.yul\":23968:23969   */\n      0x00\n        /* \"#utility.yul\":23957:23966   */\n      dup4\n        /* \"#utility.yul\":23953:23970   */\n      add\n        /* \"#utility.yul\":23944:23950   */\n      dup6\n        /* \"#utility.yul\":23900:23971   */\n      tag_474\n      jump\t// in\n    tag_748:\n        /* \"#utility.yul\":23981:24053   */\n      tag_749\n        /* \"#utility.yul\":24049:24051   */\n      0x20\n        /* \"#utility.yul\":24038:24047   */\n      dup4\n        /* \"#utility.yul\":24034:24052   */\n      add\n        /* \"#utility.yul\":24025:24031   */\n      dup5\n        /* \"#utility.yul\":23981:24053   */\n      tag_474\n      jump\t// in\n    tag_749:\n        /* \"#utility.yul\":23728:24060   */\n      swap4\n      swap3\n      pop\n      pop\n      pop\n      jump\t// out\n        /* \"#utility.yul\":24066:24213   */\n    tag_520:\n        /* \"#utility.yul\":24167:24178   */\n      0x00\n        /* \"#utility.yul\":24204:24207   */\n      dup2\n        /* \"#utility.yul\":24189:24207   */\n      swap1\n      pop\n        /* \"#utility.yul\":24066:24213   */\n      swap3\n      swap2\n      pop\n      pop\n      jump\t// out\n        /* \"#utility.yul\":24219:24333   */\n    tag_521:\n      pop\n      jump\t// out\n        /* \"#utility.yul\":24339:24737   */\n    tag_522:\n        /* \"#utility.yul\":24498:24501   */\n      0x00\n        /* \"#utility.yul\":24519:24602   */\n      tag_753\n        /* \"#utility.yul\":24600:24601   */\n      0x00\n        /* \"#utility.yul\":24595:24598   */\n      dup4\n        /* \"#utility.yul\":24519:24602   */\n      tag_520\n      jump\t// in\n    tag_753:\n        /* \"#utility.yul\":24512:24602   */\n      swap2\n      pop\n        /* \"#utility.yul\":24611:24704   */\n      tag_754\n        /* \"#utility.yul\":24700:24703   */\n      dup3\n        /* \"#utility.yul\":24611:24704   */\n      tag_521\n      jump\t// in\n    tag_754:\n        /* \"#utility.yul\":24729:24730   */\n      0x00\n        /* \"#utility.yul\":24724:24727   */\n      dup3\n        /* \"#utility.yul\":24720:24731   */\n      add\n        /* \"#utility.yul\":24713:24731   */\n      swap1\n      pop\n        /* \"#utility.yul\":24339:24737   */\n      swap2\n      swap1\n      pop\n      jump\t// out\n        /* \"#utility.yul\":24743:25122   */\n    tag_392:\n        /* \"#utility.yul\":24927:24930   */\n      0x00\n        /* \"#utility.yul\":24949:25096   */\n      tag_756\n        /* \"#utility.yul\":25092:25095   */\n      dup3\n        /* \"#utility.yul\":24949:25096   */\n      tag_522\n      jump\t// in\n    tag_756:\n        /* \"#utility.yul\":24942:25096   */\n      swap2\n      pop\n        /* \"#utility.yul\":25113:25116   */\n      dup2\n        /* \"#utility.yul\":25106:25116   */\n      swap1\n      pop\n        /* \"#utility.yul\":24743:25122   */\n      swap2\n      swap1\n      pop\n      jump\t// out\n        /* \"#utility.yul\":25128:25204   */\n    tag_523:\n        /* \"#utility.yul\":25164:25171   */\n      0x00\n        /* \"#utility.yul\":25193:25198   */\n      dup2\n        /* \"#utility.yul\":25182:25198   */\n      swap1\n      pop\n        /* \"#utility.yul\":25128:25204   */\n      swap2\n      swap1\n      pop\n      jump\t// out\n        /* \"#utility.yul\":25210:25585   */\n    tag_407:\n        /* \"#utility.yul\":25249:25252   */\n      0x00\n        /* \"#utility.yul\":25268:25287   */\n      tag_759\n        /* \"#utility.yul\":25285:25286   */\n      dup3\n        /* \"#utility.yul\":25268:25287   */\n      tag_523\n      jump\t// in\n    tag_759:\n        /* \"#utility.yul\":25263:25287   */\n      swap2\n      pop\n        /* \"#utility.yul\":25301:25320   */\n      tag_760\n        /* \"#utility.yul\":25318:25319   */\n      dup4\n        /* \"#utility.yul\":25301:25320   */\n      tag_523\n      jump\t// in\n    tag_760:\n        /* \"#utility.yul\":25296:25320   */\n      swap3\n      pop\n        /* \"#utility.yul\":25343:25344   */\n      dup3\n        /* \"#utility.yul\":25340:25341   */\n      dup3\n        /* \"#utility.yul\":25336:25345   */\n      add\n        /* \"#utility.yul\":25329:25345   */\n      swap1\n      pop\n        /* \"#utility.yul\":25541:25542   */\n      dup3\n        /* \"#utility.yul\":25536:25539   */\n      dup2\n        /* \"#utility.yul\":25532:25543   */\n      slt\n        /* \"#utility.yul\":25525:25544   */\n      iszero\n        /* \"#utility.yul\":25521:25522   */\n      0x00\n        /* \"#utility.yul\":25518:25519   */\n      dup4\n        /* \"#utility.yul\":25514:25523   */\n      slt\n        /* \"#utility.yul\":25510:25545   */\n      and\n        /* \"#utility.yul\":25493:25494   */\n      dup4\n        /* \"#utility.yul\":25488:25491   */\n      dup3\n        /* \"#utility.yul\":25484:25495   */\n      slt\n        /* \"#utility.yul\":25479:25480   */\n      0x00\n        /* \"#utility.yul\":25476:25477   */\n      dup5\n        /* \"#utility.yul\":25472:25481   */\n      slt\n        /* \"#utility.yul\":25465:25482   */\n      iszero\n        /* \"#utility.yul\":25461:25496   */\n      and\n        /* \"#utility.yul\":25445:25555   */\n      or\n        /* \"#utility.yul\":25442:25578   */\n      iszero\n      tag_761\n      jumpi\n        /* \"#utility.yul\":25558:25576   */\n      tag_762\n      tag_494\n      jump\t// in\n    tag_762:\n        /* \"#utility.yul\":25442:25578   */\n    tag_761:\n        /* \"#utility.yul\":25210:25585   */\n      swap3\n      swap2\n      pop\n      pop\n      jump\t// out\n        /* \"#utility.yul\":25591:26147   */\n    tag_410:\n        /* \"#utility.yul\":25630:25637   */\n      0x00\n        /* \"#utility.yul\":25653:25672   */\n      tag_764\n        /* \"#utility.yul\":25670:25671   */\n      dup3\n        /* \"#utility.yul\":25653:25672   */\n      tag_523\n      jump\t// in\n    tag_764:\n        /* \"#utility.yul\":25648:25672   */\n      swap2\n      pop\n        /* \"#utility.yul\":25686:25705   */\n      tag_765\n        /* \"#utility.yul\":25703:25704   */\n      dup4\n        /* \"#utility.yul\":25686:25705   */\n      tag_523\n      jump\t// in\n    tag_765:\n        /* \"#utility.yul\":25681:25705   */\n      swap3\n      pop\n        /* \"#utility.yul\":25740:25741   */\n      dup3\n        /* \"#utility.yul\":25737:25738   */\n      dup3\n        /* \"#utility.yul\":25733:25742   */\n      mul\n        /* \"#utility.yul\":25762:25791   */\n      tag_766\n        /* \"#utility.yul\":25779:25790   */\n      dup2\n        /* \"#utility.yul\":25762:25791   */\n      tag_523\n      jump\t// in\n    tag_766:\n        /* \"#utility.yul\":25751:25791   */\n      swap2\n      pop\n        /* \"#utility.yul\":25849:25915   */\n      0x8000000000000000000000000000000000000000000000000000000000000000\n        /* \"#utility.yul\":25846:25847   */\n      dup5\n        /* \"#utility.yul\":25843:25916   */\n      eq\n        /* \"#utility.yul\":25839:25840   */\n      0x00\n        /* \"#utility.yul\":25836:25837   */\n      dup5\n        /* \"#utility.yul\":25832:25841   */\n      slt\n        /* \"#utility.yul\":25828:25917   */\n      and\n        /* \"#utility.yul\":25825:25940   */\n      iszero\n      tag_767\n      jumpi\n        /* \"#utility.yul\":25920:25938   */\n      tag_768\n      tag_494\n      jump\t// in\n    tag_768:\n        /* \"#utility.yul\":25825:25940   */\n    tag_767:\n        /* \"#utility.yul\":26090:26091   */\n      dup3\n        /* \"#utility.yul\":26081:26088   */\n      dup3\n        /* \"#utility.yul\":26076:26092   */\n      sdiv\n        /* \"#utility.yul\":26073:26074   */\n      dup5\n        /* \"#utility.yul\":26070:26093   */\n      eq\n        /* \"#utility.yul\":26050:26051   */\n      dup4\n        /* \"#utility.yul\":26043:26052   */\n      iszero\n        /* \"#utility.yul\":26023:26107   */\n      or\n        /* \"#utility.yul\":26000:26140   */\n      tag_769\n      jumpi\n        /* \"#utility.yul\":26120:26138   */\n      tag_770\n      tag_494\n      jump\t// in\n    tag_770:\n        /* \"#utility.yul\":26000:26140   */\n    tag_769:\n        /* \"#utility.yul\":25638:26147   */\n      pop\n        /* \"#utility.yul\":25591:26147   */\n      swap3\n      swap2\n      pop\n      pop\n      jump\t// out\n        /* \"#utility.yul\":26153:26538   */\n    tag_412:\n        /* \"#utility.yul\":26192:26193   */\n      0x00\n        /* \"#utility.yul\":26209:26228   */\n      tag_772\n        /* \"#utility.yul\":26226:26227   */\n      dup3\n        /* \"#utility.yul\":26209:26228   */\n      tag_523\n      jump\t// in\n    tag_772:\n        /* \"#utility.yul\":26204:26228   */\n      swap2\n      pop\n        /* \"#utility.yul\":26242:26261   */\n      tag_773\n        /* \"#utility.yul\":26259:26260   */\n      dup4\n        /* \"#utility.yul\":26242:26261   */\n      tag_523\n      jump\t// in\n    tag_773:\n        /* \"#utility.yul\":26237:26261   */\n      swap3\n      pop\n        /* \"#utility.yul\":26280:26281   */\n      dup3\n        /* \"#utility.yul\":26270:26305   */\n      tag_774\n      jumpi\n        /* \"#utility.yul\":26285:26303   */\n      tag_775\n      tag_500\n      jump\t// in\n    tag_775:\n        /* \"#utility.yul\":26270:26305   */\n    tag_774:\n        /* \"#utility.yul\":26471:26472   */\n      0x01\n        /* \"#utility.yul\":26468:26469   */\n      0x00\n        /* \"#utility.yul\":26464:26473   */\n      sub\n        /* \"#utility.yul\":26461:26462   */\n      dup4\n        /* \"#utility.yul\":26458:26474   */\n      eq\n        /* \"#utility.yul\":26377:26443   */\n      0x8000000000000000000000000000000000000000000000000000000000000000\n        /* \"#utility.yul\":26374:26375   */\n      dup4\n        /* \"#utility.yul\":26371:26444   */\n      eq\n        /* \"#utility.yul\":26354:26484   */\n      and\n        /* \"#utility.yul\":26351:26507   */\n      iszero\n      tag_776\n      jumpi\n        /* \"#utility.yul\":26487:26505   */\n      tag_777\n      tag_494\n      jump\t// in\n    tag_777:\n        /* \"#utility.yul\":26351:26507   */\n    tag_776:\n        /* \"#utility.yul\":26530:26531   */\n      dup3\n        /* \"#utility.yul\":26527:26528   */\n      dup3\n        /* \"#utility.yul\":26522:26532   */\n      sdiv\n        /* \"#utility.yul\":26517:26532   */\n      swap1\n      pop\n        /* \"#utility.yul\":26153:26538   */\n      swap3\n      swap2\n      pop\n      pop\n      jump\t// out\n        /* \"#utility.yul\":26544:26916   */\n    tag_417:\n        /* \"#utility.yul\":26583:26587   */\n      0x00\n        /* \"#utility.yul\":26603:26622   */\n      tag_779\n        /* \"#utility.yul\":26620:26621   */\n      dup3\n        /* \"#utility.yul\":26603:26622   */\n      tag_523\n      jump\t// in\n    tag_779:\n        /* \"#utility.yul\":26598:26622   */\n      swap2\n      pop\n        /* \"#utility.yul\":26636:26655   */\n      tag_780\n        /* \"#utility.yul\":26653:26654   */\n      dup4\n        /* \"#utility.yul\":26636:26655   */\n      tag_523\n      jump\t// in\n    tag_780:\n        /* \"#utility.yul\":26631:26655   */\n      swap3\n      pop\n        /* \"#utility.yul\":26679:26680   */\n      dup3\n        /* \"#utility.yul\":26676:26677   */\n      dup3\n        /* \"#utility.yul\":26672:26681   */\n      sub\n        /* \"#utility.yul\":26664:26681   */\n      swap1\n      pop\n        /* \"#utility.yul\":26873:26874   */\n      dup2\n        /* \"#utility.yul\":26867:26871   */\n      dup2\n        /* \"#utility.yul\":26863:26875   */\n      slt\n        /* \"#utility.yul\":26859:26860   */\n      0x00\n        /* \"#utility.yul\":26856:26857   */\n      dup5\n        /* \"#utility.yul\":26852:26861   */\n      slt\n        /* \"#utility.yul\":26848:26876   */\n      and\n        /* \"#utility.yul\":26831:26832   */\n      dup3\n        /* \"#utility.yul\":26825:26829   */\n      dup3\n        /* \"#utility.yul\":26821:26833   */\n      sgt\n        /* \"#utility.yul\":26816:26817   */\n      0x00\n        /* \"#utility.yul\":26813:26814   */\n      dup6\n        /* \"#utility.yul\":26809:26818   */\n      slt\n        /* \"#utility.yul\":26802:26819   */\n      iszero\n        /* \"#utility.yul\":26798:26834   */\n      and\n        /* \"#utility.yul\":26782:26886   */\n      or\n        /* \"#utility.yul\":26779:26909   */\n      iszero\n      tag_781\n      jumpi\n        /* \"#utility.yul\":26889:26907   */\n      tag_782\n      tag_494\n      jump\t// in\n    tag_782:\n        /* \"#utility.yul\":26779:26909   */\n    tag_781:\n        /* \"#utility.yul\":26544:26916   */\n      swap3\n      swap2\n      pop\n      pop\n      jump\t// out\n        /* \"#utility.yul\":26922:27085   */\n    tag_524:\n        /* \"#utility.yul\":27062:27077   */\n      0x496e76616c696420646967697400000000000000000000000000000000000000\n        /* \"#utility.yul\":27058:27059   */\n      0x00\n        /* \"#utility.yul\":27050:27056   */\n      dup3\n        /* \"#utility.yul\":27046:27060   */\n      add\n        /* \"#utility.yul\":27039:27078   */\n      mstore\n        /* \"#utility.yul\":26922:27085   */\n      pop\n      jump\t// out\n        /* \"#utility.yul\":27091:27457   */\n    tag_525:\n        /* \"#utility.yul\":27233:27236   */\n      0x00\n        /* \"#utility.yul\":27254:27321   */\n      tag_785\n        /* \"#utility.yul\":27318:27320   */\n      0x0d\n        /* \"#utility.yul\":27313:27316   */\n      dup4\n        /* \"#utility.yul\":27254:27321   */\n      tag_480\n      jump\t// in\n    tag_785:\n        /* \"#utility.yul\":27247:27321   */\n      swap2\n      pop\n        /* \"#utility.yul\":27330:27423   */\n      tag_786\n        /* \"#utility.yul\":27419:27422   */\n      dup3\n        /* \"#utility.yul\":27330:27423   */\n      tag_524\n      jump\t// in\n    tag_786:\n        /* \"#utility.yul\":27448:27450   */\n      0x20\n        /* \"#utility.yul\":27443:27446   */\n      dup3\n        /* \"#utility.yul\":27439:27451   */\n      add\n        /* \"#utility.yul\":27432:27451   */\n      swap1\n      pop\n        /* \"#utility.yul\":27091:27457   */\n      swap2\n      swap1\n      pop\n      jump\t// out\n        /* \"#utility.yul\":27463:27882   */\n    tag_450:\n        /* \"#utility.yul\":27629:27633   */\n      0x00\n        /* \"#utility.yul\":27667:27669   */\n      0x20\n        /* \"#utility.yul\":27656:27665   */\n      dup3\n        /* \"#utility.yul\":27652:27670   */\n      add\n        /* \"#utility.yul\":27644:27670   */\n      swap1\n      pop\n        /* \"#utility.yul\":27716:27725   */\n      dup2\n        /* \"#utility.yul\":27710:27714   */\n      dup2\n        /* \"#utility.yul\":27706:27726   */\n      sub\n        /* \"#utility.yul\":27702:27703   */\n      0x00\n        /* \"#utility.yul\":27691:27700   */\n      dup4\n        /* \"#utility.yul\":27687:27704   */\n      add\n        /* \"#utility.yul\":27680:27727   */\n      mstore\n        /* \"#utility.yul\":27744:27875   */\n      tag_788\n        /* \"#utility.yul\":27870:27874   */\n      dup2\n        /* \"#utility.yul\":27744:27875   */\n      tag_525\n      jump\t// in\n    tag_788:\n        /* \"#utility.yul\":27736:27875   */\n      swap1\n      pop\n        /* \"#utility.yul\":27463:27882   */\n      swap2\n      swap1\n      pop\n      jump\t// out\n\n    auxdata: 0xa2646970667358221220962f3ecee70d4b5284a812d731cfa3269e978767b07cdcdd2d961a198d4ac51064736f6c63430008140033\n}\n","bytecode":{"linkReferences":{},"object":"60c06040523480156200001157600080fd5b50604051620031c5380380620031c583398181016040528101906200003791906200041a565b83838382600073ffffffffffffffffffffffffffffffffffffffff168173ffffffffffffffffffffffffffffffffffffffff1603620000b05760006040517f1e4fbdf7000000000000000000000000000000000000000000000000000000008152600401620000a79190620004bc565b60405180910390fd5b620000c1816200011960201b60201c565b508167ffffffffffffffff1660808167ffffffffffffffff16815250508067ffffffffffffffff1660a08167ffffffffffffffff168152505050505080600390816200010e919062000724565b50505050506200080b565b60008060009054906101000a900473ffffffffffffffffffffffffffffffffffffffff169050816000806101000a81548173ffffffffffffffffffffffffffffffffffffffff021916908373ffffffffffffffffffffffffffffffffffffffff1602179055508173ffffffffffffffffffffffffffffffffffffffff168173ffffffffffffffffffffffffffffffffffffffff167f8be0079c531659141344cd1fd0a4f28419497f9722a3daafe3b4186f6b6457e060405160405180910390a35050565b6000604051905090565b600080fd5b600080fd5b600073ffffffffffffffffffffffffffffffffffffffff82169050919050565b60006200021e82620001f1565b9050919050565b620002308162000211565b81146200023c57600080fd5b50565b600081519050620002508162000225565b92915050565b600067ffffffffffffffff82169050919050565b620002758162000256565b81146200028157600080fd5b50565b60008151905062000295816200026a565b92915050565b600080fd5b600080fd5b6000601f19601f8301169050919050565b7f4e487b7100000000000000000000000000000000000000000000000000000000600052604160045260246000fd5b620002f082620002a5565b810181811067ffffffffffffffff82111715620003125762000311620002b6565b5b80604052505050565b600062000327620001dd565b9050620003358282620002e5565b919050565b600067ffffffffffffffff821115620003585762000357620002b6565b5b6200036382620002a5565b9050602081019050919050565b60005b838110156200039057808201518184015260208101905062000373565b60008484015250505050565b6000620003b3620003ad846200033a565b6200031b565b905082815260208101848484011115620003d257620003d1620002a0565b5b620003df84828562000370565b509392505050565b600082601f830112620003ff57620003fe6200029b565b5b8151620004118482602086016200039c565b91505092915050565b60008060008060808587031215620004375762000436620001e7565b5b600062000447878288016200023f565b94505060206200045a8782880162000284565b93505060406200046d8782880162000284565b925050606085015167ffffffffffffffff811115620004915762000490620001ec565b5b6200049f87828801620003e7565b91505092959194509250565b620004b68162000211565b82525050565b6000602082019050620004d36000830184620004ab565b92915050565b600081519050919050565b7f4e487b7100000000000000000000000000000000000000000000000000000000600052602260045260246000fd5b600060028204905060018216806200052c57607f821691505b602082108103620005425762000541620004e4565b5b50919050565b60008190508160005260206000209050919050565b60006020601f8301049050919050565b600082821b905092915050565b600060088302620005ac7fffffffffffffffffffffffffffffffffffffffffffffffffffffffffffffffff826200056d565b620005b886836200056d565b95508019841693508086168417925050509392505050565b6000819050919050565b6000819050919050565b600062000605620005ff620005f984620005d0565b620005da565b620005d0565b9050919050565b6000819050919050565b6200062183620005e4565b6200063962000630826200060c565b8484546200057a565b825550505050565b600090565b6200065062000641565b6200065d81848462000616565b505050565b5b8181101562000685576200067960008262000646565b60018101905062000663565b5050565b601f821115620006d4576200069e8162000548565b620006a9846200055d565b81016020851015620006b9578190505b620006d1620006c8856200055d565b83018262000662565b50505b505050565b600082821c905092915050565b6000620006f960001984600802620006d9565b1980831691505092915050565b6000620007148383620006e6565b9150826002028217905092915050565b6200072f82620004d9565b67ffffffffffffffff8111156200074b576200074a620002b6565b5b62000757825462000513565b6200076482828562000689565b600060209050601f8311600181146200079c576000841562000787578287015190505b62000793858262000706565b86555062000803565b601f198416620007ac8662000548565b60005b82811015620007d657848901518255600182019150602085019450602081019050620007af565b86831015620007f65784890151620007f2601f891682620006e6565b8355505b6001600288020188555050505b505050505050565b60805160a0516129946200083160003960006104be01526000610a0501526129946000f3fe6080604052600436106101185760003560e01c806386d1a69f116100a0578063ad34ec2a11610064578063ad34ec2a146103ae578063be9a6555146103eb578063efbe1c1c14610416578063f2fde38b14610441578063fbccedae1461046a5761011f565b806386d1a69f146102c75780638da5cb5b146102de57806396132521146103095780639852595c14610334578063a3f8eace146103715761011f565b806347fc5543116100e757806347fc5543146101e0578063681f3e6d1461021d578063715018a614610248578063775f75df1461025f578063810ec23b1461028a5761011f565b80630a17b06b146101245780630fb5a6b414610161578063191655871461018c5780633c9177cd146101b55761011f565b3661011f57005b600080fd5b34801561013057600080fd5b5061014b60048036038101906101469190611b08565b610495565b6040516101589190611b4e565b60405180910390f35b34801561016d57600080fd5b506101766104ba565b6040516101839190611b4e565b60405180910390f35b34801561019857600080fd5b506101b360048036038101906101ae9190611bc7565b6104ec565b005b3480156101c157600080fd5b506101ca6105b3565b6040516101d79190611c84565b60405180910390f35b3480156101ec57600080fd5b5061020760048036038101906102029190611ddb565b610655565b6040516102149190611c84565b60405180910390f35b34801561022957600080fd5b506102326106e8565b60405161023f9190611c84565b60405180910390f35b34801561025457600080fd5b5061025d61077a565b005b34801561026b57600080fd5b5061027461078e565b6040516102819190611c84565b60405180910390f35b34801561029657600080fd5b506102b160048036038101906102ac9190611e37565b610830565b6040516102be9190611b4e565b60405180910390f35b3480156102d357600080fd5b506102dc6108d0565b005b3480156102ea57600080fd5b506102f3610940565b6040516103009190611e86565b60405180910390f35b34801561031557600080fd5b5061031e610969565b60405161032b9190611b4e565b60405180910390f35b34801561034057600080fd5b5061035b60048036038101906103569190611bc7565b610973565b6040516103689190611b4e565b60405180910390f35b34801561037d57600080fd5b5061039860048036038101906103939190611bc7565b6109bc565b6040516103a59190611b4e565b60405180910390f35b3480156103ba57600080fd5b506103d560048036038101906103d09190611ea1565b6109e2565b6040516103e29190611ef9565b60405180910390f35b3480156103f757600080fd5b50610400610a01565b60405161040d9190611b4e565b60405180910390f35b34801561042257600080fd5b5061042b610a33565b6040516104389190611b4e565b60405180910390f35b34801561044d57600080fd5b5061046860048036038101906104639190611bc7565b610a54565b005b34801561047657600080fd5b5061047f610ada565b60405161048c9190611b4e565b60405180910390f35b60006104b36104a2610969565b476104ad9190611f43565b83610afc565b9050919050565b60007f000000000000000000000000000000000000000000000000000000000000000067ffffffffffffffff16905090565b60006104f7826109bc565b905080600260008473ffffffffffffffffffffffffffffffffffffffff1673ffffffffffffffffffffffffffffffffffffffff16815260200190815260200160002060008282546105489190611f43565b925050819055508173ffffffffffffffffffffffffffffffffffffffff167fc0e523490dd523c33b1878c9eb14ff46991e3f5b2cd33710918618f2a39cba1b826040516105959190611b4e565b60405180910390a26105af826105a9610940565b83610b83565b5050565b606060006105bf610a33565b905060006105ce826008610c02565b90506000806000806000806105e287610c32565b9550955095509550955095506105f786610cb9565b61060086610e18565b61060986610e18565b61061286610e18565b61061b86610e18565b61062486610e18565b60405160200161063996959493929190612025565b6040516020818303038152906040529850505050505050505090565b6060600061066283610e63565b905060006106788561067384611414565b610830565b90506000670de0b6b3a76400008261069091906120f7565b90506000670de0b6b3a7640000836106a89190612128565b90506106b382610cb9565b6106bc82610cb9565b6040516020016106cd92919061217f565b60405160208183030381529060405294505050505092915050565b6060600380546106f7906121e1565b80601f0160208091040260200160405190810160405280929190818152602001828054610723906121e1565b80156107705780601f1061074557610100808354040283529160200191610770565b820191906000526020600020905b81548152906001019060200180831161075357829003601f168201915b5050505050905090565b61078261146b565b61078c60006114f2565b565b6060600061079a610a01565b905060006107a9826008610c02565b90506000806000806000806107bd87610c32565b9550955095509550955095506107d286610cb9565b6107db86610e18565b6107e486610e18565b6107ed86610e18565b6107f686610e18565b6107ff86610e18565b60405160200161081496959493929190612025565b6040516020818303038152906040529850505050505050505090565b60006108c861083e84610973565b8473ffffffffffffffffffffffffffffffffffffffff166370a08231306040518263ffffffff1660e01b81526004016108779190611e86565b602060405180830381865afa158015610894573d6000803e3d6000fd5b505050506040513d601f19601f820116820180604052508101906108b8919061223e565b6108c29190611f43565b83610afc565b905092915050565b60006108da610ada565b905080600160008282546108ee9190611f43565b925050819055507fda9d4e5f101b8b9b1c5b76d0c5a9f7923571acfc02376aa076b75a8c080c956b816040516109249190611b4e565b60405180910390a161093d610937610940565b826115b6565b50565b60008060009054906101000a900473ffffffffffffffffffffffffffffffffffffffff16905090565b6000600154905090565b6000600260008373ffffffffffffffffffffffffffffffffffffffff1673ffffffffffffffffffffffffffffffffffffffff168152602001908152602001600020549050919050565b60006109c782610973565b6109d18342610830565b6109db919061226b565b9050919050565b6000806109ee83610e63565b90506109f981611414565b915050919050565b60007f000000000000000000000000000000000000000000000000000000000000000067ffffffffffffffff16905090565b6000610a3d6104ba565b610a45610a01565b610a4f9190611f43565b905090565b610a5c61146b565b600073ffffffffffffffffffffffffffffffffffffffff168173ffffffffffffffffffffffffffffffffffffffff1603610ace5760006040517f1e4fbdf7000000000000000000000000000000000000000000000000000000008152600401610ac59190611e86565b60405180910390fd5b610ad7816114f2565b50565b6000610ae4610969565b610aed42610495565b610af7919061226b565b905090565b6000610b06610a01565b8267ffffffffffffffff161015610b205760009050610b7d565b610b28610a33565b8267ffffffffffffffff1610610b4057829050610b7d565b610b486104ba565b610b50610a01565b8367ffffffffffffffff16610b65919061226b565b84610b70919061229f565b610b7a91906120f7565b90505b92915050565b610bfd838473ffffffffffffffffffffffffffffffffffffffff1663a9059cbb8585604051602401610bb69291906122e1565b604051602081830303815290604052915060e01b6020820180517bffffffffffffffffffffffffffffffffffffffffffffffffffffffff8381831617835250505050611680565b505050565b6000610e1082610c12919061229f565b83610c1d9190611f43565b905082811015610c2c57600080fd5b92915050565b600080600080600080610c526201518088610c4d91906120f7565b611722565b80965081975082985050505060006201518088610c6f9190612128565b9050610e1081610c7f91906120f7565b9350610e1081610c8f9190612128565b9050603c81610c9e91906120f7565b9250603c81610cad9190612128565b91505091939550919395565b606060008203610d00576040518060400160405280600181526020017f30000000000000000000000000000000000000000000000000000000000000008152509050610e13565b600082905060005b60008214610d32578080610d1b9061230a565b915050600a82610d2b91906120f7565b9150610d08565b60008167ffffffffffffffff811115610d4e57610d4d611cb0565b5b6040519080825280601f01601f191660200182016040528015610d805781602001600182028036833780820191505090505b5090505b60008514610e0c578180610d9790612352565b925050600a85610da79190612128565b6030610db39190611f43565b60f81b818381518110610dc957610dc861237b565b5b60200101907effffffffffffffffffffffffffffffffffffffffffffffffffffffffffffff1916908160001a905350600a85610e0591906120f7565b9450610d84565b8093505050505b919050565b6060600a821015610e5257610e2c82610cb9565b604051602001610e3c91906123d0565b6040516020818303038152906040529050610e5e565b610e5b82610cb9565b90505b919050565b600080829050600a81511480610e7a575060138151145b610eb9576040517f08c379a0000000000000000000000000000000000000000000000000000000008152600401610eb090612468565b60405180910390fd5b6000610ec882600060046118c1565b90506000610ed983600560026118c1565b90506000610eea84600860026118c1565b905060008060006013875103610f2857610f0787600b60026118c1565b9250610f1687600e60026118c1565b9150610f2587601160026118c1565b90505b60018510158015610f3a5750600c8511155b610f79576040517f08c379a0000000000000000000000000000000000000000000000000000000008152600401610f70906124d4565b60405180910390fd5b60018410158015610f8b5750601f8411155b610fca576040517f08c379a0000000000000000000000000000000000000000000000000000000008152600401610fc190612540565b60405180910390fd5b60008310158015610fdc575060178311155b61101b576040517f08c379a0000000000000000000000000000000000000000000000000000000008152600401611012906125ac565b60405180910390fd5b6000821015801561102d5750603b8211155b61106c576040517f08c379a000000000000000000000000000000000000000000000000000000000815260040161106390612618565b60405180910390fd5b6000811015801561107e5750603b8111155b6110bd576040517f08c379a00000000000000000000000000000000000000000000000000000000081526004016110b490612684565b60405180910390fd5b6000806107b290505b87811015611111576110d781611a1e565b6110e5576301e133806110eb565b6301e285005b63ffffffff16826110fc9190611f43565b915080806111099061230a565b9150506110c6565b506000600c67ffffffffffffffff81111561112f5761112e611cb0565b5b60405190808252806020026020018201604052801561115d5781602001602082028036833780820191505090505b509050601f816000815181106111765761117561237b565b5b602002602001018181525050601c816001815181106111985761119761237b565b5b602002602001018181525050601f816002815181106111ba576111b961237b565b5b602002602001018181525050601e816003815181106111dc576111db61237b565b5b602002602001018181525050601f816004815181106111fe576111fd61237b565b5b602002602001018181525050601e816005815181106112205761121f61237b565b5b602002602001018181525050601f816006815181106112425761124161237b565b5b602002602001018181525050601f816007815181106112645761126361237b565b5b602002602001018181525050601e816008815181106112865761128561237b565b5b602002602001018181525050601f816009815181106112a8576112a761237b565b5b602002602001018181525050601e81600a815181106112ca576112c961237b565b5b602002602001018181525050601f81600b815181106112ec576112eb61237b565b5b60200260200101818152505061130188611a1e565b1561132957601d8160018151811061131c5761131b61237b565b5b6020026020010181815250505b6000600190505b8781101561138d57620151808260018361134a919061226b565b8151811061135b5761135a61237b565b5b602002602001015161136d919061229f565b836113789190611f43565b925080806113859061230a565b915050611330565b506201518060018761139f919061226b565b6113a9919061229f565b826113b49190611f43565b915082603c856113c4919061229f565b610e10876113d2919061229f565b6113dc9190611f43565b6113e69190611f43565b826113f19190611f43565b915061708082611401919061226b565b9150819950505050505050505050919050565b600067ffffffffffffffff8016821115611463576040517f08c379a000000000000000000000000000000000000000000000000000000000815260040161145a906126f0565b60405180910390fd5b819050919050565b611473611a67565b73ffffffffffffffffffffffffffffffffffffffff16611491610940565b73ffffffffffffffffffffffffffffffffffffffff16146114f0576114b4611a67565b6040517f118cdaa70000000000000000000000000000000000000000000000000000000081526004016114e79190611e86565b60405180910390fd5b565b60008060009054906101000a900473ffffffffffffffffffffffffffffffffffffffff169050816000806101000a81548173ffffffffffffffffffffffffffffffffffffffff021916908373ffffffffffffffffffffffffffffffffffffffff1602179055508173ffffffffffffffffffffffffffffffffffffffff168173ffffffffffffffffffffffffffffffffffffffff167f8be0079c531659141344cd1fd0a4f28419497f9722a3daafe3b4186f6b6457e060405160405180910390a35050565b804710156115fd5747816040517fcf4791810000000000000000000000000000000000000000000000000000000081526004016115f4929190612710565b60405180910390fd5b6000808373ffffffffffffffffffffffffffffffffffffffff16836040516116249061276a565b60006040518083038185875af1925050503d8060008114611661576040519150601f19603f3d011682016040523d82523d6000602084013e611666565b606091505b50915091508161167a5761167981611a6f565b5b50505050565b600080602060008451602086016000885af1806116a3576040513d6000823e3d81fd5b3d9250600051915050600082146116be5760018114156116da565b60008473ffffffffffffffffffffffffffffffffffffffff163b145b1561171c57836040517f5274afe70000000000000000000000000000000000000000000000000000000081526004016117139190611e86565b60405180910390fd5b50505050565b600080600080849050600062253d8c62010bd9836117409190612789565b61174a9190612789565b9050600062023ab182600461175f91906127cd565b6117699190612845565b9050600460038262023ab161177e91906127cd565b6117889190612789565b6117929190612845565b8261179d91906128af565b9150600062164b096001846117b29190612789565b610fa06117bf91906127cd565b6117c99190612845565b9050601f6004826105b56117dd91906127cd565b6117e79190612845565b846117f291906128af565b6117fc9190612789565b9250600061098f84605061181091906127cd565b61181a9190612845565b9050600060508261098f61182e91906127cd565b6118389190612845565b8561184391906128af565b9050600b826118529190612845565b945084600c61186191906127cd565b60028361186e9190612789565b61187891906128af565b9150848360318661188991906128af565b606461189591906127cd565b61189f9190612789565b6118a99190612789565b92508298508197508096505050505050509193909250565b6000806000905060008490505b83856118da9190611f43565b811015611a1257603060f81b8682815181106118f9576118f861237b565b5b602001015160f81c60f81b7effffffffffffffffffffffffffffffffffffffffffffffffffffffffffffff1916101580156119775750603960f81b8682815181106119475761194661237b565b5b602001015160f81c60f81b7effffffffffffffffffffffffffffffffffffffffffffffffffffffffffffff191611155b6119b6576040517f08c379a00000000000000000000000000000000000000000000000000000000081526004016119ad9061293e565b60405180910390fd5b60308682815181106119cb576119ca61237b565b5b602001015160f81c60f81b60f81c60ff166119e6919061226b565b600a836119f3919061229f565b6119fd9190611f43565b91508080611a0a9061230a565b9150506118ce565b50809150509392505050565b600080600483611a2e9190612128565b148015611a4857506000606483611a459190612128565b14155b80611a605750600061019083611a5e9190612128565b145b9050919050565b600033905090565b600081511115611a825780518082602001fd5b6040517fd6bda27500000000000000000000000000000000000000000000000000000000815260040160405180910390fd5b6000604051905090565b600080fd5b600080fd5b600067ffffffffffffffff82169050919050565b611ae581611ac8565b8114611af057600080fd5b50565b600081359050611b0281611adc565b92915050565b600060208284031215611b1e57611b1d611abe565b5b6000611b2c84828501611af3565b91505092915050565b6000819050919050565b611b4881611b35565b82525050565b6000602082019050611b636000830184611b3f565b92915050565b600073ffffffffffffffffffffffffffffffffffffffff82169050919050565b6000611b9482611b69565b9050919050565b611ba481611b89565b8114611baf57600080fd5b50565b600081359050611bc181611b9b565b92915050565b600060208284031215611bdd57611bdc611abe565b5b6000611beb84828501611bb2565b91505092915050565b600081519050919050565b600082825260208201905092915050565b60005b83811015611c2e578082015181840152602081019050611c13565b60008484015250505050565b6000601f19601f8301169050919050565b6000611c5682611bf4565b611c608185611bff565b9350611c70818560208601611c10565b611c7981611c3a565b840191505092915050565b60006020820190508181036000830152611c9e8184611c4b565b905092915050565b600080fd5b600080fd5b7f4e487b7100000000000000000000000000000000000000000000000000000000600052604160045260246000fd5b611ce882611c3a565b810181811067ffffffffffffffff82111715611d0757611d06611cb0565b5b80604052505050565b6000611d1a611ab4565b9050611d268282611cdf565b919050565b600067ffffffffffffffff821115611d4657611d45611cb0565b5b611d4f82611c3a565b9050602081019050919050565b82818337600083830152505050565b6000611d7e611d7984611d2b565b611d10565b905082815260208101848484011115611d9a57611d99611cab565b5b611da5848285611d5c565b509392505050565b600082601f830112611dc257611dc1611ca6565b5b8135611dd2848260208601611d6b565b91505092915050565b60008060408385031215611df257611df1611abe565b5b6000611e0085828601611bb2565b925050602083013567ffffffffffffffff811115611e2157611e20611ac3565b5b611e2d85828601611dad565b9150509250929050565b60008060408385031215611e4e57611e4d611abe565b5b6000611e5c85828601611bb2565b9250506020611e6d85828601611af3565b9150509250929050565b611e8081611b89565b82525050565b6000602082019050611e9b6000830184611e77565b92915050565b600060208284031215611eb757611eb6611abe565b5b600082013567ffffffffffffffff811115611ed557611ed4611ac3565b5b611ee184828501611dad565b91505092915050565b611ef381611ac8565b82525050565b6000602082019050611f0e6000830184611eea565b92915050565b7f4e487b7100000000000000000000000000000000000000000000000000000000600052601160045260246000fd5b6000611f4e82611b35565b9150611f5983611b35565b9250828201905080821115611f7157611f70611f14565b5b92915050565b600081905092915050565b6000611f8d82611bf4565b611f978185611f77565b9350611fa7818560208601611c10565b80840191505092915050565b7f2d00000000000000000000000000000000000000000000000000000000000000815250565b7f2000000000000000000000000000000000000000000000000000000000000000815250565b7f3a00000000000000000000000000000000000000000000000000000000000000815250565b60006120318289611f82565b915061203c82611fb3565b60018201915061204c8288611f82565b915061205782611fb3565b6001820191506120678287611f82565b915061207282611fd9565b6001820191506120828286611f82565b915061208d82611fff565b60018201915061209d8285611f82565b91506120a882611fff565b6001820191506120b88284611f82565b9150819050979650505050505050565b7f4e487b7100000000000000000000000000000000000000000000000000000000600052601260045260246000fd5b600061210282611b35565b915061210d83611b35565b92508261211d5761211c6120c8565b5b828204905092915050565b600061213382611b35565b915061213e83611b35565b92508261214e5761214d6120c8565b5b828206905092915050565b7f2e00000000000000000000000000000000000000000000000000000000000000815250565b600061218b8285611f82565b915061219682612159565b6001820191506121a68284611f82565b91508190509392505050565b7f4e487b7100000000000000000000000000000000000000000000000000000000600052602260045260246000fd5b600060028204905060018216806121f957607f821691505b60208210810361220c5761220b6121b2565b5b50919050565b61221b81611b35565b811461222657600080fd5b50565b60008151905061223881612212565b92915050565b60006020828403121561225457612253611abe565b5b600061226284828501612229565b91505092915050565b600061227682611b35565b915061228183611b35565b925082820390508181111561229957612298611f14565b5b92915050565b60006122aa82611b35565b91506122b583611b35565b92508282026122c381611b35565b915082820484148315176122da576122d9611f14565b5b5092915050565b60006040820190506122f66000830185611e77565b6123036020830184611b3f565b9392505050565b600061231582611b35565b91507fffffffffffffffffffffffffffffffffffffffffffffffffffffffffffffffff820361234757612346611f14565b5b600182019050919050565b600061235d82611b35565b9150600082036123705761236f611f14565b5b600182039050919050565b7f4e487b7100000000000000000000000000000000000000000000000000000000600052603260045260246000fd5b7f3000000000000000000000000000000000000000000000000000000000000000815250565b60006123db826123aa565b6001820191506123eb8284611f82565b915081905092915050565b7f496e76616c696420666f726d6174202875736520595959592d4d4d2d4444206f60008201527f7220595959592d4d4d2d44442068683a6d6d3a73732900000000000000000000602082015250565b6000612452603683611bff565b915061245d826123f6565b604082019050919050565b6000602082019050818103600083015261248181612445565b9050919050565b7f496e76616c6964206d6f6e746800000000000000000000000000000000000000600082015250565b60006124be600d83611bff565b91506124c982612488565b602082019050919050565b600060208201905081810360008301526124ed816124b1565b9050919050565b7f496e76616c696420646179000000000000000000000000000000000000000000600082015250565b600061252a600b83611bff565b9150612535826124f4565b602082019050919050565b600060208201905081810360008301526125598161251d565b9050919050565b7f496e76616c696420686f75720000000000000000000000000000000000000000600082015250565b6000612596600c83611bff565b91506125a182612560565b602082019050919050565b600060208201905081810360008301526125c581612589565b9050919050565b7f496e76616c6964206d696e757465000000000000000000000000000000000000600082015250565b6000612602600e83611bff565b915061260d826125cc565b602082019050919050565b60006020820190508181036000830152612631816125f5565b9050919050565b7f496e76616c6964207365636f6e64000000000000000000000000000000000000600082015250565b600061266e600e83611bff565b915061267982612638565b602082019050919050565b6000602082019050818103600083015261269d81612661565b9050919050565b7f56616c7565206f766572666c6f77000000000000000000000000000000000000600082015250565b60006126da600e83611bff565b91506126e5826126a4565b602082019050919050565b60006020820190508181036000830152612709816126cd565b9050919050565b60006040820190506127256000830185611b3f565b6127326020830184611b3f565b9392505050565b600081905092915050565b50565b6000612754600083612739565b915061275f82612744565b600082019050919050565b600061277582612747565b9150819050919050565b6000819050919050565b60006127948261277f565b915061279f8361277f565b9250828201905082811215600083121683821260008412151617156127c7576127c6611f14565b5b92915050565b60006127d88261277f565b91506127e38361277f565b92508282026127f18161277f565b91507f8000000000000000000000000000000000000000000000000000000000000000841460008412161561282957612828611f14565b5b828205841483151761283e5761283d611f14565b5b5092915050565b60006128508261277f565b915061285b8361277f565b92508261286b5761286a6120c8565b5b600160000383147f8000000000000000000000000000000000000000000000000000000000000000831416156128a4576128a3611f14565b5b828205905092915050565b60006128ba8261277f565b91506128c58361277f565b92508282039050818112600084121682821360008512151617156128ec576128eb611f14565b5b92915050565b7f496e76616c696420646967697400000000000000000000000000000000000000600082015250565b6000612928600d83611bff565b9150612933826128f2565b602082019050919050565b600060208201905081810360008301526129578161291b565b905091905056fea2646970667358221220962f3ecee70d4b5284a812d731cfa3269e978767b07cdcdd2d961a198d4ac51064736f6c63430008140033","opcodes":"PUSH1 0xC0 PUSH1 0x40 MSTORE CALLVALUE DUP1 ISZERO PUSH3 0x11 JUMPI PUSH1 0x0 DUP1 REVERT JUMPDEST POP PUSH1 0x40 MLOAD PUSH3 0x31C5 CODESIZE SUB DUP1 PUSH3 0x31C5 DUP4 CODECOPY DUP2 DUP2 ADD PUSH1 0x40 MSTORE DUP2 ADD SWAP1 PUSH3 0x37 SWAP2 SWAP1 PUSH3 0x41A JUMP JUMPDEST DUP4 DUP4 DUP4 DUP3 PUSH1 0x0 PUSH20 0xFFFFFFFFFFFFFFFFFFFFFFFFFFFFFFFFFFFFFFFF AND DUP2 PUSH20 0xFFFFFFFFFFFFFFFFFFFFFFFFFFFFFFFFFFFFFFFF AND SUB PUSH3 0xB0 JUMPI PUSH1 0x0 PUSH1 0x40 MLOAD PUSH32 0x1E4FBDF700000000000000000000000000000000000000000000000000000000 DUP2 MSTORE PUSH1 0x4 ADD PUSH3 0xA7 SWAP2 SWAP1 PUSH3 0x4BC JUMP JUMPDEST PUSH1 0x40 MLOAD DUP1 SWAP2 SUB SWAP1 REVERT JUMPDEST PUSH3 0xC1 DUP2 PUSH3 0x119 PUSH1 0x20 SHL PUSH1 0x20 SHR JUMP JUMPDEST POP DUP2 PUSH8 0xFFFFFFFFFFFFFFFF AND PUSH1 0x80 DUP2 PUSH8 0xFFFFFFFFFFFFFFFF AND DUP2 MSTORE POP POP DUP1 PUSH8 0xFFFFFFFFFFFFFFFF AND PUSH1 0xA0 DUP2 PUSH8 0xFFFFFFFFFFFFFFFF AND DUP2 MSTORE POP POP POP POP POP DUP1 PUSH1 0x3 SWAP1 DUP2 PUSH3 0x10E SWAP2 SWAP1 PUSH3 0x724 JUMP JUMPDEST POP POP POP POP POP PUSH3 0x80B JUMP JUMPDEST PUSH1 0x0 DUP1 PUSH1 0x0 SWAP1 SLOAD SWAP1 PUSH2 0x100 EXP SWAP1 DIV PUSH20 0xFFFFFFFFFFFFFFFFFFFFFFFFFFFFFFFFFFFFFFFF AND SWAP1 POP DUP2 PUSH1 0x0 DUP1 PUSH2 0x100 EXP DUP2 SLOAD DUP2 PUSH20 0xFFFFFFFFFFFFFFFFFFFFFFFFFFFFFFFFFFFFFFFF MUL NOT AND SWAP1 DUP4 PUSH20 0xFFFFFFFFFFFFFFFFFFFFFFFFFFFFFFFFFFFFFFFF AND MUL OR SWAP1 SSTORE POP DUP2 PUSH20 0xFFFFFFFFFFFFFFFFFFFFFFFFFFFFFFFFFFFFFFFF AND DUP2 PUSH20 0xFFFFFFFFFFFFFFFFFFFFFFFFFFFFFFFFFFFFFFFF AND PUSH32 0x8BE0079C531659141344CD1FD0A4F28419497F9722A3DAAFE3B4186F6B6457E0 PUSH1 0x40 MLOAD PUSH1 0x40 MLOAD DUP1 SWAP2 SUB SWAP1 LOG3 POP POP JUMP JUMPDEST PUSH1 0x0 PUSH1 0x40 MLOAD SWAP1 POP SWAP1 JUMP JUMPDEST PUSH1 0x0 DUP1 REVERT JUMPDEST PUSH1 0x0 DUP1 REVERT JUMPDEST PUSH1 0x0 PUSH20 0xFFFFFFFFFFFFFFFFFFFFFFFFFFFFFFFFFFFFFFFF DUP3 AND SWAP1 POP SWAP2 SWAP1 POP JUMP JUMPDEST PUSH1 0x0 PUSH3 0x21E DUP3 PUSH3 0x1F1 JUMP JUMPDEST SWAP1 POP SWAP2 SWAP1 POP JUMP JUMPDEST PUSH3 0x230 DUP2 PUSH3 0x211 JUMP JUMPDEST DUP2 EQ PUSH3 0x23C JUMPI PUSH1 0x0 DUP1 REVERT JUMPDEST POP JUMP JUMPDEST PUSH1 0x0 DUP2 MLOAD SWAP1 POP PUSH3 0x250 DUP2 PUSH3 0x225 JUMP JUMPDEST SWAP3 SWAP2 POP POP JUMP JUMPDEST PUSH1 0x0 PUSH8 0xFFFFFFFFFFFFFFFF DUP3 AND SWAP1 POP SWAP2 SWAP1 POP JUMP JUMPDEST PUSH3 0x275 DUP2 PUSH3 0x256 JUMP JUMPDEST DUP2 EQ PUSH3 0x281 JUMPI PUSH1 0x0 DUP1 REVERT JUMPDEST POP JUMP JUMPDEST PUSH1 0x0 DUP2 MLOAD SWAP1 POP PUSH3 0x295 DUP2 PUSH3 0x26A JUMP JUMPDEST SWAP3 SWAP2 POP POP JUMP JUMPDEST PUSH1 0x0 DUP1 REVERT JUMPDEST PUSH1 0x0 DUP1 REVERT JUMPDEST PUSH1 0x0 PUSH1 0x1F NOT PUSH1 0x1F DUP4 ADD AND SWAP1 POP SWAP2 SWAP1 POP JUMP JUMPDEST PUSH32 0x4E487B7100000000000000000000000000000000000000000000000000000000 PUSH1 0x0 MSTORE PUSH1 0x41 PUSH1 0x4 MSTORE PUSH1 0x24 PUSH1 0x0 REVERT JUMPDEST PUSH3 0x2F0 DUP3 PUSH3 0x2A5 JUMP JUMPDEST DUP2 ADD DUP2 DUP2 LT PUSH8 0xFFFFFFFFFFFFFFFF DUP3 GT OR ISZERO PUSH3 0x312 JUMPI PUSH3 0x311 PUSH3 0x2B6 JUMP JUMPDEST JUMPDEST DUP1 PUSH1 0x40 MSTORE POP POP POP JUMP JUMPDEST PUSH1 0x0 PUSH3 0x327 PUSH3 0x1DD JUMP JUMPDEST SWAP1 POP PUSH3 0x335 DUP3 DUP3 PUSH3 0x2E5 JUMP JUMPDEST SWAP2 SWAP1 POP JUMP JUMPDEST PUSH1 0x0 PUSH8 0xFFFFFFFFFFFFFFFF DUP3 GT ISZERO PUSH3 0x358 JUMPI PUSH3 0x357 PUSH3 0x2B6 JUMP JUMPDEST JUMPDEST PUSH3 0x363 DUP3 PUSH3 0x2A5 JUMP JUMPDEST SWAP1 POP PUSH1 0x20 DUP2 ADD SWAP1 POP SWAP2 SWAP1 POP JUMP JUMPDEST PUSH1 0x0 JUMPDEST DUP4 DUP2 LT ISZERO PUSH3 0x390 JUMPI DUP1 DUP3 ADD MLOAD DUP2 DUP5 ADD MSTORE PUSH1 0x20 DUP2 ADD SWAP1 POP PUSH3 0x373 JUMP JUMPDEST PUSH1 0x0 DUP5 DUP5 ADD MSTORE POP POP POP POP JUMP JUMPDEST PUSH1 0x0 PUSH3 0x3B3 PUSH3 0x3AD DUP5 PUSH3 0x33A JUMP JUMPDEST PUSH3 0x31B JUMP JUMPDEST SWAP1 POP DUP3 DUP2 MSTORE PUSH1 0x20 DUP2 ADD DUP5 DUP5 DUP5 ADD GT ISZERO PUSH3 0x3D2 JUMPI PUSH3 0x3D1 PUSH3 0x2A0 JUMP JUMPDEST JUMPDEST PUSH3 0x3DF DUP5 DUP3 DUP6 PUSH3 0x370 JUMP JUMPDEST POP SWAP4 SWAP3 POP POP POP JUMP JUMPDEST PUSH1 0x0 DUP3 PUSH1 0x1F DUP4 ADD SLT PUSH3 0x3FF JUMPI PUSH3 0x3FE PUSH3 0x29B JUMP JUMPDEST JUMPDEST DUP2 MLOAD PUSH3 0x411 DUP5 DUP3 PUSH1 0x20 DUP7 ADD PUSH3 0x39C JUMP JUMPDEST SWAP2 POP POP SWAP3 SWAP2 POP POP JUMP JUMPDEST PUSH1 0x0 DUP1 PUSH1 0x0 DUP1 PUSH1 0x80 DUP6 DUP8 SUB SLT ISZERO PUSH3 0x437 JUMPI PUSH3 0x436 PUSH3 0x1E7 JUMP JUMPDEST JUMPDEST PUSH1 0x0 PUSH3 0x447 DUP8 DUP3 DUP9 ADD PUSH3 0x23F JUMP JUMPDEST SWAP5 POP POP PUSH1 0x20 PUSH3 0x45A DUP8 DUP3 DUP9 ADD PUSH3 0x284 JUMP JUMPDEST SWAP4 POP POP PUSH1 0x40 PUSH3 0x46D DUP8 DUP3 DUP9 ADD PUSH3 0x284 JUMP JUMPDEST SWAP3 POP POP PUSH1 0x60 DUP6 ADD MLOAD PUSH8 0xFFFFFFFFFFFFFFFF DUP2 GT ISZERO PUSH3 0x491 JUMPI PUSH3 0x490 PUSH3 0x1EC JUMP JUMPDEST JUMPDEST PUSH3 0x49F DUP8 DUP3 DUP9 ADD PUSH3 0x3E7 JUMP JUMPDEST SWAP2 POP POP SWAP3 SWAP6 SWAP2 SWAP5 POP SWAP3 POP JUMP JUMPDEST PUSH3 0x4B6 DUP2 PUSH3 0x211 JUMP JUMPDEST DUP3 MSTORE POP POP JUMP JUMPDEST PUSH1 0x0 PUSH1 0x20 DUP3 ADD SWAP1 POP PUSH3 0x4D3 PUSH1 0x0 DUP4 ADD DUP5 PUSH3 0x4AB JUMP JUMPDEST SWAP3 SWAP2 POP POP JUMP JUMPDEST PUSH1 0x0 DUP2 MLOAD SWAP1 POP SWAP2 SWAP1 POP JUMP JUMPDEST PUSH32 0x4E487B7100000000000000000000000000000000000000000000000000000000 PUSH1 0x0 MSTORE PUSH1 0x22 PUSH1 0x4 MSTORE PUSH1 0x24 PUSH1 0x0 REVERT JUMPDEST PUSH1 0x0 PUSH1 0x2 DUP3 DIV SWAP1 POP PUSH1 0x1 DUP3 AND DUP1 PUSH3 0x52C JUMPI PUSH1 0x7F DUP3 AND SWAP2 POP JUMPDEST PUSH1 0x20 DUP3 LT DUP2 SUB PUSH3 0x542 JUMPI PUSH3 0x541 PUSH3 0x4E4 JUMP JUMPDEST JUMPDEST POP SWAP2 SWAP1 POP JUMP JUMPDEST PUSH1 0x0 DUP2 SWAP1 POP DUP2 PUSH1 0x0 MSTORE PUSH1 0x20 PUSH1 0x0 KECCAK256 SWAP1 POP SWAP2 SWAP1 POP JUMP JUMPDEST PUSH1 0x0 PUSH1 0x20 PUSH1 0x1F DUP4 ADD DIV SWAP1 POP SWAP2 SWAP1 POP JUMP JUMPDEST PUSH1 0x0 DUP3 DUP3 SHL SWAP1 POP SWAP3 SWAP2 POP POP JUMP JUMPDEST PUSH1 0x0 PUSH1 0x8 DUP4 MUL PUSH3 0x5AC PUSH32 0xFFFFFFFFFFFFFFFFFFFFFFFFFFFFFFFFFFFFFFFFFFFFFFFFFFFFFFFFFFFFFFFF DUP3 PUSH3 0x56D JUMP JUMPDEST PUSH3 0x5B8 DUP7 DUP4 PUSH3 0x56D JUMP JUMPDEST SWAP6 POP DUP1 NOT DUP5 AND SWAP4 POP DUP1 DUP7 AND DUP5 OR SWAP3 POP POP POP SWAP4 SWAP3 POP POP POP JUMP JUMPDEST PUSH1 0x0 DUP2 SWAP1 POP SWAP2 SWAP1 POP JUMP JUMPDEST PUSH1 0x0 DUP2 SWAP1 POP SWAP2 SWAP1 POP JUMP JUMPDEST PUSH1 0x0 PUSH3 0x605 PUSH3 0x5FF PUSH3 0x5F9 DUP5 PUSH3 0x5D0 JUMP JUMPDEST PUSH3 0x5DA JUMP JUMPDEST PUSH3 0x5D0 JUMP JUMPDEST SWAP1 POP SWAP2 SWAP1 POP JUMP JUMPDEST PUSH1 0x0 DUP2 SWAP1 POP SWAP2 SWAP1 POP JUMP JUMPDEST PUSH3 0x621 DUP4 PUSH3 0x5E4 JUMP JUMPDEST PUSH3 0x639 PUSH3 0x630 DUP3 PUSH3 0x60C JUMP JUMPDEST DUP5 DUP5 SLOAD PUSH3 0x57A JUMP JUMPDEST DUP3 SSTORE POP POP POP POP JUMP JUMPDEST PUSH1 0x0 SWAP1 JUMP JUMPDEST PUSH3 0x650 PUSH3 0x641 JUMP JUMPDEST PUSH3 0x65D DUP2 DUP5 DUP5 PUSH3 0x616 JUMP JUMPDEST POP POP POP JUMP JUMPDEST JUMPDEST DUP2 DUP2 LT ISZERO PUSH3 0x685 JUMPI PUSH3 0x679 PUSH1 0x0 DUP3 PUSH3 0x646 JUMP JUMPDEST PUSH1 0x1 DUP2 ADD SWAP1 POP PUSH3 0x663 JUMP JUMPDEST POP POP JUMP JUMPDEST PUSH1 0x1F DUP3 GT ISZERO PUSH3 0x6D4 JUMPI PUSH3 0x69E DUP2 PUSH3 0x548 JUMP JUMPDEST PUSH3 0x6A9 DUP5 PUSH3 0x55D JUMP JUMPDEST DUP2 ADD PUSH1 0x20 DUP6 LT ISZERO PUSH3 0x6B9 JUMPI DUP2 SWAP1 POP JUMPDEST PUSH3 0x6D1 PUSH3 0x6C8 DUP6 PUSH3 0x55D JUMP JUMPDEST DUP4 ADD DUP3 PUSH3 0x662 JUMP JUMPDEST POP POP JUMPDEST POP POP POP JUMP JUMPDEST PUSH1 0x0 DUP3 DUP3 SHR SWAP1 POP SWAP3 SWAP2 POP POP JUMP JUMPDEST PUSH1 0x0 PUSH3 0x6F9 PUSH1 0x0 NOT DUP5 PUSH1 0x8 MUL PUSH3 0x6D9 JUMP JUMPDEST NOT DUP1 DUP4 AND SWAP2 POP POP SWAP3 SWAP2 POP POP JUMP JUMPDEST PUSH1 0x0 PUSH3 0x714 DUP4 DUP4 PUSH3 0x6E6 JUMP JUMPDEST SWAP2 POP DUP3 PUSH1 0x2 MUL DUP3 OR SWAP1 POP SWAP3 SWAP2 POP POP JUMP JUMPDEST PUSH3 0x72F DUP3 PUSH3 0x4D9 JUMP JUMPDEST PUSH8 0xFFFFFFFFFFFFFFFF DUP2 GT ISZERO PUSH3 0x74B JUMPI PUSH3 0x74A PUSH3 0x2B6 JUMP JUMPDEST JUMPDEST PUSH3 0x757 DUP3 SLOAD PUSH3 0x513 JUMP JUMPDEST PUSH3 0x764 DUP3 DUP3 DUP6 PUSH3 0x689 JUMP JUMPDEST PUSH1 0x0 PUSH1 0x20 SWAP1 POP PUSH1 0x1F DUP4 GT PUSH1 0x1 DUP2 EQ PUSH3 0x79C JUMPI PUSH1 0x0 DUP5 ISZERO PUSH3 0x787 JUMPI DUP3 DUP8 ADD MLOAD SWAP1 POP JUMPDEST PUSH3 0x793 DUP6 DUP3 PUSH3 0x706 JUMP JUMPDEST DUP7 SSTORE POP PUSH3 0x803 JUMP JUMPDEST PUSH1 0x1F NOT DUP5 AND PUSH3 0x7AC DUP7 PUSH3 0x548 JUMP JUMPDEST PUSH1 0x0 JUMPDEST DUP3 DUP2 LT ISZERO PUSH3 0x7D6 JUMPI DUP5 DUP10 ADD MLOAD DUP3 SSTORE PUSH1 0x1 DUP3 ADD SWAP2 POP PUSH1 0x20 DUP6 ADD SWAP5 POP PUSH1 0x20 DUP2 ADD SWAP1 POP PUSH3 0x7AF JUMP JUMPDEST DUP7 DUP4 LT ISZERO PUSH3 0x7F6 JUMPI DUP5 DUP10 ADD MLOAD PUSH3 0x7F2 PUSH1 0x1F DUP10 AND DUP3 PUSH3 0x6E6 JUMP JUMPDEST DUP4 SSTORE POP JUMPDEST PUSH1 0x1 PUSH1 0x2 DUP9 MUL ADD DUP9 SSTORE POP POP POP JUMPDEST POP POP POP POP POP POP JUMP JUMPDEST PUSH1 0x80 MLOAD PUSH1 0xA0 MLOAD PUSH2 0x2994 PUSH3 0x831 PUSH1 0x0 CODECOPY PUSH1 0x0 PUSH2 0x4BE ADD MSTORE PUSH1 0x0 PUSH2 0xA05 ADD MSTORE PUSH2 0x2994 PUSH1 0x0 RETURN INVALID PUSH1 0x80 PUSH1 0x40 MSTORE PUSH1 0x4 CALLDATASIZE LT PUSH2 0x118 JUMPI PUSH1 0x0 CALLDATALOAD PUSH1 0xE0 SHR DUP1 PUSH4 0x86D1A69F GT PUSH2 0xA0 JUMPI DUP1 PUSH4 0xAD34EC2A GT PUSH2 0x64 JUMPI DUP1 PUSH4 0xAD34EC2A EQ PUSH2 0x3AE JUMPI DUP1 PUSH4 0xBE9A6555 EQ PUSH2 0x3EB JUMPI DUP1 PUSH4 0xEFBE1C1C EQ PUSH2 0x416 JUMPI DUP1 PUSH4 0xF2FDE38B EQ PUSH2 0x441 JUMPI DUP1 PUSH4 0xFBCCEDAE EQ PUSH2 0x46A JUMPI PUSH2 0x11F JUMP JUMPDEST DUP1 PUSH4 0x86D1A69F EQ PUSH2 0x2C7 JUMPI DUP1 PUSH4 0x8DA5CB5B EQ PUSH2 0x2DE JUMPI DUP1 PUSH4 0x96132521 EQ PUSH2 0x309 JUMPI DUP1 PUSH4 0x9852595C EQ PUSH2 0x334 JUMPI DUP1 PUSH4 0xA3F8EACE EQ PUSH2 0x371 JUMPI PUSH2 0x11F JUMP JUMPDEST DUP1 PUSH4 0x47FC5543 GT PUSH2 0xE7 JUMPI DUP1 PUSH4 0x47FC5543 EQ PUSH2 0x1E0 JUMPI DUP1 PUSH4 0x681F3E6D EQ PUSH2 0x21D JUMPI DUP1 PUSH4 0x715018A6 EQ PUSH2 0x248 JUMPI DUP1 PUSH4 0x775F75DF EQ PUSH2 0x25F JUMPI DUP1 PUSH4 0x810EC23B EQ PUSH2 0x28A JUMPI PUSH2 0x11F JUMP JUMPDEST DUP1 PUSH4 0xA17B06B EQ PUSH2 0x124 JUMPI DUP1 PUSH4 0xFB5A6B4 EQ PUSH2 0x161 JUMPI DUP1 PUSH4 0x19165587 EQ PUSH2 0x18C JUMPI DUP1 PUSH4 0x3C9177CD EQ PUSH2 0x1B5 JUMPI PUSH2 0x11F JUMP JUMPDEST CALLDATASIZE PUSH2 0x11F JUMPI STOP JUMPDEST PUSH1 0x0 DUP1 REVERT JUMPDEST CALLVALUE DUP1 ISZERO PUSH2 0x130 JUMPI PUSH1 0x0 DUP1 REVERT JUMPDEST POP PUSH2 0x14B PUSH1 0x4 DUP1 CALLDATASIZE SUB DUP2 ADD SWAP1 PUSH2 0x146 SWAP2 SWAP1 PUSH2 0x1B08 JUMP JUMPDEST PUSH2 0x495 JUMP JUMPDEST PUSH1 0x40 MLOAD PUSH2 0x158 SWAP2 SWAP1 PUSH2 0x1B4E JUMP JUMPDEST PUSH1 0x40 MLOAD DUP1 SWAP2 SUB SWAP1 RETURN JUMPDEST CALLVALUE DUP1 ISZERO PUSH2 0x16D JUMPI PUSH1 0x0 DUP1 REVERT JUMPDEST POP PUSH2 0x176 PUSH2 0x4BA JUMP JUMPDEST PUSH1 0x40 MLOAD PUSH2 0x183 SWAP2 SWAP1 PUSH2 0x1B4E JUMP JUMPDEST PUSH1 0x40 MLOAD DUP1 SWAP2 SUB SWAP1 RETURN JUMPDEST CALLVALUE DUP1 ISZERO PUSH2 0x198 JUMPI PUSH1 0x0 DUP1 REVERT JUMPDEST POP PUSH2 0x1B3 PUSH1 0x4 DUP1 CALLDATASIZE SUB DUP2 ADD SWAP1 PUSH2 0x1AE SWAP2 SWAP1 PUSH2 0x1BC7 JUMP JUMPDEST PUSH2 0x4EC JUMP JUMPDEST STOP JUMPDEST CALLVALUE DUP1 ISZERO PUSH2 0x1C1 JUMPI PUSH1 0x0 DUP1 REVERT JUMPDEST POP PUSH2 0x1CA PUSH2 0x5B3 JUMP JUMPDEST PUSH1 0x40 MLOAD PUSH2 0x1D7 SWAP2 SWAP1 PUSH2 0x1C84 JUMP JUMPDEST PUSH1 0x40 MLOAD DUP1 SWAP2 SUB SWAP1 RETURN JUMPDEST CALLVALUE DUP1 ISZERO PUSH2 0x1EC JUMPI PUSH1 0x0 DUP1 REVERT JUMPDEST POP PUSH2 0x207 PUSH1 0x4 DUP1 CALLDATASIZE SUB DUP2 ADD SWAP1 PUSH2 0x202 SWAP2 SWAP1 PUSH2 0x1DDB JUMP JUMPDEST PUSH2 0x655 JUMP JUMPDEST PUSH1 0x40 MLOAD PUSH2 0x214 SWAP2 SWAP1 PUSH2 0x1C84 JUMP JUMPDEST PUSH1 0x40 MLOAD DUP1 SWAP2 SUB SWAP1 RETURN JUMPDEST CALLVALUE DUP1 ISZERO PUSH2 0x229 JUMPI PUSH1 0x0 DUP1 REVERT JUMPDEST POP PUSH2 0x232 PUSH2 0x6E8 JUMP JUMPDEST PUSH1 0x40 MLOAD PUSH2 0x23F SWAP2 SWAP1 PUSH2 0x1C84 JUMP JUMPDEST PUSH1 0x40 MLOAD DUP1 SWAP2 SUB SWAP1 RETURN JUMPDEST CALLVALUE DUP1 ISZERO PUSH2 0x254 JUMPI PUSH1 0x0 DUP1 REVERT JUMPDEST POP PUSH2 0x25D PUSH2 0x77A JUMP JUMPDEST STOP JUMPDEST CALLVALUE DUP1 ISZERO PUSH2 0x26B JUMPI PUSH1 0x0 DUP1 REVERT JUMPDEST POP PUSH2 0x274 PUSH2 0x78E JUMP JUMPDEST PUSH1 0x40 MLOAD PUSH2 0x281 SWAP2 SWAP1 PUSH2 0x1C84 JUMP JUMPDEST PUSH1 0x40 MLOAD DUP1 SWAP2 SUB SWAP1 RETURN JUMPDEST CALLVALUE DUP1 ISZERO PUSH2 0x296 JUMPI PUSH1 0x0 DUP1 REVERT JUMPDEST POP PUSH2 0x2B1 PUSH1 0x4 DUP1 CALLDATASIZE SUB DUP2 ADD SWAP1 PUSH2 0x2AC SWAP2 SWAP1 PUSH2 0x1E37 JUMP JUMPDEST PUSH2 0x830 JUMP JUMPDEST PUSH1 0x40 MLOAD PUSH2 0x2BE SWAP2 SWAP1 PUSH2 0x1B4E JUMP JUMPDEST PUSH1 0x40 MLOAD DUP1 SWAP2 SUB SWAP1 RETURN JUMPDEST CALLVALUE DUP1 ISZERO PUSH2 0x2D3 JUMPI PUSH1 0x0 DUP1 REVERT JUMPDEST POP PUSH2 0x2DC PUSH2 0x8D0 JUMP JUMPDEST STOP JUMPDEST CALLVALUE DUP1 ISZERO PUSH2 0x2EA JUMPI PUSH1 0x0 DUP1 REVERT JUMPDEST POP PUSH2 0x2F3 PUSH2 0x940 JUMP JUMPDEST PUSH1 0x40 MLOAD PUSH2 0x300 SWAP2 SWAP1 PUSH2 0x1E86 JUMP JUMPDEST PUSH1 0x40 MLOAD DUP1 SWAP2 SUB SWAP1 RETURN JUMPDEST CALLVALUE DUP1 ISZERO PUSH2 0x315 JUMPI PUSH1 0x0 DUP1 REVERT JUMPDEST POP PUSH2 0x31E PUSH2 0x969 JUMP JUMPDEST PUSH1 0x40 MLOAD PUSH2 0x32B SWAP2 SWAP1 PUSH2 0x1B4E JUMP JUMPDEST PUSH1 0x40 MLOAD DUP1 SWAP2 SUB SWAP1 RETURN JUMPDEST CALLVALUE DUP1 ISZERO PUSH2 0x340 JUMPI PUSH1 0x0 DUP1 REVERT JUMPDEST POP PUSH2 0x35B PUSH1 0x4 DUP1 CALLDATASIZE SUB DUP2 ADD SWAP1 PUSH2 0x356 SWAP2 SWAP1 PUSH2 0x1BC7 JUMP JUMPDEST PUSH2 0x973 JUMP JUMPDEST PUSH1 0x40 MLOAD PUSH2 0x368 SWAP2 SWAP1 PUSH2 0x1B4E JUMP JUMPDEST PUSH1 0x40 MLOAD DUP1 SWAP2 SUB SWAP1 RETURN JUMPDEST CALLVALUE DUP1 ISZERO PUSH2 0x37D JUMPI PUSH1 0x0 DUP1 REVERT JUMPDEST POP PUSH2 0x398 PUSH1 0x4 DUP1 CALLDATASIZE SUB DUP2 ADD SWAP1 PUSH2 0x393 SWAP2 SWAP1 PUSH2 0x1BC7 JUMP JUMPDEST PUSH2 0x9BC JUMP JUMPDEST PUSH1 0x40 MLOAD PUSH2 0x3A5 SWAP2 SWAP1 PUSH2 0x1B4E JUMP JUMPDEST PUSH1 0x40 MLOAD DUP1 SWAP2 SUB SWAP1 RETURN JUMPDEST CALLVALUE DUP1 ISZERO PUSH2 0x3BA JUMPI PUSH1 0x0 DUP1 REVERT JUMPDEST POP PUSH2 0x3D5 PUSH1 0x4 DUP1 CALLDATASIZE SUB DUP2 ADD SWAP1 PUSH2 0x3D0 SWAP2 SWAP1 PUSH2 0x1EA1 JUMP JUMPDEST PUSH2 0x9E2 JUMP JUMPDEST PUSH1 0x40 MLOAD PUSH2 0x3E2 SWAP2 SWAP1 PUSH2 0x1EF9 JUMP JUMPDEST PUSH1 0x40 MLOAD DUP1 SWAP2 SUB SWAP1 RETURN JUMPDEST CALLVALUE DUP1 ISZERO PUSH2 0x3F7 JUMPI PUSH1 0x0 DUP1 REVERT JUMPDEST POP PUSH2 0x400 PUSH2 0xA01 JUMP JUMPDEST PUSH1 0x40 MLOAD PUSH2 0x40D SWAP2 SWAP1 PUSH2 0x1B4E JUMP JUMPDEST PUSH1 0x40 MLOAD DUP1 SWAP2 SUB SWAP1 RETURN JUMPDEST CALLVALUE DUP1 ISZERO PUSH2 0x422 JUMPI PUSH1 0x0 DUP1 REVERT JUMPDEST POP PUSH2 0x42B PUSH2 0xA33 JUMP JUMPDEST PUSH1 0x40 MLOAD PUSH2 0x438 SWAP2 SWAP1 PUSH2 0x1B4E JUMP JUMPDEST PUSH1 0x40 MLOAD DUP1 SWAP2 SUB SWAP1 RETURN JUMPDEST CALLVALUE DUP1 ISZERO PUSH2 0x44D JUMPI PUSH1 0x0 DUP1 REVERT JUMPDEST POP PUSH2 0x468 PUSH1 0x4 DUP1 CALLDATASIZE SUB DUP2 ADD SWAP1 PUSH2 0x463 SWAP2 SWAP1 PUSH2 0x1BC7 JUMP JUMPDEST PUSH2 0xA54 JUMP JUMPDEST STOP JUMPDEST CALLVALUE DUP1 ISZERO PUSH2 0x476 JUMPI PUSH1 0x0 DUP1 REVERT JUMPDEST POP PUSH2 0x47F PUSH2 0xADA JUMP JUMPDEST PUSH1 0x40 MLOAD PUSH2 0x48C SWAP2 SWAP1 PUSH2 0x1B4E JUMP JUMPDEST PUSH1 0x40 MLOAD DUP1 SWAP2 SUB SWAP1 RETURN JUMPDEST PUSH1 0x0 PUSH2 0x4B3 PUSH2 0x4A2 PUSH2 0x969 JUMP JUMPDEST SELFBALANCE PUSH2 0x4AD SWAP2 SWAP1 PUSH2 0x1F43 JUMP JUMPDEST DUP4 PUSH2 0xAFC JUMP JUMPDEST SWAP1 POP SWAP2 SWAP1 POP JUMP JUMPDEST PUSH1 0x0 PUSH32 0x0 PUSH8 0xFFFFFFFFFFFFFFFF AND SWAP1 POP SWAP1 JUMP JUMPDEST PUSH1 0x0 PUSH2 0x4F7 DUP3 PUSH2 0x9BC JUMP JUMPDEST SWAP1 POP DUP1 PUSH1 0x2 PUSH1 0x0 DUP5 PUSH20 0xFFFFFFFFFFFFFFFFFFFFFFFFFFFFFFFFFFFFFFFF AND PUSH20 0xFFFFFFFFFFFFFFFFFFFFFFFFFFFFFFFFFFFFFFFF AND DUP2 MSTORE PUSH1 0x20 ADD SWAP1 DUP2 MSTORE PUSH1 0x20 ADD PUSH1 0x0 KECCAK256 PUSH1 0x0 DUP3 DUP3 SLOAD PUSH2 0x548 SWAP2 SWAP1 PUSH2 0x1F43 JUMP JUMPDEST SWAP3 POP POP DUP2 SWAP1 SSTORE POP DUP2 PUSH20 0xFFFFFFFFFFFFFFFFFFFFFFFFFFFFFFFFFFFFFFFF AND PUSH32 0xC0E523490DD523C33B1878C9EB14FF46991E3F5B2CD33710918618F2A39CBA1B DUP3 PUSH1 0x40 MLOAD PUSH2 0x595 SWAP2 SWAP1 PUSH2 0x1B4E JUMP JUMPDEST PUSH1 0x40 MLOAD DUP1 SWAP2 SUB SWAP1 LOG2 PUSH2 0x5AF DUP3 PUSH2 0x5A9 PUSH2 0x940 JUMP JUMPDEST DUP4 PUSH2 0xB83 JUMP JUMPDEST POP POP JUMP JUMPDEST PUSH1 0x60 PUSH1 0x0 PUSH2 0x5BF PUSH2 0xA33 JUMP JUMPDEST SWAP1 POP PUSH1 0x0 PUSH2 0x5CE DUP3 PUSH1 0x8 PUSH2 0xC02 JUMP JUMPDEST SWAP1 POP PUSH1 0x0 DUP1 PUSH1 0x0 DUP1 PUSH1 0x0 DUP1 PUSH2 0x5E2 DUP8 PUSH2 0xC32 JUMP JUMPDEST SWAP6 POP SWAP6 POP SWAP6 POP SWAP6 POP SWAP6 POP SWAP6 POP PUSH2 0x5F7 DUP7 PUSH2 0xCB9 JUMP JUMPDEST PUSH2 0x600 DUP7 PUSH2 0xE18 JUMP JUMPDEST PUSH2 0x609 DUP7 PUSH2 0xE18 JUMP JUMPDEST PUSH2 0x612 DUP7 PUSH2 0xE18 JUMP JUMPDEST PUSH2 0x61B DUP7 PUSH2 0xE18 JUMP JUMPDEST PUSH2 0x624 DUP7 PUSH2 0xE18 JUMP JUMPDEST PUSH1 0x40 MLOAD PUSH1 0x20 ADD PUSH2 0x639 SWAP7 SWAP6 SWAP5 SWAP4 SWAP3 SWAP2 SWAP1 PUSH2 0x2025 JUMP JUMPDEST PUSH1 0x40 MLOAD PUSH1 0x20 DUP2 DUP4 SUB SUB DUP2 MSTORE SWAP1 PUSH1 0x40 MSTORE SWAP9 POP POP POP POP POP POP POP POP POP SWAP1 JUMP JUMPDEST PUSH1 0x60 PUSH1 0x0 PUSH2 0x662 DUP4 PUSH2 0xE63 JUMP JUMPDEST SWAP1 POP PUSH1 0x0 PUSH2 0x678 DUP6 PUSH2 0x673 DUP5 PUSH2 0x1414 JUMP JUMPDEST PUSH2 0x830 JUMP JUMPDEST SWAP1 POP PUSH1 0x0 PUSH8 0xDE0B6B3A7640000 DUP3 PUSH2 0x690 SWAP2 SWAP1 PUSH2 0x20F7 JUMP JUMPDEST SWAP1 POP PUSH1 0x0 PUSH8 0xDE0B6B3A7640000 DUP4 PUSH2 0x6A8 SWAP2 SWAP1 PUSH2 0x2128 JUMP JUMPDEST SWAP1 POP PUSH2 0x6B3 DUP3 PUSH2 0xCB9 JUMP JUMPDEST PUSH2 0x6BC DUP3 PUSH2 0xCB9 JUMP JUMPDEST PUSH1 0x40 MLOAD PUSH1 0x20 ADD PUSH2 0x6CD SWAP3 SWAP2 SWAP1 PUSH2 0x217F JUMP JUMPDEST PUSH1 0x40 MLOAD PUSH1 0x20 DUP2 DUP4 SUB SUB DUP2 MSTORE SWAP1 PUSH1 0x40 MSTORE SWAP5 POP POP POP POP POP SWAP3 SWAP2 POP POP JUMP JUMPDEST PUSH1 0x60 PUSH1 0x3 DUP1 SLOAD PUSH2 0x6F7 SWAP1 PUSH2 0x21E1 JUMP JUMPDEST DUP1 PUSH1 0x1F ADD PUSH1 0x20 DUP1 SWAP2 DIV MUL PUSH1 0x20 ADD PUSH1 0x40 MLOAD SWAP1 DUP2 ADD PUSH1 0x40 MSTORE DUP1 SWAP3 SWAP2 SWAP1 DUP2 DUP2 MSTORE PUSH1 0x20 ADD DUP3 DUP1 SLOAD PUSH2 0x723 SWAP1 PUSH2 0x21E1 JUMP JUMPDEST DUP1 ISZERO PUSH2 0x770 JUMPI DUP1 PUSH1 0x1F LT PUSH2 0x745 JUMPI PUSH2 0x100 DUP1 DUP4 SLOAD DIV MUL DUP4 MSTORE SWAP2 PUSH1 0x20 ADD SWAP2 PUSH2 0x770 JUMP JUMPDEST DUP3 ADD SWAP2 SWAP1 PUSH1 0x0 MSTORE PUSH1 0x20 PUSH1 0x0 KECCAK256 SWAP1 JUMPDEST DUP2 SLOAD DUP2 MSTORE SWAP1 PUSH1 0x1 ADD SWAP1 PUSH1 0x20 ADD DUP1 DUP4 GT PUSH2 0x753 JUMPI DUP3 SWAP1 SUB PUSH1 0x1F AND DUP3 ADD SWAP2 JUMPDEST POP POP POP POP POP SWAP1 POP SWAP1 JUMP JUMPDEST PUSH2 0x782 PUSH2 0x146B JUMP JUMPDEST PUSH2 0x78C PUSH1 0x0 PUSH2 0x14F2 JUMP JUMPDEST JUMP JUMPDEST PUSH1 0x60 PUSH1 0x0 PUSH2 0x79A PUSH2 0xA01 JUMP JUMPDEST SWAP1 POP PUSH1 0x0 PUSH2 0x7A9 DUP3 PUSH1 0x8 PUSH2 0xC02 JUMP JUMPDEST SWAP1 POP PUSH1 0x0 DUP1 PUSH1 0x0 DUP1 PUSH1 0x0 DUP1 PUSH2 0x7BD DUP8 PUSH2 0xC32 JUMP JUMPDEST SWAP6 POP SWAP6 POP SWAP6 POP SWAP6 POP SWAP6 POP SWAP6 POP PUSH2 0x7D2 DUP7 PUSH2 0xCB9 JUMP JUMPDEST PUSH2 0x7DB DUP7 PUSH2 0xE18 JUMP JUMPDEST PUSH2 0x7E4 DUP7 PUSH2 0xE18 JUMP JUMPDEST PUSH2 0x7ED DUP7 PUSH2 0xE18 JUMP JUMPDEST PUSH2 0x7F6 DUP7 PUSH2 0xE18 JUMP JUMPDEST PUSH2 0x7FF DUP7 PUSH2 0xE18 JUMP JUMPDEST PUSH1 0x40 MLOAD PUSH1 0x20 ADD PUSH2 0x814 SWAP7 SWAP6 SWAP5 SWAP4 SWAP3 SWAP2 SWAP1 PUSH2 0x2025 JUMP JUMPDEST PUSH1 0x40 MLOAD PUSH1 0x20 DUP2 DUP4 SUB SUB DUP2 MSTORE SWAP1 PUSH1 0x40 MSTORE SWAP9 POP POP POP POP POP POP POP POP POP SWAP1 JUMP JUMPDEST PUSH1 0x0 PUSH2 0x8C8 PUSH2 0x83E DUP5 PUSH2 0x973 JUMP JUMPDEST DUP5 PUSH20 0xFFFFFFFFFFFFFFFFFFFFFFFFFFFFFFFFFFFFFFFF AND PUSH4 0x70A08231 ADDRESS PUSH1 0x40 MLOAD DUP3 PUSH4 0xFFFFFFFF AND PUSH1 0xE0 SHL DUP2 MSTORE PUSH1 0x4 ADD PUSH2 0x877 SWAP2 SWAP1 PUSH2 0x1E86 JUMP JUMPDEST PUSH1 0x20 PUSH1 0x40 MLOAD DUP1 DUP4 SUB DUP2 DUP7 GAS STATICCALL ISZERO DUP1 ISZERO PUSH2 0x894 JUMPI RETURNDATASIZE PUSH1 0x0 DUP1 RETURNDATACOPY RETURNDATASIZE PUSH1 0x0 REVERT JUMPDEST POP POP POP POP PUSH1 0x40 MLOAD RETURNDATASIZE PUSH1 0x1F NOT PUSH1 0x1F DUP3 ADD AND DUP3 ADD DUP1 PUSH1 0x40 MSTORE POP DUP2 ADD SWAP1 PUSH2 0x8B8 SWAP2 SWAP1 PUSH2 0x223E JUMP JUMPDEST PUSH2 0x8C2 SWAP2 SWAP1 PUSH2 0x1F43 JUMP JUMPDEST DUP4 PUSH2 0xAFC JUMP JUMPDEST SWAP1 POP SWAP3 SWAP2 POP POP JUMP JUMPDEST PUSH1 0x0 PUSH2 0x8DA PUSH2 0xADA JUMP JUMPDEST SWAP1 POP DUP1 PUSH1 0x1 PUSH1 0x0 DUP3 DUP3 SLOAD PUSH2 0x8EE SWAP2 SWAP1 PUSH2 0x1F43 JUMP JUMPDEST SWAP3 POP POP DUP2 SWAP1 SSTORE POP PUSH32 0xDA9D4E5F101B8B9B1C5B76D0C5A9F7923571ACFC02376AA076B75A8C080C956B DUP2 PUSH1 0x40 MLOAD PUSH2 0x924 SWAP2 SWAP1 PUSH2 0x1B4E JUMP JUMPDEST PUSH1 0x40 MLOAD DUP1 SWAP2 SUB SWAP1 LOG1 PUSH2 0x93D PUSH2 0x937 PUSH2 0x940 JUMP JUMPDEST DUP3 PUSH2 0x15B6 JUMP JUMPDEST POP JUMP JUMPDEST PUSH1 0x0 DUP1 PUSH1 0x0 SWAP1 SLOAD SWAP1 PUSH2 0x100 EXP SWAP1 DIV PUSH20 0xFFFFFFFFFFFFFFFFFFFFFFFFFFFFFFFFFFFFFFFF AND SWAP1 POP SWAP1 JUMP JUMPDEST PUSH1 0x0 PUSH1 0x1 SLOAD SWAP1 POP SWAP1 JUMP JUMPDEST PUSH1 0x0 PUSH1 0x2 PUSH1 0x0 DUP4 PUSH20 0xFFFFFFFFFFFFFFFFFFFFFFFFFFFFFFFFFFFFFFFF AND PUSH20 0xFFFFFFFFFFFFFFFFFFFFFFFFFFFFFFFFFFFFFFFF AND DUP2 MSTORE PUSH1 0x20 ADD SWAP1 DUP2 MSTORE PUSH1 0x20 ADD PUSH1 0x0 KECCAK256 SLOAD SWAP1 POP SWAP2 SWAP1 POP JUMP JUMPDEST PUSH1 0x0 PUSH2 0x9C7 DUP3 PUSH2 0x973 JUMP JUMPDEST PUSH2 0x9D1 DUP4 TIMESTAMP PUSH2 0x830 JUMP JUMPDEST PUSH2 0x9DB SWAP2 SWAP1 PUSH2 0x226B JUMP JUMPDEST SWAP1 POP SWAP2 SWAP1 POP JUMP JUMPDEST PUSH1 0x0 DUP1 PUSH2 0x9EE DUP4 PUSH2 0xE63 JUMP JUMPDEST SWAP1 POP PUSH2 0x9F9 DUP2 PUSH2 0x1414 JUMP JUMPDEST SWAP2 POP POP SWAP2 SWAP1 POP JUMP JUMPDEST PUSH1 0x0 PUSH32 0x0 PUSH8 0xFFFFFFFFFFFFFFFF AND SWAP1 POP SWAP1 JUMP JUMPDEST PUSH1 0x0 PUSH2 0xA3D PUSH2 0x4BA JUMP JUMPDEST PUSH2 0xA45 PUSH2 0xA01 JUMP JUMPDEST PUSH2 0xA4F SWAP2 SWAP1 PUSH2 0x1F43 JUMP JUMPDEST SWAP1 POP SWAP1 JUMP JUMPDEST PUSH2 0xA5C PUSH2 0x146B JUMP JUMPDEST PUSH1 0x0 PUSH20 0xFFFFFFFFFFFFFFFFFFFFFFFFFFFFFFFFFFFFFFFF AND DUP2 PUSH20 0xFFFFFFFFFFFFFFFFFFFFFFFFFFFFFFFFFFFFFFFF AND SUB PUSH2 0xACE JUMPI PUSH1 0x0 PUSH1 0x40 MLOAD PUSH32 0x1E4FBDF700000000000000000000000000000000000000000000000000000000 DUP2 MSTORE PUSH1 0x4 ADD PUSH2 0xAC5 SWAP2 SWAP1 PUSH2 0x1E86 JUMP JUMPDEST PUSH1 0x40 MLOAD DUP1 SWAP2 SUB SWAP1 REVERT JUMPDEST PUSH2 0xAD7 DUP2 PUSH2 0x14F2 JUMP JUMPDEST POP JUMP JUMPDEST PUSH1 0x0 PUSH2 0xAE4 PUSH2 0x969 JUMP JUMPDEST PUSH2 0xAED TIMESTAMP PUSH2 0x495 JUMP JUMPDEST PUSH2 0xAF7 SWAP2 SWAP1 PUSH2 0x226B JUMP JUMPDEST SWAP1 POP SWAP1 JUMP JUMPDEST PUSH1 0x0 PUSH2 0xB06 PUSH2 0xA01 JUMP JUMPDEST DUP3 PUSH8 0xFFFFFFFFFFFFFFFF AND LT ISZERO PUSH2 0xB20 JUMPI PUSH1 0x0 SWAP1 POP PUSH2 0xB7D JUMP JUMPDEST PUSH2 0xB28 PUSH2 0xA33 JUMP JUMPDEST DUP3 PUSH8 0xFFFFFFFFFFFFFFFF AND LT PUSH2 0xB40 JUMPI DUP3 SWAP1 POP PUSH2 0xB7D JUMP JUMPDEST PUSH2 0xB48 PUSH2 0x4BA JUMP JUMPDEST PUSH2 0xB50 PUSH2 0xA01 JUMP JUMPDEST DUP4 PUSH8 0xFFFFFFFFFFFFFFFF AND PUSH2 0xB65 SWAP2 SWAP1 PUSH2 0x226B JUMP JUMPDEST DUP5 PUSH2 0xB70 SWAP2 SWAP1 PUSH2 0x229F JUMP JUMPDEST PUSH2 0xB7A SWAP2 SWAP1 PUSH2 0x20F7 JUMP JUMPDEST SWAP1 POP JUMPDEST SWAP3 SWAP2 POP POP JUMP JUMPDEST PUSH2 0xBFD DUP4 DUP5 PUSH20 0xFFFFFFFFFFFFFFFFFFFFFFFFFFFFFFFFFFFFFFFF AND PUSH4 0xA9059CBB DUP6 DUP6 PUSH1 0x40 MLOAD PUSH1 0x24 ADD PUSH2 0xBB6 SWAP3 SWAP2 SWAP1 PUSH2 0x22E1 JUMP JUMPDEST PUSH1 0x40 MLOAD PUSH1 0x20 DUP2 DUP4 SUB SUB DUP2 MSTORE SWAP1 PUSH1 0x40 MSTORE SWAP2 POP PUSH1 0xE0 SHL PUSH1 0x20 DUP3 ADD DUP1 MLOAD PUSH28 0xFFFFFFFFFFFFFFFFFFFFFFFFFFFFFFFFFFFFFFFFFFFFFFFFFFFFFFFF DUP4 DUP2 DUP4 AND OR DUP4 MSTORE POP POP POP POP PUSH2 0x1680 JUMP JUMPDEST POP POP POP JUMP JUMPDEST PUSH1 0x0 PUSH2 0xE10 DUP3 PUSH2 0xC12 SWAP2 SWAP1 PUSH2 0x229F JUMP JUMPDEST DUP4 PUSH2 0xC1D SWAP2 SWAP1 PUSH2 0x1F43 JUMP JUMPDEST SWAP1 POP DUP3 DUP2 LT ISZERO PUSH2 0xC2C JUMPI PUSH1 0x0 DUP1 REVERT JUMPDEST SWAP3 SWAP2 POP POP JUMP JUMPDEST PUSH1 0x0 DUP1 PUSH1 0x0 DUP1 PUSH1 0x0 DUP1 PUSH2 0xC52 PUSH3 0x15180 DUP9 PUSH2 0xC4D SWAP2 SWAP1 PUSH2 0x20F7 JUMP JUMPDEST PUSH2 0x1722 JUMP JUMPDEST DUP1 SWAP7 POP DUP2 SWAP8 POP DUP3 SWAP9 POP POP POP POP PUSH1 0x0 PUSH3 0x15180 DUP9 PUSH2 0xC6F SWAP2 SWAP1 PUSH2 0x2128 JUMP JUMPDEST SWAP1 POP PUSH2 0xE10 DUP2 PUSH2 0xC7F SWAP2 SWAP1 PUSH2 0x20F7 JUMP JUMPDEST SWAP4 POP PUSH2 0xE10 DUP2 PUSH2 0xC8F SWAP2 SWAP1 PUSH2 0x2128 JUMP JUMPDEST SWAP1 POP PUSH1 0x3C DUP2 PUSH2 0xC9E SWAP2 SWAP1 PUSH2 0x20F7 JUMP JUMPDEST SWAP3 POP PUSH1 0x3C DUP2 PUSH2 0xCAD SWAP2 SWAP1 PUSH2 0x2128 JUMP JUMPDEST SWAP2 POP POP SWAP2 SWAP4 SWAP6 POP SWAP2 SWAP4 SWAP6 JUMP JUMPDEST PUSH1 0x60 PUSH1 0x0 DUP3 SUB PUSH2 0xD00 JUMPI PUSH1 0x40 MLOAD DUP1 PUSH1 0x40 ADD PUSH1 0x40 MSTORE DUP1 PUSH1 0x1 DUP2 MSTORE PUSH1 0x20 ADD PUSH32 0x3000000000000000000000000000000000000000000000000000000000000000 DUP2 MSTORE POP SWAP1 POP PUSH2 0xE13 JUMP JUMPDEST PUSH1 0x0 DUP3 SWAP1 POP PUSH1 0x0 JUMPDEST PUSH1 0x0 DUP3 EQ PUSH2 0xD32 JUMPI DUP1 DUP1 PUSH2 0xD1B SWAP1 PUSH2 0x230A JUMP JUMPDEST SWAP2 POP POP PUSH1 0xA DUP3 PUSH2 0xD2B SWAP2 SWAP1 PUSH2 0x20F7 JUMP JUMPDEST SWAP2 POP PUSH2 0xD08 JUMP JUMPDEST PUSH1 0x0 DUP2 PUSH8 0xFFFFFFFFFFFFFFFF DUP2 GT ISZERO PUSH2 0xD4E JUMPI PUSH2 0xD4D PUSH2 0x1CB0 JUMP JUMPDEST JUMPDEST PUSH1 0x40 MLOAD SWAP1 DUP1 DUP3 MSTORE DUP1 PUSH1 0x1F ADD PUSH1 0x1F NOT AND PUSH1 0x20 ADD DUP3 ADD PUSH1 0x40 MSTORE DUP1 ISZERO PUSH2 0xD80 JUMPI DUP2 PUSH1 0x20 ADD PUSH1 0x1 DUP3 MUL DUP1 CALLDATASIZE DUP4 CALLDATACOPY DUP1 DUP3 ADD SWAP2 POP POP SWAP1 POP JUMPDEST POP SWAP1 POP JUMPDEST PUSH1 0x0 DUP6 EQ PUSH2 0xE0C JUMPI DUP2 DUP1 PUSH2 0xD97 SWAP1 PUSH2 0x2352 JUMP JUMPDEST SWAP3 POP POP PUSH1 0xA DUP6 PUSH2 0xDA7 SWAP2 SWAP1 PUSH2 0x2128 JUMP JUMPDEST PUSH1 0x30 PUSH2 0xDB3 SWAP2 SWAP1 PUSH2 0x1F43 JUMP JUMPDEST PUSH1 0xF8 SHL DUP2 DUP4 DUP2 MLOAD DUP2 LT PUSH2 0xDC9 JUMPI PUSH2 0xDC8 PUSH2 0x237B JUMP JUMPDEST JUMPDEST PUSH1 0x20 ADD ADD SWAP1 PUSH31 0xFFFFFFFFFFFFFFFFFFFFFFFFFFFFFFFFFFFFFFFFFFFFFFFFFFFFFFFFFFFFFF NOT AND SWAP1 DUP2 PUSH1 0x0 BYTE SWAP1 MSTORE8 POP PUSH1 0xA DUP6 PUSH2 0xE05 SWAP2 SWAP1 PUSH2 0x20F7 JUMP JUMPDEST SWAP5 POP PUSH2 0xD84 JUMP JUMPDEST DUP1 SWAP4 POP POP POP POP JUMPDEST SWAP2 SWAP1 POP JUMP JUMPDEST PUSH1 0x60 PUSH1 0xA DUP3 LT ISZERO PUSH2 0xE52 JUMPI PUSH2 0xE2C DUP3 PUSH2 0xCB9 JUMP JUMPDEST PUSH1 0x40 MLOAD PUSH1 0x20 ADD PUSH2 0xE3C SWAP2 SWAP1 PUSH2 0x23D0 JUMP JUMPDEST PUSH1 0x40 MLOAD PUSH1 0x20 DUP2 DUP4 SUB SUB DUP2 MSTORE SWAP1 PUSH1 0x40 MSTORE SWAP1 POP PUSH2 0xE5E JUMP JUMPDEST PUSH2 0xE5B DUP3 PUSH2 0xCB9 JUMP JUMPDEST SWAP1 POP JUMPDEST SWAP2 SWAP1 POP JUMP JUMPDEST PUSH1 0x0 DUP1 DUP3 SWAP1 POP PUSH1 0xA DUP2 MLOAD EQ DUP1 PUSH2 0xE7A JUMPI POP PUSH1 0x13 DUP2 MLOAD EQ JUMPDEST PUSH2 0xEB9 JUMPI PUSH1 0x40 MLOAD PUSH32 0x8C379A000000000000000000000000000000000000000000000000000000000 DUP2 MSTORE PUSH1 0x4 ADD PUSH2 0xEB0 SWAP1 PUSH2 0x2468 JUMP JUMPDEST PUSH1 0x40 MLOAD DUP1 SWAP2 SUB SWAP1 REVERT JUMPDEST PUSH1 0x0 PUSH2 0xEC8 DUP3 PUSH1 0x0 PUSH1 0x4 PUSH2 0x18C1 JUMP JUMPDEST SWAP1 POP PUSH1 0x0 PUSH2 0xED9 DUP4 PUSH1 0x5 PUSH1 0x2 PUSH2 0x18C1 JUMP JUMPDEST SWAP1 POP PUSH1 0x0 PUSH2 0xEEA DUP5 PUSH1 0x8 PUSH1 0x2 PUSH2 0x18C1 JUMP JUMPDEST SWAP1 POP PUSH1 0x0 DUP1 PUSH1 0x0 PUSH1 0x13 DUP8 MLOAD SUB PUSH2 0xF28 JUMPI PUSH2 0xF07 DUP8 PUSH1 0xB PUSH1 0x2 PUSH2 0x18C1 JUMP JUMPDEST SWAP3 POP PUSH2 0xF16 DUP8 PUSH1 0xE PUSH1 0x2 PUSH2 0x18C1 JUMP JUMPDEST SWAP2 POP PUSH2 0xF25 DUP8 PUSH1 0x11 PUSH1 0x2 PUSH2 0x18C1 JUMP JUMPDEST SWAP1 POP JUMPDEST PUSH1 0x1 DUP6 LT ISZERO DUP1 ISZERO PUSH2 0xF3A JUMPI POP PUSH1 0xC DUP6 GT ISZERO JUMPDEST PUSH2 0xF79 JUMPI PUSH1 0x40 MLOAD PUSH32 0x8C379A000000000000000000000000000000000000000000000000000000000 DUP2 MSTORE PUSH1 0x4 ADD PUSH2 0xF70 SWAP1 PUSH2 0x24D4 JUMP JUMPDEST PUSH1 0x40 MLOAD DUP1 SWAP2 SUB SWAP1 REVERT JUMPDEST PUSH1 0x1 DUP5 LT ISZERO DUP1 ISZERO PUSH2 0xF8B JUMPI POP PUSH1 0x1F DUP5 GT ISZERO JUMPDEST PUSH2 0xFCA JUMPI PUSH1 0x40 MLOAD PUSH32 0x8C379A000000000000000000000000000000000000000000000000000000000 DUP2 MSTORE PUSH1 0x4 ADD PUSH2 0xFC1 SWAP1 PUSH2 0x2540 JUMP JUMPDEST PUSH1 0x40 MLOAD DUP1 SWAP2 SUB SWAP1 REVERT JUMPDEST PUSH1 0x0 DUP4 LT ISZERO DUP1 ISZERO PUSH2 0xFDC JUMPI POP PUSH1 0x17 DUP4 GT ISZERO JUMPDEST PUSH2 0x101B JUMPI PUSH1 0x40 MLOAD PUSH32 0x8C379A000000000000000000000000000000000000000000000000000000000 DUP2 MSTORE PUSH1 0x4 ADD PUSH2 0x1012 SWAP1 PUSH2 0x25AC JUMP JUMPDEST PUSH1 0x40 MLOAD DUP1 SWAP2 SUB SWAP1 REVERT JUMPDEST PUSH1 0x0 DUP3 LT ISZERO DUP1 ISZERO PUSH2 0x102D JUMPI POP PUSH1 0x3B DUP3 GT ISZERO JUMPDEST PUSH2 0x106C JUMPI PUSH1 0x40 MLOAD PUSH32 0x8C379A000000000000000000000000000000000000000000000000000000000 DUP2 MSTORE PUSH1 0x4 ADD PUSH2 0x1063 SWAP1 PUSH2 0x2618 JUMP JUMPDEST PUSH1 0x40 MLOAD DUP1 SWAP2 SUB SWAP1 REVERT JUMPDEST PUSH1 0x0 DUP2 LT ISZERO DUP1 ISZERO PUSH2 0x107E JUMPI POP PUSH1 0x3B DUP2 GT ISZERO JUMPDEST PUSH2 0x10BD JUMPI PUSH1 0x40 MLOAD PUSH32 0x8C379A000000000000000000000000000000000000000000000000000000000 DUP2 MSTORE PUSH1 0x4 ADD PUSH2 0x10B4 SWAP1 PUSH2 0x2684 JUMP JUMPDEST PUSH1 0x40 MLOAD DUP1 SWAP2 SUB SWAP1 REVERT JUMPDEST PUSH1 0x0 DUP1 PUSH2 0x7B2 SWAP1 POP JUMPDEST DUP8 DUP2 LT ISZERO PUSH2 0x1111 JUMPI PUSH2 0x10D7 DUP2 PUSH2 0x1A1E JUMP JUMPDEST PUSH2 0x10E5 JUMPI PUSH4 0x1E13380 PUSH2 0x10EB JUMP JUMPDEST PUSH4 0x1E28500 JUMPDEST PUSH4 0xFFFFFFFF AND DUP3 PUSH2 0x10FC SWAP2 SWAP1 PUSH2 0x1F43 JUMP JUMPDEST SWAP2 POP DUP1 DUP1 PUSH2 0x1109 SWAP1 PUSH2 0x230A JUMP JUMPDEST SWAP2 POP POP PUSH2 0x10C6 JUMP JUMPDEST POP PUSH1 0x0 PUSH1 0xC PUSH8 0xFFFFFFFFFFFFFFFF DUP2 GT ISZERO PUSH2 0x112F JUMPI PUSH2 0x112E PUSH2 0x1CB0 JUMP JUMPDEST JUMPDEST PUSH1 0x40 MLOAD SWAP1 DUP1 DUP3 MSTORE DUP1 PUSH1 0x20 MUL PUSH1 0x20 ADD DUP3 ADD PUSH1 0x40 MSTORE DUP1 ISZERO PUSH2 0x115D JUMPI DUP2 PUSH1 0x20 ADD PUSH1 0x20 DUP3 MUL DUP1 CALLDATASIZE DUP4 CALLDATACOPY DUP1 DUP3 ADD SWAP2 POP POP SWAP1 POP JUMPDEST POP SWAP1 POP PUSH1 0x1F DUP2 PUSH1 0x0 DUP2 MLOAD DUP2 LT PUSH2 0x1176 JUMPI PUSH2 0x1175 PUSH2 0x237B JUMP JUMPDEST JUMPDEST PUSH1 0x20 MUL PUSH1 0x20 ADD ADD DUP2 DUP2 MSTORE POP POP PUSH1 0x1C DUP2 PUSH1 0x1 DUP2 MLOAD DUP2 LT PUSH2 0x1198 JUMPI PUSH2 0x1197 PUSH2 0x237B JUMP JUMPDEST JUMPDEST PUSH1 0x20 MUL PUSH1 0x20 ADD ADD DUP2 DUP2 MSTORE POP POP PUSH1 0x1F DUP2 PUSH1 0x2 DUP2 MLOAD DUP2 LT PUSH2 0x11BA JUMPI PUSH2 0x11B9 PUSH2 0x237B JUMP JUMPDEST JUMPDEST PUSH1 0x20 MUL PUSH1 0x20 ADD ADD DUP2 DUP2 MSTORE POP POP PUSH1 0x1E DUP2 PUSH1 0x3 DUP2 MLOAD DUP2 LT PUSH2 0x11DC JUMPI PUSH2 0x11DB PUSH2 0x237B JUMP JUMPDEST JUMPDEST PUSH1 0x20 MUL PUSH1 0x20 ADD ADD DUP2 DUP2 MSTORE POP POP PUSH1 0x1F DUP2 PUSH1 0x4 DUP2 MLOAD DUP2 LT PUSH2 0x11FE JUMPI PUSH2 0x11FD PUSH2 0x237B JUMP JUMPDEST JUMPDEST PUSH1 0x20 MUL PUSH1 0x20 ADD ADD DUP2 DUP2 MSTORE POP POP PUSH1 0x1E DUP2 PUSH1 0x5 DUP2 MLOAD DUP2 LT PUSH2 0x1220 JUMPI PUSH2 0x121F PUSH2 0x237B JUMP JUMPDEST JUMPDEST PUSH1 0x20 MUL PUSH1 0x20 ADD ADD DUP2 DUP2 MSTORE POP POP PUSH1 0x1F DUP2 PUSH1 0x6 DUP2 MLOAD DUP2 LT PUSH2 0x1242 JUMPI PUSH2 0x1241 PUSH2 0x237B JUMP JUMPDEST JUMPDEST PUSH1 0x20 MUL PUSH1 0x20 ADD ADD DUP2 DUP2 MSTORE POP POP PUSH1 0x1F DUP2 PUSH1 0x7 DUP2 MLOAD DUP2 LT PUSH2 0x1264 JUMPI PUSH2 0x1263 PUSH2 0x237B JUMP JUMPDEST JUMPDEST PUSH1 0x20 MUL PUSH1 0x20 ADD ADD DUP2 DUP2 MSTORE POP POP PUSH1 0x1E DUP2 PUSH1 0x8 DUP2 MLOAD DUP2 LT PUSH2 0x1286 JUMPI PUSH2 0x1285 PUSH2 0x237B JUMP JUMPDEST JUMPDEST PUSH1 0x20 MUL PUSH1 0x20 ADD ADD DUP2 DUP2 MSTORE POP POP PUSH1 0x1F DUP2 PUSH1 0x9 DUP2 MLOAD DUP2 LT PUSH2 0x12A8 JUMPI PUSH2 0x12A7 PUSH2 0x237B JUMP JUMPDEST JUMPDEST PUSH1 0x20 MUL PUSH1 0x20 ADD ADD DUP2 DUP2 MSTORE POP POP PUSH1 0x1E DUP2 PUSH1 0xA DUP2 MLOAD DUP2 LT PUSH2 0x12CA JUMPI PUSH2 0x12C9 PUSH2 0x237B JUMP JUMPDEST JUMPDEST PUSH1 0x20 MUL PUSH1 0x20 ADD ADD DUP2 DUP2 MSTORE POP POP PUSH1 0x1F DUP2 PUSH1 0xB DUP2 MLOAD DUP2 LT PUSH2 0x12EC JUMPI PUSH2 0x12EB PUSH2 0x237B JUMP JUMPDEST JUMPDEST PUSH1 0x20 MUL PUSH1 0x20 ADD ADD DUP2 DUP2 MSTORE POP POP PUSH2 0x1301 DUP9 PUSH2 0x1A1E JUMP JUMPDEST ISZERO PUSH2 0x1329 JUMPI PUSH1 0x1D DUP2 PUSH1 0x1 DUP2 MLOAD DUP2 LT PUSH2 0x131C JUMPI PUSH2 0x131B PUSH2 0x237B JUMP JUMPDEST JUMPDEST PUSH1 0x20 MUL PUSH1 0x20 ADD ADD DUP2 DUP2 MSTORE POP POP JUMPDEST PUSH1 0x0 PUSH1 0x1 SWAP1 POP JUMPDEST DUP8 DUP2 LT ISZERO PUSH2 0x138D JUMPI PUSH3 0x15180 DUP3 PUSH1 0x1 DUP4 PUSH2 0x134A SWAP2 SWAP1 PUSH2 0x226B JUMP JUMPDEST DUP2 MLOAD DUP2 LT PUSH2 0x135B JUMPI PUSH2 0x135A PUSH2 0x237B JUMP JUMPDEST JUMPDEST PUSH1 0x20 MUL PUSH1 0x20 ADD ADD MLOAD PUSH2 0x136D SWAP2 SWAP1 PUSH2 0x229F JUMP JUMPDEST DUP4 PUSH2 0x1378 SWAP2 SWAP1 PUSH2 0x1F43 JUMP JUMPDEST SWAP3 POP DUP1 DUP1 PUSH2 0x1385 SWAP1 PUSH2 0x230A JUMP JUMPDEST SWAP2 POP POP PUSH2 0x1330 JUMP JUMPDEST POP PUSH3 0x15180 PUSH1 0x1 DUP8 PUSH2 0x139F SWAP2 SWAP1 PUSH2 0x226B JUMP JUMPDEST PUSH2 0x13A9 SWAP2 SWAP1 PUSH2 0x229F JUMP JUMPDEST DUP3 PUSH2 0x13B4 SWAP2 SWAP1 PUSH2 0x1F43 JUMP JUMPDEST SWAP2 POP DUP3 PUSH1 0x3C DUP6 PUSH2 0x13C4 SWAP2 SWAP1 PUSH2 0x229F JUMP JUMPDEST PUSH2 0xE10 DUP8 PUSH2 0x13D2 SWAP2 SWAP1 PUSH2 0x229F JUMP JUMPDEST PUSH2 0x13DC SWAP2 SWAP1 PUSH2 0x1F43 JUMP JUMPDEST PUSH2 0x13E6 SWAP2 SWAP1 PUSH2 0x1F43 JUMP JUMPDEST DUP3 PUSH2 0x13F1 SWAP2 SWAP1 PUSH2 0x1F43 JUMP JUMPDEST SWAP2 POP PUSH2 0x7080 DUP3 PUSH2 0x1401 SWAP2 SWAP1 PUSH2 0x226B JUMP JUMPDEST SWAP2 POP DUP2 SWAP10 POP POP POP POP POP POP POP POP POP POP SWAP2 SWAP1 POP JUMP JUMPDEST PUSH1 0x0 PUSH8 0xFFFFFFFFFFFFFFFF DUP1 AND DUP3 GT ISZERO PUSH2 0x1463 JUMPI PUSH1 0x40 MLOAD PUSH32 0x8C379A000000000000000000000000000000000000000000000000000000000 DUP2 MSTORE PUSH1 0x4 ADD PUSH2 0x145A SWAP1 PUSH2 0x26F0 JUMP JUMPDEST PUSH1 0x40 MLOAD DUP1 SWAP2 SUB SWAP1 REVERT JUMPDEST DUP2 SWAP1 POP SWAP2 SWAP1 POP JUMP JUMPDEST PUSH2 0x1473 PUSH2 0x1A67 JUMP JUMPDEST PUSH20 0xFFFFFFFFFFFFFFFFFFFFFFFFFFFFFFFFFFFFFFFF AND PUSH2 0x1491 PUSH2 0x940 JUMP JUMPDEST PUSH20 0xFFFFFFFFFFFFFFFFFFFFFFFFFFFFFFFFFFFFFFFF AND EQ PUSH2 0x14F0 JUMPI PUSH2 0x14B4 PUSH2 0x1A67 JUMP JUMPDEST PUSH1 0x40 MLOAD PUSH32 0x118CDAA700000000000000000000000000000000000000000000000000000000 DUP2 MSTORE PUSH1 0x4 ADD PUSH2 0x14E7 SWAP2 SWAP1 PUSH2 0x1E86 JUMP JUMPDEST PUSH1 0x40 MLOAD DUP1 SWAP2 SUB SWAP1 REVERT JUMPDEST JUMP JUMPDEST PUSH1 0x0 DUP1 PUSH1 0x0 SWAP1 SLOAD SWAP1 PUSH2 0x100 EXP SWAP1 DIV PUSH20 0xFFFFFFFFFFFFFFFFFFFFFFFFFFFFFFFFFFFFFFFF AND SWAP1 POP DUP2 PUSH1 0x0 DUP1 PUSH2 0x100 EXP DUP2 SLOAD DUP2 PUSH20 0xFFFFFFFFFFFFFFFFFFFFFFFFFFFFFFFFFFFFFFFF MUL NOT AND SWAP1 DUP4 PUSH20 0xFFFFFFFFFFFFFFFFFFFFFFFFFFFFFFFFFFFFFFFF AND MUL OR SWAP1 SSTORE POP DUP2 PUSH20 0xFFFFFFFFFFFFFFFFFFFFFFFFFFFFFFFFFFFFFFFF AND DUP2 PUSH20 0xFFFFFFFFFFFFFFFFFFFFFFFFFFFFFFFFFFFFFFFF AND PUSH32 0x8BE0079C531659141344CD1FD0A4F28419497F9722A3DAAFE3B4186F6B6457E0 PUSH1 0x40 MLOAD PUSH1 0x40 MLOAD DUP1 SWAP2 SUB SWAP1 LOG3 POP POP JUMP JUMPDEST DUP1 SELFBALANCE LT ISZERO PUSH2 0x15FD JUMPI SELFBALANCE DUP2 PUSH1 0x40 MLOAD PUSH32 0xCF47918100000000000000000000000000000000000000000000000000000000 DUP2 MSTORE PUSH1 0x4 ADD PUSH2 0x15F4 SWAP3 SWAP2 SWAP1 PUSH2 0x2710 JUMP JUMPDEST PUSH1 0x40 MLOAD DUP1 SWAP2 SUB SWAP1 REVERT JUMPDEST PUSH1 0x0 DUP1 DUP4 PUSH20 0xFFFFFFFFFFFFFFFFFFFFFFFFFFFFFFFFFFFFFFFF AND DUP4 PUSH1 0x40 MLOAD PUSH2 0x1624 SWAP1 PUSH2 0x276A JUMP JUMPDEST PUSH1 0x0 PUSH1 0x40 MLOAD DUP1 DUP4 SUB DUP2 DUP6 DUP8 GAS CALL SWAP3 POP POP POP RETURNDATASIZE DUP1 PUSH1 0x0 DUP2 EQ PUSH2 0x1661 JUMPI PUSH1 0x40 MLOAD SWAP2 POP PUSH1 0x1F NOT PUSH1 0x3F RETURNDATASIZE ADD AND DUP3 ADD PUSH1 0x40 MSTORE RETURNDATASIZE DUP3 MSTORE RETURNDATASIZE PUSH1 0x0 PUSH1 0x20 DUP5 ADD RETURNDATACOPY PUSH2 0x1666 JUMP JUMPDEST PUSH1 0x60 SWAP2 POP JUMPDEST POP SWAP2 POP SWAP2 POP DUP2 PUSH2 0x167A JUMPI PUSH2 0x1679 DUP2 PUSH2 0x1A6F JUMP JUMPDEST JUMPDEST POP POP POP POP JUMP JUMPDEST PUSH1 0x0 DUP1 PUSH1 0x20 PUSH1 0x0 DUP5 MLOAD PUSH1 0x20 DUP7 ADD PUSH1 0x0 DUP9 GAS CALL DUP1 PUSH2 0x16A3 JUMPI PUSH1 0x40 MLOAD RETURNDATASIZE PUSH1 0x0 DUP3 RETURNDATACOPY RETURNDATASIZE DUP2 REVERT JUMPDEST RETURNDATASIZE SWAP3 POP PUSH1 0x0 MLOAD SWAP2 POP POP PUSH1 0x0 DUP3 EQ PUSH2 0x16BE JUMPI PUSH1 0x1 DUP2 EQ ISZERO PUSH2 0x16DA JUMP JUMPDEST PUSH1 0x0 DUP5 PUSH20 0xFFFFFFFFFFFFFFFFFFFFFFFFFFFFFFFFFFFFFFFF AND EXTCODESIZE EQ JUMPDEST ISZERO PUSH2 0x171C JUMPI DUP4 PUSH1 0x40 MLOAD PUSH32 0x5274AFE700000000000000000000000000000000000000000000000000000000 DUP2 MSTORE PUSH1 0x4 ADD PUSH2 0x1713 SWAP2 SWAP1 PUSH2 0x1E86 JUMP JUMPDEST PUSH1 0x40 MLOAD DUP1 SWAP2 SUB SWAP1 REVERT JUMPDEST POP POP POP POP JUMP JUMPDEST PUSH1 0x0 DUP1 PUSH1 0x0 DUP1 DUP5 SWAP1 POP PUSH1 0x0 PUSH3 0x253D8C PUSH3 0x10BD9 DUP4 PUSH2 0x1740 SWAP2 SWAP1 PUSH2 0x2789 JUMP JUMPDEST PUSH2 0x174A SWAP2 SWAP1 PUSH2 0x2789 JUMP JUMPDEST SWAP1 POP PUSH1 0x0 PUSH3 0x23AB1 DUP3 PUSH1 0x4 PUSH2 0x175F SWAP2 SWAP1 PUSH2 0x27CD JUMP JUMPDEST PUSH2 0x1769 SWAP2 SWAP1 PUSH2 0x2845 JUMP JUMPDEST SWAP1 POP PUSH1 0x4 PUSH1 0x3 DUP3 PUSH3 0x23AB1 PUSH2 0x177E SWAP2 SWAP1 PUSH2 0x27CD JUMP JUMPDEST PUSH2 0x1788 SWAP2 SWAP1 PUSH2 0x2789 JUMP JUMPDEST PUSH2 0x1792 SWAP2 SWAP1 PUSH2 0x2845 JUMP JUMPDEST DUP3 PUSH2 0x179D SWAP2 SWAP1 PUSH2 0x28AF JUMP JUMPDEST SWAP2 POP PUSH1 0x0 PUSH3 0x164B09 PUSH1 0x1 DUP5 PUSH2 0x17B2 SWAP2 SWAP1 PUSH2 0x2789 JUMP JUMPDEST PUSH2 0xFA0 PUSH2 0x17BF SWAP2 SWAP1 PUSH2 0x27CD JUMP JUMPDEST PUSH2 0x17C9 SWAP2 SWAP1 PUSH2 0x2845 JUMP JUMPDEST SWAP1 POP PUSH1 0x1F PUSH1 0x4 DUP3 PUSH2 0x5B5 PUSH2 0x17DD SWAP2 SWAP1 PUSH2 0x27CD JUMP JUMPDEST PUSH2 0x17E7 SWAP2 SWAP1 PUSH2 0x2845 JUMP JUMPDEST DUP5 PUSH2 0x17F2 SWAP2 SWAP1 PUSH2 0x28AF JUMP JUMPDEST PUSH2 0x17FC SWAP2 SWAP1 PUSH2 0x2789 JUMP JUMPDEST SWAP3 POP PUSH1 0x0 PUSH2 0x98F DUP5 PUSH1 0x50 PUSH2 0x1810 SWAP2 SWAP1 PUSH2 0x27CD JUMP JUMPDEST PUSH2 0x181A SWAP2 SWAP1 PUSH2 0x2845 JUMP JUMPDEST SWAP1 POP PUSH1 0x0 PUSH1 0x50 DUP3 PUSH2 0x98F PUSH2 0x182E SWAP2 SWAP1 PUSH2 0x27CD JUMP JUMPDEST PUSH2 0x1838 SWAP2 SWAP1 PUSH2 0x2845 JUMP JUMPDEST DUP6 PUSH2 0x1843 SWAP2 SWAP1 PUSH2 0x28AF JUMP JUMPDEST SWAP1 POP PUSH1 0xB DUP3 PUSH2 0x1852 SWAP2 SWAP1 PUSH2 0x2845 JUMP JUMPDEST SWAP5 POP DUP5 PUSH1 0xC PUSH2 0x1861 SWAP2 SWAP1 PUSH2 0x27CD JUMP JUMPDEST PUSH1 0x2 DUP4 PUSH2 0x186E SWAP2 SWAP1 PUSH2 0x2789 JUMP JUMPDEST PUSH2 0x1878 SWAP2 SWAP1 PUSH2 0x28AF JUMP JUMPDEST SWAP2 POP DUP5 DUP4 PUSH1 0x31 DUP7 PUSH2 0x1889 SWAP2 SWAP1 PUSH2 0x28AF JUMP JUMPDEST PUSH1 0x64 PUSH2 0x1895 SWAP2 SWAP1 PUSH2 0x27CD JUMP JUMPDEST PUSH2 0x189F SWAP2 SWAP1 PUSH2 0x2789 JUMP JUMPDEST PUSH2 0x18A9 SWAP2 SWAP1 PUSH2 0x2789 JUMP JUMPDEST SWAP3 POP DUP3 SWAP9 POP DUP2 SWAP8 POP DUP1 SWAP7 POP POP POP POP POP POP POP SWAP2 SWAP4 SWAP1 SWAP3 POP JUMP JUMPDEST PUSH1 0x0 DUP1 PUSH1 0x0 SWAP1 POP PUSH1 0x0 DUP5 SWAP1 POP JUMPDEST DUP4 DUP6 PUSH2 0x18DA SWAP2 SWAP1 PUSH2 0x1F43 JUMP JUMPDEST DUP2 LT ISZERO PUSH2 0x1A12 JUMPI PUSH1 0x30 PUSH1 0xF8 SHL DUP7 DUP3 DUP2 MLOAD DUP2 LT PUSH2 0x18F9 JUMPI PUSH2 0x18F8 PUSH2 0x237B JUMP JUMPDEST JUMPDEST PUSH1 0x20 ADD ADD MLOAD PUSH1 0xF8 SHR PUSH1 0xF8 SHL PUSH31 0xFFFFFFFFFFFFFFFFFFFFFFFFFFFFFFFFFFFFFFFFFFFFFFFFFFFFFFFFFFFFFF NOT AND LT ISZERO DUP1 ISZERO PUSH2 0x1977 JUMPI POP PUSH1 0x39 PUSH1 0xF8 SHL DUP7 DUP3 DUP2 MLOAD DUP2 LT PUSH2 0x1947 JUMPI PUSH2 0x1946 PUSH2 0x237B JUMP JUMPDEST JUMPDEST PUSH1 0x20 ADD ADD MLOAD PUSH1 0xF8 SHR PUSH1 0xF8 SHL PUSH31 0xFFFFFFFFFFFFFFFFFFFFFFFFFFFFFFFFFFFFFFFFFFFFFFFFFFFFFFFFFFFFFF NOT AND GT ISZERO JUMPDEST PUSH2 0x19B6 JUMPI PUSH1 0x40 MLOAD PUSH32 0x8C379A000000000000000000000000000000000000000000000000000000000 DUP2 MSTORE PUSH1 0x4 ADD PUSH2 0x19AD SWAP1 PUSH2 0x293E JUMP JUMPDEST PUSH1 0x40 MLOAD DUP1 SWAP2 SUB SWAP1 REVERT JUMPDEST PUSH1 0x30 DUP7 DUP3 DUP2 MLOAD DUP2 LT PUSH2 0x19CB JUMPI PUSH2 0x19CA PUSH2 0x237B JUMP JUMPDEST JUMPDEST PUSH1 0x20 ADD ADD MLOAD PUSH1 0xF8 SHR PUSH1 0xF8 SHL PUSH1 0xF8 SHR PUSH1 0xFF AND PUSH2 0x19E6 SWAP2 SWAP1 PUSH2 0x226B JUMP JUMPDEST PUSH1 0xA DUP4 PUSH2 0x19F3 SWAP2 SWAP1 PUSH2 0x229F JUMP JUMPDEST PUSH2 0x19FD SWAP2 SWAP1 PUSH2 0x1F43 JUMP JUMPDEST SWAP2 POP DUP1 DUP1 PUSH2 0x1A0A SWAP1 PUSH2 0x230A JUMP JUMPDEST SWAP2 POP POP PUSH2 0x18CE JUMP JUMPDEST POP DUP1 SWAP2 POP POP SWAP4 SWAP3 POP POP POP JUMP JUMPDEST PUSH1 0x0 DUP1 PUSH1 0x4 DUP4 PUSH2 0x1A2E SWAP2 SWAP1 PUSH2 0x2128 JUMP JUMPDEST EQ DUP1 ISZERO PUSH2 0x1A48 JUMPI POP PUSH1 0x0 PUSH1 0x64 DUP4 PUSH2 0x1A45 SWAP2 SWAP1 PUSH2 0x2128 JUMP JUMPDEST EQ ISZERO JUMPDEST DUP1 PUSH2 0x1A60 JUMPI POP PUSH1 0x0 PUSH2 0x190 DUP4 PUSH2 0x1A5E SWAP2 SWAP1 PUSH2 0x2128 JUMP JUMPDEST EQ JUMPDEST SWAP1 POP SWAP2 SWAP1 POP JUMP JUMPDEST PUSH1 0x0 CALLER SWAP1 POP SWAP1 JUMP JUMPDEST PUSH1 0x0 DUP2 MLOAD GT ISZERO PUSH2 0x1A82 JUMPI DUP1 MLOAD DUP1 DUP3 PUSH1 0x20 ADD REVERT JUMPDEST PUSH1 0x40 MLOAD PUSH32 0xD6BDA27500000000000000000000000000000000000000000000000000000000 DUP2 MSTORE PUSH1 0x4 ADD PUSH1 0x40 MLOAD DUP1 SWAP2 SUB SWAP1 REVERT JUMPDEST PUSH1 0x0 PUSH1 0x40 MLOAD SWAP1 POP SWAP1 JUMP JUMPDEST PUSH1 0x0 DUP1 REVERT JUMPDEST PUSH1 0x0 DUP1 REVERT JUMPDEST PUSH1 0x0 PUSH8 0xFFFFFFFFFFFFFFFF DUP3 AND SWAP1 POP SWAP2 SWAP1 POP JUMP JUMPDEST PUSH2 0x1AE5 DUP2 PUSH2 0x1AC8 JUMP JUMPDEST DUP2 EQ PUSH2 0x1AF0 JUMPI PUSH1 0x0 DUP1 REVERT JUMPDEST POP JUMP JUMPDEST PUSH1 0x0 DUP2 CALLDATALOAD SWAP1 POP PUSH2 0x1B02 DUP2 PUSH2 0x1ADC JUMP JUMPDEST SWAP3 SWAP2 POP POP JUMP JUMPDEST PUSH1 0x0 PUSH1 0x20 DUP3 DUP5 SUB SLT ISZERO PUSH2 0x1B1E JUMPI PUSH2 0x1B1D PUSH2 0x1ABE JUMP JUMPDEST JUMPDEST PUSH1 0x0 PUSH2 0x1B2C DUP5 DUP3 DUP6 ADD PUSH2 0x1AF3 JUMP JUMPDEST SWAP2 POP POP SWAP3 SWAP2 POP POP JUMP JUMPDEST PUSH1 0x0 DUP2 SWAP1 POP SWAP2 SWAP1 POP JUMP JUMPDEST PUSH2 0x1B48 DUP2 PUSH2 0x1B35 JUMP JUMPDEST DUP3 MSTORE POP POP JUMP JUMPDEST PUSH1 0x0 PUSH1 0x20 DUP3 ADD SWAP1 POP PUSH2 0x1B63 PUSH1 0x0 DUP4 ADD DUP5 PUSH2 0x1B3F JUMP JUMPDEST SWAP3 SWAP2 POP POP JUMP JUMPDEST PUSH1 0x0 PUSH20 0xFFFFFFFFFFFFFFFFFFFFFFFFFFFFFFFFFFFFFFFF DUP3 AND SWAP1 POP SWAP2 SWAP1 POP JUMP JUMPDEST PUSH1 0x0 PUSH2 0x1B94 DUP3 PUSH2 0x1B69 JUMP JUMPDEST SWAP1 POP SWAP2 SWAP1 POP JUMP JUMPDEST PUSH2 0x1BA4 DUP2 PUSH2 0x1B89 JUMP JUMPDEST DUP2 EQ PUSH2 0x1BAF JUMPI PUSH1 0x0 DUP1 REVERT JUMPDEST POP JUMP JUMPDEST PUSH1 0x0 DUP2 CALLDATALOAD SWAP1 POP PUSH2 0x1BC1 DUP2 PUSH2 0x1B9B JUMP JUMPDEST SWAP3 SWAP2 POP POP JUMP JUMPDEST PUSH1 0x0 PUSH1 0x20 DUP3 DUP5 SUB SLT ISZERO PUSH2 0x1BDD JUMPI PUSH2 0x1BDC PUSH2 0x1ABE JUMP JUMPDEST JUMPDEST PUSH1 0x0 PUSH2 0x1BEB DUP5 DUP3 DUP6 ADD PUSH2 0x1BB2 JUMP JUMPDEST SWAP2 POP POP SWAP3 SWAP2 POP POP JUMP JUMPDEST PUSH1 0x0 DUP2 MLOAD SWAP1 POP SWAP2 SWAP1 POP JUMP JUMPDEST PUSH1 0x0 DUP3 DUP3 MSTORE PUSH1 0x20 DUP3 ADD SWAP1 POP SWAP3 SWAP2 POP POP JUMP JUMPDEST PUSH1 0x0 JUMPDEST DUP4 DUP2 LT ISZERO PUSH2 0x1C2E JUMPI DUP1 DUP3 ADD MLOAD DUP2 DUP5 ADD MSTORE PUSH1 0x20 DUP2 ADD SWAP1 POP PUSH2 0x1C13 JUMP JUMPDEST PUSH1 0x0 DUP5 DUP5 ADD MSTORE POP POP POP POP JUMP JUMPDEST PUSH1 0x0 PUSH1 0x1F NOT PUSH1 0x1F DUP4 ADD AND SWAP1 POP SWAP2 SWAP1 POP JUMP JUMPDEST PUSH1 0x0 PUSH2 0x1C56 DUP3 PUSH2 0x1BF4 JUMP JUMPDEST PUSH2 0x1C60 DUP2 DUP6 PUSH2 0x1BFF JUMP JUMPDEST SWAP4 POP PUSH2 0x1C70 DUP2 DUP6 PUSH1 0x20 DUP7 ADD PUSH2 0x1C10 JUMP JUMPDEST PUSH2 0x1C79 DUP2 PUSH2 0x1C3A JUMP JUMPDEST DUP5 ADD SWAP2 POP POP SWAP3 SWAP2 POP POP JUMP JUMPDEST PUSH1 0x0 PUSH1 0x20 DUP3 ADD SWAP1 POP DUP2 DUP2 SUB PUSH1 0x0 DUP4 ADD MSTORE PUSH2 0x1C9E DUP2 DUP5 PUSH2 0x1C4B JUMP JUMPDEST SWAP1 POP SWAP3 SWAP2 POP POP JUMP JUMPDEST PUSH1 0x0 DUP1 REVERT JUMPDEST PUSH1 0x0 DUP1 REVERT JUMPDEST PUSH32 0x4E487B7100000000000000000000000000000000000000000000000000000000 PUSH1 0x0 MSTORE PUSH1 0x41 PUSH1 0x4 MSTORE PUSH1 0x24 PUSH1 0x0 REVERT JUMPDEST PUSH2 0x1CE8 DUP3 PUSH2 0x1C3A JUMP JUMPDEST DUP2 ADD DUP2 DUP2 LT PUSH8 0xFFFFFFFFFFFFFFFF DUP3 GT OR ISZERO PUSH2 0x1D07 JUMPI PUSH2 0x1D06 PUSH2 0x1CB0 JUMP JUMPDEST JUMPDEST DUP1 PUSH1 0x40 MSTORE POP POP POP JUMP JUMPDEST PUSH1 0x0 PUSH2 0x1D1A PUSH2 0x1AB4 JUMP JUMPDEST SWAP1 POP PUSH2 0x1D26 DUP3 DUP3 PUSH2 0x1CDF JUMP JUMPDEST SWAP2 SWAP1 POP JUMP JUMPDEST PUSH1 0x0 PUSH8 0xFFFFFFFFFFFFFFFF DUP3 GT ISZERO PUSH2 0x1D46 JUMPI PUSH2 0x1D45 PUSH2 0x1CB0 JUMP JUMPDEST JUMPDEST PUSH2 0x1D4F DUP3 PUSH2 0x1C3A JUMP JUMPDEST SWAP1 POP PUSH1 0x20 DUP2 ADD SWAP1 POP SWAP2 SWAP1 POP JUMP JUMPDEST DUP3 DUP2 DUP4 CALLDATACOPY PUSH1 0x0 DUP4 DUP4 ADD MSTORE POP POP POP JUMP JUMPDEST PUSH1 0x0 PUSH2 0x1D7E PUSH2 0x1D79 DUP5 PUSH2 0x1D2B JUMP JUMPDEST PUSH2 0x1D10 JUMP JUMPDEST SWAP1 POP DUP3 DUP2 MSTORE PUSH1 0x20 DUP2 ADD DUP5 DUP5 DUP5 ADD GT ISZERO PUSH2 0x1D9A JUMPI PUSH2 0x1D99 PUSH2 0x1CAB JUMP JUMPDEST JUMPDEST PUSH2 0x1DA5 DUP5 DUP3 DUP6 PUSH2 0x1D5C JUMP JUMPDEST POP SWAP4 SWAP3 POP POP POP JUMP JUMPDEST PUSH1 0x0 DUP3 PUSH1 0x1F DUP4 ADD SLT PUSH2 0x1DC2 JUMPI PUSH2 0x1DC1 PUSH2 0x1CA6 JUMP JUMPDEST JUMPDEST DUP2 CALLDATALOAD PUSH2 0x1DD2 DUP5 DUP3 PUSH1 0x20 DUP7 ADD PUSH2 0x1D6B JUMP JUMPDEST SWAP2 POP POP SWAP3 SWAP2 POP POP JUMP JUMPDEST PUSH1 0x0 DUP1 PUSH1 0x40 DUP4 DUP6 SUB SLT ISZERO PUSH2 0x1DF2 JUMPI PUSH2 0x1DF1 PUSH2 0x1ABE JUMP JUMPDEST JUMPDEST PUSH1 0x0 PUSH2 0x1E00 DUP6 DUP3 DUP7 ADD PUSH2 0x1BB2 JUMP JUMPDEST SWAP3 POP POP PUSH1 0x20 DUP4 ADD CALLDATALOAD PUSH8 0xFFFFFFFFFFFFFFFF DUP2 GT ISZERO PUSH2 0x1E21 JUMPI PUSH2 0x1E20 PUSH2 0x1AC3 JUMP JUMPDEST JUMPDEST PUSH2 0x1E2D DUP6 DUP3 DUP7 ADD PUSH2 0x1DAD JUMP JUMPDEST SWAP2 POP POP SWAP3 POP SWAP3 SWAP1 POP JUMP JUMPDEST PUSH1 0x0 DUP1 PUSH1 0x40 DUP4 DUP6 SUB SLT ISZERO PUSH2 0x1E4E JUMPI PUSH2 0x1E4D PUSH2 0x1ABE JUMP JUMPDEST JUMPDEST PUSH1 0x0 PUSH2 0x1E5C DUP6 DUP3 DUP7 ADD PUSH2 0x1BB2 JUMP JUMPDEST SWAP3 POP POP PUSH1 0x20 PUSH2 0x1E6D DUP6 DUP3 DUP7 ADD PUSH2 0x1AF3 JUMP JUMPDEST SWAP2 POP POP SWAP3 POP SWAP3 SWAP1 POP JUMP JUMPDEST PUSH2 0x1E80 DUP2 PUSH2 0x1B89 JUMP JUMPDEST DUP3 MSTORE POP POP JUMP JUMPDEST PUSH1 0x0 PUSH1 0x20 DUP3 ADD SWAP1 POP PUSH2 0x1E9B PUSH1 0x0 DUP4 ADD DUP5 PUSH2 0x1E77 JUMP JUMPDEST SWAP3 SWAP2 POP POP JUMP JUMPDEST PUSH1 0x0 PUSH1 0x20 DUP3 DUP5 SUB SLT ISZERO PUSH2 0x1EB7 JUMPI PUSH2 0x1EB6 PUSH2 0x1ABE JUMP JUMPDEST JUMPDEST PUSH1 0x0 DUP3 ADD CALLDATALOAD PUSH8 0xFFFFFFFFFFFFFFFF DUP2 GT ISZERO PUSH2 0x1ED5 JUMPI PUSH2 0x1ED4 PUSH2 0x1AC3 JUMP JUMPDEST JUMPDEST PUSH2 0x1EE1 DUP5 DUP3 DUP6 ADD PUSH2 0x1DAD JUMP JUMPDEST SWAP2 POP POP SWAP3 SWAP2 POP POP JUMP JUMPDEST PUSH2 0x1EF3 DUP2 PUSH2 0x1AC8 JUMP JUMPDEST DUP3 MSTORE POP POP JUMP JUMPDEST PUSH1 0x0 PUSH1 0x20 DUP3 ADD SWAP1 POP PUSH2 0x1F0E PUSH1 0x0 DUP4 ADD DUP5 PUSH2 0x1EEA JUMP JUMPDEST SWAP3 SWAP2 POP POP JUMP JUMPDEST PUSH32 0x4E487B7100000000000000000000000000000000000000000000000000000000 PUSH1 0x0 MSTORE PUSH1 0x11 PUSH1 0x4 MSTORE PUSH1 0x24 PUSH1 0x0 REVERT JUMPDEST PUSH1 0x0 PUSH2 0x1F4E DUP3 PUSH2 0x1B35 JUMP JUMPDEST SWAP2 POP PUSH2 0x1F59 DUP4 PUSH2 0x1B35 JUMP JUMPDEST SWAP3 POP DUP3 DUP3 ADD SWAP1 POP DUP1 DUP3 GT ISZERO PUSH2 0x1F71 JUMPI PUSH2 0x1F70 PUSH2 0x1F14 JUMP JUMPDEST JUMPDEST SWAP3 SWAP2 POP POP JUMP JUMPDEST PUSH1 0x0 DUP2 SWAP1 POP SWAP3 SWAP2 POP POP JUMP JUMPDEST PUSH1 0x0 PUSH2 0x1F8D DUP3 PUSH2 0x1BF4 JUMP JUMPDEST PUSH2 0x1F97 DUP2 DUP6 PUSH2 0x1F77 JUMP JUMPDEST SWAP4 POP PUSH2 0x1FA7 DUP2 DUP6 PUSH1 0x20 DUP7 ADD PUSH2 0x1C10 JUMP JUMPDEST DUP1 DUP5 ADD SWAP2 POP POP SWAP3 SWAP2 POP POP JUMP JUMPDEST PUSH32 0x2D00000000000000000000000000000000000000000000000000000000000000 DUP2 MSTORE POP JUMP JUMPDEST PUSH32 0x2000000000000000000000000000000000000000000000000000000000000000 DUP2 MSTORE POP JUMP JUMPDEST PUSH32 0x3A00000000000000000000000000000000000000000000000000000000000000 DUP2 MSTORE POP JUMP JUMPDEST PUSH1 0x0 PUSH2 0x2031 DUP3 DUP10 PUSH2 0x1F82 JUMP JUMPDEST SWAP2 POP PUSH2 0x203C DUP3 PUSH2 0x1FB3 JUMP JUMPDEST PUSH1 0x1 DUP3 ADD SWAP2 POP PUSH2 0x204C DUP3 DUP9 PUSH2 0x1F82 JUMP JUMPDEST SWAP2 POP PUSH2 0x2057 DUP3 PUSH2 0x1FB3 JUMP JUMPDEST PUSH1 0x1 DUP3 ADD SWAP2 POP PUSH2 0x2067 DUP3 DUP8 PUSH2 0x1F82 JUMP JUMPDEST SWAP2 POP PUSH2 0x2072 DUP3 PUSH2 0x1FD9 JUMP JUMPDEST PUSH1 0x1 DUP3 ADD SWAP2 POP PUSH2 0x2082 DUP3 DUP7 PUSH2 0x1F82 JUMP JUMPDEST SWAP2 POP PUSH2 0x208D DUP3 PUSH2 0x1FFF JUMP JUMPDEST PUSH1 0x1 DUP3 ADD SWAP2 POP PUSH2 0x209D DUP3 DUP6 PUSH2 0x1F82 JUMP JUMPDEST SWAP2 POP PUSH2 0x20A8 DUP3 PUSH2 0x1FFF JUMP JUMPDEST PUSH1 0x1 DUP3 ADD SWAP2 POP PUSH2 0x20B8 DUP3 DUP5 PUSH2 0x1F82 JUMP JUMPDEST SWAP2 POP DUP2 SWAP1 POP SWAP8 SWAP7 POP POP POP POP POP POP POP JUMP JUMPDEST PUSH32 0x4E487B7100000000000000000000000000000000000000000000000000000000 PUSH1 0x0 MSTORE PUSH1 0x12 PUSH1 0x4 MSTORE PUSH1 0x24 PUSH1 0x0 REVERT JUMPDEST PUSH1 0x0 PUSH2 0x2102 DUP3 PUSH2 0x1B35 JUMP JUMPDEST SWAP2 POP PUSH2 0x210D DUP4 PUSH2 0x1B35 JUMP JUMPDEST SWAP3 POP DUP3 PUSH2 0x211D JUMPI PUSH2 0x211C PUSH2 0x20C8 JUMP JUMPDEST JUMPDEST DUP3 DUP3 DIV SWAP1 POP SWAP3 SWAP2 POP POP JUMP JUMPDEST PUSH1 0x0 PUSH2 0x2133 DUP3 PUSH2 0x1B35 JUMP JUMPDEST SWAP2 POP PUSH2 0x213E DUP4 PUSH2 0x1B35 JUMP JUMPDEST SWAP3 POP DUP3 PUSH2 0x214E JUMPI PUSH2 0x214D PUSH2 0x20C8 JUMP JUMPDEST JUMPDEST DUP3 DUP3 MOD SWAP1 POP SWAP3 SWAP2 POP POP JUMP JUMPDEST PUSH32 0x2E00000000000000000000000000000000000000000000000000000000000000 DUP2 MSTORE POP JUMP JUMPDEST PUSH1 0x0 PUSH2 0x218B DUP3 DUP6 PUSH2 0x1F82 JUMP JUMPDEST SWAP2 POP PUSH2 0x2196 DUP3 PUSH2 0x2159 JUMP JUMPDEST PUSH1 0x1 DUP3 ADD SWAP2 POP PUSH2 0x21A6 DUP3 DUP5 PUSH2 0x1F82 JUMP JUMPDEST SWAP2 POP DUP2 SWAP1 POP SWAP4 SWAP3 POP POP POP JUMP JUMPDEST PUSH32 0x4E487B7100000000000000000000000000000000000000000000000000000000 PUSH1 0x0 MSTORE PUSH1 0x22 PUSH1 0x4 MSTORE PUSH1 0x24 PUSH1 0x0 REVERT JUMPDEST PUSH1 0x0 PUSH1 0x2 DUP3 DIV SWAP1 POP PUSH1 0x1 DUP3 AND DUP1 PUSH2 0x21F9 JUMPI PUSH1 0x7F DUP3 AND SWAP2 POP JUMPDEST PUSH1 0x20 DUP3 LT DUP2 SUB PUSH2 0x220C JUMPI PUSH2 0x220B PUSH2 0x21B2 JUMP JUMPDEST JUMPDEST POP SWAP2 SWAP1 POP JUMP JUMPDEST PUSH2 0x221B DUP2 PUSH2 0x1B35 JUMP JUMPDEST DUP2 EQ PUSH2 0x2226 JUMPI PUSH1 0x0 DUP1 REVERT JUMPDEST POP JUMP JUMPDEST PUSH1 0x0 DUP2 MLOAD SWAP1 POP PUSH2 0x2238 DUP2 PUSH2 0x2212 JUMP JUMPDEST SWAP3 SWAP2 POP POP JUMP JUMPDEST PUSH1 0x0 PUSH1 0x20 DUP3 DUP5 SUB SLT ISZERO PUSH2 0x2254 JUMPI PUSH2 0x2253 PUSH2 0x1ABE JUMP JUMPDEST JUMPDEST PUSH1 0x0 PUSH2 0x2262 DUP5 DUP3 DUP6 ADD PUSH2 0x2229 JUMP JUMPDEST SWAP2 POP POP SWAP3 SWAP2 POP POP JUMP JUMPDEST PUSH1 0x0 PUSH2 0x2276 DUP3 PUSH2 0x1B35 JUMP JUMPDEST SWAP2 POP PUSH2 0x2281 DUP4 PUSH2 0x1B35 JUMP JUMPDEST SWAP3 POP DUP3 DUP3 SUB SWAP1 POP DUP2 DUP2 GT ISZERO PUSH2 0x2299 JUMPI PUSH2 0x2298 PUSH2 0x1F14 JUMP JUMPDEST JUMPDEST SWAP3 SWAP2 POP POP JUMP JUMPDEST PUSH1 0x0 PUSH2 0x22AA DUP3 PUSH2 0x1B35 JUMP JUMPDEST SWAP2 POP PUSH2 0x22B5 DUP4 PUSH2 0x1B35 JUMP JUMPDEST SWAP3 POP DUP3 DUP3 MUL PUSH2 0x22C3 DUP2 PUSH2 0x1B35 JUMP JUMPDEST SWAP2 POP DUP3 DUP3 DIV DUP5 EQ DUP4 ISZERO OR PUSH2 0x22DA JUMPI PUSH2 0x22D9 PUSH2 0x1F14 JUMP JUMPDEST JUMPDEST POP SWAP3 SWAP2 POP POP JUMP JUMPDEST PUSH1 0x0 PUSH1 0x40 DUP3 ADD SWAP1 POP PUSH2 0x22F6 PUSH1 0x0 DUP4 ADD DUP6 PUSH2 0x1E77 JUMP JUMPDEST PUSH2 0x2303 PUSH1 0x20 DUP4 ADD DUP5 PUSH2 0x1B3F JUMP JUMPDEST SWAP4 SWAP3 POP POP POP JUMP JUMPDEST PUSH1 0x0 PUSH2 0x2315 DUP3 PUSH2 0x1B35 JUMP JUMPDEST SWAP2 POP PUSH32 0xFFFFFFFFFFFFFFFFFFFFFFFFFFFFFFFFFFFFFFFFFFFFFFFFFFFFFFFFFFFFFFFF DUP3 SUB PUSH2 0x2347 JUMPI PUSH2 0x2346 PUSH2 0x1F14 JUMP JUMPDEST JUMPDEST PUSH1 0x1 DUP3 ADD SWAP1 POP SWAP2 SWAP1 POP JUMP JUMPDEST PUSH1 0x0 PUSH2 0x235D DUP3 PUSH2 0x1B35 JUMP JUMPDEST SWAP2 POP PUSH1 0x0 DUP3 SUB PUSH2 0x2370 JUMPI PUSH2 0x236F PUSH2 0x1F14 JUMP JUMPDEST JUMPDEST PUSH1 0x1 DUP3 SUB SWAP1 POP SWAP2 SWAP1 POP JUMP JUMPDEST PUSH32 0x4E487B7100000000000000000000000000000000000000000000000000000000 PUSH1 0x0 MSTORE PUSH1 0x32 PUSH1 0x4 MSTORE PUSH1 0x24 PUSH1 0x0 REVERT JUMPDEST PUSH32 0x3000000000000000000000000000000000000000000000000000000000000000 DUP2 MSTORE POP JUMP JUMPDEST PUSH1 0x0 PUSH2 0x23DB DUP3 PUSH2 0x23AA JUMP JUMPDEST PUSH1 0x1 DUP3 ADD SWAP2 POP PUSH2 0x23EB DUP3 DUP5 PUSH2 0x1F82 JUMP JUMPDEST SWAP2 POP DUP2 SWAP1 POP SWAP3 SWAP2 POP POP JUMP JUMPDEST PUSH32 0x496E76616C696420666F726D6174202875736520595959592D4D4D2D4444206F PUSH1 0x0 DUP3 ADD MSTORE PUSH32 0x7220595959592D4D4D2D44442068683A6D6D3A73732900000000000000000000 PUSH1 0x20 DUP3 ADD MSTORE POP JUMP JUMPDEST PUSH1 0x0 PUSH2 0x2452 PUSH1 0x36 DUP4 PUSH2 0x1BFF JUMP JUMPDEST SWAP2 POP PUSH2 0x245D DUP3 PUSH2 0x23F6 JUMP JUMPDEST PUSH1 0x40 DUP3 ADD SWAP1 POP SWAP2 SWAP1 POP JUMP JUMPDEST PUSH1 0x0 PUSH1 0x20 DUP3 ADD SWAP1 POP DUP2 DUP2 SUB PUSH1 0x0 DUP4 ADD MSTORE PUSH2 0x2481 DUP2 PUSH2 0x2445 JUMP JUMPDEST SWAP1 POP SWAP2 SWAP1 POP JUMP JUMPDEST PUSH32 0x496E76616C6964206D6F6E746800000000000000000000000000000000000000 PUSH1 0x0 DUP3 ADD MSTORE POP JUMP JUMPDEST PUSH1 0x0 PUSH2 0x24BE PUSH1 0xD DUP4 PUSH2 0x1BFF JUMP JUMPDEST SWAP2 POP PUSH2 0x24C9 DUP3 PUSH2 0x2488 JUMP JUMPDEST PUSH1 0x20 DUP3 ADD SWAP1 POP SWAP2 SWAP1 POP JUMP JUMPDEST PUSH1 0x0 PUSH1 0x20 DUP3 ADD SWAP1 POP DUP2 DUP2 SUB PUSH1 0x0 DUP4 ADD MSTORE PUSH2 0x24ED DUP2 PUSH2 0x24B1 JUMP JUMPDEST SWAP1 POP SWAP2 SWAP1 POP JUMP JUMPDEST PUSH32 0x496E76616C696420646179000000000000000000000000000000000000000000 PUSH1 0x0 DUP3 ADD MSTORE POP JUMP JUMPDEST PUSH1 0x0 PUSH2 0x252A PUSH1 0xB DUP4 PUSH2 0x1BFF JUMP JUMPDEST SWAP2 POP PUSH2 0x2535 DUP3 PUSH2 0x24F4 JUMP JUMPDEST PUSH1 0x20 DUP3 ADD SWAP1 POP SWAP2 SWAP1 POP JUMP JUMPDEST PUSH1 0x0 PUSH1 0x20 DUP3 ADD SWAP1 POP DUP2 DUP2 SUB PUSH1 0x0 DUP4 ADD MSTORE PUSH2 0x2559 DUP2 PUSH2 0x251D JUMP JUMPDEST SWAP1 POP SWAP2 SWAP1 POP JUMP JUMPDEST PUSH32 0x496E76616C696420686F75720000000000000000000000000000000000000000 PUSH1 0x0 DUP3 ADD MSTORE POP JUMP JUMPDEST PUSH1 0x0 PUSH2 0x2596 PUSH1 0xC DUP4 PUSH2 0x1BFF JUMP JUMPDEST SWAP2 POP PUSH2 0x25A1 DUP3 PUSH2 0x2560 JUMP JUMPDEST PUSH1 0x20 DUP3 ADD SWAP1 POP SWAP2 SWAP1 POP JUMP JUMPDEST PUSH1 0x0 PUSH1 0x20 DUP3 ADD SWAP1 POP DUP2 DUP2 SUB PUSH1 0x0 DUP4 ADD MSTORE PUSH2 0x25C5 DUP2 PUSH2 0x2589 JUMP JUMPDEST SWAP1 POP SWAP2 SWAP1 POP JUMP JUMPDEST PUSH32 0x496E76616C6964206D696E757465000000000000000000000000000000000000 PUSH1 0x0 DUP3 ADD MSTORE POP JUMP JUMPDEST PUSH1 0x0 PUSH2 0x2602 PUSH1 0xE DUP4 PUSH2 0x1BFF JUMP JUMPDEST SWAP2 POP PUSH2 0x260D DUP3 PUSH2 0x25CC JUMP JUMPDEST PUSH1 0x20 DUP3 ADD SWAP1 POP SWAP2 SWAP1 POP JUMP JUMPDEST PUSH1 0x0 PUSH1 0x20 DUP3 ADD SWAP1 POP DUP2 DUP2 SUB PUSH1 0x0 DUP4 ADD MSTORE PUSH2 0x2631 DUP2 PUSH2 0x25F5 JUMP JUMPDEST SWAP1 POP SWAP2 SWAP1 POP JUMP JUMPDEST PUSH32 0x496E76616C6964207365636F6E64000000000000000000000000000000000000 PUSH1 0x0 DUP3 ADD MSTORE POP JUMP JUMPDEST PUSH1 0x0 PUSH2 0x266E PUSH1 0xE DUP4 PUSH2 0x1BFF JUMP JUMPDEST SWAP2 POP PUSH2 0x2679 DUP3 PUSH2 0x2638 JUMP JUMPDEST PUSH1 0x20 DUP3 ADD SWAP1 POP SWAP2 SWAP1 POP JUMP JUMPDEST PUSH1 0x0 PUSH1 0x20 DUP3 ADD SWAP1 POP DUP2 DUP2 SUB PUSH1 0x0 DUP4 ADD MSTORE PUSH2 0x269D DUP2 PUSH2 0x2661 JUMP JUMPDEST SWAP1 POP SWAP2 SWAP1 POP JUMP JUMPDEST PUSH32 0x56616C7565206F766572666C6F77000000000000000000000000000000000000 PUSH1 0x0 DUP3 ADD MSTORE POP JUMP JUMPDEST PUSH1 0x0 PUSH2 0x26DA PUSH1 0xE DUP4 PUSH2 0x1BFF JUMP JUMPDEST SWAP2 POP PUSH2 0x26E5 DUP3 PUSH2 0x26A4 JUMP JUMPDEST PUSH1 0x20 DUP3 ADD SWAP1 POP SWAP2 SWAP1 POP JUMP JUMPDEST PUSH1 0x0 PUSH1 0x20 DUP3 ADD SWAP1 POP DUP2 DUP2 SUB PUSH1 0x0 DUP4 ADD MSTORE PUSH2 0x2709 DUP2 PUSH2 0x26CD JUMP JUMPDEST SWAP1 POP SWAP2 SWAP1 POP JUMP JUMPDEST PUSH1 0x0 PUSH1 0x40 DUP3 ADD SWAP1 POP PUSH2 0x2725 PUSH1 0x0 DUP4 ADD DUP6 PUSH2 0x1B3F JUMP JUMPDEST PUSH2 0x2732 PUSH1 0x20 DUP4 ADD DUP5 PUSH2 0x1B3F JUMP JUMPDEST SWAP4 SWAP3 POP POP POP JUMP JUMPDEST PUSH1 0x0 DUP2 SWAP1 POP SWAP3 SWAP2 POP POP JUMP JUMPDEST POP JUMP JUMPDEST PUSH1 0x0 PUSH2 0x2754 PUSH1 0x0 DUP4 PUSH2 0x2739 JUMP JUMPDEST SWAP2 POP PUSH2 0x275F DUP3 PUSH2 0x2744 JUMP JUMPDEST PUSH1 0x0 DUP3 ADD SWAP1 POP SWAP2 SWAP1 POP JUMP JUMPDEST PUSH1 0x0 PUSH2 0x2775 DUP3 PUSH2 0x2747 JUMP JUMPDEST SWAP2 POP DUP2 SWAP1 POP SWAP2 SWAP1 POP JUMP JUMPDEST PUSH1 0x0 DUP2 SWAP1 POP SWAP2 SWAP1 POP JUMP JUMPDEST PUSH1 0x0 PUSH2 0x2794 DUP3 PUSH2 0x277F JUMP JUMPDEST SWAP2 POP PUSH2 0x279F DUP4 PUSH2 0x277F JUMP JUMPDEST SWAP3 POP DUP3 DUP3 ADD SWAP1 POP DUP3 DUP2 SLT ISZERO PUSH1 0x0 DUP4 SLT AND DUP4 DUP3 SLT PUSH1 0x0 DUP5 SLT ISZERO AND OR ISZERO PUSH2 0x27C7 JUMPI PUSH2 0x27C6 PUSH2 0x1F14 JUMP JUMPDEST JUMPDEST SWAP3 SWAP2 POP POP JUMP JUMPDEST PUSH1 0x0 PUSH2 0x27D8 DUP3 PUSH2 0x277F JUMP JUMPDEST SWAP2 POP PUSH2 0x27E3 DUP4 PUSH2 0x277F JUMP JUMPDEST SWAP3 POP DUP3 DUP3 MUL PUSH2 0x27F1 DUP2 PUSH2 0x277F JUMP JUMPDEST SWAP2 POP PUSH32 0x8000000000000000000000000000000000000000000000000000000000000000 DUP5 EQ PUSH1 0x0 DUP5 SLT AND ISZERO PUSH2 0x2829 JUMPI PUSH2 0x2828 PUSH2 0x1F14 JUMP JUMPDEST JUMPDEST DUP3 DUP3 SDIV DUP5 EQ DUP4 ISZERO OR PUSH2 0x283E JUMPI PUSH2 0x283D PUSH2 0x1F14 JUMP JUMPDEST JUMPDEST POP SWAP3 SWAP2 POP POP JUMP JUMPDEST PUSH1 0x0 PUSH2 0x2850 DUP3 PUSH2 0x277F JUMP JUMPDEST SWAP2 POP PUSH2 0x285B DUP4 PUSH2 0x277F JUMP JUMPDEST SWAP3 POP DUP3 PUSH2 0x286B JUMPI PUSH2 0x286A PUSH2 0x20C8 JUMP JUMPDEST JUMPDEST PUSH1 0x1 PUSH1 0x0 SUB DUP4 EQ PUSH32 0x8000000000000000000000000000000000000000000000000000000000000000 DUP4 EQ AND ISZERO PUSH2 0x28A4 JUMPI PUSH2 0x28A3 PUSH2 0x1F14 JUMP JUMPDEST JUMPDEST DUP3 DUP3 SDIV SWAP1 POP SWAP3 SWAP2 POP POP JUMP JUMPDEST PUSH1 0x0 PUSH2 0x28BA DUP3 PUSH2 0x277F JUMP JUMPDEST SWAP2 POP PUSH2 0x28C5 DUP4 PUSH2 0x277F JUMP JUMPDEST SWAP3 POP DUP3 DUP3 SUB SWAP1 POP DUP2 DUP2 SLT PUSH1 0x0 DUP5 SLT AND DUP3 DUP3 SGT PUSH1 0x0 DUP6 SLT ISZERO AND OR ISZERO PUSH2 0x28EC JUMPI PUSH2 0x28EB PUSH2 0x1F14 JUMP JUMPDEST JUMPDEST SWAP3 SWAP2 POP POP JUMP JUMPDEST PUSH32 0x496E76616C696420646967697400000000000000000000000000000000000000 PUSH1 0x0 DUP3 ADD MSTORE POP JUMP JUMPDEST PUSH1 0x0 PUSH2 0x2928 PUSH1 0xD DUP4 PUSH2 0x1BFF JUMP JUMPDEST SWAP2 POP PUSH2 0x2933 DUP3 PUSH2 0x28F2 JUMP JUMPDEST PUSH1 0x20 DUP3 ADD SWAP1 POP SWAP2 SWAP1 POP JUMP JUMPDEST PUSH1 0x0 PUSH1 0x20 DUP3 ADD SWAP1 POP DUP2 DUP2 SUB PUSH1 0x0 DUP4 ADD MSTORE PUSH2 0x2957 DUP2 PUSH2 0x291B JUMP JUMPDEST SWAP1 POP SWAP2 SWAP1 POP JUMP INVALID LOG2 PUSH5 0x6970667358 0x22 SLT KECCAK256 SWAP7 0x2F RETURNDATACOPY 0xCE 0xE7 0xD 0x4B MSTORE DUP5 0xA8 SLT 0xD7 BALANCE 0xCF LOG3 0x26 SWAP15 SWAP8 DUP8 PUSH8 0xB07CDCDD2D961A19 DUP14 0x4A 0xC5 LT PUSH5 0x736F6C6343 STOP ADDMOD EQ STOP CALLER "},"gasEstimates":{"creation":{"codeDepositCost":"2128800","executionCost":"infinite","totalCost":"infinite"},"external":{"dateTimeToTimestamp(string)":"infinite","duration()":"infinite","end()":"infinite","endDateTime()":"infinite","getUsername()":"infinite","owner()":"2567","releasable()":"infinite","releasable(address)":"infinite","release()":"infinite","release(address)":"infinite","released()":"2504","released(address)":"2930","renounceOwnership()":"infinite","start()":"infinite","startDateTime()":"infinite","transferOwnership(address)":"infinite","vestedAmount(address,uint64)":"infinite","vestedAmount(uint64)":"infinite","vestedAmountWithDateTime(address,string)":"infinite"},"internal":{"_isLeapYear(uint256)":"infinite","_padZero(uint256)":"infinite","_parseInt(bytes memory,uint256,uint256)":"infinite","_stringToTimestamp(string memory)":"infinite","_toUint64Safe(uint256)":"infinite","_uintToString(uint256)":"infinite"}},"methodIdentifiers":{"dateTimeToTimestamp(string)":"ad34ec2a","duration()":"0fb5a6b4","end()":"efbe1c1c","endDateTime()":"3c9177cd","getUsername()":"681f3e6d","owner()":"8da5cb5b","releasable()":"fbccedae","releasable(address)":"a3f8eace","release()":"86d1a69f","release(address)":"19165587","released()":"96132521","released(address)":"9852595c","renounceOwnership()":"715018a6","start()":"be9a6555","startDateTime()":"775f75df","transferOwnership(address)":"f2fde38b","vestedAmount(address,uint64)":"810ec23b","vestedAmount(uint64)":"0a17b06b","vestedAmountWithDateTime(address,string)":"47fc5543"}},"storageLayout":{"storage":[{"astId":35,"contract":"contracts/PRCC_Vesting.sol:PRCC_Vesting","label":"_owner","offset":0,"slot":"0","type":"t_address"},{"astId":1096,"contract":"contracts/PRCC_Vesting.sol:PRCC_Vesting","label":"_released","offset":0,"slot":"1","type":"t_uint256"},{"astId":1100,"contract":"contracts/PRCC_Vesting.sol:PRCC_Vesting","label":"_erc20Released","offset":0,"slot":"2","type":"t_mapping(t_address,t_uint256)"},{"astId":7809,"contract":"contracts/PRCC_Vesting.sol:PRCC_Vesting","label":"_username","offset":0,"slot":"3","type":"t_string_storage"}],"types":{"t_address":{"encoding":"inplace","label":"address","numberOfBytes":"20"},"t_mapping(t_address,t_uint256)":{"encoding":"mapping","key":"t_address","label":"mapping(address => uint256)","numberOfBytes":"32","value":"t_uint256"},"t_string_storage":{"encoding":"bytes","label":"string","numberOfBytes":"32"},"t_uint256":{"encoding":"inplace","label":"uint256","numberOfBytes":"32"}}},"userdoc":{"kind":"user","methods":{},"version":1}}}}