{"contracts/PRCC_Vesting.sol":{"VestingWallet":{"abi":[{"inputs":[{"internalType":"address","name":"beneficiary","type":"address"},{"internalType":"uint64","name":"startTimestamp","type":"uint64"},{"internalType":"uint64","name":"durationSeconds","type":"uint64"}],"stateMutability":"payable","type":"constructor"},{"inputs":[],"name":"FailedCall","type":"error"},{"inputs":[{"internalType":"uint256","name":"balance","type":"uint256"},{"internalType":"uint256","name":"needed","type":"uint256"}],"name":"InsufficientBalance","type":"error"},{"inputs":[{"internalType":"address","name":"owner","type":"address"}],"name":"OwnableInvalidOwner","type":"error"},{"inputs":[{"internalType":"address","name":"account","type":"address"}],"name":"OwnableUnauthorizedAccount","type":"error"},{"inputs":[{"internalType":"address","name":"token","type":"address"}],"name":"SafeERC20FailedOperation","type":"error"},{"anonymous":false,"inputs":[{"indexed":true,"internalType":"address","name":"token","type":"address"},{"indexed":false,"internalType":"uint256","name":"amount","type":"uint256"}],"name":"ERC20Released","type":"event"},{"anonymous":false,"inputs":[{"indexed":false,"internalType":"uint256","name":"amount","type":"uint256"}],"name":"EtherReleased","type":"event"},{"anonymous":false,"inputs":[{"indexed":true,"internalType":"address","name":"previousOwner","type":"address"},{"indexed":true,"internalType":"address","name":"newOwner","type":"address"}],"name":"OwnershipTransferred","type":"event"},{"inputs":[],"name":"duration","outputs":[{"internalType":"uint256","name":"","type":"uint256"}],"stateMutability":"view","type":"function"},{"inputs":[],"name":"end","outputs":[{"internalType":"uint256","name":"","type":"uint256"}],"stateMutability":"view","type":"function"},{"inputs":[],"name":"owner","outputs":[{"internalType":"address","name":"","type":"address"}],"stateMutability":"view","type":"function"},{"inputs":[{"internalType":"address","name":"token","type":"address"}],"name":"releasable","outputs":[{"internalType":"uint256","name":"","type":"uint256"}],"stateMutability":"view","type":"function"},{"inputs":[],"name":"releasable","outputs":[{"internalType":"uint256","name":"","type":"uint256"}],"stateMutability":"view","type":"function"},{"inputs":[{"internalType":"address","name":"token","type":"address"}],"name":"release","outputs":[],"stateMutability":"nonpayable","type":"function"},{"inputs":[],"name":"release","outputs":[],"stateMutability":"nonpayable","type":"function"},{"inputs":[],"name":"released","outputs":[{"internalType":"uint256","name":"","type":"uint256"}],"stateMutability":"view","type":"function"},{"inputs":[{"internalType":"address","name":"token","type":"address"}],"name":"released","outputs":[{"internalType":"uint256","name":"","type":"uint256"}],"stateMutability":"view","type":"function"},{"inputs":[],"name":"renounceOwnership","outputs":[],"stateMutability":"nonpayable","type":"function"},{"inputs":[],"name":"start","outputs":[{"internalType":"uint256","name":"","type":"uint256"}],"stateMutability":"view","type":"function"},{"inputs":[{"internalType":"address","name":"newOwner","type":"address"}],"name":"transferOwnership","outputs":[],"stateMutability":"nonpayable","type":"function"},{"inputs":[{"internalType":"uint64","name":"timestamp","type":"uint64"}],"name":"vestedAmount","outputs":[{"internalType":"uint256","name":"","type":"uint256"}],"stateMutability":"view","type":"function"},{"inputs":[{"internalType":"address","name":"token","type":"address"},{"internalType":"uint64","name":"timestamp","type":"uint64"}],"name":"vestedAmount","outputs":[{"internalType":"uint256","name":"","type":"uint256"}],"stateMutability":"view","type":"function"},{"stateMutability":"payable","type":"receive"}],"devdoc":{"details":"A vesting wallet is an ownable contract that can receive native currency and ERC-20 tokens, and release these assets to the wallet owner, also referred to as \"beneficiary\", according to a vesting schedule. Any assets transferred to this contract will follow the vesting schedule as if they were locked from the beginning. Consequently, if the vesting has already started, any amount of tokens sent to this contract will (at least partly) be immediately releasable. By setting the duration to 0, one can configure this contract to behave like an asset timelock that holds tokens for a beneficiary until a specified time. NOTE: Since the wallet is {Ownable}, and ownership can be transferred, it is possible to sell unvested tokens. Preventing this in a smart contract is difficult, considering that: 1) a beneficiary address could be a counterfactually deployed contract, 2) there is likely to be a migration path for EOAs to become contracts in the near future. NOTE: When using this contract with any token whose balance is adjusted automatically (i.e. a rebase token), make sure to account the supply/balance adjustment in the vesting schedule to ensure the vested amount is as intended. NOTE: Chains with support for native ERC20s may allow the vesting wallet to withdraw the underlying asset as both an ERC20 and as native currency. For example, if chain C supports token A and the wallet gets deposited 100 A, then at 50% of the vesting period, the beneficiary can withdraw 50 A as ERC20 and 25 A as native currency (totaling 75 A). Consider disabling one of the withdrawal methods.","errors":{"FailedCall()":[{"details":"A call to an address target failed. The target may have reverted."}],"InsufficientBalance(uint256,uint256)":[{"details":"The ETH balance of the account is not enough to perform the operation."}],"OwnableInvalidOwner(address)":[{"details":"The owner is not a valid owner account. (eg. `address(0)`)"}],"OwnableUnauthorizedAccount(address)":[{"details":"The caller account is not authorized to perform an operation."}],"SafeERC20FailedOperation(address)":[{"details":"An operation with an ERC-20 token failed."}]},"kind":"dev","methods":{"constructor":{"details":"Sets the beneficiary (owner), the start timestamp and the vesting duration (in seconds) of the vesting wallet."},"duration()":{"details":"Getter for the vesting duration."},"end()":{"details":"Getter for the end timestamp."},"owner()":{"details":"Returns the address of the current owner."},"releasable()":{"details":"Getter for the amount of releasable eth."},"releasable(address)":{"details":"Getter for the amount of releasable `token` tokens. `token` should be the address of an {IERC20} contract."},"release()":{"details":"Release the native token (ether) that have already vested. Emits a {EtherReleased} event."},"release(address)":{"details":"Release the tokens that have already vested. Emits a {ERC20Released} event."},"released()":{"details":"Amount of eth already released"},"released(address)":{"details":"Amount of token already released"},"renounceOwnership()":{"details":"Leaves the contract without owner. It will not be possible to call `onlyOwner` functions. Can only be called by the current owner. NOTE: Renouncing ownership will leave the contract without an owner, thereby disabling any functionality that is only available to the owner."},"start()":{"details":"Getter for the start timestamp."},"transferOwnership(address)":{"details":"Transfers ownership of the contract to a new account (`newOwner`). Can only be called by the current owner."},"vestedAmount(address,uint64)":{"details":"Calculates the amount of tokens that has already vested. Default implementation is a linear vesting curve."},"vestedAmount(uint64)":{"details":"Calculates the amount of ether that has already vested. Default implementation is a linear vesting curve."}},"version":1},"evm":{"assembly":"    /* \"contracts/PRCC_Vesting.sol\":31938:35939  contract VestingWallet is Context, Ownable {... */\n  mstore(0x40, 0xc0)\n    /* \"contracts/PRCC_Vesting.sol\":32410:32596  constructor(address beneficiary, uint64 startTimestamp, uint64 durationSeconds) payable Ownable(beneficiary) {... */\n  mload(0x40)\n  sub(codesize, bytecodeSize)\n  dup1\n  bytecodeSize\n  dup4\n  codecopy\n  dup2\n  dup2\n  add\n  0x40\n  mstore\n  dup2\n  add\n  swap1\n  tag_1\n  swap2\n  swap1\n  tag_2\n  jump\t// in\ntag_1:\n    /* \"contracts/PRCC_Vesting.sol\":32506:32517  beneficiary */\n  dup3\n    /* \"contracts/PRCC_Vesting.sol\":2401:2402  0 */\n  0x00\n    /* \"contracts/PRCC_Vesting.sol\":2377:2403  initialOwner == address(0) */\n  0xffffffffffffffffffffffffffffffffffffffff\n  and\n    /* \"contracts/PRCC_Vesting.sol\":2377:2389  initialOwner */\n  dup2\n    /* \"contracts/PRCC_Vesting.sol\":2377:2403  initialOwner == address(0) */\n  0xffffffffffffffffffffffffffffffffffffffff\n  and\n  sub\n    /* \"contracts/PRCC_Vesting.sol\":2373:2468  if (initialOwner == address(0)) {... */\n  tag_6\n  jumpi\n    /* \"contracts/PRCC_Vesting.sol\":2454:2455  0 */\n  0x00\n    /* \"contracts/PRCC_Vesting.sol\":2426:2457  OwnableInvalidOwner(address(0)) */\n  mload(0x40)\n  0x1e4fbdf700000000000000000000000000000000000000000000000000000000\n  dup2\n  mstore\n  0x04\n  add\n  tag_7\n  swap2\n  swap1\n  tag_8\n  jump\t// in\ntag_7:\n  mload(0x40)\n  dup1\n  swap2\n  sub\n  swap1\n  revert\n    /* \"contracts/PRCC_Vesting.sol\":2373:2468  if (initialOwner == address(0)) {... */\ntag_6:\n    /* \"contracts/PRCC_Vesting.sol\":2477:2509  _transferOwnership(initialOwner) */\n  tag_9\n    /* \"contracts/PRCC_Vesting.sol\":2496:2508  initialOwner */\n  dup2\n    /* \"contracts/PRCC_Vesting.sol\":2477:2495  _transferOwnership */\n  shl(0x20, tag_10)\n    /* \"contracts/PRCC_Vesting.sol\":2477:2509  _transferOwnership(initialOwner) */\n  0x20\n  shr\n  jump\t// in\ntag_9:\n    /* \"contracts/PRCC_Vesting.sol\":2329:2516  constructor(address initialOwner) {... */\n  pop\n    /* \"contracts/PRCC_Vesting.sol\":32538:32552  startTimestamp */\n  dup2\n    /* \"contracts/PRCC_Vesting.sol\":32529:32552  _start = startTimestamp */\n  0xffffffffffffffff\n  and\n  0x80\n  dup2\n  0xffffffffffffffff\n  and\n  dup2\n  mstore\n  pop\n  pop\n    /* \"contracts/PRCC_Vesting.sol\":32574:32589  durationSeconds */\n  dup1\n    /* \"contracts/PRCC_Vesting.sol\":32562:32589  _duration = durationSeconds */\n  0xffffffffffffffff\n  and\n  0xa0\n  dup2\n  0xffffffffffffffff\n  and\n  dup2\n  mstore\n  pop\n  pop\n    /* \"contracts/PRCC_Vesting.sol\":32410:32596  constructor(address beneficiary, uint64 startTimestamp, uint64 durationSeconds) payable Ownable(beneficiary) {... */\n  pop\n  pop\n  pop\n    /* \"contracts/PRCC_Vesting.sol\":31938:35939  contract VestingWallet is Context, Ownable {... */\n  jump(tag_12)\n    /* \"contracts/PRCC_Vesting.sol\":4016:4203  function _transferOwnership(address newOwner) internal virtual {... */\ntag_10:\n    /* \"contracts/PRCC_Vesting.sol\":4089:4105  address oldOwner */\n  0x00\n    /* \"contracts/PRCC_Vesting.sol\":4108:4114  _owner */\n  dup1\n  0x00\n  swap1\n  sload\n  swap1\n  0x0100\n  exp\n  swap1\n  div\n  0xffffffffffffffffffffffffffffffffffffffff\n  and\n    /* \"contracts/PRCC_Vesting.sol\":4089:4114  address oldOwner = _owner */\n  swap1\n  pop\n    /* \"contracts/PRCC_Vesting.sol\":4133:4141  newOwner */\n  dup2\n    /* \"contracts/PRCC_Vesting.sol\":4124:4130  _owner */\n  0x00\n  dup1\n    /* \"contracts/PRCC_Vesting.sol\":4124:4141  _owner = newOwner */\n  0x0100\n  exp\n  dup2\n  sload\n  dup2\n  0xffffffffffffffffffffffffffffffffffffffff\n  mul\n  not\n  and\n  swap1\n  dup4\n  0xffffffffffffffffffffffffffffffffffffffff\n  and\n  mul\n  or\n  swap1\n  sstore\n  pop\n    /* \"contracts/PRCC_Vesting.sol\":4187:4195  newOwner */\n  dup2\n    /* \"contracts/PRCC_Vesting.sol\":4156:4196  OwnershipTransferred(oldOwner, newOwner) */\n  0xffffffffffffffffffffffffffffffffffffffff\n  and\n    /* \"contracts/PRCC_Vesting.sol\":4177:4185  oldOwner */\n  dup2\n    /* \"contracts/PRCC_Vesting.sol\":4156:4196  OwnershipTransferred(oldOwner, newOwner) */\n  0xffffffffffffffffffffffffffffffffffffffff\n  and\n  0x8be0079c531659141344cd1fd0a4f28419497f9722a3daafe3b4186f6b6457e0\n  mload(0x40)\n  mload(0x40)\n  dup1\n  swap2\n  sub\n  swap1\n  log3\n    /* \"contracts/PRCC_Vesting.sol\":4079:4203  {... */\n  pop\n    /* \"contracts/PRCC_Vesting.sol\":4016:4203  function _transferOwnership(address newOwner) internal virtual {... */\n  pop\n  jump\t// out\n    /* \"#utility.yul\":88:205   */\ntag_15:\n    /* \"#utility.yul\":197:198   */\n  0x00\n    /* \"#utility.yul\":194:195   */\n  dup1\n    /* \"#utility.yul\":187:199   */\n  revert\n    /* \"#utility.yul\":334:460   */\ntag_17:\n    /* \"#utility.yul\":371:378   */\n  0x00\n    /* \"#utility.yul\":411:453   */\n  0xffffffffffffffffffffffffffffffffffffffff\n    /* \"#utility.yul\":404:409   */\n  dup3\n    /* \"#utility.yul\":400:454   */\n  and\n    /* \"#utility.yul\":389:454   */\n  swap1\n  pop\n    /* \"#utility.yul\":334:460   */\n  swap2\n  swap1\n  pop\n  jump\t// out\n    /* \"#utility.yul\":466:562   */\ntag_18:\n    /* \"#utility.yul\":503:510   */\n  0x00\n    /* \"#utility.yul\":532:556   */\n  tag_31\n    /* \"#utility.yul\":550:555   */\n  dup3\n    /* \"#utility.yul\":532:556   */\n  tag_17\n  jump\t// in\ntag_31:\n    /* \"#utility.yul\":521:556   */\n  swap1\n  pop\n    /* \"#utility.yul\":466:562   */\n  swap2\n  swap1\n  pop\n  jump\t// out\n    /* \"#utility.yul\":568:690   */\ntag_19:\n    /* \"#utility.yul\":641:665   */\n  tag_33\n    /* \"#utility.yul\":659:664   */\n  dup2\n    /* \"#utility.yul\":641:665   */\n  tag_18\n  jump\t// in\ntag_33:\n    /* \"#utility.yul\":634:639   */\n  dup2\n    /* \"#utility.yul\":631:666   */\n  eq\n    /* \"#utility.yul\":621:684   */\n  tag_34\n  jumpi\n    /* \"#utility.yul\":680:681   */\n  0x00\n    /* \"#utility.yul\":677:678   */\n  dup1\n    /* \"#utility.yul\":670:682   */\n  revert\n    /* \"#utility.yul\":621:684   */\ntag_34:\n    /* \"#utility.yul\":568:690   */\n  pop\n  jump\t// out\n    /* \"#utility.yul\":696:839   */\ntag_20:\n    /* \"#utility.yul\":753:758   */\n  0x00\n    /* \"#utility.yul\":784:790   */\n  dup2\n    /* \"#utility.yul\":778:791   */\n  mload\n    /* \"#utility.yul\":769:791   */\n  swap1\n  pop\n    /* \"#utility.yul\":800:833   */\n  tag_36\n    /* \"#utility.yul\":827:832   */\n  dup2\n    /* \"#utility.yul\":800:833   */\n  tag_19\n  jump\t// in\ntag_36:\n    /* \"#utility.yul\":696:839   */\n  swap3\n  swap2\n  pop\n  pop\n  jump\t// out\n    /* \"#utility.yul\":845:946   */\ntag_21:\n    /* \"#utility.yul\":881:888   */\n  0x00\n    /* \"#utility.yul\":921:939   */\n  0xffffffffffffffff\n    /* \"#utility.yul\":914:919   */\n  dup3\n    /* \"#utility.yul\":910:940   */\n  and\n    /* \"#utility.yul\":899:940   */\n  swap1\n  pop\n    /* \"#utility.yul\":845:946   */\n  swap2\n  swap1\n  pop\n  jump\t// out\n    /* \"#utility.yul\":952:1072   */\ntag_22:\n    /* \"#utility.yul\":1024:1047   */\n  tag_39\n    /* \"#utility.yul\":1041:1046   */\n  dup2\n    /* \"#utility.yul\":1024:1047   */\n  tag_21\n  jump\t// in\ntag_39:\n    /* \"#utility.yul\":1017:1022   */\n  dup2\n    /* \"#utility.yul\":1014:1048   */\n  eq\n    /* \"#utility.yul\":1004:1066   */\n  tag_40\n  jumpi\n    /* \"#utility.yul\":1062:1063   */\n  0x00\n    /* \"#utility.yul\":1059:1060   */\n  dup1\n    /* \"#utility.yul\":1052:1064   */\n  revert\n    /* \"#utility.yul\":1004:1066   */\ntag_40:\n    /* \"#utility.yul\":952:1072   */\n  pop\n  jump\t// out\n    /* \"#utility.yul\":1078:1219   */\ntag_23:\n    /* \"#utility.yul\":1134:1139   */\n  0x00\n    /* \"#utility.yul\":1165:1171   */\n  dup2\n    /* \"#utility.yul\":1159:1172   */\n  mload\n    /* \"#utility.yul\":1150:1172   */\n  swap1\n  pop\n    /* \"#utility.yul\":1181:1213   */\n  tag_42\n    /* \"#utility.yul\":1207:1212   */\n  dup2\n    /* \"#utility.yul\":1181:1213   */\n  tag_22\n  jump\t// in\ntag_42:\n    /* \"#utility.yul\":1078:1219   */\n  swap3\n  swap2\n  pop\n  pop\n  jump\t// out\n    /* \"#utility.yul\":1225:1884   */\ntag_2:\n    /* \"#utility.yul\":1311:1317   */\n  0x00\n    /* \"#utility.yul\":1319:1325   */\n  dup1\n    /* \"#utility.yul\":1327:1333   */\n  0x00\n    /* \"#utility.yul\":1376:1378   */\n  0x60\n    /* \"#utility.yul\":1364:1373   */\n  dup5\n    /* \"#utility.yul\":1355:1362   */\n  dup7\n    /* \"#utility.yul\":1351:1374   */\n  sub\n    /* \"#utility.yul\":1347:1379   */\n  slt\n    /* \"#utility.yul\":1344:1463   */\n  iszero\n  tag_44\n  jumpi\n    /* \"#utility.yul\":1382:1461   */\n  tag_45\n  tag_15\n  jump\t// in\ntag_45:\n    /* \"#utility.yul\":1344:1463   */\ntag_44:\n    /* \"#utility.yul\":1502:1503   */\n  0x00\n    /* \"#utility.yul\":1527:1591   */\n  tag_46\n    /* \"#utility.yul\":1583:1590   */\n  dup7\n    /* \"#utility.yul\":1574:1580   */\n  dup3\n    /* \"#utility.yul\":1563:1572   */\n  dup8\n    /* \"#utility.yul\":1559:1581   */\n  add\n    /* \"#utility.yul\":1527:1591   */\n  tag_20\n  jump\t// in\ntag_46:\n    /* \"#utility.yul\":1517:1591   */\n  swap4\n  pop\n    /* \"#utility.yul\":1473:1601   */\n  pop\n    /* \"#utility.yul\":1640:1642   */\n  0x20\n    /* \"#utility.yul\":1666:1729   */\n  tag_47\n    /* \"#utility.yul\":1721:1728   */\n  dup7\n    /* \"#utility.yul\":1712:1718   */\n  dup3\n    /* \"#utility.yul\":1701:1710   */\n  dup8\n    /* \"#utility.yul\":1697:1719   */\n  add\n    /* \"#utility.yul\":1666:1729   */\n  tag_23\n  jump\t// in\ntag_47:\n    /* \"#utility.yul\":1656:1729   */\n  swap3\n  pop\n    /* \"#utility.yul\":1611:1739   */\n  pop\n    /* \"#utility.yul\":1778:1780   */\n  0x40\n    /* \"#utility.yul\":1804:1867   */\n  tag_48\n    /* \"#utility.yul\":1859:1866   */\n  dup7\n    /* \"#utility.yul\":1850:1856   */\n  dup3\n    /* \"#utility.yul\":1839:1848   */\n  dup8\n    /* \"#utility.yul\":1835:1857   */\n  add\n    /* \"#utility.yul\":1804:1867   */\n  tag_23\n  jump\t// in\ntag_48:\n    /* \"#utility.yul\":1794:1867   */\n  swap2\n  pop\n    /* \"#utility.yul\":1749:1877   */\n  pop\n    /* \"#utility.yul\":1225:1884   */\n  swap3\n  pop\n  swap3\n  pop\n  swap3\n  jump\t// out\n    /* \"#utility.yul\":1890:2008   */\ntag_24:\n    /* \"#utility.yul\":1977:2001   */\n  tag_50\n    /* \"#utility.yul\":1995:2000   */\n  dup2\n    /* \"#utility.yul\":1977:2001   */\n  tag_18\n  jump\t// in\ntag_50:\n    /* \"#utility.yul\":1972:1975   */\n  dup3\n    /* \"#utility.yul\":1965:2002   */\n  mstore\n    /* \"#utility.yul\":1890:2008   */\n  pop\n  pop\n  jump\t// out\n    /* \"#utility.yul\":2014:2236   */\ntag_8:\n    /* \"#utility.yul\":2107:2111   */\n  0x00\n    /* \"#utility.yul\":2145:2147   */\n  0x20\n    /* \"#utility.yul\":2134:2143   */\n  dup3\n    /* \"#utility.yul\":2130:2148   */\n  add\n    /* \"#utility.yul\":2122:2148   */\n  swap1\n  pop\n    /* \"#utility.yul\":2158:2229   */\n  tag_52\n    /* \"#utility.yul\":2226:2227   */\n  0x00\n    /* \"#utility.yul\":2215:2224   */\n  dup4\n    /* \"#utility.yul\":2211:2228   */\n  add\n    /* \"#utility.yul\":2202:2208   */\n  dup5\n    /* \"#utility.yul\":2158:2229   */\n  tag_24\n  jump\t// in\ntag_52:\n    /* \"#utility.yul\":2014:2236   */\n  swap3\n  swap2\n  pop\n  pop\n  jump\t// out\n    /* \"contracts/PRCC_Vesting.sol\":31938:35939  contract VestingWallet is Context, Ownable {... */\ntag_12:\n  mload(0x80)\n  mload(0xa0)\n  codecopy(0x00, dataOffset(sub_0), dataSize(sub_0))\n  0x00\n  assignImmutable(\"0x208ad8d9d4ca969ed7f17809392789f61ed5b8bb6f6790375ce7d972071a1fbe\")\n  0x00\n  assignImmutable(\"0x7e61868c26ad9542219295e4248d06589934ece56761f625f341eef80a4788c7\")\n  return(0x00, dataSize(sub_0))\nstop\n\nsub_0: assembly {\n        /* \"contracts/PRCC_Vesting.sol\":31938:35939  contract VestingWallet is Context, Ownable {... */\n      mstore(0x40, 0x80)\n      jumpi(tag_1, lt(calldatasize, 0x04))\n      shr(0xe0, calldataload(0x00))\n      dup1\n      0x96132521\n      gt\n      tag_17\n      jumpi\n      dup1\n      0xbe9a6555\n      gt\n      tag_18\n      jumpi\n      dup1\n      0xbe9a6555\n      eq\n      tag_13\n      jumpi\n      dup1\n      0xefbe1c1c\n      eq\n      tag_14\n      jumpi\n      dup1\n      0xf2fde38b\n      eq\n      tag_15\n      jumpi\n      dup1\n      0xfbccedae\n      eq\n      tag_16\n      jumpi\n      jump(tag_2)\n    tag_18:\n      dup1\n      0x96132521\n      eq\n      tag_10\n      jumpi\n      dup1\n      0x9852595c\n      eq\n      tag_11\n      jumpi\n      dup1\n      0xa3f8eace\n      eq\n      tag_12\n      jumpi\n      jump(tag_2)\n    tag_17:\n      dup1\n      0x715018a6\n      gt\n      tag_19\n      jumpi\n      dup1\n      0x715018a6\n      eq\n      tag_6\n      jumpi\n      dup1\n      0x810ec23b\n      eq\n      tag_7\n      jumpi\n      dup1\n      0x86d1a69f\n      eq\n      tag_8\n      jumpi\n      dup1\n      0x8da5cb5b\n      eq\n      tag_9\n      jumpi\n      jump(tag_2)\n    tag_19:\n      dup1\n      0x0a17b06b\n      eq\n      tag_3\n      jumpi\n      dup1\n      0x0fb5a6b4\n      eq\n      tag_4\n      jumpi\n      dup1\n      0x19165587\n      eq\n      tag_5\n      jumpi\n      jump(tag_2)\n    tag_1:\n      jumpi(tag_2, calldatasize)\n      stop\n    tag_2:\n      0x00\n      dup1\n      revert\n        /* \"contracts/PRCC_Vesting.sol\":34882:35047  function vestedAmount(uint64 timestamp) public view virtual returns (uint256) {... */\n    tag_3:\n      callvalue\n      dup1\n      iszero\n      tag_22\n      jumpi\n      0x00\n      dup1\n      revert\n    tag_22:\n      pop\n      tag_23\n      0x04\n      dup1\n      calldatasize\n      sub\n      dup2\n      add\n      swap1\n      tag_24\n      swap2\n      swap1\n      tag_25\n      jump\t// in\n    tag_24:\n      tag_26\n      jump\t// in\n    tag_23:\n      mload(0x40)\n      tag_27\n      swap2\n      swap1\n      tag_28\n      jump\t// in\n    tag_27:\n      mload(0x40)\n      dup1\n      swap2\n      sub\n      swap1\n      return\n        /* \"contracts/PRCC_Vesting.sol\":32929:33020  function duration() public view virtual returns (uint256) {... */\n    tag_4:\n      callvalue\n      dup1\n      iszero\n      tag_29\n      jumpi\n      0x00\n      dup1\n      revert\n    tag_29:\n      pop\n      tag_30\n      tag_31\n      jump\t// in\n    tag_30:\n      mload(0x40)\n      tag_32\n      swap2\n      swap1\n      tag_28\n      jump\t// in\n    tag_32:\n      mload(0x40)\n      dup1\n      swap2\n      sub\n      swap1\n      return\n        /* \"contracts/PRCC_Vesting.sol\":34496:34742  function release(address token) public virtual {... */\n    tag_5:\n      callvalue\n      dup1\n      iszero\n      tag_33\n      jumpi\n      0x00\n      dup1\n      revert\n    tag_33:\n      pop\n      tag_34\n      0x04\n      dup1\n      calldatasize\n      sub\n      dup2\n      add\n      swap1\n      tag_35\n      swap2\n      swap1\n      tag_36\n      jump\t// in\n    tag_35:\n      tag_37\n      jump\t// in\n    tag_34:\n      stop\n        /* \"contracts/PRCC_Vesting.sol\":3397:3498  function renounceOwnership() public virtual onlyOwner {... */\n    tag_6:\n      callvalue\n      dup1\n      iszero\n      tag_38\n      jumpi\n      0x00\n      dup1\n      revert\n    tag_38:\n      pop\n      tag_39\n      tag_40\n      jump\t// in\n    tag_39:\n      stop\n        /* \"contracts/PRCC_Vesting.sol\":35188:35390  function vestedAmount(address token, uint64 timestamp) public view virtual returns (uint256) {... */\n    tag_7:\n      callvalue\n      dup1\n      iszero\n      tag_41\n      jumpi\n      0x00\n      dup1\n      revert\n    tag_41:\n      pop\n      tag_42\n      0x04\n      dup1\n      calldatasize\n      sub\n      dup2\n      add\n      swap1\n      tag_43\n      swap2\n      swap1\n      tag_44\n      jump\t// in\n    tag_43:\n      tag_45\n      jump\t// in\n    tag_42:\n      mload(0x40)\n      tag_46\n      swap2\n      swap1\n      tag_28\n      jump\t// in\n    tag_46:\n      mload(0x40)\n      dup1\n      swap2\n      sub\n      swap1\n      return\n        /* \"contracts/PRCC_Vesting.sol\":34174:34372  function release() public virtual {... */\n    tag_8:\n      callvalue\n      dup1\n      iszero\n      tag_47\n      jumpi\n      0x00\n      dup1\n      revert\n    tag_47:\n      pop\n      tag_48\n      tag_49\n      jump\t// in\n    tag_48:\n      stop\n        /* \"contracts/PRCC_Vesting.sol\":2742:2827  function owner() public view virtual returns (address) {... */\n    tag_9:\n      callvalue\n      dup1\n      iszero\n      tag_50\n      jumpi\n      0x00\n      dup1\n      revert\n    tag_50:\n      pop\n      tag_51\n      tag_52\n      jump\t// in\n    tag_51:\n      mload(0x40)\n      tag_53\n      swap2\n      swap1\n      tag_54\n      jump\t// in\n    tag_53:\n      mload(0x40)\n      dup1\n      swap2\n      sub\n      swap1\n      return\n        /* \"contracts/PRCC_Vesting.sol\":33246:33337  function released() public view virtual returns (uint256) {... */\n    tag_10:\n      callvalue\n      dup1\n      iszero\n      tag_55\n      jumpi\n      0x00\n      dup1\n      revert\n    tag_55:\n      pop\n      tag_56\n      tag_57\n      jump\t// in\n    tag_56:\n      mload(0x40)\n      tag_58\n      swap2\n      swap1\n      tag_28\n      jump\t// in\n    tag_58:\n      mload(0x40)\n      dup1\n      swap2\n      sub\n      swap1\n      return\n        /* \"contracts/PRCC_Vesting.sol\":33404:33520  function released(address token) public view virtual returns (uint256) {... */\n    tag_11:\n      callvalue\n      dup1\n      iszero\n      tag_59\n      jumpi\n      0x00\n      dup1\n      revert\n    tag_59:\n      pop\n      tag_60\n      0x04\n      dup1\n      calldatasize\n      sub\n      dup2\n      add\n      swap1\n      tag_61\n      swap2\n      swap1\n      tag_36\n      jump\t// in\n    tag_61:\n      tag_62\n      jump\t// in\n    tag_60:\n      mload(0x40)\n      tag_63\n      swap2\n      swap1\n      tag_28\n      jump\t// in\n    tag_63:\n      mload(0x40)\n      dup1\n      swap2\n      sub\n      swap1\n      return\n        /* \"contracts/PRCC_Vesting.sol\":33877:34036  function releasable(address token) public view virtual returns (uint256) {... */\n    tag_12:\n      callvalue\n      dup1\n      iszero\n      tag_64\n      jumpi\n      0x00\n      dup1\n      revert\n    tag_64:\n      pop\n      tag_65\n      0x04\n      dup1\n      calldatasize\n      sub\n      dup2\n      add\n      swap1\n      tag_66\n      swap2\n      swap1\n      tag_36\n      jump\t// in\n    tag_66:\n      tag_67\n      jump\t// in\n    tag_65:\n      mload(0x40)\n      tag_68\n      swap2\n      swap1\n      tag_28\n      jump\t// in\n    tag_68:\n      mload(0x40)\n      dup1\n      swap2\n      sub\n      swap1\n      return\n        /* \"contracts/PRCC_Vesting.sol\":32777:32862  function start() public view virtual returns (uint256) {... */\n    tag_13:\n      callvalue\n      dup1\n      iszero\n      tag_69\n      jumpi\n      0x00\n      dup1\n      revert\n    tag_69:\n      pop\n      tag_70\n      tag_71\n      jump\t// in\n    tag_70:\n      mload(0x40)\n      tag_72\n      swap2\n      swap1\n      tag_28\n      jump\t// in\n    tag_72:\n      mload(0x40)\n      dup1\n      swap2\n      sub\n      swap1\n      return\n        /* \"contracts/PRCC_Vesting.sol\":33084:33181  function end() public view virtual returns (uint256) {... */\n    tag_14:\n      callvalue\n      dup1\n      iszero\n      tag_73\n      jumpi\n      0x00\n      dup1\n      revert\n    tag_73:\n      pop\n      tag_74\n      tag_75\n      jump\t// in\n    tag_74:\n      mload(0x40)\n      tag_76\n      swap2\n      swap1\n      tag_28\n      jump\t// in\n    tag_76:\n      mload(0x40)\n      dup1\n      swap2\n      sub\n      swap1\n      return\n        /* \"contracts/PRCC_Vesting.sol\":3647:3862  function transferOwnership(address newOwner) public virtual onlyOwner {... */\n    tag_15:\n      callvalue\n      dup1\n      iszero\n      tag_77\n      jumpi\n      0x00\n      dup1\n      revert\n    tag_77:\n      pop\n      tag_78\n      0x04\n      dup1\n      calldatasize\n      sub\n      dup2\n      add\n      swap1\n      tag_79\n      swap2\n      swap1\n      tag_36\n      jump\t// in\n    tag_79:\n      tag_80\n      jump\t// in\n    tag_78:\n      stop\n        /* \"contracts/PRCC_Vesting.sol\":33595:33729  function releasable() public view virtual returns (uint256) {... */\n    tag_16:\n      callvalue\n      dup1\n      iszero\n      tag_81\n      jumpi\n      0x00\n      dup1\n      revert\n    tag_81:\n      pop\n      tag_82\n      tag_83\n      jump\t// in\n    tag_82:\n      mload(0x40)\n      tag_84\n      swap2\n      swap1\n      tag_28\n      jump\t// in\n    tag_84:\n      mload(0x40)\n      dup1\n      swap2\n      sub\n      swap1\n      return\n        /* \"contracts/PRCC_Vesting.sol\":34882:35047  function vestedAmount(uint64 timestamp) public view virtual returns (uint256) {... */\n    tag_26:\n        /* \"contracts/PRCC_Vesting.sol\":34951:34958  uint256 */\n      0x00\n        /* \"contracts/PRCC_Vesting.sol\":34977:35040  _vestingSchedule(address(this).balance + released(), timestamp) */\n      tag_86\n        /* \"contracts/PRCC_Vesting.sol\":35018:35028  released() */\n      tag_87\n        /* \"contracts/PRCC_Vesting.sol\":35018:35026  released */\n      tag_57\n        /* \"contracts/PRCC_Vesting.sol\":35018:35028  released() */\n      jump\t// in\n    tag_87:\n        /* \"contracts/PRCC_Vesting.sol\":34994:35015  address(this).balance */\n      selfbalance\n        /* \"contracts/PRCC_Vesting.sol\":34994:35028  address(this).balance + released() */\n      tag_88\n      swap2\n      swap1\n      tag_89\n      jump\t// in\n    tag_88:\n        /* \"contracts/PRCC_Vesting.sol\":35030:35039  timestamp */\n      dup4\n        /* \"contracts/PRCC_Vesting.sol\":34977:34993  _vestingSchedule */\n      tag_90\n        /* \"contracts/PRCC_Vesting.sol\":34977:35040  _vestingSchedule(address(this).balance + released(), timestamp) */\n      jump\t// in\n    tag_86:\n        /* \"contracts/PRCC_Vesting.sol\":34970:35040  return _vestingSchedule(address(this).balance + released(), timestamp) */\n      swap1\n      pop\n        /* \"contracts/PRCC_Vesting.sol\":34882:35047  function vestedAmount(uint64 timestamp) public view virtual returns (uint256) {... */\n      swap2\n      swap1\n      pop\n      jump\t// out\n        /* \"contracts/PRCC_Vesting.sol\":32929:33020  function duration() public view virtual returns (uint256) {... */\n    tag_31:\n        /* \"contracts/PRCC_Vesting.sol\":32978:32985  uint256 */\n      0x00\n        /* \"contracts/PRCC_Vesting.sol\":33004:33013  _duration */\n      immutable(\"0x208ad8d9d4ca969ed7f17809392789f61ed5b8bb6f6790375ce7d972071a1fbe\")\n        /* \"contracts/PRCC_Vesting.sol\":32997:33013  return _duration */\n      0xffffffffffffffff\n      and\n      swap1\n      pop\n        /* \"contracts/PRCC_Vesting.sol\":32929:33020  function duration() public view virtual returns (uint256) {... */\n      swap1\n      jump\t// out\n        /* \"contracts/PRCC_Vesting.sol\":34496:34742  function release(address token) public virtual {... */\n    tag_37:\n        /* \"contracts/PRCC_Vesting.sol\":34553:34567  uint256 amount */\n      0x00\n        /* \"contracts/PRCC_Vesting.sol\":34570:34587  releasable(token) */\n      tag_93\n        /* \"contracts/PRCC_Vesting.sol\":34581:34586  token */\n      dup3\n        /* \"contracts/PRCC_Vesting.sol\":34570:34580  releasable */\n      tag_67\n        /* \"contracts/PRCC_Vesting.sol\":34570:34587  releasable(token) */\n      jump\t// in\n    tag_93:\n        /* \"contracts/PRCC_Vesting.sol\":34553:34587  uint256 amount = releasable(token) */\n      swap1\n      pop\n        /* \"contracts/PRCC_Vesting.sol\":34622:34628  amount */\n      dup1\n        /* \"contracts/PRCC_Vesting.sol\":34597:34611  _erc20Released */\n      0x02\n        /* \"contracts/PRCC_Vesting.sol\":34597:34618  _erc20Released[token] */\n      0x00\n        /* \"contracts/PRCC_Vesting.sol\":34612:34617  token */\n      dup5\n        /* \"contracts/PRCC_Vesting.sol\":34597:34618  _erc20Released[token] */\n      0xffffffffffffffffffffffffffffffffffffffff\n      and\n      0xffffffffffffffffffffffffffffffffffffffff\n      and\n      dup2\n      mstore\n      0x20\n      add\n      swap1\n      dup2\n      mstore\n      0x20\n      add\n      0x00\n      keccak256\n      0x00\n        /* \"contracts/PRCC_Vesting.sol\":34597:34628  _erc20Released[token] += amount */\n      dup3\n      dup3\n      sload\n      tag_94\n      swap2\n      swap1\n      tag_89\n      jump\t// in\n    tag_94:\n      swap3\n      pop\n      pop\n      dup2\n      swap1\n      sstore\n      pop\n        /* \"contracts/PRCC_Vesting.sol\":34657:34662  token */\n      dup2\n        /* \"contracts/PRCC_Vesting.sol\":34643:34671  ERC20Released(token, amount) */\n      0xffffffffffffffffffffffffffffffffffffffff\n      and\n      0xc0e523490dd523c33b1878c9eb14ff46991e3f5b2cd33710918618f2a39cba1b\n        /* \"contracts/PRCC_Vesting.sol\":34664:34670  amount */\n      dup3\n        /* \"contracts/PRCC_Vesting.sol\":34643:34671  ERC20Released(token, amount) */\n      mload(0x40)\n      tag_95\n      swap2\n      swap1\n      tag_28\n      jump\t// in\n    tag_95:\n      mload(0x40)\n      dup1\n      swap2\n      sub\n      swap1\n      log2\n        /* \"contracts/PRCC_Vesting.sol\":34681:34735  SafeERC20.safeTransfer(IERC20(token), owner(), amount) */\n      tag_96\n        /* \"contracts/PRCC_Vesting.sol\":34711:34716  token */\n      dup3\n        /* \"contracts/PRCC_Vesting.sol\":34719:34726  owner() */\n      tag_97\n        /* \"contracts/PRCC_Vesting.sol\":34719:34724  owner */\n      tag_52\n        /* \"contracts/PRCC_Vesting.sol\":34719:34726  owner() */\n      jump\t// in\n    tag_97:\n        /* \"contracts/PRCC_Vesting.sol\":34728:34734  amount */\n      dup4\n        /* \"contracts/PRCC_Vesting.sol\":34681:34703  SafeERC20.safeTransfer */\n      tag_98\n        /* \"contracts/PRCC_Vesting.sol\":34681:34735  SafeERC20.safeTransfer(IERC20(token), owner(), amount) */\n      jump\t// in\n    tag_96:\n        /* \"contracts/PRCC_Vesting.sol\":34543:34742  {... */\n      pop\n        /* \"contracts/PRCC_Vesting.sol\":34496:34742  function release(address token) public virtual {... */\n      pop\n      jump\t// out\n        /* \"contracts/PRCC_Vesting.sol\":3397:3498  function renounceOwnership() public virtual onlyOwner {... */\n    tag_40:\n        /* \"contracts/PRCC_Vesting.sol\":2635:2648  _checkOwner() */\n      tag_100\n        /* \"contracts/PRCC_Vesting.sol\":2635:2646  _checkOwner */\n      tag_101\n        /* \"contracts/PRCC_Vesting.sol\":2635:2648  _checkOwner() */\n      jump\t// in\n    tag_100:\n        /* \"contracts/PRCC_Vesting.sol\":3461:3491  _transferOwnership(address(0)) */\n      tag_103\n        /* \"contracts/PRCC_Vesting.sol\":3488:3489  0 */\n      0x00\n        /* \"contracts/PRCC_Vesting.sol\":3461:3479  _transferOwnership */\n      tag_104\n        /* \"contracts/PRCC_Vesting.sol\":3461:3491  _transferOwnership(address(0)) */\n      jump\t// in\n    tag_103:\n        /* \"contracts/PRCC_Vesting.sol\":3397:3498  function renounceOwnership() public virtual onlyOwner {... */\n      jump\t// out\n        /* \"contracts/PRCC_Vesting.sol\":35188:35390  function vestedAmount(address token, uint64 timestamp) public view virtual returns (uint256) {... */\n    tag_45:\n        /* \"contracts/PRCC_Vesting.sol\":35272:35279  uint256 */\n      0x00\n        /* \"contracts/PRCC_Vesting.sol\":35298:35383  _vestingSchedule(IERC20(token).balanceOf(address(this)) + released(token), timestamp) */\n      tag_106\n        /* \"contracts/PRCC_Vesting.sol\":35356:35371  released(token) */\n      tag_107\n        /* \"contracts/PRCC_Vesting.sol\":35365:35370  token */\n      dup5\n        /* \"contracts/PRCC_Vesting.sol\":35356:35364  released */\n      tag_62\n        /* \"contracts/PRCC_Vesting.sol\":35356:35371  released(token) */\n      jump\t// in\n    tag_107:\n        /* \"contracts/PRCC_Vesting.sol\":35322:35327  token */\n      dup5\n        /* \"contracts/PRCC_Vesting.sol\":35315:35338  IERC20(token).balanceOf */\n      0xffffffffffffffffffffffffffffffffffffffff\n      and\n      0x70a08231\n        /* \"contracts/PRCC_Vesting.sol\":35347:35351  this */\n      address\n        /* \"contracts/PRCC_Vesting.sol\":35315:35353  IERC20(token).balanceOf(address(this)) */\n      mload(0x40)\n      dup3\n      0xffffffff\n      and\n      0xe0\n      shl\n      dup2\n      mstore\n      0x04\n      add\n      tag_108\n      swap2\n      swap1\n      tag_54\n      jump\t// in\n    tag_108:\n      0x20\n      mload(0x40)\n      dup1\n      dup4\n      sub\n      dup2\n      dup7\n      gas\n      staticcall\n      iszero\n      dup1\n      iszero\n      tag_110\n      jumpi\n      returndatasize\n      0x00\n      dup1\n      returndatacopy\n      revert(0x00, returndatasize)\n    tag_110:\n      pop\n      pop\n      pop\n      pop\n      mload(0x40)\n      returndatasize\n      not(0x1f)\n      0x1f\n      dup3\n      add\n      and\n      dup3\n      add\n      dup1\n      0x40\n      mstore\n      pop\n      dup2\n      add\n      swap1\n      tag_111\n      swap2\n      swap1\n      tag_112\n      jump\t// in\n    tag_111:\n        /* \"contracts/PRCC_Vesting.sol\":35315:35371  IERC20(token).balanceOf(address(this)) + released(token) */\n      tag_113\n      swap2\n      swap1\n      tag_89\n      jump\t// in\n    tag_113:\n        /* \"contracts/PRCC_Vesting.sol\":35373:35382  timestamp */\n      dup4\n        /* \"contracts/PRCC_Vesting.sol\":35298:35314  _vestingSchedule */\n      tag_90\n        /* \"contracts/PRCC_Vesting.sol\":35298:35383  _vestingSchedule(IERC20(token).balanceOf(address(this)) + released(token), timestamp) */\n      jump\t// in\n    tag_106:\n        /* \"contracts/PRCC_Vesting.sol\":35291:35383  return _vestingSchedule(IERC20(token).balanceOf(address(this)) + released(token), timestamp) */\n      swap1\n      pop\n        /* \"contracts/PRCC_Vesting.sol\":35188:35390  function vestedAmount(address token, uint64 timestamp) public view virtual returns (uint256) {... */\n      swap3\n      swap2\n      pop\n      pop\n      jump\t// out\n        /* \"contracts/PRCC_Vesting.sol\":34174:34372  function release() public virtual {... */\n    tag_49:\n        /* \"contracts/PRCC_Vesting.sol\":34218:34232  uint256 amount */\n      0x00\n        /* \"contracts/PRCC_Vesting.sol\":34235:34247  releasable() */\n      tag_115\n        /* \"contracts/PRCC_Vesting.sol\":34235:34245  releasable */\n      tag_83\n        /* \"contracts/PRCC_Vesting.sol\":34235:34247  releasable() */\n      jump\t// in\n    tag_115:\n        /* \"contracts/PRCC_Vesting.sol\":34218:34247  uint256 amount = releasable() */\n      swap1\n      pop\n        /* \"contracts/PRCC_Vesting.sol\":34270:34276  amount */\n      dup1\n        /* \"contracts/PRCC_Vesting.sol\":34257:34266  _released */\n      0x01\n      0x00\n        /* \"contracts/PRCC_Vesting.sol\":34257:34276  _released += amount */\n      dup3\n      dup3\n      sload\n      tag_116\n      swap2\n      swap1\n      tag_89\n      jump\t// in\n    tag_116:\n      swap3\n      pop\n      pop\n      dup2\n      swap1\n      sstore\n      pop\n        /* \"contracts/PRCC_Vesting.sol\":34291:34312  EtherReleased(amount) */\n      0xda9d4e5f101b8b9b1c5b76d0c5a9f7923571acfc02376aa076b75a8c080c956b\n        /* \"contracts/PRCC_Vesting.sol\":34305:34311  amount */\n      dup2\n        /* \"contracts/PRCC_Vesting.sol\":34291:34312  EtherReleased(amount) */\n      mload(0x40)\n      tag_117\n      swap2\n      swap1\n      tag_28\n      jump\t// in\n    tag_117:\n      mload(0x40)\n      dup1\n      swap2\n      sub\n      swap1\n      log1\n        /* \"contracts/PRCC_Vesting.sol\":34322:34365  Address.sendValue(payable(owner()), amount) */\n      tag_118\n        /* \"contracts/PRCC_Vesting.sol\":34348:34355  owner() */\n      tag_119\n        /* \"contracts/PRCC_Vesting.sol\":34348:34353  owner */\n      tag_52\n        /* \"contracts/PRCC_Vesting.sol\":34348:34355  owner() */\n      jump\t// in\n    tag_119:\n        /* \"contracts/PRCC_Vesting.sol\":34358:34364  amount */\n      dup3\n        /* \"contracts/PRCC_Vesting.sol\":34322:34339  Address.sendValue */\n      tag_120\n        /* \"contracts/PRCC_Vesting.sol\":34322:34365  Address.sendValue(payable(owner()), amount) */\n      jump\t// in\n    tag_118:\n        /* \"contracts/PRCC_Vesting.sol\":34208:34372  {... */\n      pop\n        /* \"contracts/PRCC_Vesting.sol\":34174:34372  function release() public virtual {... */\n      jump\t// out\n        /* \"contracts/PRCC_Vesting.sol\":2742:2827  function owner() public view virtual returns (address) {... */\n    tag_52:\n        /* \"contracts/PRCC_Vesting.sol\":2788:2795  address */\n      0x00\n        /* \"contracts/PRCC_Vesting.sol\":2814:2820  _owner */\n      dup1\n      0x00\n      swap1\n      sload\n      swap1\n      0x0100\n      exp\n      swap1\n      div\n      0xffffffffffffffffffffffffffffffffffffffff\n      and\n        /* \"contracts/PRCC_Vesting.sol\":2807:2820  return _owner */\n      swap1\n      pop\n        /* \"contracts/PRCC_Vesting.sol\":2742:2827  function owner() public view virtual returns (address) {... */\n      swap1\n      jump\t// out\n        /* \"contracts/PRCC_Vesting.sol\":33246:33337  function released() public view virtual returns (uint256) {... */\n    tag_57:\n        /* \"contracts/PRCC_Vesting.sol\":33295:33302  uint256 */\n      0x00\n        /* \"contracts/PRCC_Vesting.sol\":33321:33330  _released */\n      sload(0x01)\n        /* \"contracts/PRCC_Vesting.sol\":33314:33330  return _released */\n      swap1\n      pop\n        /* \"contracts/PRCC_Vesting.sol\":33246:33337  function released() public view virtual returns (uint256) {... */\n      swap1\n      jump\t// out\n        /* \"contracts/PRCC_Vesting.sol\":33404:33520  function released(address token) public view virtual returns (uint256) {... */\n    tag_62:\n        /* \"contracts/PRCC_Vesting.sol\":33466:33473  uint256 */\n      0x00\n        /* \"contracts/PRCC_Vesting.sol\":33492:33506  _erc20Released */\n      0x02\n        /* \"contracts/PRCC_Vesting.sol\":33492:33513  _erc20Released[token] */\n      0x00\n        /* \"contracts/PRCC_Vesting.sol\":33507:33512  token */\n      dup4\n        /* \"contracts/PRCC_Vesting.sol\":33492:33513  _erc20Released[token] */\n      0xffffffffffffffffffffffffffffffffffffffff\n      and\n      0xffffffffffffffffffffffffffffffffffffffff\n      and\n      dup2\n      mstore\n      0x20\n      add\n      swap1\n      dup2\n      mstore\n      0x20\n      add\n      0x00\n      keccak256\n      sload\n        /* \"contracts/PRCC_Vesting.sol\":33485:33513  return _erc20Released[token] */\n      swap1\n      pop\n        /* \"contracts/PRCC_Vesting.sol\":33404:33520  function released(address token) public view virtual returns (uint256) {... */\n      swap2\n      swap1\n      pop\n      jump\t// out\n        /* \"contracts/PRCC_Vesting.sol\":33877:34036  function releasable(address token) public view virtual returns (uint256) {... */\n    tag_67:\n        /* \"contracts/PRCC_Vesting.sol\":33941:33948  uint256 */\n      0x00\n        /* \"contracts/PRCC_Vesting.sol\":34014:34029  released(token) */\n      tag_125\n        /* \"contracts/PRCC_Vesting.sol\":34023:34028  token */\n      dup3\n        /* \"contracts/PRCC_Vesting.sol\":34014:34022  released */\n      tag_62\n        /* \"contracts/PRCC_Vesting.sol\":34014:34029  released(token) */\n      jump\t// in\n    tag_125:\n        /* \"contracts/PRCC_Vesting.sol\":33967:34011  vestedAmount(token, uint64(block.timestamp)) */\n      tag_126\n        /* \"contracts/PRCC_Vesting.sol\":33980:33985  token */\n      dup4\n        /* \"contracts/PRCC_Vesting.sol\":33994:34009  block.timestamp */\n      timestamp\n        /* \"contracts/PRCC_Vesting.sol\":33967:33979  vestedAmount */\n      tag_45\n        /* \"contracts/PRCC_Vesting.sol\":33967:34011  vestedAmount(token, uint64(block.timestamp)) */\n      jump\t// in\n    tag_126:\n        /* \"contracts/PRCC_Vesting.sol\":33967:34029  vestedAmount(token, uint64(block.timestamp)) - released(token) */\n      tag_127\n      swap2\n      swap1\n      tag_128\n      jump\t// in\n    tag_127:\n        /* \"contracts/PRCC_Vesting.sol\":33960:34029  return vestedAmount(token, uint64(block.timestamp)) - released(token) */\n      swap1\n      pop\n        /* \"contracts/PRCC_Vesting.sol\":33877:34036  function releasable(address token) public view virtual returns (uint256) {... */\n      swap2\n      swap1\n      pop\n      jump\t// out\n        /* \"contracts/PRCC_Vesting.sol\":32777:32862  function start() public view virtual returns (uint256) {... */\n    tag_71:\n        /* \"contracts/PRCC_Vesting.sol\":32823:32830  uint256 */\n      0x00\n        /* \"contracts/PRCC_Vesting.sol\":32849:32855  _start */\n      immutable(\"0x7e61868c26ad9542219295e4248d06589934ece56761f625f341eef80a4788c7\")\n        /* \"contracts/PRCC_Vesting.sol\":32842:32855  return _start */\n      0xffffffffffffffff\n      and\n      swap1\n      pop\n        /* \"contracts/PRCC_Vesting.sol\":32777:32862  function start() public view virtual returns (uint256) {... */\n      swap1\n      jump\t// out\n        /* \"contracts/PRCC_Vesting.sol\":33084:33181  function end() public view virtual returns (uint256) {... */\n    tag_75:\n        /* \"contracts/PRCC_Vesting.sol\":33128:33135  uint256 */\n      0x00\n        /* \"contracts/PRCC_Vesting.sol\":33164:33174  duration() */\n      tag_131\n        /* \"contracts/PRCC_Vesting.sol\":33164:33172  duration */\n      tag_31\n        /* \"contracts/PRCC_Vesting.sol\":33164:33174  duration() */\n      jump\t// in\n    tag_131:\n        /* \"contracts/PRCC_Vesting.sol\":33154:33161  start() */\n      tag_132\n        /* \"contracts/PRCC_Vesting.sol\":33154:33159  start */\n      tag_71\n        /* \"contracts/PRCC_Vesting.sol\":33154:33161  start() */\n      jump\t// in\n    tag_132:\n        /* \"contracts/PRCC_Vesting.sol\":33154:33174  start() + duration() */\n      tag_133\n      swap2\n      swap1\n      tag_89\n      jump\t// in\n    tag_133:\n        /* \"contracts/PRCC_Vesting.sol\":33147:33174  return start() + duration() */\n      swap1\n      pop\n        /* \"contracts/PRCC_Vesting.sol\":33084:33181  function end() public view virtual returns (uint256) {... */\n      swap1\n      jump\t// out\n        /* \"contracts/PRCC_Vesting.sol\":3647:3862  function transferOwnership(address newOwner) public virtual onlyOwner {... */\n    tag_80:\n        /* \"contracts/PRCC_Vesting.sol\":2635:2648  _checkOwner() */\n      tag_135\n        /* \"contracts/PRCC_Vesting.sol\":2635:2646  _checkOwner */\n      tag_101\n        /* \"contracts/PRCC_Vesting.sol\":2635:2648  _checkOwner() */\n      jump\t// in\n    tag_135:\n        /* \"contracts/PRCC_Vesting.sol\":3751:3752  0 */\n      0x00\n        /* \"contracts/PRCC_Vesting.sol\":3731:3753  newOwner == address(0) */\n      0xffffffffffffffffffffffffffffffffffffffff\n      and\n        /* \"contracts/PRCC_Vesting.sol\":3731:3739  newOwner */\n      dup2\n        /* \"contracts/PRCC_Vesting.sol\":3731:3753  newOwner == address(0) */\n      0xffffffffffffffffffffffffffffffffffffffff\n      and\n      sub\n        /* \"contracts/PRCC_Vesting.sol\":3727:3818  if (newOwner == address(0)) {... */\n      tag_137\n      jumpi\n        /* \"contracts/PRCC_Vesting.sol\":3804:3805  0 */\n      0x00\n        /* \"contracts/PRCC_Vesting.sol\":3776:3807  OwnableInvalidOwner(address(0)) */\n      mload(0x40)\n      0x1e4fbdf700000000000000000000000000000000000000000000000000000000\n      dup2\n      mstore\n      0x04\n      add\n      tag_138\n      swap2\n      swap1\n      tag_54\n      jump\t// in\n    tag_138:\n      mload(0x40)\n      dup1\n      swap2\n      sub\n      swap1\n      revert\n        /* \"contracts/PRCC_Vesting.sol\":3727:3818  if (newOwner == address(0)) {... */\n    tag_137:\n        /* \"contracts/PRCC_Vesting.sol\":3827:3855  _transferOwnership(newOwner) */\n      tag_139\n        /* \"contracts/PRCC_Vesting.sol\":3846:3854  newOwner */\n      dup2\n        /* \"contracts/PRCC_Vesting.sol\":3827:3845  _transferOwnership */\n      tag_104\n        /* \"contracts/PRCC_Vesting.sol\":3827:3855  _transferOwnership(newOwner) */\n      jump\t// in\n    tag_139:\n        /* \"contracts/PRCC_Vesting.sol\":3647:3862  function transferOwnership(address newOwner) public virtual onlyOwner {... */\n      pop\n      jump\t// out\n        /* \"contracts/PRCC_Vesting.sol\":33595:33729  function releasable() public view virtual returns (uint256) {... */\n    tag_83:\n        /* \"contracts/PRCC_Vesting.sol\":33646:33653  uint256 */\n      0x00\n        /* \"contracts/PRCC_Vesting.sol\":33712:33722  released() */\n      tag_141\n        /* \"contracts/PRCC_Vesting.sol\":33712:33720  released */\n      tag_57\n        /* \"contracts/PRCC_Vesting.sol\":33712:33722  released() */\n      jump\t// in\n    tag_141:\n        /* \"contracts/PRCC_Vesting.sol\":33672:33709  vestedAmount(uint64(block.timestamp)) */\n      tag_142\n        /* \"contracts/PRCC_Vesting.sol\":33692:33707  block.timestamp */\n      timestamp\n        /* \"contracts/PRCC_Vesting.sol\":33672:33684  vestedAmount */\n      tag_26\n        /* \"contracts/PRCC_Vesting.sol\":33672:33709  vestedAmount(uint64(block.timestamp)) */\n      jump\t// in\n    tag_142:\n        /* \"contracts/PRCC_Vesting.sol\":33672:33722  vestedAmount(uint64(block.timestamp)) - released() */\n      tag_143\n      swap2\n      swap1\n      tag_128\n      jump\t// in\n    tag_143:\n        /* \"contracts/PRCC_Vesting.sol\":33665:33722  return vestedAmount(uint64(block.timestamp)) - released() */\n      swap1\n      pop\n        /* \"contracts/PRCC_Vesting.sol\":33595:33729  function releasable() public view virtual returns (uint256) {... */\n      swap1\n      jump\t// out\n        /* \"contracts/PRCC_Vesting.sol\":35585:35937  function _vestingSchedule(uint256 totalAllocation, uint64 timestamp) internal view virtual returns (uint256) {... */\n    tag_90:\n        /* \"contracts/PRCC_Vesting.sol\":35685:35692  uint256 */\n      0x00\n        /* \"contracts/PRCC_Vesting.sol\":35720:35727  start() */\n      tag_145\n        /* \"contracts/PRCC_Vesting.sol\":35720:35725  start */\n      tag_71\n        /* \"contracts/PRCC_Vesting.sol\":35720:35727  start() */\n      jump\t// in\n    tag_145:\n        /* \"contracts/PRCC_Vesting.sol\":35708:35717  timestamp */\n      dup3\n        /* \"contracts/PRCC_Vesting.sol\":35708:35727  timestamp < start() */\n      0xffffffffffffffff\n      and\n      lt\n        /* \"contracts/PRCC_Vesting.sol\":35704:35931  if (timestamp < start()) {... */\n      iszero\n      tag_146\n      jumpi\n        /* \"contracts/PRCC_Vesting.sol\":35750:35751  0 */\n      0x00\n        /* \"contracts/PRCC_Vesting.sol\":35743:35751  return 0 */\n      swap1\n      pop\n      jump(tag_144)\n        /* \"contracts/PRCC_Vesting.sol\":35704:35931  if (timestamp < start()) {... */\n    tag_146:\n        /* \"contracts/PRCC_Vesting.sol\":35785:35790  end() */\n      tag_148\n        /* \"contracts/PRCC_Vesting.sol\":35785:35788  end */\n      tag_75\n        /* \"contracts/PRCC_Vesting.sol\":35785:35790  end() */\n      jump\t// in\n    tag_148:\n        /* \"contracts/PRCC_Vesting.sol\":35772:35781  timestamp */\n      dup3\n        /* \"contracts/PRCC_Vesting.sol\":35772:35790  timestamp >= end() */\n      0xffffffffffffffff\n      and\n      lt\n        /* \"contracts/PRCC_Vesting.sol\":35768:35931  if (timestamp >= end()) {... */\n      tag_149\n      jumpi\n        /* \"contracts/PRCC_Vesting.sol\":35813:35828  totalAllocation */\n      dup3\n        /* \"contracts/PRCC_Vesting.sol\":35806:35828  return totalAllocation */\n      swap1\n      pop\n      jump(tag_144)\n        /* \"contracts/PRCC_Vesting.sol\":35768:35931  if (timestamp >= end()) {... */\n    tag_149:\n        /* \"contracts/PRCC_Vesting.sol\":35910:35920  duration() */\n      tag_151\n        /* \"contracts/PRCC_Vesting.sol\":35910:35918  duration */\n      tag_31\n        /* \"contracts/PRCC_Vesting.sol\":35910:35920  duration() */\n      jump\t// in\n    tag_151:\n        /* \"contracts/PRCC_Vesting.sol\":35898:35905  start() */\n      tag_152\n        /* \"contracts/PRCC_Vesting.sol\":35898:35903  start */\n      tag_71\n        /* \"contracts/PRCC_Vesting.sol\":35898:35905  start() */\n      jump\t// in\n    tag_152:\n        /* \"contracts/PRCC_Vesting.sol\":35886:35895  timestamp */\n      dup4\n        /* \"contracts/PRCC_Vesting.sol\":35886:35905  timestamp - start() */\n      0xffffffffffffffff\n      and\n      tag_153\n      swap2\n      swap1\n      tag_128\n      jump\t// in\n    tag_153:\n        /* \"contracts/PRCC_Vesting.sol\":35867:35882  totalAllocation */\n      dup5\n        /* \"contracts/PRCC_Vesting.sol\":35867:35906  totalAllocation * (timestamp - start()) */\n      tag_154\n      swap2\n      swap1\n      tag_155\n      jump\t// in\n    tag_154:\n        /* \"contracts/PRCC_Vesting.sol\":35866:35920  (totalAllocation * (timestamp - start())) / duration() */\n      tag_156\n      swap2\n      swap1\n      tag_157\n      jump\t// in\n    tag_156:\n        /* \"contracts/PRCC_Vesting.sol\":35859:35920  return (totalAllocation * (timestamp - start())) / duration() */\n      swap1\n      pop\n        /* \"contracts/PRCC_Vesting.sol\":35585:35937  function _vestingSchedule(uint256 totalAllocation, uint64 timestamp) internal view virtual returns (uint256) {... */\n    tag_144:\n      swap3\n      swap2\n      pop\n      pop\n      jump\t// out\n        /* \"contracts/PRCC_Vesting.sol\":14133:14293  function safeTransfer(IERC20 token, address to, uint256 value) internal {... */\n    tag_98:\n        /* \"contracts/PRCC_Vesting.sol\":14215:14286  _callOptionalReturn(token, abi.encodeCall(token.transfer, (to, value))) */\n      tag_159\n        /* \"contracts/PRCC_Vesting.sol\":14235:14240  token */\n      dup4\n        /* \"contracts/PRCC_Vesting.sol\":14257:14262  token */\n      dup5\n        /* \"contracts/PRCC_Vesting.sol\":14257:14271  token.transfer */\n      0xffffffffffffffffffffffffffffffffffffffff\n      and\n      0xa9059cbb\n        /* \"contracts/PRCC_Vesting.sol\":14274:14276  to */\n      dup6\n        /* \"contracts/PRCC_Vesting.sol\":14278:14283  value */\n      dup6\n        /* \"contracts/PRCC_Vesting.sol\":14242:14285  abi.encodeCall(token.transfer, (to, value)) */\n      add(0x24, mload(0x40))\n      tag_160\n      swap3\n      swap2\n      swap1\n      tag_161\n      jump\t// in\n    tag_160:\n      mload(0x40)\n      0x20\n      dup2\n      dup4\n      sub\n      sub\n      dup2\n      mstore\n      swap1\n      0x40\n      mstore\n      swap2\n      pop\n      0xe0\n      shl\n      0x20\n      dup3\n      add\n      dup1\n      mload\n      0xffffffffffffffffffffffffffffffffffffffffffffffffffffffff\n      dup4\n      dup2\n      dup4\n      and\n      or\n      dup4\n      mstore\n      pop\n      pop\n      pop\n      pop\n        /* \"contracts/PRCC_Vesting.sol\":14215:14234  _callOptionalReturn */\n      tag_162\n        /* \"contracts/PRCC_Vesting.sol\":14215:14286  _callOptionalReturn(token, abi.encodeCall(token.transfer, (to, value))) */\n      jump\t// in\n    tag_159:\n        /* \"contracts/PRCC_Vesting.sol\":14133:14293  function safeTransfer(IERC20 token, address to, uint256 value) internal {... */\n      pop\n      pop\n      pop\n      jump\t// out\n        /* \"contracts/PRCC_Vesting.sol\":2900:3062  function _checkOwner() internal view virtual {... */\n    tag_101:\n        /* \"contracts/PRCC_Vesting.sol\":2970:2982  _msgSender() */\n      tag_164\n        /* \"contracts/PRCC_Vesting.sol\":2970:2980  _msgSender */\n      tag_165\n        /* \"contracts/PRCC_Vesting.sol\":2970:2982  _msgSender() */\n      jump\t// in\n    tag_164:\n        /* \"contracts/PRCC_Vesting.sol\":2959:2982  owner() != _msgSender() */\n      0xffffffffffffffffffffffffffffffffffffffff\n      and\n        /* \"contracts/PRCC_Vesting.sol\":2959:2966  owner() */\n      tag_166\n        /* \"contracts/PRCC_Vesting.sol\":2959:2964  owner */\n      tag_52\n        /* \"contracts/PRCC_Vesting.sol\":2959:2966  owner() */\n      jump\t// in\n    tag_166:\n        /* \"contracts/PRCC_Vesting.sol\":2959:2982  owner() != _msgSender() */\n      0xffffffffffffffffffffffffffffffffffffffff\n      and\n      eq\n        /* \"contracts/PRCC_Vesting.sol\":2955:3056  if (owner() != _msgSender()) {... */\n      tag_167\n      jumpi\n        /* \"contracts/PRCC_Vesting.sol\":3032:3044  _msgSender() */\n      tag_168\n        /* \"contracts/PRCC_Vesting.sol\":3032:3042  _msgSender */\n      tag_165\n        /* \"contracts/PRCC_Vesting.sol\":3032:3044  _msgSender() */\n      jump\t// in\n    tag_168:\n        /* \"contracts/PRCC_Vesting.sol\":3005:3045  OwnableUnauthorizedAccount(_msgSender()) */\n      mload(0x40)\n      0x118cdaa700000000000000000000000000000000000000000000000000000000\n      dup2\n      mstore\n      0x04\n      add\n      tag_169\n      swap2\n      swap1\n      tag_54\n      jump\t// in\n    tag_169:\n      mload(0x40)\n      dup1\n      swap2\n      sub\n      swap1\n      revert\n        /* \"contracts/PRCC_Vesting.sol\":2955:3056  if (owner() != _msgSender()) {... */\n    tag_167:\n        /* \"contracts/PRCC_Vesting.sol\":2900:3062  function _checkOwner() internal view virtual {... */\n      jump\t// out\n        /* \"contracts/PRCC_Vesting.sol\":4016:4203  function _transferOwnership(address newOwner) internal virtual {... */\n    tag_104:\n        /* \"contracts/PRCC_Vesting.sol\":4089:4105  address oldOwner */\n      0x00\n        /* \"contracts/PRCC_Vesting.sol\":4108:4114  _owner */\n      dup1\n      0x00\n      swap1\n      sload\n      swap1\n      0x0100\n      exp\n      swap1\n      div\n      0xffffffffffffffffffffffffffffffffffffffff\n      and\n        /* \"contracts/PRCC_Vesting.sol\":4089:4114  address oldOwner = _owner */\n      swap1\n      pop\n        /* \"contracts/PRCC_Vesting.sol\":4133:4141  newOwner */\n      dup2\n        /* \"contracts/PRCC_Vesting.sol\":4124:4130  _owner */\n      0x00\n      dup1\n        /* \"contracts/PRCC_Vesting.sol\":4124:4141  _owner = newOwner */\n      0x0100\n      exp\n      dup2\n      sload\n      dup2\n      0xffffffffffffffffffffffffffffffffffffffff\n      mul\n      not\n      and\n      swap1\n      dup4\n      0xffffffffffffffffffffffffffffffffffffffff\n      and\n      mul\n      or\n      swap1\n      sstore\n      pop\n        /* \"contracts/PRCC_Vesting.sol\":4187:4195  newOwner */\n      dup2\n        /* \"contracts/PRCC_Vesting.sol\":4156:4196  OwnershipTransferred(oldOwner, newOwner) */\n      0xffffffffffffffffffffffffffffffffffffffff\n      and\n        /* \"contracts/PRCC_Vesting.sol\":4177:4185  oldOwner */\n      dup2\n        /* \"contracts/PRCC_Vesting.sol\":4156:4196  OwnershipTransferred(oldOwner, newOwner) */\n      0xffffffffffffffffffffffffffffffffffffffff\n      and\n      0x8be0079c531659141344cd1fd0a4f28419497f9722a3daafe3b4186f6b6457e0\n      mload(0x40)\n      mload(0x40)\n      dup1\n      swap2\n      sub\n      swap1\n      log3\n        /* \"contracts/PRCC_Vesting.sol\":4079:4203  {... */\n      pop\n        /* \"contracts/PRCC_Vesting.sol\":4016:4203  function _transferOwnership(address newOwner) internal virtual {... */\n      pop\n      jump\t// out\n        /* \"contracts/PRCC_Vesting.sol\":25288:25653  function sendValue(address payable recipient, uint256 amount) internal {... */\n    tag_120:\n        /* \"contracts/PRCC_Vesting.sol\":25397:25403  amount */\n      dup1\n        /* \"contracts/PRCC_Vesting.sol\":25373:25394  address(this).balance */\n      selfbalance\n        /* \"contracts/PRCC_Vesting.sol\":25373:25403  address(this).balance < amount */\n      lt\n        /* \"contracts/PRCC_Vesting.sol\":25369:25494  if (address(this).balance < amount) {... */\n      iszero\n      tag_172\n      jumpi\n        /* \"contracts/PRCC_Vesting.sol\":25453:25474  address(this).balance */\n      selfbalance\n        /* \"contracts/PRCC_Vesting.sol\":25476:25482  amount */\n      dup2\n        /* \"contracts/PRCC_Vesting.sol\":25426:25483  Errors.InsufficientBalance(address(this).balance, amount) */\n      mload(0x40)\n      0xcf47918100000000000000000000000000000000000000000000000000000000\n      dup2\n      mstore\n      0x04\n      add\n      tag_173\n      swap3\n      swap2\n      swap1\n      tag_174\n      jump\t// in\n    tag_173:\n      mload(0x40)\n      dup1\n      swap2\n      sub\n      swap1\n      revert\n        /* \"contracts/PRCC_Vesting.sol\":25369:25494  if (address(this).balance < amount) {... */\n    tag_172:\n        /* \"contracts/PRCC_Vesting.sol\":25505:25517  bool success */\n      0x00\n        /* \"contracts/PRCC_Vesting.sol\":25519:25542  bytes memory returndata */\n      dup1\n        /* \"contracts/PRCC_Vesting.sol\":25546:25555  recipient */\n      dup4\n        /* \"contracts/PRCC_Vesting.sol\":25546:25560  recipient.call */\n      0xffffffffffffffffffffffffffffffffffffffff\n      and\n        /* \"contracts/PRCC_Vesting.sol\":25568:25574  amount */\n      dup4\n        /* \"contracts/PRCC_Vesting.sol\":25546:25579  recipient.call{value: amount}(\"\") */\n      mload(0x40)\n      tag_175\n      swap1\n      tag_176\n      jump\t// in\n    tag_175:\n      0x00\n      mload(0x40)\n      dup1\n      dup4\n      sub\n      dup2\n      dup6\n      dup8\n      gas\n      call\n      swap3\n      pop\n      pop\n      pop\n      returndatasize\n      dup1\n      0x00\n      dup2\n      eq\n      tag_179\n      jumpi\n      mload(0x40)\n      swap2\n      pop\n      and(add(returndatasize, 0x3f), not(0x1f))\n      dup3\n      add\n      0x40\n      mstore\n      returndatasize\n      dup3\n      mstore\n      returndatasize\n      0x00\n      0x20\n      dup5\n      add\n      returndatacopy\n      jump(tag_178)\n    tag_179:\n      0x60\n      swap2\n      pop\n    tag_178:\n      pop\n        /* \"contracts/PRCC_Vesting.sol\":25504:25579  (bool success, bytes memory returndata) = recipient.call{value: amount}(\"\") */\n      swap2\n      pop\n      swap2\n      pop\n        /* \"contracts/PRCC_Vesting.sol\":25594:25601  success */\n      dup2\n        /* \"contracts/PRCC_Vesting.sol\":25589:25647  if (!success) {... */\n      tag_180\n      jumpi\n        /* \"contracts/PRCC_Vesting.sol\":25617:25636  _revert(returndata) */\n      tag_181\n        /* \"contracts/PRCC_Vesting.sol\":25625:25635  returndata */\n      dup2\n        /* \"contracts/PRCC_Vesting.sol\":25617:25624  _revert */\n      tag_182\n        /* \"contracts/PRCC_Vesting.sol\":25617:25636  _revert(returndata) */\n      jump\t// in\n    tag_181:\n        /* \"contracts/PRCC_Vesting.sol\":25589:25647  if (!success) {... */\n    tag_180:\n        /* \"contracts/PRCC_Vesting.sol\":25359:25653  {... */\n      pop\n      pop\n        /* \"contracts/PRCC_Vesting.sol\":25288:25653  function sendValue(address payable recipient, uint256 amount) internal {... */\n      pop\n      pop\n      jump\t// out\n        /* \"contracts/PRCC_Vesting.sol\":21284:22000  function _callOptionalReturn(IERC20 token, bytes memory data) private {... */\n    tag_162:\n        /* \"contracts/PRCC_Vesting.sol\":21364:21382  uint256 returnSize */\n      0x00\n        /* \"contracts/PRCC_Vesting.sol\":21392:21411  uint256 returnValue */\n      dup1\n        /* \"contracts/PRCC_Vesting.sol\":21530:21534  0x20 */\n      0x20\n        /* \"contracts/PRCC_Vesting.sol\":21527:21528  0 */\n      0x00\n        /* \"contracts/PRCC_Vesting.sol\":21520:21524  data */\n      dup5\n        /* \"contracts/PRCC_Vesting.sol\":21514:21525  mload(data) */\n      mload\n        /* \"contracts/PRCC_Vesting.sol\":21507:21511  0x20 */\n      0x20\n        /* \"contracts/PRCC_Vesting.sol\":21501:21505  data */\n      dup7\n        /* \"contracts/PRCC_Vesting.sol\":21497:21512  add(data, 0x20) */\n      add\n        /* \"contracts/PRCC_Vesting.sol\":21494:21495  0 */\n      0x00\n        /* \"contracts/PRCC_Vesting.sol\":21487:21492  token */\n      dup9\n        /* \"contracts/PRCC_Vesting.sol\":21480:21485  gas() */\n      gas\n        /* \"contracts/PRCC_Vesting.sol\":21475:21535  call(gas(), token, 0, add(data, 0x20), mload(data), 0, 0x20) */\n      call\n        /* \"contracts/PRCC_Vesting.sol\":21583:21590  success */\n      dup1\n        /* \"contracts/PRCC_Vesting.sol\":21573:21749  if iszero(success) {... */\n      tag_184\n      jumpi\n        /* \"contracts/PRCC_Vesting.sol\":21627:21631  0x40 */\n      0x40\n        /* \"contracts/PRCC_Vesting.sol\":21621:21632  mload(0x40) */\n      mload\n        /* \"contracts/PRCC_Vesting.sol\":21672:21688  returndatasize() */\n      returndatasize\n        /* \"contracts/PRCC_Vesting.sol\":21669:21670  0 */\n      0x00\n        /* \"contracts/PRCC_Vesting.sol\":21664:21667  ptr */\n      dup3\n        /* \"contracts/PRCC_Vesting.sol\":21649:21689  returndatacopy(ptr, 0, returndatasize()) */\n      returndatacopy\n        /* \"contracts/PRCC_Vesting.sol\":21718:21734  returndatasize() */\n      returndatasize\n        /* \"contracts/PRCC_Vesting.sol\":21713:21716  ptr */\n      dup2\n        /* \"contracts/PRCC_Vesting.sol\":21706:21735  revert(ptr, returndatasize()) */\n      revert\n        /* \"contracts/PRCC_Vesting.sol\":21573:21749  if iszero(success) {... */\n    tag_184:\n        /* \"contracts/PRCC_Vesting.sol\":21776:21792  returndatasize() */\n      returndatasize\n        /* \"contracts/PRCC_Vesting.sol\":21762:21792  returnSize := returndatasize() */\n      swap3\n      pop\n        /* \"contracts/PRCC_Vesting.sol\":21826:21827  0 */\n      0x00\n        /* \"contracts/PRCC_Vesting.sol\":21820:21828  mload(0) */\n      mload\n        /* \"contracts/PRCC_Vesting.sol\":21805:21828  returnValue := mload(0) */\n      swap2\n      pop\n        /* \"contracts/PRCC_Vesting.sol\":21446:21838  {... */\n      pop\n        /* \"contracts/PRCC_Vesting.sol\":21866:21867  0 */\n      0x00\n        /* \"contracts/PRCC_Vesting.sol\":21852:21862  returnSize */\n      dup3\n        /* \"contracts/PRCC_Vesting.sol\":21852:21867  returnSize == 0 */\n      eq\n        /* \"contracts/PRCC_Vesting.sol\":21852:21920  returnSize == 0 ? address(token).code.length == 0 : returnValue != 1 */\n      tag_185\n      jumpi\n        /* \"contracts/PRCC_Vesting.sol\":21919:21920  1 */\n      0x01\n        /* \"contracts/PRCC_Vesting.sol\":21904:21915  returnValue */\n      dup2\n        /* \"contracts/PRCC_Vesting.sol\":21904:21920  returnValue != 1 */\n      eq\n      iszero\n        /* \"contracts/PRCC_Vesting.sol\":21852:21920  returnSize == 0 ? address(token).code.length == 0 : returnValue != 1 */\n      jump(tag_186)\n    tag_185:\n        /* \"contracts/PRCC_Vesting.sol\":21900:21901  0 */\n      0x00\n        /* \"contracts/PRCC_Vesting.sol\":21878:21883  token */\n      dup5\n        /* \"contracts/PRCC_Vesting.sol\":21870:21896  address(token).code.length */\n      0xffffffffffffffffffffffffffffffffffffffff\n      and\n      extcodesize\n        /* \"contracts/PRCC_Vesting.sol\":21870:21901  address(token).code.length == 0 */\n      eq\n        /* \"contracts/PRCC_Vesting.sol\":21852:21920  returnSize == 0 ? address(token).code.length == 0 : returnValue != 1 */\n    tag_186:\n        /* \"contracts/PRCC_Vesting.sol\":21848:21994  if (returnSize == 0 ? address(token).code.length == 0 : returnValue != 1) {... */\n      iszero\n      tag_187\n      jumpi\n        /* \"contracts/PRCC_Vesting.sol\":21976:21981  token */\n      dup4\n        /* \"contracts/PRCC_Vesting.sol\":21943:21983  SafeERC20FailedOperation(address(token)) */\n      mload(0x40)\n      0x5274afe700000000000000000000000000000000000000000000000000000000\n      dup2\n      mstore\n      0x04\n      add\n      tag_188\n      swap2\n      swap1\n      tag_54\n      jump\t// in\n    tag_188:\n      mload(0x40)\n      dup1\n      swap2\n      sub\n      swap1\n      revert\n        /* \"contracts/PRCC_Vesting.sol\":21848:21994  if (returnSize == 0 ? address(token).code.length == 0 : returnValue != 1) {... */\n    tag_187:\n        /* \"contracts/PRCC_Vesting.sol\":21354:22000  {... */\n      pop\n      pop\n        /* \"contracts/PRCC_Vesting.sol\":21284:22000  function _callOptionalReturn(IERC20 token, bytes memory data) private {... */\n      pop\n      pop\n      jump\t// out\n        /* \"contracts/PRCC_Vesting.sol\":765:861  function _msgSender() internal view virtual returns (address) {... */\n    tag_165:\n        /* \"contracts/PRCC_Vesting.sol\":818:825  address */\n      0x00\n        /* \"contracts/PRCC_Vesting.sol\":844:854  msg.sender */\n      caller\n        /* \"contracts/PRCC_Vesting.sol\":837:854  return msg.sender */\n      swap1\n      pop\n        /* \"contracts/PRCC_Vesting.sol\":765:861  function _msgSender() internal view virtual returns (address) {... */\n      swap1\n      jump\t// out\n        /* \"contracts/PRCC_Vesting.sol\":29557:30044  function _revert(bytes memory returndata) private pure {... */\n    tag_182:\n        /* \"contracts/PRCC_Vesting.sol\":29708:29709  0 */\n      0x00\n        /* \"contracts/PRCC_Vesting.sol\":29688:29698  returndata */\n      dup2\n        /* \"contracts/PRCC_Vesting.sol\":29688:29705  returndata.length */\n      mload\n        /* \"contracts/PRCC_Vesting.sol\":29688:29709  returndata.length > 0 */\n      gt\n        /* \"contracts/PRCC_Vesting.sol\":29684:30038  if (returndata.length > 0) {... */\n      iszero\n      tag_191\n      jumpi\n        /* \"contracts/PRCC_Vesting.sol\":29885:29895  returndata */\n      dup1\n        /* \"contracts/PRCC_Vesting.sol\":29879:29896  mload(returndata) */\n      mload\n        /* \"contracts/PRCC_Vesting.sol\":29941:29956  returndata_size */\n      dup1\n        /* \"contracts/PRCC_Vesting.sol\":29928:29938  returndata */\n      dup3\n        /* \"contracts/PRCC_Vesting.sol\":29924:29926  32 */\n      0x20\n        /* \"contracts/PRCC_Vesting.sol\":29920:29939  add(32, returndata) */\n      add\n        /* \"contracts/PRCC_Vesting.sol\":29913:29957  revert(add(32, returndata), returndata_size) */\n      revert\n        /* \"contracts/PRCC_Vesting.sol\":29684:30038  if (returndata.length > 0) {... */\n    tag_191:\n        /* \"contracts/PRCC_Vesting.sol\":30008:30027  Errors.FailedCall() */\n      mload(0x40)\n      0xd6bda27500000000000000000000000000000000000000000000000000000000\n      dup2\n      mstore\n      0x04\n      add\n      mload(0x40)\n      dup1\n      swap2\n      sub\n      swap1\n      revert\n        /* \"#utility.yul\":88:205   */\n    tag_194:\n        /* \"#utility.yul\":197:198   */\n      0x00\n        /* \"#utility.yul\":194:195   */\n      dup1\n        /* \"#utility.yul\":187:199   */\n      revert\n        /* \"#utility.yul\":334:435   */\n    tag_196:\n        /* \"#utility.yul\":370:377   */\n      0x00\n        /* \"#utility.yul\":410:428   */\n      0xffffffffffffffff\n        /* \"#utility.yul\":403:408   */\n      dup3\n        /* \"#utility.yul\":399:429   */\n      and\n        /* \"#utility.yul\":388:429   */\n      swap1\n      pop\n        /* \"#utility.yul\":334:435   */\n      swap2\n      swap1\n      pop\n      jump\t// out\n        /* \"#utility.yul\":441:561   */\n    tag_197:\n        /* \"#utility.yul\":513:536   */\n      tag_219\n        /* \"#utility.yul\":530:535   */\n      dup2\n        /* \"#utility.yul\":513:536   */\n      tag_196\n      jump\t// in\n    tag_219:\n        /* \"#utility.yul\":506:511   */\n      dup2\n        /* \"#utility.yul\":503:537   */\n      eq\n        /* \"#utility.yul\":493:555   */\n      tag_220\n      jumpi\n        /* \"#utility.yul\":551:552   */\n      0x00\n        /* \"#utility.yul\":548:549   */\n      dup1\n        /* \"#utility.yul\":541:553   */\n      revert\n        /* \"#utility.yul\":493:555   */\n    tag_220:\n        /* \"#utility.yul\":441:561   */\n      pop\n      jump\t// out\n        /* \"#utility.yul\":567:704   */\n    tag_198:\n        /* \"#utility.yul\":612:617   */\n      0x00\n        /* \"#utility.yul\":650:656   */\n      dup2\n        /* \"#utility.yul\":637:657   */\n      calldataload\n        /* \"#utility.yul\":628:657   */\n      swap1\n      pop\n        /* \"#utility.yul\":666:698   */\n      tag_222\n        /* \"#utility.yul\":692:697   */\n      dup2\n        /* \"#utility.yul\":666:698   */\n      tag_197\n      jump\t// in\n    tag_222:\n        /* \"#utility.yul\":567:704   */\n      swap3\n      swap2\n      pop\n      pop\n      jump\t// out\n        /* \"#utility.yul\":710:1037   */\n    tag_25:\n        /* \"#utility.yul\":768:774   */\n      0x00\n        /* \"#utility.yul\":817:819   */\n      0x20\n        /* \"#utility.yul\":805:814   */\n      dup3\n        /* \"#utility.yul\":796:803   */\n      dup5\n        /* \"#utility.yul\":792:815   */\n      sub\n        /* \"#utility.yul\":788:820   */\n      slt\n        /* \"#utility.yul\":785:904   */\n      iszero\n      tag_224\n      jumpi\n        /* \"#utility.yul\":823:902   */\n      tag_225\n      tag_194\n      jump\t// in\n    tag_225:\n        /* \"#utility.yul\":785:904   */\n    tag_224:\n        /* \"#utility.yul\":943:944   */\n      0x00\n        /* \"#utility.yul\":968:1020   */\n      tag_226\n        /* \"#utility.yul\":1012:1019   */\n      dup5\n        /* \"#utility.yul\":1003:1009   */\n      dup3\n        /* \"#utility.yul\":992:1001   */\n      dup6\n        /* \"#utility.yul\":988:1010   */\n      add\n        /* \"#utility.yul\":968:1020   */\n      tag_198\n      jump\t// in\n    tag_226:\n        /* \"#utility.yul\":958:1020   */\n      swap2\n      pop\n        /* \"#utility.yul\":914:1030   */\n      pop\n        /* \"#utility.yul\":710:1037   */\n      swap3\n      swap2\n      pop\n      pop\n      jump\t// out\n        /* \"#utility.yul\":1043:1120   */\n    tag_199:\n        /* \"#utility.yul\":1080:1087   */\n      0x00\n        /* \"#utility.yul\":1109:1114   */\n      dup2\n        /* \"#utility.yul\":1098:1114   */\n      swap1\n      pop\n        /* \"#utility.yul\":1043:1120   */\n      swap2\n      swap1\n      pop\n      jump\t// out\n        /* \"#utility.yul\":1126:1244   */\n    tag_200:\n        /* \"#utility.yul\":1213:1237   */\n      tag_229\n        /* \"#utility.yul\":1231:1236   */\n      dup2\n        /* \"#utility.yul\":1213:1237   */\n      tag_199\n      jump\t// in\n    tag_229:\n        /* \"#utility.yul\":1208:1211   */\n      dup3\n        /* \"#utility.yul\":1201:1238   */\n      mstore\n        /* \"#utility.yul\":1126:1244   */\n      pop\n      pop\n      jump\t// out\n        /* \"#utility.yul\":1250:1472   */\n    tag_28:\n        /* \"#utility.yul\":1343:1347   */\n      0x00\n        /* \"#utility.yul\":1381:1383   */\n      0x20\n        /* \"#utility.yul\":1370:1379   */\n      dup3\n        /* \"#utility.yul\":1366:1384   */\n      add\n        /* \"#utility.yul\":1358:1384   */\n      swap1\n      pop\n        /* \"#utility.yul\":1394:1465   */\n      tag_231\n        /* \"#utility.yul\":1462:1463   */\n      0x00\n        /* \"#utility.yul\":1451:1460   */\n      dup4\n        /* \"#utility.yul\":1447:1464   */\n      add\n        /* \"#utility.yul\":1438:1444   */\n      dup5\n        /* \"#utility.yul\":1394:1465   */\n      tag_200\n      jump\t// in\n    tag_231:\n        /* \"#utility.yul\":1250:1472   */\n      swap3\n      swap2\n      pop\n      pop\n      jump\t// out\n        /* \"#utility.yul\":1478:1604   */\n    tag_201:\n        /* \"#utility.yul\":1515:1522   */\n      0x00\n        /* \"#utility.yul\":1555:1597   */\n      0xffffffffffffffffffffffffffffffffffffffff\n        /* \"#utility.yul\":1548:1553   */\n      dup3\n        /* \"#utility.yul\":1544:1598   */\n      and\n        /* \"#utility.yul\":1533:1598   */\n      swap1\n      pop\n        /* \"#utility.yul\":1478:1604   */\n      swap2\n      swap1\n      pop\n      jump\t// out\n        /* \"#utility.yul\":1610:1706   */\n    tag_202:\n        /* \"#utility.yul\":1647:1654   */\n      0x00\n        /* \"#utility.yul\":1676:1700   */\n      tag_234\n        /* \"#utility.yul\":1694:1699   */\n      dup3\n        /* \"#utility.yul\":1676:1700   */\n      tag_201\n      jump\t// in\n    tag_234:\n        /* \"#utility.yul\":1665:1700   */\n      swap1\n      pop\n        /* \"#utility.yul\":1610:1706   */\n      swap2\n      swap1\n      pop\n      jump\t// out\n        /* \"#utility.yul\":1712:1834   */\n    tag_203:\n        /* \"#utility.yul\":1785:1809   */\n      tag_236\n        /* \"#utility.yul\":1803:1808   */\n      dup2\n        /* \"#utility.yul\":1785:1809   */\n      tag_202\n      jump\t// in\n    tag_236:\n        /* \"#utility.yul\":1778:1783   */\n      dup2\n        /* \"#utility.yul\":1775:1810   */\n      eq\n        /* \"#utility.yul\":1765:1828   */\n      tag_237\n      jumpi\n        /* \"#utility.yul\":1824:1825   */\n      0x00\n        /* \"#utility.yul\":1821:1822   */\n      dup1\n        /* \"#utility.yul\":1814:1826   */\n      revert\n        /* \"#utility.yul\":1765:1828   */\n    tag_237:\n        /* \"#utility.yul\":1712:1834   */\n      pop\n      jump\t// out\n        /* \"#utility.yul\":1840:1979   */\n    tag_204:\n        /* \"#utility.yul\":1886:1891   */\n      0x00\n        /* \"#utility.yul\":1924:1930   */\n      dup2\n        /* \"#utility.yul\":1911:1931   */\n      calldataload\n        /* \"#utility.yul\":1902:1931   */\n      swap1\n      pop\n        /* \"#utility.yul\":1940:1973   */\n      tag_239\n        /* \"#utility.yul\":1967:1972   */\n      dup2\n        /* \"#utility.yul\":1940:1973   */\n      tag_203\n      jump\t// in\n    tag_239:\n        /* \"#utility.yul\":1840:1979   */\n      swap3\n      swap2\n      pop\n      pop\n      jump\t// out\n        /* \"#utility.yul\":1985:2314   */\n    tag_36:\n        /* \"#utility.yul\":2044:2050   */\n      0x00\n        /* \"#utility.yul\":2093:2095   */\n      0x20\n        /* \"#utility.yul\":2081:2090   */\n      dup3\n        /* \"#utility.yul\":2072:2079   */\n      dup5\n        /* \"#utility.yul\":2068:2091   */\n      sub\n        /* \"#utility.yul\":2064:2096   */\n      slt\n        /* \"#utility.yul\":2061:2180   */\n      iszero\n      tag_241\n      jumpi\n        /* \"#utility.yul\":2099:2178   */\n      tag_242\n      tag_194\n      jump\t// in\n    tag_242:\n        /* \"#utility.yul\":2061:2180   */\n    tag_241:\n        /* \"#utility.yul\":2219:2220   */\n      0x00\n        /* \"#utility.yul\":2244:2297   */\n      tag_243\n        /* \"#utility.yul\":2289:2296   */\n      dup5\n        /* \"#utility.yul\":2280:2286   */\n      dup3\n        /* \"#utility.yul\":2269:2278   */\n      dup6\n        /* \"#utility.yul\":2265:2287   */\n      add\n        /* \"#utility.yul\":2244:2297   */\n      tag_204\n      jump\t// in\n    tag_243:\n        /* \"#utility.yul\":2234:2297   */\n      swap2\n      pop\n        /* \"#utility.yul\":2190:2307   */\n      pop\n        /* \"#utility.yul\":1985:2314   */\n      swap3\n      swap2\n      pop\n      pop\n      jump\t// out\n        /* \"#utility.yul\":2320:2792   */\n    tag_44:\n        /* \"#utility.yul\":2387:2393   */\n      0x00\n        /* \"#utility.yul\":2395:2401   */\n      dup1\n        /* \"#utility.yul\":2444:2446   */\n      0x40\n        /* \"#utility.yul\":2432:2441   */\n      dup4\n        /* \"#utility.yul\":2423:2430   */\n      dup6\n        /* \"#utility.yul\":2419:2442   */\n      sub\n        /* \"#utility.yul\":2415:2447   */\n      slt\n        /* \"#utility.yul\":2412:2531   */\n      iszero\n      tag_245\n      jumpi\n        /* \"#utility.yul\":2450:2529   */\n      tag_246\n      tag_194\n      jump\t// in\n    tag_246:\n        /* \"#utility.yul\":2412:2531   */\n    tag_245:\n        /* \"#utility.yul\":2570:2571   */\n      0x00\n        /* \"#utility.yul\":2595:2648   */\n      tag_247\n        /* \"#utility.yul\":2640:2647   */\n      dup6\n        /* \"#utility.yul\":2631:2637   */\n      dup3\n        /* \"#utility.yul\":2620:2629   */\n      dup7\n        /* \"#utility.yul\":2616:2638   */\n      add\n        /* \"#utility.yul\":2595:2648   */\n      tag_204\n      jump\t// in\n    tag_247:\n        /* \"#utility.yul\":2585:2648   */\n      swap3\n      pop\n        /* \"#utility.yul\":2541:2658   */\n      pop\n        /* \"#utility.yul\":2697:2699   */\n      0x20\n        /* \"#utility.yul\":2723:2775   */\n      tag_248\n        /* \"#utility.yul\":2767:2774   */\n      dup6\n        /* \"#utility.yul\":2758:2764   */\n      dup3\n        /* \"#utility.yul\":2747:2756   */\n      dup7\n        /* \"#utility.yul\":2743:2765   */\n      add\n        /* \"#utility.yul\":2723:2775   */\n      tag_198\n      jump\t// in\n    tag_248:\n        /* \"#utility.yul\":2713:2775   */\n      swap2\n      pop\n        /* \"#utility.yul\":2668:2785   */\n      pop\n        /* \"#utility.yul\":2320:2792   */\n      swap3\n      pop\n      swap3\n      swap1\n      pop\n      jump\t// out\n        /* \"#utility.yul\":2798:2916   */\n    tag_205:\n        /* \"#utility.yul\":2885:2909   */\n      tag_250\n        /* \"#utility.yul\":2903:2908   */\n      dup2\n        /* \"#utility.yul\":2885:2909   */\n      tag_202\n      jump\t// in\n    tag_250:\n        /* \"#utility.yul\":2880:2883   */\n      dup3\n        /* \"#utility.yul\":2873:2910   */\n      mstore\n        /* \"#utility.yul\":2798:2916   */\n      pop\n      pop\n      jump\t// out\n        /* \"#utility.yul\":2922:3144   */\n    tag_54:\n        /* \"#utility.yul\":3015:3019   */\n      0x00\n        /* \"#utility.yul\":3053:3055   */\n      0x20\n        /* \"#utility.yul\":3042:3051   */\n      dup3\n        /* \"#utility.yul\":3038:3056   */\n      add\n        /* \"#utility.yul\":3030:3056   */\n      swap1\n      pop\n        /* \"#utility.yul\":3066:3137   */\n      tag_252\n        /* \"#utility.yul\":3134:3135   */\n      0x00\n        /* \"#utility.yul\":3123:3132   */\n      dup4\n        /* \"#utility.yul\":3119:3136   */\n      add\n        /* \"#utility.yul\":3110:3116   */\n      dup5\n        /* \"#utility.yul\":3066:3137   */\n      tag_205\n      jump\t// in\n    tag_252:\n        /* \"#utility.yul\":2922:3144   */\n      swap3\n      swap2\n      pop\n      pop\n      jump\t// out\n        /* \"#utility.yul\":3150:3330   */\n    tag_206:\n        /* \"#utility.yul\":3198:3275   */\n      0x4e487b7100000000000000000000000000000000000000000000000000000000\n        /* \"#utility.yul\":3195:3196   */\n      0x00\n        /* \"#utility.yul\":3188:3276   */\n      mstore\n        /* \"#utility.yul\":3295:3299   */\n      0x11\n        /* \"#utility.yul\":3292:3293   */\n      0x04\n        /* \"#utility.yul\":3285:3300   */\n      mstore\n        /* \"#utility.yul\":3319:3323   */\n      0x24\n        /* \"#utility.yul\":3316:3317   */\n      0x00\n        /* \"#utility.yul\":3309:3324   */\n      revert\n        /* \"#utility.yul\":3336:3527   */\n    tag_89:\n        /* \"#utility.yul\":3376:3379   */\n      0x00\n        /* \"#utility.yul\":3395:3415   */\n      tag_255\n        /* \"#utility.yul\":3413:3414   */\n      dup3\n        /* \"#utility.yul\":3395:3415   */\n      tag_199\n      jump\t// in\n    tag_255:\n        /* \"#utility.yul\":3390:3415   */\n      swap2\n      pop\n        /* \"#utility.yul\":3429:3449   */\n      tag_256\n        /* \"#utility.yul\":3447:3448   */\n      dup4\n        /* \"#utility.yul\":3429:3449   */\n      tag_199\n      jump\t// in\n    tag_256:\n        /* \"#utility.yul\":3424:3449   */\n      swap3\n      pop\n        /* \"#utility.yul\":3472:3473   */\n      dup3\n        /* \"#utility.yul\":3469:3470   */\n      dup3\n        /* \"#utility.yul\":3465:3474   */\n      add\n        /* \"#utility.yul\":3458:3474   */\n      swap1\n      pop\n        /* \"#utility.yul\":3493:3496   */\n      dup1\n        /* \"#utility.yul\":3490:3491   */\n      dup3\n        /* \"#utility.yul\":3487:3497   */\n      gt\n        /* \"#utility.yul\":3484:3520   */\n      iszero\n      tag_257\n      jumpi\n        /* \"#utility.yul\":3500:3518   */\n      tag_258\n      tag_206\n      jump\t// in\n    tag_258:\n        /* \"#utility.yul\":3484:3520   */\n    tag_257:\n        /* \"#utility.yul\":3336:3527   */\n      swap3\n      swap2\n      pop\n      pop\n      jump\t// out\n        /* \"#utility.yul\":3533:3655   */\n    tag_207:\n        /* \"#utility.yul\":3606:3630   */\n      tag_260\n        /* \"#utility.yul\":3624:3629   */\n      dup2\n        /* \"#utility.yul\":3606:3630   */\n      tag_199\n      jump\t// in\n    tag_260:\n        /* \"#utility.yul\":3599:3604   */\n      dup2\n        /* \"#utility.yul\":3596:3631   */\n      eq\n        /* \"#utility.yul\":3586:3649   */\n      tag_261\n      jumpi\n        /* \"#utility.yul\":3645:3646   */\n      0x00\n        /* \"#utility.yul\":3642:3643   */\n      dup1\n        /* \"#utility.yul\":3635:3647   */\n      revert\n        /* \"#utility.yul\":3586:3649   */\n    tag_261:\n        /* \"#utility.yul\":3533:3655   */\n      pop\n      jump\t// out\n        /* \"#utility.yul\":3661:3804   */\n    tag_208:\n        /* \"#utility.yul\":3718:3723   */\n      0x00\n        /* \"#utility.yul\":3749:3755   */\n      dup2\n        /* \"#utility.yul\":3743:3756   */\n      mload\n        /* \"#utility.yul\":3734:3756   */\n      swap1\n      pop\n        /* \"#utility.yul\":3765:3798   */\n      tag_263\n        /* \"#utility.yul\":3792:3797   */\n      dup2\n        /* \"#utility.yul\":3765:3798   */\n      tag_207\n      jump\t// in\n    tag_263:\n        /* \"#utility.yul\":3661:3804   */\n      swap3\n      swap2\n      pop\n      pop\n      jump\t// out\n        /* \"#utility.yul\":3810:4161   */\n    tag_112:\n        /* \"#utility.yul\":3880:3886   */\n      0x00\n        /* \"#utility.yul\":3929:3931   */\n      0x20\n        /* \"#utility.yul\":3917:3926   */\n      dup3\n        /* \"#utility.yul\":3908:3915   */\n      dup5\n        /* \"#utility.yul\":3904:3927   */\n      sub\n        /* \"#utility.yul\":3900:3932   */\n      slt\n        /* \"#utility.yul\":3897:4016   */\n      iszero\n      tag_265\n      jumpi\n        /* \"#utility.yul\":3935:4014   */\n      tag_266\n      tag_194\n      jump\t// in\n    tag_266:\n        /* \"#utility.yul\":3897:4016   */\n    tag_265:\n        /* \"#utility.yul\":4055:4056   */\n      0x00\n        /* \"#utility.yul\":4080:4144   */\n      tag_267\n        /* \"#utility.yul\":4136:4143   */\n      dup5\n        /* \"#utility.yul\":4127:4133   */\n      dup3\n        /* \"#utility.yul\":4116:4125   */\n      dup6\n        /* \"#utility.yul\":4112:4134   */\n      add\n        /* \"#utility.yul\":4080:4144   */\n      tag_208\n      jump\t// in\n    tag_267:\n        /* \"#utility.yul\":4070:4144   */\n      swap2\n      pop\n        /* \"#utility.yul\":4026:4154   */\n      pop\n        /* \"#utility.yul\":3810:4161   */\n      swap3\n      swap2\n      pop\n      pop\n      jump\t// out\n        /* \"#utility.yul\":4167:4361   */\n    tag_128:\n        /* \"#utility.yul\":4207:4211   */\n      0x00\n        /* \"#utility.yul\":4227:4247   */\n      tag_269\n        /* \"#utility.yul\":4245:4246   */\n      dup3\n        /* \"#utility.yul\":4227:4247   */\n      tag_199\n      jump\t// in\n    tag_269:\n        /* \"#utility.yul\":4222:4247   */\n      swap2\n      pop\n        /* \"#utility.yul\":4261:4281   */\n      tag_270\n        /* \"#utility.yul\":4279:4280   */\n      dup4\n        /* \"#utility.yul\":4261:4281   */\n      tag_199\n      jump\t// in\n    tag_270:\n        /* \"#utility.yul\":4256:4281   */\n      swap3\n      pop\n        /* \"#utility.yul\":4305:4306   */\n      dup3\n        /* \"#utility.yul\":4302:4303   */\n      dup3\n        /* \"#utility.yul\":4298:4307   */\n      sub\n        /* \"#utility.yul\":4290:4307   */\n      swap1\n      pop\n        /* \"#utility.yul\":4329:4330   */\n      dup2\n        /* \"#utility.yul\":4323:4327   */\n      dup2\n        /* \"#utility.yul\":4320:4331   */\n      gt\n        /* \"#utility.yul\":4317:4354   */\n      iszero\n      tag_271\n      jumpi\n        /* \"#utility.yul\":4334:4352   */\n      tag_272\n      tag_206\n      jump\t// in\n    tag_272:\n        /* \"#utility.yul\":4317:4354   */\n    tag_271:\n        /* \"#utility.yul\":4167:4361   */\n      swap3\n      swap2\n      pop\n      pop\n      jump\t// out\n        /* \"#utility.yul\":4367:4777   */\n    tag_155:\n        /* \"#utility.yul\":4407:4414   */\n      0x00\n        /* \"#utility.yul\":4430:4450   */\n      tag_274\n        /* \"#utility.yul\":4448:4449   */\n      dup3\n        /* \"#utility.yul\":4430:4450   */\n      tag_199\n      jump\t// in\n    tag_274:\n        /* \"#utility.yul\":4425:4450   */\n      swap2\n      pop\n        /* \"#utility.yul\":4464:4484   */\n      tag_275\n        /* \"#utility.yul\":4482:4483   */\n      dup4\n        /* \"#utility.yul\":4464:4484   */\n      tag_199\n      jump\t// in\n    tag_275:\n        /* \"#utility.yul\":4459:4484   */\n      swap3\n      pop\n        /* \"#utility.yul\":4519:4520   */\n      dup3\n        /* \"#utility.yul\":4516:4517   */\n      dup3\n        /* \"#utility.yul\":4512:4521   */\n      mul\n        /* \"#utility.yul\":4541:4571   */\n      tag_276\n        /* \"#utility.yul\":4559:4570   */\n      dup2\n        /* \"#utility.yul\":4541:4571   */\n      tag_199\n      jump\t// in\n    tag_276:\n        /* \"#utility.yul\":4530:4571   */\n      swap2\n      pop\n        /* \"#utility.yul\":4720:4721   */\n      dup3\n        /* \"#utility.yul\":4711:4718   */\n      dup3\n        /* \"#utility.yul\":4707:4722   */\n      div\n        /* \"#utility.yul\":4704:4705   */\n      dup5\n        /* \"#utility.yul\":4701:4723   */\n      eq\n        /* \"#utility.yul\":4681:4682   */\n      dup4\n        /* \"#utility.yul\":4674:4683   */\n      iszero\n        /* \"#utility.yul\":4654:4737   */\n      or\n        /* \"#utility.yul\":4631:4770   */\n      tag_277\n      jumpi\n        /* \"#utility.yul\":4750:4768   */\n      tag_278\n      tag_206\n      jump\t// in\n    tag_278:\n        /* \"#utility.yul\":4631:4770   */\n    tag_277:\n        /* \"#utility.yul\":4415:4777   */\n      pop\n        /* \"#utility.yul\":4367:4777   */\n      swap3\n      swap2\n      pop\n      pop\n      jump\t// out\n        /* \"#utility.yul\":4783:4963   */\n    tag_209:\n        /* \"#utility.yul\":4831:4908   */\n      0x4e487b7100000000000000000000000000000000000000000000000000000000\n        /* \"#utility.yul\":4828:4829   */\n      0x00\n        /* \"#utility.yul\":4821:4909   */\n      mstore\n        /* \"#utility.yul\":4928:4932   */\n      0x12\n        /* \"#utility.yul\":4925:4926   */\n      0x04\n        /* \"#utility.yul\":4918:4933   */\n      mstore\n        /* \"#utility.yul\":4952:4956   */\n      0x24\n        /* \"#utility.yul\":4949:4950   */\n      0x00\n        /* \"#utility.yul\":4942:4957   */\n      revert\n        /* \"#utility.yul\":4969:5154   */\n    tag_157:\n        /* \"#utility.yul\":5009:5010   */\n      0x00\n        /* \"#utility.yul\":5026:5046   */\n      tag_281\n        /* \"#utility.yul\":5044:5045   */\n      dup3\n        /* \"#utility.yul\":5026:5046   */\n      tag_199\n      jump\t// in\n    tag_281:\n        /* \"#utility.yul\":5021:5046   */\n      swap2\n      pop\n        /* \"#utility.yul\":5060:5080   */\n      tag_282\n        /* \"#utility.yul\":5078:5079   */\n      dup4\n        /* \"#utility.yul\":5060:5080   */\n      tag_199\n      jump\t// in\n    tag_282:\n        /* \"#utility.yul\":5055:5080   */\n      swap3\n      pop\n        /* \"#utility.yul\":5099:5100   */\n      dup3\n        /* \"#utility.yul\":5089:5124   */\n      tag_283\n      jumpi\n        /* \"#utility.yul\":5104:5122   */\n      tag_284\n      tag_209\n      jump\t// in\n    tag_284:\n        /* \"#utility.yul\":5089:5124   */\n    tag_283:\n        /* \"#utility.yul\":5146:5147   */\n      dup3\n        /* \"#utility.yul\":5143:5144   */\n      dup3\n        /* \"#utility.yul\":5139:5148   */\n      div\n        /* \"#utility.yul\":5134:5148   */\n      swap1\n      pop\n        /* \"#utility.yul\":4969:5154   */\n      swap3\n      swap2\n      pop\n      pop\n      jump\t// out\n        /* \"#utility.yul\":5160:5492   */\n    tag_161:\n        /* \"#utility.yul\":5281:5285   */\n      0x00\n        /* \"#utility.yul\":5319:5321   */\n      0x40\n        /* \"#utility.yul\":5308:5317   */\n      dup3\n        /* \"#utility.yul\":5304:5322   */\n      add\n        /* \"#utility.yul\":5296:5322   */\n      swap1\n      pop\n        /* \"#utility.yul\":5332:5403   */\n      tag_286\n        /* \"#utility.yul\":5400:5401   */\n      0x00\n        /* \"#utility.yul\":5389:5398   */\n      dup4\n        /* \"#utility.yul\":5385:5402   */\n      add\n        /* \"#utility.yul\":5376:5382   */\n      dup6\n        /* \"#utility.yul\":5332:5403   */\n      tag_205\n      jump\t// in\n    tag_286:\n        /* \"#utility.yul\":5413:5485   */\n      tag_287\n        /* \"#utility.yul\":5481:5483   */\n      0x20\n        /* \"#utility.yul\":5470:5479   */\n      dup4\n        /* \"#utility.yul\":5466:5484   */\n      add\n        /* \"#utility.yul\":5457:5463   */\n      dup5\n        /* \"#utility.yul\":5413:5485   */\n      tag_200\n      jump\t// in\n    tag_287:\n        /* \"#utility.yul\":5160:5492   */\n      swap4\n      swap3\n      pop\n      pop\n      pop\n      jump\t// out\n        /* \"#utility.yul\":5498:5830   */\n    tag_174:\n        /* \"#utility.yul\":5619:5623   */\n      0x00\n        /* \"#utility.yul\":5657:5659   */\n      0x40\n        /* \"#utility.yul\":5646:5655   */\n      dup3\n        /* \"#utility.yul\":5642:5660   */\n      add\n        /* \"#utility.yul\":5634:5660   */\n      swap1\n      pop\n        /* \"#utility.yul\":5670:5741   */\n      tag_289\n        /* \"#utility.yul\":5738:5739   */\n      0x00\n        /* \"#utility.yul\":5727:5736   */\n      dup4\n        /* \"#utility.yul\":5723:5740   */\n      add\n        /* \"#utility.yul\":5714:5720   */\n      dup6\n        /* \"#utility.yul\":5670:5741   */\n      tag_200\n      jump\t// in\n    tag_289:\n        /* \"#utility.yul\":5751:5823   */\n      tag_290\n        /* \"#utility.yul\":5819:5821   */\n      0x20\n        /* \"#utility.yul\":5808:5817   */\n      dup4\n        /* \"#utility.yul\":5804:5822   */\n      add\n        /* \"#utility.yul\":5795:5801   */\n      dup5\n        /* \"#utility.yul\":5751:5823   */\n      tag_200\n      jump\t// in\n    tag_290:\n        /* \"#utility.yul\":5498:5830   */\n      swap4\n      swap3\n      pop\n      pop\n      pop\n      jump\t// out\n        /* \"#utility.yul\":5836:5983   */\n    tag_210:\n        /* \"#utility.yul\":5937:5948   */\n      0x00\n        /* \"#utility.yul\":5974:5977   */\n      dup2\n        /* \"#utility.yul\":5959:5977   */\n      swap1\n      pop\n        /* \"#utility.yul\":5836:5983   */\n      swap3\n      swap2\n      pop\n      pop\n      jump\t// out\n        /* \"#utility.yul\":5989:6103   */\n    tag_211:\n      pop\n      jump\t// out\n        /* \"#utility.yul\":6109:6507   */\n    tag_212:\n        /* \"#utility.yul\":6268:6271   */\n      0x00\n        /* \"#utility.yul\":6289:6372   */\n      tag_294\n        /* \"#utility.yul\":6370:6371   */\n      0x00\n        /* \"#utility.yul\":6365:6368   */\n      dup4\n        /* \"#utility.yul\":6289:6372   */\n      tag_210\n      jump\t// in\n    tag_294:\n        /* \"#utility.yul\":6282:6372   */\n      swap2\n      pop\n        /* \"#utility.yul\":6381:6474   */\n      tag_295\n        /* \"#utility.yul\":6470:6473   */\n      dup3\n        /* \"#utility.yul\":6381:6474   */\n      tag_211\n      jump\t// in\n    tag_295:\n        /* \"#utility.yul\":6499:6500   */\n      0x00\n        /* \"#utility.yul\":6494:6497   */\n      dup3\n        /* \"#utility.yul\":6490:6501   */\n      add\n        /* \"#utility.yul\":6483:6501   */\n      swap1\n      pop\n        /* \"#utility.yul\":6109:6507   */\n      swap2\n      swap1\n      pop\n      jump\t// out\n        /* \"#utility.yul\":6513:6892   */\n    tag_176:\n        /* \"#utility.yul\":6697:6700   */\n      0x00\n        /* \"#utility.yul\":6719:6866   */\n      tag_297\n        /* \"#utility.yul\":6862:6865   */\n      dup3\n        /* \"#utility.yul\":6719:6866   */\n      tag_212\n      jump\t// in\n    tag_297:\n        /* \"#utility.yul\":6712:6866   */\n      swap2\n      pop\n        /* \"#utility.yul\":6883:6886   */\n      dup2\n        /* \"#utility.yul\":6876:6886   */\n      swap1\n      pop\n        /* \"#utility.yul\":6513:6892   */\n      swap2\n      swap1\n      pop\n      jump\t// out\n\n    auxdata: 0xa26469706673582212206dc6ac166290d0db59fa1cbe71dd58b93cb59dcba2c269d64a9558a1d471efc064736f6c63430008140033\n}\n","bytecode":{"linkReferences":{},"object":"60c06040526040516200125c3803806200125c833981810160405281019062000029919062000265565b82600073ffffffffffffffffffffffffffffffffffffffff168173ffffffffffffffffffffffffffffffffffffffff16036200009f5760006040517f1e4fbdf7000000000000000000000000000000000000000000000000000000008152600401620000969190620002d2565b60405180910390fd5b620000b081620000f260201b60201c565b508167ffffffffffffffff1660808167ffffffffffffffff16815250508067ffffffffffffffff1660a08167ffffffffffffffff1681525050505050620002ef565b60008060009054906101000a900473ffffffffffffffffffffffffffffffffffffffff169050816000806101000a81548173ffffffffffffffffffffffffffffffffffffffff021916908373ffffffffffffffffffffffffffffffffffffffff1602179055508173ffffffffffffffffffffffffffffffffffffffff168173ffffffffffffffffffffffffffffffffffffffff167f8be0079c531659141344cd1fd0a4f28419497f9722a3daafe3b4186f6b6457e060405160405180910390a35050565b600080fd5b600073ffffffffffffffffffffffffffffffffffffffff82169050919050565b6000620001e882620001bb565b9050919050565b620001fa81620001db565b81146200020657600080fd5b50565b6000815190506200021a81620001ef565b92915050565b600067ffffffffffffffff82169050919050565b6200023f8162000220565b81146200024b57600080fd5b50565b6000815190506200025f8162000234565b92915050565b600080600060608486031215620002815762000280620001b6565b5b6000620002918682870162000209565b9350506020620002a4868287016200024e565b9250506040620002b7868287016200024e565b9150509250925092565b620002cc81620001db565b82525050565b6000602082019050620002e96000830184620002c1565b92915050565b60805160a051610f4762000315600039600061038c0152600061064b0152610f476000f3fe6080604052600436106100e15760003560e01c8063961325211161007f578063be9a655511610059578063be9a6555146102b9578063efbe1c1c146102e4578063f2fde38b1461030f578063fbccedae14610338576100e8565b806396132521146102145780639852595c1461023f578063a3f8eace1461027c576100e8565b8063715018a6116100bb578063715018a61461017e578063810ec23b1461019557806386d1a69f146101d25780638da5cb5b146101e9576100e8565b80630a17b06b146100ed5780630fb5a6b41461012a5780631916558714610155576100e8565b366100e857005b600080fd5b3480156100f957600080fd5b50610114600480360381019061010f9190610b91565b610363565b6040516101219190610bd7565b60405180910390f35b34801561013657600080fd5b5061013f610388565b60405161014c9190610bd7565b60405180910390f35b34801561016157600080fd5b5061017c60048036038101906101779190610c50565b6103ba565b005b34801561018a57600080fd5b50610193610481565b005b3480156101a157600080fd5b506101bc60048036038101906101b79190610c7d565b610495565b6040516101c99190610bd7565b60405180910390f35b3480156101de57600080fd5b506101e7610535565b005b3480156101f557600080fd5b506101fe6105a5565b60405161020b9190610ccc565b60405180910390f35b34801561022057600080fd5b506102296105ce565b6040516102369190610bd7565b60405180910390f35b34801561024b57600080fd5b5061026660048036038101906102619190610c50565b6105d8565b6040516102739190610bd7565b60405180910390f35b34801561028857600080fd5b506102a3600480360381019061029e9190610c50565b610621565b6040516102b09190610bd7565b60405180910390f35b3480156102c557600080fd5b506102ce610647565b6040516102db9190610bd7565b60405180910390f35b3480156102f057600080fd5b506102f9610679565b6040516103069190610bd7565b60405180910390f35b34801561031b57600080fd5b5061033660048036038101906103319190610c50565b61069a565b005b34801561034457600080fd5b5061034d610720565b60405161035a9190610bd7565b60405180910390f35b60006103816103706105ce565b4761037b9190610d16565b83610742565b9050919050565b60007f000000000000000000000000000000000000000000000000000000000000000067ffffffffffffffff16905090565b60006103c582610621565b905080600260008473ffffffffffffffffffffffffffffffffffffffff1673ffffffffffffffffffffffffffffffffffffffff16815260200190815260200160002060008282546104169190610d16565b925050819055508173ffffffffffffffffffffffffffffffffffffffff167fc0e523490dd523c33b1878c9eb14ff46991e3f5b2cd33710918618f2a39cba1b826040516104639190610bd7565b60405180910390a261047d826104776105a5565b836107c9565b5050565b610489610848565b61049360006108cf565b565b600061052d6104a3846105d8565b8473ffffffffffffffffffffffffffffffffffffffff166370a08231306040518263ffffffff1660e01b81526004016104dc9190610ccc565b602060405180830381865afa1580156104f9573d6000803e3d6000fd5b505050506040513d601f19601f8201168201806040525081019061051d9190610d76565b6105279190610d16565b83610742565b905092915050565b600061053f610720565b905080600160008282546105539190610d16565b925050819055507fda9d4e5f101b8b9b1c5b76d0c5a9f7923571acfc02376aa076b75a8c080c956b816040516105899190610bd7565b60405180910390a16105a261059c6105a5565b82610993565b50565b60008060009054906101000a900473ffffffffffffffffffffffffffffffffffffffff16905090565b6000600154905090565b6000600260008373ffffffffffffffffffffffffffffffffffffffff1673ffffffffffffffffffffffffffffffffffffffff168152602001908152602001600020549050919050565b600061062c826105d8565b6106368342610495565b6106409190610da3565b9050919050565b60007f000000000000000000000000000000000000000000000000000000000000000067ffffffffffffffff16905090565b6000610683610388565b61068b610647565b6106959190610d16565b905090565b6106a2610848565b600073ffffffffffffffffffffffffffffffffffffffff168173ffffffffffffffffffffffffffffffffffffffff16036107145760006040517f1e4fbdf700000000000000000000000000000000000000000000000000000000815260040161070b9190610ccc565b60405180910390fd5b61071d816108cf565b50565b600061072a6105ce565b61073342610363565b61073d9190610da3565b905090565b600061074c610647565b8267ffffffffffffffff16101561076657600090506107c3565b61076e610679565b8267ffffffffffffffff1610610786578290506107c3565b61078e610388565b610796610647565b8367ffffffffffffffff166107ab9190610da3565b846107b69190610dd7565b6107c09190610e48565b90505b92915050565b610843838473ffffffffffffffffffffffffffffffffffffffff1663a9059cbb85856040516024016107fc929190610e79565b604051602081830303815290604052915060e01b6020820180517bffffffffffffffffffffffffffffffffffffffffffffffffffffffff8381831617835250505050610a5d565b505050565b610850610aff565b73ffffffffffffffffffffffffffffffffffffffff1661086e6105a5565b73ffffffffffffffffffffffffffffffffffffffff16146108cd57610891610aff565b6040517f118cdaa70000000000000000000000000000000000000000000000000000000081526004016108c49190610ccc565b60405180910390fd5b565b60008060009054906101000a900473ffffffffffffffffffffffffffffffffffffffff169050816000806101000a81548173ffffffffffffffffffffffffffffffffffffffff021916908373ffffffffffffffffffffffffffffffffffffffff1602179055508173ffffffffffffffffffffffffffffffffffffffff168173ffffffffffffffffffffffffffffffffffffffff167f8be0079c531659141344cd1fd0a4f28419497f9722a3daafe3b4186f6b6457e060405160405180910390a35050565b804710156109da5747816040517fcf4791810000000000000000000000000000000000000000000000000000000081526004016109d1929190610ea2565b60405180910390fd5b6000808373ffffffffffffffffffffffffffffffffffffffff1683604051610a0190610efc565b60006040518083038185875af1925050503d8060008114610a3e576040519150601f19603f3d011682016040523d82523d6000602084013e610a43565b606091505b509150915081610a5757610a5681610b07565b5b50505050565b600080602060008451602086016000885af180610a80576040513d6000823e3d81fd5b3d925060005191505060008214610a9b576001811415610ab7565b60008473ffffffffffffffffffffffffffffffffffffffff163b145b15610af957836040517f5274afe7000000000000000000000000000000000000000000000000000000008152600401610af09190610ccc565b60405180910390fd5b50505050565b600033905090565b600081511115610b1a5780518082602001fd5b6040517fd6bda27500000000000000000000000000000000000000000000000000000000815260040160405180910390fd5b600080fd5b600067ffffffffffffffff82169050919050565b610b6e81610b51565b8114610b7957600080fd5b50565b600081359050610b8b81610b65565b92915050565b600060208284031215610ba757610ba6610b4c565b5b6000610bb584828501610b7c565b91505092915050565b6000819050919050565b610bd181610bbe565b82525050565b6000602082019050610bec6000830184610bc8565b92915050565b600073ffffffffffffffffffffffffffffffffffffffff82169050919050565b6000610c1d82610bf2565b9050919050565b610c2d81610c12565b8114610c3857600080fd5b50565b600081359050610c4a81610c24565b92915050565b600060208284031215610c6657610c65610b4c565b5b6000610c7484828501610c3b565b91505092915050565b60008060408385031215610c9457610c93610b4c565b5b6000610ca285828601610c3b565b9250506020610cb385828601610b7c565b9150509250929050565b610cc681610c12565b82525050565b6000602082019050610ce16000830184610cbd565b92915050565b7f4e487b7100000000000000000000000000000000000000000000000000000000600052601160045260246000fd5b6000610d2182610bbe565b9150610d2c83610bbe565b9250828201905080821115610d4457610d43610ce7565b5b92915050565b610d5381610bbe565b8114610d5e57600080fd5b50565b600081519050610d7081610d4a565b92915050565b600060208284031215610d8c57610d8b610b4c565b5b6000610d9a84828501610d61565b91505092915050565b6000610dae82610bbe565b9150610db983610bbe565b9250828203905081811115610dd157610dd0610ce7565b5b92915050565b6000610de282610bbe565b9150610ded83610bbe565b9250828202610dfb81610bbe565b91508282048414831517610e1257610e11610ce7565b5b5092915050565b7f4e487b7100000000000000000000000000000000000000000000000000000000600052601260045260246000fd5b6000610e5382610bbe565b9150610e5e83610bbe565b925082610e6e57610e6d610e19565b5b828204905092915050565b6000604082019050610e8e6000830185610cbd565b610e9b6020830184610bc8565b9392505050565b6000604082019050610eb76000830185610bc8565b610ec46020830184610bc8565b9392505050565b600081905092915050565b50565b6000610ee6600083610ecb565b9150610ef182610ed6565b600082019050919050565b6000610f0782610ed9565b915081905091905056fea26469706673582212206dc6ac166290d0db59fa1cbe71dd58b93cb59dcba2c269d64a9558a1d471efc064736f6c63430008140033","opcodes":"PUSH1 0xC0 PUSH1 0x40 MSTORE PUSH1 0x40 MLOAD PUSH3 0x125C CODESIZE SUB DUP1 PUSH3 0x125C DUP4 CODECOPY DUP2 DUP2 ADD PUSH1 0x40 MSTORE DUP2 ADD SWAP1 PUSH3 0x29 SWAP2 SWAP1 PUSH3 0x265 JUMP JUMPDEST DUP3 PUSH1 0x0 PUSH20 0xFFFFFFFFFFFFFFFFFFFFFFFFFFFFFFFFFFFFFFFF AND DUP2 PUSH20 0xFFFFFFFFFFFFFFFFFFFFFFFFFFFFFFFFFFFFFFFF AND SUB PUSH3 0x9F JUMPI PUSH1 0x0 PUSH1 0x40 MLOAD PUSH32 0x1E4FBDF700000000000000000000000000000000000000000000000000000000 DUP2 MSTORE PUSH1 0x4 ADD PUSH3 0x96 SWAP2 SWAP1 PUSH3 0x2D2 JUMP JUMPDEST PUSH1 0x40 MLOAD DUP1 SWAP2 SUB SWAP1 REVERT JUMPDEST PUSH3 0xB0 DUP2 PUSH3 0xF2 PUSH1 0x20 SHL PUSH1 0x20 SHR JUMP JUMPDEST POP DUP2 PUSH8 0xFFFFFFFFFFFFFFFF AND PUSH1 0x80 DUP2 PUSH8 0xFFFFFFFFFFFFFFFF AND DUP2 MSTORE POP POP DUP1 PUSH8 0xFFFFFFFFFFFFFFFF AND PUSH1 0xA0 DUP2 PUSH8 0xFFFFFFFFFFFFFFFF AND DUP2 MSTORE POP POP POP POP POP PUSH3 0x2EF JUMP JUMPDEST PUSH1 0x0 DUP1 PUSH1 0x0 SWAP1 SLOAD SWAP1 PUSH2 0x100 EXP SWAP1 DIV PUSH20 0xFFFFFFFFFFFFFFFFFFFFFFFFFFFFFFFFFFFFFFFF AND SWAP1 POP DUP2 PUSH1 0x0 DUP1 PUSH2 0x100 EXP DUP2 SLOAD DUP2 PUSH20 0xFFFFFFFFFFFFFFFFFFFFFFFFFFFFFFFFFFFFFFFF MUL NOT AND SWAP1 DUP4 PUSH20 0xFFFFFFFFFFFFFFFFFFFFFFFFFFFFFFFFFFFFFFFF AND MUL OR SWAP1 SSTORE POP DUP2 PUSH20 0xFFFFFFFFFFFFFFFFFFFFFFFFFFFFFFFFFFFFFFFF AND DUP2 PUSH20 0xFFFFFFFFFFFFFFFFFFFFFFFFFFFFFFFFFFFFFFFF AND PUSH32 0x8BE0079C531659141344CD1FD0A4F28419497F9722A3DAAFE3B4186F6B6457E0 PUSH1 0x40 MLOAD PUSH1 0x40 MLOAD DUP1 SWAP2 SUB SWAP1 LOG3 POP POP JUMP JUMPDEST PUSH1 0x0 DUP1 REVERT JUMPDEST PUSH1 0x0 PUSH20 0xFFFFFFFFFFFFFFFFFFFFFFFFFFFFFFFFFFFFFFFF DUP3 AND SWAP1 POP SWAP2 SWAP1 POP JUMP JUMPDEST PUSH1 0x0 PUSH3 0x1E8 DUP3 PUSH3 0x1BB JUMP JUMPDEST SWAP1 POP SWAP2 SWAP1 POP JUMP JUMPDEST PUSH3 0x1FA DUP2 PUSH3 0x1DB JUMP JUMPDEST DUP2 EQ PUSH3 0x206 JUMPI PUSH1 0x0 DUP1 REVERT JUMPDEST POP JUMP JUMPDEST PUSH1 0x0 DUP2 MLOAD SWAP1 POP PUSH3 0x21A DUP2 PUSH3 0x1EF JUMP JUMPDEST SWAP3 SWAP2 POP POP JUMP JUMPDEST PUSH1 0x0 PUSH8 0xFFFFFFFFFFFFFFFF DUP3 AND SWAP1 POP SWAP2 SWAP1 POP JUMP JUMPDEST PUSH3 0x23F DUP2 PUSH3 0x220 JUMP JUMPDEST DUP2 EQ PUSH3 0x24B JUMPI PUSH1 0x0 DUP1 REVERT JUMPDEST POP JUMP JUMPDEST PUSH1 0x0 DUP2 MLOAD SWAP1 POP PUSH3 0x25F DUP2 PUSH3 0x234 JUMP JUMPDEST SWAP3 SWAP2 POP POP JUMP JUMPDEST PUSH1 0x0 DUP1 PUSH1 0x0 PUSH1 0x60 DUP5 DUP7 SUB SLT ISZERO PUSH3 0x281 JUMPI PUSH3 0x280 PUSH3 0x1B6 JUMP JUMPDEST JUMPDEST PUSH1 0x0 PUSH3 0x291 DUP7 DUP3 DUP8 ADD PUSH3 0x209 JUMP JUMPDEST SWAP4 POP POP PUSH1 0x20 PUSH3 0x2A4 DUP7 DUP3 DUP8 ADD PUSH3 0x24E JUMP JUMPDEST SWAP3 POP POP PUSH1 0x40 PUSH3 0x2B7 DUP7 DUP3 DUP8 ADD PUSH3 0x24E JUMP JUMPDEST SWAP2 POP POP SWAP3 POP SWAP3 POP SWAP3 JUMP JUMPDEST PUSH3 0x2CC DUP2 PUSH3 0x1DB JUMP JUMPDEST DUP3 MSTORE POP POP JUMP JUMPDEST PUSH1 0x0 PUSH1 0x20 DUP3 ADD SWAP1 POP PUSH3 0x2E9 PUSH1 0x0 DUP4 ADD DUP5 PUSH3 0x2C1 JUMP JUMPDEST SWAP3 SWAP2 POP POP JUMP JUMPDEST PUSH1 0x80 MLOAD PUSH1 0xA0 MLOAD PUSH2 0xF47 PUSH3 0x315 PUSH1 0x0 CODECOPY PUSH1 0x0 PUSH2 0x38C ADD MSTORE PUSH1 0x0 PUSH2 0x64B ADD MSTORE PUSH2 0xF47 PUSH1 0x0 RETURN INVALID PUSH1 0x80 PUSH1 0x40 MSTORE PUSH1 0x4 CALLDATASIZE LT PUSH2 0xE1 JUMPI PUSH1 0x0 CALLDATALOAD PUSH1 0xE0 SHR DUP1 PUSH4 0x96132521 GT PUSH2 0x7F JUMPI DUP1 PUSH4 0xBE9A6555 GT PUSH2 0x59 JUMPI DUP1 PUSH4 0xBE9A6555 EQ PUSH2 0x2B9 JUMPI DUP1 PUSH4 0xEFBE1C1C EQ PUSH2 0x2E4 JUMPI DUP1 PUSH4 0xF2FDE38B EQ PUSH2 0x30F JUMPI DUP1 PUSH4 0xFBCCEDAE EQ PUSH2 0x338 JUMPI PUSH2 0xE8 JUMP JUMPDEST DUP1 PUSH4 0x96132521 EQ PUSH2 0x214 JUMPI DUP1 PUSH4 0x9852595C EQ PUSH2 0x23F JUMPI DUP1 PUSH4 0xA3F8EACE EQ PUSH2 0x27C JUMPI PUSH2 0xE8 JUMP JUMPDEST DUP1 PUSH4 0x715018A6 GT PUSH2 0xBB JUMPI DUP1 PUSH4 0x715018A6 EQ PUSH2 0x17E JUMPI DUP1 PUSH4 0x810EC23B EQ PUSH2 0x195 JUMPI DUP1 PUSH4 0x86D1A69F EQ PUSH2 0x1D2 JUMPI DUP1 PUSH4 0x8DA5CB5B EQ PUSH2 0x1E9 JUMPI PUSH2 0xE8 JUMP JUMPDEST DUP1 PUSH4 0xA17B06B EQ PUSH2 0xED JUMPI DUP1 PUSH4 0xFB5A6B4 EQ PUSH2 0x12A JUMPI DUP1 PUSH4 0x19165587 EQ PUSH2 0x155 JUMPI PUSH2 0xE8 JUMP JUMPDEST CALLDATASIZE PUSH2 0xE8 JUMPI STOP JUMPDEST PUSH1 0x0 DUP1 REVERT JUMPDEST CALLVALUE DUP1 ISZERO PUSH2 0xF9 JUMPI PUSH1 0x0 DUP1 REVERT JUMPDEST POP PUSH2 0x114 PUSH1 0x4 DUP1 CALLDATASIZE SUB DUP2 ADD SWAP1 PUSH2 0x10F SWAP2 SWAP1 PUSH2 0xB91 JUMP JUMPDEST PUSH2 0x363 JUMP JUMPDEST PUSH1 0x40 MLOAD PUSH2 0x121 SWAP2 SWAP1 PUSH2 0xBD7 JUMP JUMPDEST PUSH1 0x40 MLOAD DUP1 SWAP2 SUB SWAP1 RETURN JUMPDEST CALLVALUE DUP1 ISZERO PUSH2 0x136 JUMPI PUSH1 0x0 DUP1 REVERT JUMPDEST POP PUSH2 0x13F PUSH2 0x388 JUMP JUMPDEST PUSH1 0x40 MLOAD PUSH2 0x14C SWAP2 SWAP1 PUSH2 0xBD7 JUMP JUMPDEST PUSH1 0x40 MLOAD DUP1 SWAP2 SUB SWAP1 RETURN JUMPDEST CALLVALUE DUP1 ISZERO PUSH2 0x161 JUMPI PUSH1 0x0 DUP1 REVERT JUMPDEST POP PUSH2 0x17C PUSH1 0x4 DUP1 CALLDATASIZE SUB DUP2 ADD SWAP1 PUSH2 0x177 SWAP2 SWAP1 PUSH2 0xC50 JUMP JUMPDEST PUSH2 0x3BA JUMP JUMPDEST STOP JUMPDEST CALLVALUE DUP1 ISZERO PUSH2 0x18A JUMPI PUSH1 0x0 DUP1 REVERT JUMPDEST POP PUSH2 0x193 PUSH2 0x481 JUMP JUMPDEST STOP JUMPDEST CALLVALUE DUP1 ISZERO PUSH2 0x1A1 JUMPI PUSH1 0x0 DUP1 REVERT JUMPDEST POP PUSH2 0x1BC PUSH1 0x4 DUP1 CALLDATASIZE SUB DUP2 ADD SWAP1 PUSH2 0x1B7 SWAP2 SWAP1 PUSH2 0xC7D JUMP JUMPDEST PUSH2 0x495 JUMP JUMPDEST PUSH1 0x40 MLOAD PUSH2 0x1C9 SWAP2 SWAP1 PUSH2 0xBD7 JUMP JUMPDEST PUSH1 0x40 MLOAD DUP1 SWAP2 SUB SWAP1 RETURN JUMPDEST CALLVALUE DUP1 ISZERO PUSH2 0x1DE JUMPI PUSH1 0x0 DUP1 REVERT JUMPDEST POP PUSH2 0x1E7 PUSH2 0x535 JUMP JUMPDEST STOP JUMPDEST CALLVALUE DUP1 ISZERO PUSH2 0x1F5 JUMPI PUSH1 0x0 DUP1 REVERT JUMPDEST POP PUSH2 0x1FE PUSH2 0x5A5 JUMP JUMPDEST PUSH1 0x40 MLOAD PUSH2 0x20B SWAP2 SWAP1 PUSH2 0xCCC JUMP JUMPDEST PUSH1 0x40 MLOAD DUP1 SWAP2 SUB SWAP1 RETURN JUMPDEST CALLVALUE DUP1 ISZERO PUSH2 0x220 JUMPI PUSH1 0x0 DUP1 REVERT JUMPDEST POP PUSH2 0x229 PUSH2 0x5CE JUMP JUMPDEST PUSH1 0x40 MLOAD PUSH2 0x236 SWAP2 SWAP1 PUSH2 0xBD7 JUMP JUMPDEST PUSH1 0x40 MLOAD DUP1 SWAP2 SUB SWAP1 RETURN JUMPDEST CALLVALUE DUP1 ISZERO PUSH2 0x24B JUMPI PUSH1 0x0 DUP1 REVERT JUMPDEST POP PUSH2 0x266 PUSH1 0x4 DUP1 CALLDATASIZE SUB DUP2 ADD SWAP1 PUSH2 0x261 SWAP2 SWAP1 PUSH2 0xC50 JUMP JUMPDEST PUSH2 0x5D8 JUMP JUMPDEST PUSH1 0x40 MLOAD PUSH2 0x273 SWAP2 SWAP1 PUSH2 0xBD7 JUMP JUMPDEST PUSH1 0x40 MLOAD DUP1 SWAP2 SUB SWAP1 RETURN JUMPDEST CALLVALUE DUP1 ISZERO PUSH2 0x288 JUMPI PUSH1 0x0 DUP1 REVERT JUMPDEST POP PUSH2 0x2A3 PUSH1 0x4 DUP1 CALLDATASIZE SUB DUP2 ADD SWAP1 PUSH2 0x29E SWAP2 SWAP1 PUSH2 0xC50 JUMP JUMPDEST PUSH2 0x621 JUMP JUMPDEST PUSH1 0x40 MLOAD PUSH2 0x2B0 SWAP2 SWAP1 PUSH2 0xBD7 JUMP JUMPDEST PUSH1 0x40 MLOAD DUP1 SWAP2 SUB SWAP1 RETURN JUMPDEST CALLVALUE DUP1 ISZERO PUSH2 0x2C5 JUMPI PUSH1 0x0 DUP1 REVERT JUMPDEST POP PUSH2 0x2CE PUSH2 0x647 JUMP JUMPDEST PUSH1 0x40 MLOAD PUSH2 0x2DB SWAP2 SWAP1 PUSH2 0xBD7 JUMP JUMPDEST PUSH1 0x40 MLOAD DUP1 SWAP2 SUB SWAP1 RETURN JUMPDEST CALLVALUE DUP1 ISZERO PUSH2 0x2F0 JUMPI PUSH1 0x0 DUP1 REVERT JUMPDEST POP PUSH2 0x2F9 PUSH2 0x679 JUMP JUMPDEST PUSH1 0x40 MLOAD PUSH2 0x306 SWAP2 SWAP1 PUSH2 0xBD7 JUMP JUMPDEST PUSH1 0x40 MLOAD DUP1 SWAP2 SUB SWAP1 RETURN JUMPDEST CALLVALUE DUP1 ISZERO PUSH2 0x31B JUMPI PUSH1 0x0 DUP1 REVERT JUMPDEST POP PUSH2 0x336 PUSH1 0x4 DUP1 CALLDATASIZE SUB DUP2 ADD SWAP1 PUSH2 0x331 SWAP2 SWAP1 PUSH2 0xC50 JUMP JUMPDEST PUSH2 0x69A JUMP JUMPDEST STOP JUMPDEST CALLVALUE DUP1 ISZERO PUSH2 0x344 JUMPI PUSH1 0x0 DUP1 REVERT JUMPDEST POP PUSH2 0x34D PUSH2 0x720 JUMP JUMPDEST PUSH1 0x40 MLOAD PUSH2 0x35A SWAP2 SWAP1 PUSH2 0xBD7 JUMP JUMPDEST PUSH1 0x40 MLOAD DUP1 SWAP2 SUB SWAP1 RETURN JUMPDEST PUSH1 0x0 PUSH2 0x381 PUSH2 0x370 PUSH2 0x5CE JUMP JUMPDEST SELFBALANCE PUSH2 0x37B SWAP2 SWAP1 PUSH2 0xD16 JUMP JUMPDEST DUP4 PUSH2 0x742 JUMP JUMPDEST SWAP1 POP SWAP2 SWAP1 POP JUMP JUMPDEST PUSH1 0x0 PUSH32 0x0 PUSH8 0xFFFFFFFFFFFFFFFF AND SWAP1 POP SWAP1 JUMP JUMPDEST PUSH1 0x0 PUSH2 0x3C5 DUP3 PUSH2 0x621 JUMP JUMPDEST SWAP1 POP DUP1 PUSH1 0x2 PUSH1 0x0 DUP5 PUSH20 0xFFFFFFFFFFFFFFFFFFFFFFFFFFFFFFFFFFFFFFFF AND PUSH20 0xFFFFFFFFFFFFFFFFFFFFFFFFFFFFFFFFFFFFFFFF AND DUP2 MSTORE PUSH1 0x20 ADD SWAP1 DUP2 MSTORE PUSH1 0x20 ADD PUSH1 0x0 KECCAK256 PUSH1 0x0 DUP3 DUP3 SLOAD PUSH2 0x416 SWAP2 SWAP1 PUSH2 0xD16 JUMP JUMPDEST SWAP3 POP POP DUP2 SWAP1 SSTORE POP DUP2 PUSH20 0xFFFFFFFFFFFFFFFFFFFFFFFFFFFFFFFFFFFFFFFF AND PUSH32 0xC0E523490DD523C33B1878C9EB14FF46991E3F5B2CD33710918618F2A39CBA1B DUP3 PUSH1 0x40 MLOAD PUSH2 0x463 SWAP2 SWAP1 PUSH2 0xBD7 JUMP JUMPDEST PUSH1 0x40 MLOAD DUP1 SWAP2 SUB SWAP1 LOG2 PUSH2 0x47D DUP3 PUSH2 0x477 PUSH2 0x5A5 JUMP JUMPDEST DUP4 PUSH2 0x7C9 JUMP JUMPDEST POP POP JUMP JUMPDEST PUSH2 0x489 PUSH2 0x848 JUMP JUMPDEST PUSH2 0x493 PUSH1 0x0 PUSH2 0x8CF JUMP JUMPDEST JUMP JUMPDEST PUSH1 0x0 PUSH2 0x52D PUSH2 0x4A3 DUP5 PUSH2 0x5D8 JUMP JUMPDEST DUP5 PUSH20 0xFFFFFFFFFFFFFFFFFFFFFFFFFFFFFFFFFFFFFFFF AND PUSH4 0x70A08231 ADDRESS PUSH1 0x40 MLOAD DUP3 PUSH4 0xFFFFFFFF AND PUSH1 0xE0 SHL DUP2 MSTORE PUSH1 0x4 ADD PUSH2 0x4DC SWAP2 SWAP1 PUSH2 0xCCC JUMP JUMPDEST PUSH1 0x20 PUSH1 0x40 MLOAD DUP1 DUP4 SUB DUP2 DUP7 GAS STATICCALL ISZERO DUP1 ISZERO PUSH2 0x4F9 JUMPI RETURNDATASIZE PUSH1 0x0 DUP1 RETURNDATACOPY RETURNDATASIZE PUSH1 0x0 REVERT JUMPDEST POP POP POP POP PUSH1 0x40 MLOAD RETURNDATASIZE PUSH1 0x1F NOT PUSH1 0x1F DUP3 ADD AND DUP3 ADD DUP1 PUSH1 0x40 MSTORE POP DUP2 ADD SWAP1 PUSH2 0x51D SWAP2 SWAP1 PUSH2 0xD76 JUMP JUMPDEST PUSH2 0x527 SWAP2 SWAP1 PUSH2 0xD16 JUMP JUMPDEST DUP4 PUSH2 0x742 JUMP JUMPDEST SWAP1 POP SWAP3 SWAP2 POP POP JUMP JUMPDEST PUSH1 0x0 PUSH2 0x53F PUSH2 0x720 JUMP JUMPDEST SWAP1 POP DUP1 PUSH1 0x1 PUSH1 0x0 DUP3 DUP3 SLOAD PUSH2 0x553 SWAP2 SWAP1 PUSH2 0xD16 JUMP JUMPDEST SWAP3 POP POP DUP2 SWAP1 SSTORE POP PUSH32 0xDA9D4E5F101B8B9B1C5B76D0C5A9F7923571ACFC02376AA076B75A8C080C956B DUP2 PUSH1 0x40 MLOAD PUSH2 0x589 SWAP2 SWAP1 PUSH2 0xBD7 JUMP JUMPDEST PUSH1 0x40 MLOAD DUP1 SWAP2 SUB SWAP1 LOG1 PUSH2 0x5A2 PUSH2 0x59C PUSH2 0x5A5 JUMP JUMPDEST DUP3 PUSH2 0x993 JUMP JUMPDEST POP JUMP JUMPDEST PUSH1 0x0 DUP1 PUSH1 0x0 SWAP1 SLOAD SWAP1 PUSH2 0x100 EXP SWAP1 DIV PUSH20 0xFFFFFFFFFFFFFFFFFFFFFFFFFFFFFFFFFFFFFFFF AND SWAP1 POP SWAP1 JUMP JUMPDEST PUSH1 0x0 PUSH1 0x1 SLOAD SWAP1 POP SWAP1 JUMP JUMPDEST PUSH1 0x0 PUSH1 0x2 PUSH1 0x0 DUP4 PUSH20 0xFFFFFFFFFFFFFFFFFFFFFFFFFFFFFFFFFFFFFFFF AND PUSH20 0xFFFFFFFFFFFFFFFFFFFFFFFFFFFFFFFFFFFFFFFF AND DUP2 MSTORE PUSH1 0x20 ADD SWAP1 DUP2 MSTORE PUSH1 0x20 ADD PUSH1 0x0 KECCAK256 SLOAD SWAP1 POP SWAP2 SWAP1 POP JUMP JUMPDEST PUSH1 0x0 PUSH2 0x62C DUP3 PUSH2 0x5D8 JUMP JUMPDEST PUSH2 0x636 DUP4 TIMESTAMP PUSH2 0x495 JUMP JUMPDEST PUSH2 0x640 SWAP2 SWAP1 PUSH2 0xDA3 JUMP JUMPDEST SWAP1 POP SWAP2 SWAP1 POP JUMP JUMPDEST PUSH1 0x0 PUSH32 0x0 PUSH8 0xFFFFFFFFFFFFFFFF AND SWAP1 POP SWAP1 JUMP JUMPDEST PUSH1 0x0 PUSH2 0x683 PUSH2 0x388 JUMP JUMPDEST PUSH2 0x68B PUSH2 0x647 JUMP JUMPDEST PUSH2 0x695 SWAP2 SWAP1 PUSH2 0xD16 JUMP JUMPDEST SWAP1 POP SWAP1 JUMP JUMPDEST PUSH2 0x6A2 PUSH2 0x848 JUMP JUMPDEST PUSH1 0x0 PUSH20 0xFFFFFFFFFFFFFFFFFFFFFFFFFFFFFFFFFFFFFFFF AND DUP2 PUSH20 0xFFFFFFFFFFFFFFFFFFFFFFFFFFFFFFFFFFFFFFFF AND SUB PUSH2 0x714 JUMPI PUSH1 0x0 PUSH1 0x40 MLOAD PUSH32 0x1E4FBDF700000000000000000000000000000000000000000000000000000000 DUP2 MSTORE PUSH1 0x4 ADD PUSH2 0x70B SWAP2 SWAP1 PUSH2 0xCCC JUMP JUMPDEST PUSH1 0x40 MLOAD DUP1 SWAP2 SUB SWAP1 REVERT JUMPDEST PUSH2 0x71D DUP2 PUSH2 0x8CF JUMP JUMPDEST POP JUMP JUMPDEST PUSH1 0x0 PUSH2 0x72A PUSH2 0x5CE JUMP JUMPDEST PUSH2 0x733 TIMESTAMP PUSH2 0x363 JUMP JUMPDEST PUSH2 0x73D SWAP2 SWAP1 PUSH2 0xDA3 JUMP JUMPDEST SWAP1 POP SWAP1 JUMP JUMPDEST PUSH1 0x0 PUSH2 0x74C PUSH2 0x647 JUMP JUMPDEST DUP3 PUSH8 0xFFFFFFFFFFFFFFFF AND LT ISZERO PUSH2 0x766 JUMPI PUSH1 0x0 SWAP1 POP PUSH2 0x7C3 JUMP JUMPDEST PUSH2 0x76E PUSH2 0x679 JUMP JUMPDEST DUP3 PUSH8 0xFFFFFFFFFFFFFFFF AND LT PUSH2 0x786 JUMPI DUP3 SWAP1 POP PUSH2 0x7C3 JUMP JUMPDEST PUSH2 0x78E PUSH2 0x388 JUMP JUMPDEST PUSH2 0x796 PUSH2 0x647 JUMP JUMPDEST DUP4 PUSH8 0xFFFFFFFFFFFFFFFF AND PUSH2 0x7AB SWAP2 SWAP1 PUSH2 0xDA3 JUMP JUMPDEST DUP5 PUSH2 0x7B6 SWAP2 SWAP1 PUSH2 0xDD7 JUMP JUMPDEST PUSH2 0x7C0 SWAP2 SWAP1 PUSH2 0xE48 JUMP JUMPDEST SWAP1 POP JUMPDEST SWAP3 SWAP2 POP POP JUMP JUMPDEST PUSH2 0x843 DUP4 DUP5 PUSH20 0xFFFFFFFFFFFFFFFFFFFFFFFFFFFFFFFFFFFFFFFF AND PUSH4 0xA9059CBB DUP6 DUP6 PUSH1 0x40 MLOAD PUSH1 0x24 ADD PUSH2 0x7FC SWAP3 SWAP2 SWAP1 PUSH2 0xE79 JUMP JUMPDEST PUSH1 0x40 MLOAD PUSH1 0x20 DUP2 DUP4 SUB SUB DUP2 MSTORE SWAP1 PUSH1 0x40 MSTORE SWAP2 POP PUSH1 0xE0 SHL PUSH1 0x20 DUP3 ADD DUP1 MLOAD PUSH28 0xFFFFFFFFFFFFFFFFFFFFFFFFFFFFFFFFFFFFFFFFFFFFFFFFFFFFFFFF DUP4 DUP2 DUP4 AND OR DUP4 MSTORE POP POP POP POP PUSH2 0xA5D JUMP JUMPDEST POP POP POP JUMP JUMPDEST PUSH2 0x850 PUSH2 0xAFF JUMP JUMPDEST PUSH20 0xFFFFFFFFFFFFFFFFFFFFFFFFFFFFFFFFFFFFFFFF AND PUSH2 0x86E PUSH2 0x5A5 JUMP JUMPDEST PUSH20 0xFFFFFFFFFFFFFFFFFFFFFFFFFFFFFFFFFFFFFFFF AND EQ PUSH2 0x8CD JUMPI PUSH2 0x891 PUSH2 0xAFF JUMP JUMPDEST PUSH1 0x40 MLOAD PUSH32 0x118CDAA700000000000000000000000000000000000000000000000000000000 DUP2 MSTORE PUSH1 0x4 ADD PUSH2 0x8C4 SWAP2 SWAP1 PUSH2 0xCCC JUMP JUMPDEST PUSH1 0x40 MLOAD DUP1 SWAP2 SUB SWAP1 REVERT JUMPDEST JUMP JUMPDEST PUSH1 0x0 DUP1 PUSH1 0x0 SWAP1 SLOAD SWAP1 PUSH2 0x100 EXP SWAP1 DIV PUSH20 0xFFFFFFFFFFFFFFFFFFFFFFFFFFFFFFFFFFFFFFFF AND SWAP1 POP DUP2 PUSH1 0x0 DUP1 PUSH2 0x100 EXP DUP2 SLOAD DUP2 PUSH20 0xFFFFFFFFFFFFFFFFFFFFFFFFFFFFFFFFFFFFFFFF MUL NOT AND SWAP1 DUP4 PUSH20 0xFFFFFFFFFFFFFFFFFFFFFFFFFFFFFFFFFFFFFFFF AND MUL OR SWAP1 SSTORE POP DUP2 PUSH20 0xFFFFFFFFFFFFFFFFFFFFFFFFFFFFFFFFFFFFFFFF AND DUP2 PUSH20 0xFFFFFFFFFFFFFFFFFFFFFFFFFFFFFFFFFFFFFFFF AND PUSH32 0x8BE0079C531659141344CD1FD0A4F28419497F9722A3DAAFE3B4186F6B6457E0 PUSH1 0x40 MLOAD PUSH1 0x40 MLOAD DUP1 SWAP2 SUB SWAP1 LOG3 POP POP JUMP JUMPDEST DUP1 SELFBALANCE LT ISZERO PUSH2 0x9DA JUMPI SELFBALANCE DUP2 PUSH1 0x40 MLOAD PUSH32 0xCF47918100000000000000000000000000000000000000000000000000000000 DUP2 MSTORE PUSH1 0x4 ADD PUSH2 0x9D1 SWAP3 SWAP2 SWAP1 PUSH2 0xEA2 JUMP JUMPDEST PUSH1 0x40 MLOAD DUP1 SWAP2 SUB SWAP1 REVERT JUMPDEST PUSH1 0x0 DUP1 DUP4 PUSH20 0xFFFFFFFFFFFFFFFFFFFFFFFFFFFFFFFFFFFFFFFF AND DUP4 PUSH1 0x40 MLOAD PUSH2 0xA01 SWAP1 PUSH2 0xEFC JUMP JUMPDEST PUSH1 0x0 PUSH1 0x40 MLOAD DUP1 DUP4 SUB DUP2 DUP6 DUP8 GAS CALL SWAP3 POP POP POP RETURNDATASIZE DUP1 PUSH1 0x0 DUP2 EQ PUSH2 0xA3E JUMPI PUSH1 0x40 MLOAD SWAP2 POP PUSH1 0x1F NOT PUSH1 0x3F RETURNDATASIZE ADD AND DUP3 ADD PUSH1 0x40 MSTORE RETURNDATASIZE DUP3 MSTORE RETURNDATASIZE PUSH1 0x0 PUSH1 0x20 DUP5 ADD RETURNDATACOPY PUSH2 0xA43 JUMP JUMPDEST PUSH1 0x60 SWAP2 POP JUMPDEST POP SWAP2 POP SWAP2 POP DUP2 PUSH2 0xA57 JUMPI PUSH2 0xA56 DUP2 PUSH2 0xB07 JUMP JUMPDEST JUMPDEST POP POP POP POP JUMP JUMPDEST PUSH1 0x0 DUP1 PUSH1 0x20 PUSH1 0x0 DUP5 MLOAD PUSH1 0x20 DUP7 ADD PUSH1 0x0 DUP9 GAS CALL DUP1 PUSH2 0xA80 JUMPI PUSH1 0x40 MLOAD RETURNDATASIZE PUSH1 0x0 DUP3 RETURNDATACOPY RETURNDATASIZE DUP2 REVERT JUMPDEST RETURNDATASIZE SWAP3 POP PUSH1 0x0 MLOAD SWAP2 POP POP PUSH1 0x0 DUP3 EQ PUSH2 0xA9B JUMPI PUSH1 0x1 DUP2 EQ ISZERO PUSH2 0xAB7 JUMP JUMPDEST PUSH1 0x0 DUP5 PUSH20 0xFFFFFFFFFFFFFFFFFFFFFFFFFFFFFFFFFFFFFFFF AND EXTCODESIZE EQ JUMPDEST ISZERO PUSH2 0xAF9 JUMPI DUP4 PUSH1 0x40 MLOAD PUSH32 0x5274AFE700000000000000000000000000000000000000000000000000000000 DUP2 MSTORE PUSH1 0x4 ADD PUSH2 0xAF0 SWAP2 SWAP1 PUSH2 0xCCC JUMP JUMPDEST PUSH1 0x40 MLOAD DUP1 SWAP2 SUB SWAP1 REVERT JUMPDEST POP POP POP POP JUMP JUMPDEST PUSH1 0x0 CALLER SWAP1 POP SWAP1 JUMP JUMPDEST PUSH1 0x0 DUP2 MLOAD GT ISZERO PUSH2 0xB1A JUMPI DUP1 MLOAD DUP1 DUP3 PUSH1 0x20 ADD REVERT JUMPDEST PUSH1 0x40 MLOAD PUSH32 0xD6BDA27500000000000000000000000000000000000000000000000000000000 DUP2 MSTORE PUSH1 0x4 ADD PUSH1 0x40 MLOAD DUP1 SWAP2 SUB SWAP1 REVERT JUMPDEST PUSH1 0x0 DUP1 REVERT JUMPDEST PUSH1 0x0 PUSH8 0xFFFFFFFFFFFFFFFF DUP3 AND SWAP1 POP SWAP2 SWAP1 POP JUMP JUMPDEST PUSH2 0xB6E DUP2 PUSH2 0xB51 JUMP JUMPDEST DUP2 EQ PUSH2 0xB79 JUMPI PUSH1 0x0 DUP1 REVERT JUMPDEST POP JUMP JUMPDEST PUSH1 0x0 DUP2 CALLDATALOAD SWAP1 POP PUSH2 0xB8B DUP2 PUSH2 0xB65 JUMP JUMPDEST SWAP3 SWAP2 POP POP JUMP JUMPDEST PUSH1 0x0 PUSH1 0x20 DUP3 DUP5 SUB SLT ISZERO PUSH2 0xBA7 JUMPI PUSH2 0xBA6 PUSH2 0xB4C JUMP JUMPDEST JUMPDEST PUSH1 0x0 PUSH2 0xBB5 DUP5 DUP3 DUP6 ADD PUSH2 0xB7C JUMP JUMPDEST SWAP2 POP POP SWAP3 SWAP2 POP POP JUMP JUMPDEST PUSH1 0x0 DUP2 SWAP1 POP SWAP2 SWAP1 POP JUMP JUMPDEST PUSH2 0xBD1 DUP2 PUSH2 0xBBE JUMP JUMPDEST DUP3 MSTORE POP POP JUMP JUMPDEST PUSH1 0x0 PUSH1 0x20 DUP3 ADD SWAP1 POP PUSH2 0xBEC PUSH1 0x0 DUP4 ADD DUP5 PUSH2 0xBC8 JUMP JUMPDEST SWAP3 SWAP2 POP POP JUMP JUMPDEST PUSH1 0x0 PUSH20 0xFFFFFFFFFFFFFFFFFFFFFFFFFFFFFFFFFFFFFFFF DUP3 AND SWAP1 POP SWAP2 SWAP1 POP JUMP JUMPDEST PUSH1 0x0 PUSH2 0xC1D DUP3 PUSH2 0xBF2 JUMP JUMPDEST SWAP1 POP SWAP2 SWAP1 POP JUMP JUMPDEST PUSH2 0xC2D DUP2 PUSH2 0xC12 JUMP JUMPDEST DUP2 EQ PUSH2 0xC38 JUMPI PUSH1 0x0 DUP1 REVERT JUMPDEST POP JUMP JUMPDEST PUSH1 0x0 DUP2 CALLDATALOAD SWAP1 POP PUSH2 0xC4A DUP2 PUSH2 0xC24 JUMP JUMPDEST SWAP3 SWAP2 POP POP JUMP JUMPDEST PUSH1 0x0 PUSH1 0x20 DUP3 DUP5 SUB SLT ISZERO PUSH2 0xC66 JUMPI PUSH2 0xC65 PUSH2 0xB4C JUMP JUMPDEST JUMPDEST PUSH1 0x0 PUSH2 0xC74 DUP5 DUP3 DUP6 ADD PUSH2 0xC3B JUMP JUMPDEST SWAP2 POP POP SWAP3 SWAP2 POP POP JUMP JUMPDEST PUSH1 0x0 DUP1 PUSH1 0x40 DUP4 DUP6 SUB SLT ISZERO PUSH2 0xC94 JUMPI PUSH2 0xC93 PUSH2 0xB4C JUMP JUMPDEST JUMPDEST PUSH1 0x0 PUSH2 0xCA2 DUP6 DUP3 DUP7 ADD PUSH2 0xC3B JUMP JUMPDEST SWAP3 POP POP PUSH1 0x20 PUSH2 0xCB3 DUP6 DUP3 DUP7 ADD PUSH2 0xB7C JUMP JUMPDEST SWAP2 POP POP SWAP3 POP SWAP3 SWAP1 POP JUMP JUMPDEST PUSH2 0xCC6 DUP2 PUSH2 0xC12 JUMP JUMPDEST DUP3 MSTORE POP POP JUMP JUMPDEST PUSH1 0x0 PUSH1 0x20 DUP3 ADD SWAP1 POP PUSH2 0xCE1 PUSH1 0x0 DUP4 ADD DUP5 PUSH2 0xCBD JUMP JUMPDEST SWAP3 SWAP2 POP POP JUMP JUMPDEST PUSH32 0x4E487B7100000000000000000000000000000000000000000000000000000000 PUSH1 0x0 MSTORE PUSH1 0x11 PUSH1 0x4 MSTORE PUSH1 0x24 PUSH1 0x0 REVERT JUMPDEST PUSH1 0x0 PUSH2 0xD21 DUP3 PUSH2 0xBBE JUMP JUMPDEST SWAP2 POP PUSH2 0xD2C DUP4 PUSH2 0xBBE JUMP JUMPDEST SWAP3 POP DUP3 DUP3 ADD SWAP1 POP DUP1 DUP3 GT ISZERO PUSH2 0xD44 JUMPI PUSH2 0xD43 PUSH2 0xCE7 JUMP JUMPDEST JUMPDEST SWAP3 SWAP2 POP POP JUMP JUMPDEST PUSH2 0xD53 DUP2 PUSH2 0xBBE JUMP JUMPDEST DUP2 EQ PUSH2 0xD5E JUMPI PUSH1 0x0 DUP1 REVERT JUMPDEST POP JUMP JUMPDEST PUSH1 0x0 DUP2 MLOAD SWAP1 POP PUSH2 0xD70 DUP2 PUSH2 0xD4A JUMP JUMPDEST SWAP3 SWAP2 POP POP JUMP JUMPDEST PUSH1 0x0 PUSH1 0x20 DUP3 DUP5 SUB SLT ISZERO PUSH2 0xD8C JUMPI PUSH2 0xD8B PUSH2 0xB4C JUMP JUMPDEST JUMPDEST PUSH1 0x0 PUSH2 0xD9A DUP5 DUP3 DUP6 ADD PUSH2 0xD61 JUMP JUMPDEST SWAP2 POP POP SWAP3 SWAP2 POP POP JUMP JUMPDEST PUSH1 0x0 PUSH2 0xDAE DUP3 PUSH2 0xBBE JUMP JUMPDEST SWAP2 POP PUSH2 0xDB9 DUP4 PUSH2 0xBBE JUMP JUMPDEST SWAP3 POP DUP3 DUP3 SUB SWAP1 POP DUP2 DUP2 GT ISZERO PUSH2 0xDD1 JUMPI PUSH2 0xDD0 PUSH2 0xCE7 JUMP JUMPDEST JUMPDEST SWAP3 SWAP2 POP POP JUMP JUMPDEST PUSH1 0x0 PUSH2 0xDE2 DUP3 PUSH2 0xBBE JUMP JUMPDEST SWAP2 POP PUSH2 0xDED DUP4 PUSH2 0xBBE JUMP JUMPDEST SWAP3 POP DUP3 DUP3 MUL PUSH2 0xDFB DUP2 PUSH2 0xBBE JUMP JUMPDEST SWAP2 POP DUP3 DUP3 DIV DUP5 EQ DUP4 ISZERO OR PUSH2 0xE12 JUMPI PUSH2 0xE11 PUSH2 0xCE7 JUMP JUMPDEST JUMPDEST POP SWAP3 SWAP2 POP POP JUMP JUMPDEST PUSH32 0x4E487B7100000000000000000000000000000000000000000000000000000000 PUSH1 0x0 MSTORE PUSH1 0x12 PUSH1 0x4 MSTORE PUSH1 0x24 PUSH1 0x0 REVERT JUMPDEST PUSH1 0x0 PUSH2 0xE53 DUP3 PUSH2 0xBBE JUMP JUMPDEST SWAP2 POP PUSH2 0xE5E DUP4 PUSH2 0xBBE JUMP JUMPDEST SWAP3 POP DUP3 PUSH2 0xE6E JUMPI PUSH2 0xE6D PUSH2 0xE19 JUMP JUMPDEST JUMPDEST DUP3 DUP3 DIV SWAP1 POP SWAP3 SWAP2 POP POP JUMP JUMPDEST PUSH1 0x0 PUSH1 0x40 DUP3 ADD SWAP1 POP PUSH2 0xE8E PUSH1 0x0 DUP4 ADD DUP6 PUSH2 0xCBD JUMP JUMPDEST PUSH2 0xE9B PUSH1 0x20 DUP4 ADD DUP5 PUSH2 0xBC8 JUMP JUMPDEST SWAP4 SWAP3 POP POP POP JUMP JUMPDEST PUSH1 0x0 PUSH1 0x40 DUP3 ADD SWAP1 POP PUSH2 0xEB7 PUSH1 0x0 DUP4 ADD DUP6 PUSH2 0xBC8 JUMP JUMPDEST PUSH2 0xEC4 PUSH1 0x20 DUP4 ADD DUP5 PUSH2 0xBC8 JUMP JUMPDEST SWAP4 SWAP3 POP POP POP JUMP JUMPDEST PUSH1 0x0 DUP2 SWAP1 POP SWAP3 SWAP2 POP POP JUMP JUMPDEST POP JUMP JUMPDEST PUSH1 0x0 PUSH2 0xEE6 PUSH1 0x0 DUP4 PUSH2 0xECB JUMP JUMPDEST SWAP2 POP PUSH2 0xEF1 DUP3 PUSH2 0xED6 JUMP JUMPDEST PUSH1 0x0 DUP3 ADD SWAP1 POP SWAP2 SWAP1 POP JUMP JUMPDEST PUSH1 0x0 PUSH2 0xF07 DUP3 PUSH2 0xED9 JUMP JUMPDEST SWAP2 POP DUP2 SWAP1 POP SWAP2 SWAP1 POP JUMP INVALID LOG2 PUSH5 0x6970667358 0x22 SLT KECCAK256 PUSH14 0xC6AC166290D0DB59FA1CBE71DD58 0xB9 EXTCODECOPY 0xB5 SWAP14 0xCB LOG2 0xC2 PUSH10 0xD64A9558A1D471EFC064 PUSH20 0x6F6C634300081400330000000000000000000000 "},"gasEstimates":{"creation":{"codeDepositCost":"782200","executionCost":"infinite","totalCost":"infinite"},"external":{"duration()":"infinite","end()":"infinite","owner()":"2611","releasable()":"infinite","releasable(address)":"infinite","release()":"infinite","release(address)":"infinite","released()":"2460","released(address)":"2886","renounceOwnership()":"infinite","start()":"infinite","transferOwnership(address)":"infinite","vestedAmount(address,uint64)":"infinite","vestedAmount(uint64)":"infinite"},"internal":{"_vestingSchedule(uint256,uint64)":"infinite"}},"methodIdentifiers":{"duration()":"0fb5a6b4","end()":"efbe1c1c","owner()":"8da5cb5b","releasable()":"fbccedae","releasable(address)":"a3f8eace","release()":"86d1a69f","release(address)":"19165587","released()":"96132521","released(address)":"9852595c","renounceOwnership()":"715018a6","start()":"be9a6555","transferOwnership(address)":"f2fde38b","vestedAmount(address,uint64)":"810ec23b","vestedAmount(uint64)":"0a17b06b"}},"storageLayout":{"storage":[{"astId":35,"contract":"contracts/PRCC_Vesting.sol:VestingWallet","label":"_owner","offset":0,"slot":"0","type":"t_address"},{"astId":1096,"contract":"contracts/PRCC_Vesting.sol:VestingWallet","label":"_released","offset":0,"slot":"1","type":"t_uint256"},{"astId":1100,"contract":"contracts/PRCC_Vesting.sol:VestingWallet","label":"_erc20Released","offset":0,"slot":"2","type":"t_mapping(t_address,t_uint256)"}],"types":{"t_address":{"encoding":"inplace","label":"address","numberOfBytes":"20"},"t_mapping(t_address,t_uint256)":{"encoding":"mapping","key":"t_address","label":"mapping(address => uint256)","numberOfBytes":"32","value":"t_uint256"},"t_uint256":{"encoding":"inplace","label":"uint256","numberOfBytes":"32"}}},"userdoc":{"kind":"user","methods":{},"version":1}}}}